:020000040801F1
:1000000038CD0620BD01010809480108C7010108D3
:10001000AB4301083528010859BB01080000000066
:10002000000000000000000000000000DF010108E7
:10003000E101010800000000010D0108697A0108D2
:10004000E7010108E7010108E70101083977010824
:10005000E7010108E7010108E7010108E7010108DC
:10006000E7010108E7010108E7010108E7010108CC
:100070004D2D0108752D01089D2D0108E70101088E
:10008000C52D0108ED2D0108E7010108E701010870
:10009000AD0400200B050020E7010108E70101087D
:1000A000E7010108E7010108E7010108E70101088C
:1000B000E7010108E7010108E7010108E70101087C
:1000C000E7010108E7010108E7010108E70101086C
:1000D000E70101080DBA010859BA010885BA0108FB
:1000E000CD350108E7010108E7010108E701010832
:1000F000E7010108E7010108E7010108E70101083C
:10010000E7010108E7010108E7010108E70101082B
:1001100089B90108E7010108E7010108E7010108C1
:10012000E7010108152E01083D2E0108E70101082D
:10013000E7010108E7010108E7010108E7010108FB
:10014000E7010108E7010108E7010108E7010108EB
:10015000E7010108652E0108DD2E0108B1BA01088A
:10016000E7010108E7010108E7010108E7010108CB
:10017000E7010108E7010108E701010800000000AC
:10018000E7010108E7010108B5B90108E1B9010873
:10019000E7010108E7010108E7010108E70101089B
:1001A000E7010108E7010108DFF80CD000F052FC7C
:1001B00000480047B14A020838CD06200A48804767
:1001C0000A480047FEE71EF0040F0CBFEFF308805B
:1001D000EFF309800FF0CEBAFEE7FEE7FEE7FEE799
:1001E000FEE7FEE7FEE7FEE7817F0108A9010108BF
:1001F00072B6704762B67047EFF3108072B6704700
:1002000080F31088704730BF704720BF7047B0FA46
:1002100080F0704790FAA0F0B0FA80F0704790FA42
:10022000A0F070472DE9F05F0546002092469B46FE
:1002300088460646814640241BE0284641464746FC
:10024000224600F083F953465A46C01A914110D312
:1002500011461846224600F06AF92D1A67EB01088C
:100260004F4622460120002100F061F917EB0009FA
:100270004E41201EA4F10104DFDC484631462A46E7
:100280004346BDE8F09F000038B5D0E90221491E81
:1002900001EB410102EBC1014268C1EB011102EB2C
:1002A00081010268C1EB011102EB8102D0E9043146
:1002B00001EB410103EB81013023A1F5527191FB68
:1002C000F3F4174D6C4302EBC41291FBF3F403FB00
:1002D000141100921A2902DB124B1A4400920C22CC
:1002E00091FBF2F3104C6343009C04EBC3130093A7
:1002F00091FBF2F302FB13110C4A08E0491E40F295
:10030000A324535C6343009C04EBC31300930029B4
:10031000F4DC0146684600F02FF9009838BD000073
:100320003F0C0F008051010067C20300F8FC020877
:1003300040EA01039B0703D009E008C9121F08C067
:10034000042AFAD203E011F8013B00F8013B521EE7
:10035000F9D27047D2B201E000F8012B491EFBD25E
:1003600070470022F6E710B513460A4604461946C0
:10037000FFF7F0FF204610BD421E12F8013F002B90
:10038000FBD111F8013B02F8013B002BF9D170477A
:1003900030B505462A460B4612F8010B13F8014BFF
:1003A00008B1A042F8D01CB1002802D06D1CF1E7C2
:1003B000284630BDCAB2401E10F8011F8A4202D042
:1003C0000029F9D100207047421C10F8011B0029B8
:1003D000FBD1801A704710B5002200E0521C835CEC
:1003E0008C5CA34201D1002BF8D1D8B2E1B2401A03
:1003F00010BD30B504460020034600E05B1C93426C
:1004000003D2E05CCD5C401BF8D030BD034611F850
:10041000012B00F8012B002AF9D11846704730B59E
:1004200005460020034600E05B1C934205D2EC5CCD
:10043000C85C201A01D1002CF6D130BD70B506463B
:100440000BF0DAFB046805460A220021304600F072
:10045000D9F82C6070BD30B480EA010202F000458A
:1004600030F0004221F0004013D090B1C30DD40D04
:10047000C2F31601C0F31600E41A41F4000140F47F
:1004800000027D34914201D3641C00E04900002C3D
:1004900002DA30BC002070474FF400000023914284
:1004A00001D3891A034340084FEA4101F7D151B102
:1004B000914202D14FF0004105E002D24FF001011C
:1004C00001E06FF0010103EBC450284430BC00F0A0
:1004D000D1B896230022114600F0D5B800F00042B2
:1004E00030F000400AD0C10D01F56071C0F3160074
:1004F00042EA0151C20840071143704700200146FB
:10050000704730B50B46014600202022012409E047
:1005100021FA02F59D4205D303FA02F5491B04FABC
:1005200002F52844151EA2F10102F1DC30BD202A9B
:1005300004DB203A00FA02F1002070479140C2F13A
:10054000200320FA03F3194390407047202A04DB6C
:10055000203A21FA02F00021704721FA02F3D0403C
:10056000C2F120029140084319467047014900F04A
:1005700003B800000CC1062010B500683C22B0FB97
:10058000F2F302FB1303B0FBF2F00B60B0FBF2F3EB
:1005900002FB1303B0FBF2F018224B60B0FBF2F346
:1005A00002FB1303B0FBF2F0021D8B600723B2FBCA
:1005B000F3F403FB1422800040F2B55300F66C30D4
:1005C0008A61B0FBF3F2B0FBF3F403FB1400443296
:1005D00080084A61C8613B2802D3920700D0401CC2
:1005E0000022074C13460A61E25C824203D8801A5B
:1005F0005B1C0B61F8E7401CC860084610BD00009A
:1006000004FD02082DE9F04791460F468046044656
:10061000002614F8015B2DB100F040FA0068405D3F
:10062000C007F6D12B2D02D02D2D18D0641E4A46BE
:100630003946204600F036FA27B13968A14201D187
:10064000C7F8008071054FF002040BD54042002826
:1006500003DD0BF0D1FA0460A007BDE8F08746F493
:100660008066E4E70028F8DA0BF0C6FA04606FF061
:100670000040F2E70029A8BF7047401C490008BFAE
:1006800020F00100704710B4B0FA80FC00FA0CF0C2
:1006900050EA010404BF10BC704749B1CCF12004FA
:1006A00021FA04F411FA0CF118BF01212143084387
:1006B000A3EB0C01CB1D4FEA00614FEA102042BFB3
:1006C000002010BC704700EBC35010440029A4BFA9
:1006D00010BC7047401C490008BF20F0010010BC4E
:1006E00070472DE9FE4F804681EA0300C00F0C469B
:1006F000009021F0004123F00045B8EB0200A94131
:1007000005D24046214690461C460B46024623F041
:100710000040104347D0270DC7F30A00C3F30A5126
:100720000290401A019040286BDAC3F3130040F4A2
:10073000801B0098924620B10023D2EB030A63EBA2
:100740000B0B01985946C0F140025046FFF7EFFEEF
:1007500006460D4650465946019A00F08DF910EBB9
:1007600008006141002487EA115284EAE7731A43C2
:1007700040D0009A62B3019A012A4FEA075215DC71
:10078000001B61EB02014FF0004202EA0752CDE983
:100790000042001C41F5801132462B4600F0E0F982
:1007A00003B0BDE8F08F40462146F9E7001B61EB3E
:1007B0000201001C41F5801300185B412018A2F5CE
:1007C000001747EB030140EAD570B6196D4111E0FF
:1007D0006D084FEA360645EAC0754FEA0752001B1E
:1007E00061EB0201001C41F5801149084FEA30001D
:1007F0000019514132462B4603B0BDE8F04F00F0DE
:10080000A0B90098012240000023D0EB020263EB64
:10081000E073009821464FEAE074B8EB000061EB0A
:100820000401E9E783F000435BE781F0004158E70A
:100830002DE9FE4F81EA030404F0004421F0004159
:1008400000944FF0000B23F0004350EA01045ED007
:1008500052EA03045BD0C3F30A54C1F30A552C4493
:10086000A4F2F3340194A0FB0254C1F3130141F448
:100870008011C3F3130343F4801301FB024400FB14
:10088000034E840A970A44EA815447EA8357A4FB3B
:10089000076802958D0A05FB07854FEA932C04FB38
:1008A0000C542705029D4FEA065847EA1637B5EB68
:1008B00008056EEB070C870E920E47EA811742EA95
:1008C0008312A7FB0201B6EB0B0164EB00042B0DB6
:1008D00043EA0C335E1844EB1C50DA465146E7FB02
:1008E0000201C5F313044FEA0B3343EA14534FEAF2
:1008F0000432019C43EA0603A4F10C040294009C18
:10090000CDE900B400F02CF903B0BDE8F08F002071
:100910000146F9E72DE9F04D81EA030404F0004BAC
:1009200021F0004514464FF0000A23F0004150EA40
:10093000050220D054EA01021DD0C5F30A57024631
:10094000C5F31303C1F31300C1F30A5640F4801535
:1009500043F48013A7EB0608101BD64608F2FD38B7
:1009600073EB050002D308F1010801E092185B4126
:10097000B8F1000F03DA00200146BDE8F08D002039
:100980004FF48011064684460EE0171B73EB0507F3
:1009900005D3121B63EB050306434CEA010C49081F
:1009A0004FEA300092185B4150EA0107EDD152EA5C
:1009B000030012D082EA040083EA0501084305D04F
:1009C000101BAB4106D20122002306E000224FF0AB
:1009D000004302E06FF0010253101AEB06004CEBEB
:1009E000085110EB0A0041EB0B01BDE8F04D00F09F
:1009F000A8B8C1F30A52C1F3130140F2FF3341F426
:100A000080119A4202DA00200146704740F23343D7
:100A10009A42A2F2334202DC5242FFF797BDFFF73F
:100A200086BD000030B5041E71F1000404DB4FF0F8
:100A30000044404264EB0101141E73F1000405DB25
:100A40001C464FF00043524263EB0403994208BF37
:100A5000904230BD064C074D06E0E06840F00103CF
:100A600094E8070098471034AC42F6D3FFF7A0FB98
:100A7000A0970308D0970308202A06DBCB17203A5B
:100A800041FA02F043EAE07306E041FA02F3D04093
:100A9000C2F1200291400843194670470048704750
:100AA00094FD02082DE9F05F824600780027154684
:100AB0008B460AF10104B946302801D09DB113E0FC
:100AC00014F8010B0127782803D0582801D045B12C
:100AD0000AE00DB1102D07D10027102514F8010BE5
:100AE00002E0082500E00A250026B0460EE005FBDE
:100AF000080005FB06F1012701EB10461FFA80F8FC
:100B0000B6F5803F00D3B94614F8010B294600F032
:100B100075F80028EBDABBF1000F05D00FB1641EA9
:100B200000E05446CBF80040B9F1000F06D00BF0BE
:100B300063F802210160C81EBDE8F09F48EA064044
:100B4000FAE710B5141E73F1000408DA401C41F1F5
:100B5000000192185B411A4301D120F0010010BD41
:100B60002DE9F04D92469B4611B1B1FA81F202E0B7
:100B7000B0FA80F220329046FFF7D9FC04460F46C7
:100B800040EA0A0041EA0B0153465A46084313D093
:100B9000114653EA010019D0C8F140025046FFF750
:100BA000D5FC05460E46504659464246FFF7BFFC67
:100BB000084305D0012004E020463946BDE8F08D09
:100BC0000020054346EAE0762C4337430A98630544
:100BD000E40AA0EB08000022FD0A44EA47540A3068
:100BE00002D500200146E9E7010510196941DDE958
:100BF000084500196941BDE8F04DA2E73A2800D246
:100C0000303820F02002412A01D3A2F13700884277
:100C100001D34FF0FF30704770B58C1810F8015BAE
:100C200015F0070301D110F8013B2A1106D110F885
:100C3000012B03E010F8016B01F8016B5B1EF9D189
:100C40002B0705D40023521E0DD401F8013BFAE70F
:100C500010F8013BCB1A921C03E013F8015B01F87A
:100C6000015B521EF9D5A142D8D3002070BD00000F
:100C700072B64EF62250CEF2000040F2FF01C0F2F2
:100C8000000101704FF0000080F3098804F0E2FFDA
:100C900041F2F460C2F20000016881F3088841F279
:100CA0007E60C2F2000041F27F61C2F200010A7868
:100CB000027041F2EC65C2F2000541F2F061C2F24D
:100CC00000010A682A60106880F30988EFF3148035
:100CD00040F0020080F31488BFF36F8FBDE8F00F7F
:100CE0000FBCBDE8005006BC62B6084718484FF07C
:100CF00080510160704716484FF080510160704785
:100D000072B6EFF3098020E9F00F41F2EC65C2F210
:100D100000052E683060744604F09CFF41F27E604E
:100D2000C2F2000041F27F61C2F200010A78027053
:100D300041F2F061C2F200010A682A6044F0F40E48
:100D40001068B0E8F00F80F3098862B670470000C1
:100D500004ED00E040F2593CC2F2000C604740F262
:100D60009D2CC2F2000C604770B50F4E0F4D104C19
:100D70007068A84209D04FF69C413046FFF7F1FA5F
:100D8000226831460BA0904775600D4844F8BC0FAF
:100D90000C4860600C48E0600C48A0600C48206182
:100DA0000C486061002070BD5C0E0120696A555AD4
:100DB0001C1700206170695F63616E5F646D0000E5
:100DC000BDC40108DDC90108EDC4010839CC010822
:100DD0005DC9010845C6010800EB81008260002062
:100DE0007047000070B50546094E084C0021726836
:100DF000A068904724212846FFF7B3FAE068401E18
:100E0000E060B168A0688847002070BDD40B012065
:100E10001C17002080780009704700002DE9F84376
:100E200080460D460024384F364E00217A68B0685F
:100E3000904704EBC40006EB800090F8F80110B373
:100E4000641C042CF5DB4FF4005C4FF0FF39042CDC
:100E500027D06868012831D000282FD02BA001238B
:100E600000901A461946604602F07AF804EBC40175
:100E700006EB8101002081F8F801B968B068884765
:100E80004846BDE8F88304EBC40006EB80008146C9
:100E900000F5FC702421FFF764FA012089F8F801BD
:100EA000D1E724A0012300901A461946604602F0BB
:100EB00057F8B968B06888474846E2E704EBC400D1
:100EC00006EB800404F2F914607820F0F000803022
:100ED000607028782070286800F0BEFA0146A0787B
:100EE00061F3C710A070297961F38610A070641EA9
:100EF000C8F80040F068401CF060B968B0688847E6
:100F00000020BEE7D40B01201C1700205B41706954
:100F1000204770696F5D204770692043746C2049D9
:100F20006E6974205661756C65204572726F72210E
:100F30000A0000005B417069204770696F5D2047BF
:100F400070692043746C20496E6974204572726F19
:100F5000722C204E6F205370616365210A000000DF
:100F6000F8B50446607800F077FAC1B2E07842073D
:100F700002D06268521C6260B1EBD01F10D04FF0FB
:100F8000005202EBB0104FEAB060C0F3C202E07052
:100F9000032A08D361F3C71020F03800E07002E0A4
:100FA00020F03800E070E078002600F007014FF4F0
:100FB0000055062924D2DFE801F0032A62C523EA9E
:100FC000C0F38011B1EBD01F1BD185A0022200908D
:100FD00001231146284601F0C3FFA07820F0F0005D
:100FE000A070A16809B1204688476660A07820F00B
:100FF0000F00401CA070E07820F00700401CE0705B
:10100000F8BDA07820F0F0008030A070F8BDC0F3EB
:101010008011B1EBD01F17D07BA0022200900123DA
:101020001146284601F09CFFA07820F0F000103017
:10103000A070E16809B1204688476660E07820F03A
:101040000700801CE070F8BD6068B0F5167FFAD923
:1010500077A00222009001231146284601F080FF6C
:10106000A07820F0F0005030A070E16909B120466E
:101070008847E07820F00700401DE070F8BDC0F31D
:101080008011B1EBD01F2AD155A00222009001237C
:101090001146284601F064FFA07820F0F000A0700F
:1010A000A16809B1204688476DA002220090012363
:1010B0001146284601F054FFA0784FF0805101EB13
:1010C00030104FEA3070A070216909B1204688477E
:1010D0006660E07820F00700C01CE070F8BD606832
:1010E0003C28FBD9A07800F00F00012802D002288C
:1010F00012D022E065A0022200900123114628466A
:1011000001F02EFFA07820F0F0003030A07061696F
:1011100099B12046884710E067A002220090012381
:101120001146284601F01CFFA07820F0F000403066
:10113000A070A16909B120468847E07820F0070037
:10114000E070F8BDC0F38011B1EBD01FF9D02EA034
:101150000222009001231146284601F001FFA078E9
:1011600020F0F0001030A070E16809B120468847F7
:1011700060683C2806D26660E07820F00700801C9A
:10118000E070F8BDE07820F00700E070F8BDC0F333
:101190008011B1EBD01F0CD1A07820F0F0006030AE
:1011A000A070216A0029F1D001B02046BDE8F040CE
:1011B000084715A00222009001231146284601F09D
:1011C000CFFEA07820F0F0001030A070E16809B1E7
:1011D00020468847E07820F00700E070F8BD000066
:1011E0005B417069204770696F5D204770692042DC
:1011F000746E204576656E74205B50524553535F84
:10120000444F574E5D210A005B4170692047706969
:101210006F5D204770692042746E204576656E745C
:10122000205B50524553535F55505D210A0000002A
:101230005B417069204770696F5D2047706920428B
:10124000746E204576656E74205B4C4F4E475F5040
:10125000524553535F53544152545D210A000000DC
:101260005B417069204770696F5D2047706920425B
:10127000746E204576656E74205B50524553535F03
:101280005245504541545D210A0000005B417069A0
:10129000204770696F5D204770692042746E204559
:1012A00076656E74205B53494E474C455F434C490D
:1012B000434B5D210A0000005B4170692047706963
:1012C0006F5D204770692042746E204576656E74AC
:1012D000205B444F55424C455F434C49434B5D2195
:1012E0000A00000070B50024154D1648296D064609
:1012F0008847052821D3E96C30468847114D103DB9
:1013000004EBC40005EB800090F8F811012903D12B
:1013100000F5FC70FFF724FE641C042CF0DB0024B5
:1013200004EB440005EBC000017E012902D1183016
:1013300000F066FA641C142CF2DB002070BD000083
:101340001C170020E40B01207FB5244824A1CDE91F
:10135000001001235D0300220321284601F000FE56
:101360004FF422712448FEF7FCFF244C2248E16C24
:101370001030884707200290A26E1F4902A89047AC
:10138000401C1FD03C341C4954F83C2C08311CA094
:1013900090471E4860651E48A0651E48E0651E48CF
:1013A00020661E48A0661E4860661E48E0661E480D
:1013B00020671E4860671E48A0671E48E06700203F
:1013C00004B070BD1CA0012300901A46194628469F
:1013D00001F0C6FD4FF0FF30F2E7000080F6020892
:1013E0005B417069204770696F5D20456E7465725E
:1013F0002025730A00000000D40B01201C170020D8
:101400006170695F6C6F636B000000005914010824
:101410000D150108B1140108E9160108B9160108F3
:10142000691501081D0E0108E50D0108D90D010817
:10143000150E0108E51201085B41706920477069CB
:101440006F5D204770696F204F70656E2065727206
:101450006F72210A000000001FB50B490191029034
:101460000A48416F01A88847401C02D0039804B085
:1014700010BD012306A000901A461946580301F03A
:101480006FFD4FF0FF30F2E7D40B01201C17002056
:101490005B417069204770696F5D204770696F20FC
:1014A0004F70656E206572726F72210A0000000035
:1014B0001FB50C4901910290022003900A48016F68
:1014C00001A88847401C02D0002004B010BD0123B1
:1014D00006A000901A461946580301F041FD4FF04E
:1014E000FF30F2E7D40B01201C1700205B4170692C
:1014F000204770696F5D204770696F204F70656E7F
:10150000206572726F72210A000000001FB50C4A3C
:101510000192029003910B48016F01A88847401C7B
:1015200002D0002004B010BD012307A000901A468D
:101530001946580301F014FD4FF0FF30F2E70000A8
:10154000D40B01201C1700205B4170692047706993
:101550006F5D204770696F204F70656E20657272F5
:101560006F72210A00000000F8B5044608684FF0C9
:10157000FF35032801D14A689AB100224FF4005682
:1015800088B1012829D0022841D0032845D038A0AD
:10159000012300901A461946304601F0E1FC002074
:1015A000F8BD2846F8BDA2706260E07801280AD034
:1015B00070B137A0012300901A461946304601F059
:1015C000CFFC2846F8BD60780021FFF79FFFE6E7D3
:1015D00060780121FFF79AFFE1E7A2706260E0788E
:1015E00001280AD070B12AA0012300901A4619469A
:1015F000304601F0B5FC2846F8BD60780121FFF7C0
:1016000085FFCCE760780021FFF780FFC7E7A27075
:1016100062606078FFF74CFFC1E70120A070486866
:1016200060608868A060C868E0602248C16C04F10E
:10163000100088476068002801DD401E6060E07887
:1016400001280AD070B112A0012300901A46194651
:10165000304601F085FC2846F8BD60780021FFF790
:1016600055FF9CE760780121FFF750FF97E70000E6
:101670005B417069204770696F5D20556E6B6E6FBE
:10168000776E204374726C20436F6465210A0000FA
:101690005B417069204770696F5D2047706F204320
:1016A000746C205661756C65204572726F72210AE8
:1016B000000000001C17002070B50546094E084CBC
:1016C00000217268A068904718212846FEF749FE5D
:1016D000E068401EE060B168A0688847002070BDE7
:1016E000D40B01201C1700202DE9F84380460D463D
:1016F00000242D4F2B4E00217A68B068904704EBF0
:10170000440006EBC000007E08B3641C142CF6DB1A
:101710004FF4005C4FF0FF39142C1FD0686801288B
:1017200029D0002827D021A0012300901A4619466D
:10173000604601F015FC04EB440106EBC1010020FA
:101740000876B968B06888474846BDE8F88304EB76
:10175000440106EBC10101200876D9E71DA0012351
:1017600000901A461946604601F0FAFBB968B06865
:1017700088474846E9E704EB440006EBC0002978B7
:1017800041762979C1761830C8F80000F068401C0D
:10179000F06003CDFFF7BAFEB968B0688847002053
:1017A000D3E70000D40B01201C1700205B417069B7
:1017B000204770696F5D2047706F2043746C20492B
:1017C0006E6974205661756C65204572726F722166
:1017D0000A0000005B417069204770696F5D204717
:1017E000706F2043746C20496E6974204572726F6B
:1017F000722C204E6F205370616365210A00000037
:1018000070B504461D4DA07804F11006296D00281E
:1018100011D0012831D130468847A16888422CD3A5
:101820000020A070E1786078FFF770FE3046E96C28
:10183000BDE870400847606800281ED030468847E1
:10184000E168884219D30120A0706068002801DD9A
:10185000401E6060E078012801D028B108E060787F
:101860000021FFF753FE03E060780121FFF74EFEF1
:101870003046E96CBDE87040084770BD1C17002079
:1018800070B586B02A482BA1CDE9001001239D0434
:1018900000220321284601F063FB2D492D480A68E8
:1018A000824202D1002006B070BD01C10220039027
:1018B0000520049003A80590274C04A8A26E904729
:1018C000401C4FF0FF360DD0032003902049A26E3C
:1018D0000C3104A89047401C0ED00BF079FD401C41
:1018E00014D017E01DA0012300901A46194628467F
:1018F00001F036FB3046D6E723A0012300901A46BC
:101900001946284601F02CFB3046CCE70BF072FE5E
:101910000BF0A0FE6034284954F8602C27A09047B3
:10192000294860672948A0672948E0670020BAE78E
:101930000BF702085B61706920726563206D616E50
:101940006167655D20456E7465722025730A00002D
:10195000D0360220696A555A1C1700205B617069F5
:1019600020726563206D616E6167655D20496E74EC
:10197000657220466C617368204F70656E206572D9
:10198000726F72210A0000005B61706920726563EA
:10199000206D616E6167655D20496E7465722046D9
:1019A0006C6173682042616B204F70656E206572B8
:1019B000726F72210A000000F80A02206170695FEC
:1019C0007265636F7264000035CE01087DCE010838
:1019D0002DD201080149016000207047CC0401208C
:1019E00070B586B0274828A1CDE9001001235D021B
:1019F00000220321284601F0B3FA002003900520BD
:101A0000049003A80590274C274904A8A26E90478C
:101A1000401C4FF0FF3620D0012003902249A26ED7
:101A2000083104A89047401C21D0204844F87C0F7E
:101A30001F4860601F48A0601F48E0601F48206189
:101A40007C3C00F06BF828B184340020A168884702
:101A500020688047002006B070BD19A001230090C7
:101A60001A461946284601F07BFA3046F3E71FA0D4
:101A7000012300901A461946284601F071FA3046B3
:101A8000E9E700006DF602085B4170692053797345
:101A900020506172616D5D20456E74657220257302
:101AA0000A0000001C170020BC040120D519010801
:101AB000091F0108751E01081D1B01082D1D0108C5
:101AC0005B4170692053797320506172616D5D20B4
:101AD000496E74657220466C617368204F70656E44
:101AE000206572726F72210A000000005B4170690C
:101AF0002053797320506172616D5D20496E746569
:101B00007220466C6173682042616B204F70656E75
:101B1000206572726F72210A000000002DE9F04FFB
:101B20008DB04FF0FF35554855A1CDE90010012388
:101B300000220321580201F013FA584808904FF48C
:101B40006177099700F110060B960DF10808CDF8A2
:101B500030804FF00009CDF80890DFF844A108A8C4
:101B6000DAF874108847BA1E3146002001F072FF7F
:101B7000B6F88213A6F1080404F5637B814239D1DB
:101B8000002508940997CDF82CB0CDF83080CDF819
:101B90000890DAF8741008A88847BA1E5946002041
:101BA00001F058FF0146BBF8820388420CD1B6F819
:101BB0008213884208D13BA00123009003221946DA
:101BC000580201F0CDF955E00123454800901A462E
:101BD0001946580201F0C4F9049405970696CDF809
:101BE0001C80CDF8089001200390DAF8701004A84A
:101BF00088473FE001233B485E0200901A461946A1
:101C0000304601F0ADF908940997CDF82CB0CDF825
:101C10003080CDF80890DAF8741008A8884740F2B0
:101C200082323149002001F015FFBBF88213814256
:101C300018D12E480123009003221946304601F0A6
:101C40008FF90025154804900597CDF818B0CDF808
:101C50001C80CDF8089001200390DAF8701004A8D9
:101C6000884707E022A0012300901A461946304613
:101C700001F076F90DB02846BDE8F08F24F6020891
:101C80005B4170692053797320506172616D5D20F2
:101C9000456E7465722025730A000000BC040120A3
:101CA0001C1700205B4170692053797320506172CA
:101CB000616D5D2053797374656D20436F6E666945
:101CC000672047657420537563636573732C2050D8
:101CD0006169722053756363657373210D0A000097
:101CE000B89003082090030850080120689003086A
:101CF0005B4170692053797320506172616D5D2082
:101D000053797374656D20436F6E666967205368FD
:101D100061646F7720536563746F72204765742028
:101D20004572726F72210D0A000000002DE9FC411E
:101D300007463B493BA2CDE90021012300220321B4
:101D4000580201F00DF93E4C00254FF46176DFB9E1
:101D500031462046FEF705FB522004F8620F3A2078
:101D600060708020A070E570257101206071623C78
:101D7000344835A31968C1649988A0F850100F221F
:101D800033A17E30FEF7D4FAC02204F8502FA823E6
:101D900063702C21A1705820E070FF2020716071C9
:101DA000A071E57122726372A1721420E072E120C9
:101DB000207365730220A0730B20E07341F6CB60A3
:101DC000208284F87C501E4825A170300968016784
:101DD0006E2180F87410092223A1D430FEF7A8FAEE
:101DE00084F8955084F8FD5084F85851207D04F80B
:101DF0004F0C607D04F84E0CA07D04F84D0CE07D86
:101E0000503C207125707D20A4F80500E57102B0DA
:101E10003246BDE8F0410A4901F56170FEF788BA23
:101E20004EF602085B41706920537973205061724D
:101E3000616D5D20456E7465722025730A00000097
:101E4000CC0401203C0601204454552D534600008B
:101E50005030313136323234343232303130380071
:101E600061646D696E00000048696B31323334354E
:101E70002B00000010B588B0184819A1CDE900105A
:101E8000012300220321580201F06AF840F2823255
:101E90001A49002001F0DEFD1849A1F882034FF431
:101EA00061742246A1F56170FEF742FA144804906D
:101EB00005941030069002A807900020029001209F
:101EC0000390104C04A8216F88470D4808300490F7
:101ED000216F04A8884708B0002010BD3BF6020817
:101EE0005B4170692053797320506172616D5D2090
:101EF000456E7465722025730A00000050080120A9
:101F0000BC0401201C17002001490160002070471B
:101F10005008012010B5044600F08AFD0BF070FC5B
:101F20002046BDE810400BF0DDBB0000F0B589B0E5
:101F300006460F4615461F4C02A8E26C90470496D1
:101F4000002005908DF819008DF818008DF81A50B2
:101F50002A4639460DF11B00FEF7EAF9164F04A98F
:101F600038460BF0D8FD06464FF4FA7507E03146C7
:101F700038460BF043FE01280ED0082811D0226D00
:101F800002A89047A842F2D9314638460BF020FE0D
:101F90004FF0FF3009B0F0BD216E012088470020CE
:101FA000F8E7012305A000901A461946180400F02E
:101FB000D7FFE9E71C170020006400405B43616E17
:101FC0005D2063616E302073656E64206572726F90
:101FD00072210A002DE9FC4781460D461646002471
:101FE000F01706EB50704FEAE00820F00700371AB0
:101FF0001DA04FF4803A0090012300220521504695
:1020000000F0AEFF0AE0285D1AA1CDE90010002320
:102010001A460521504600F0A3FF641CB442F2DBCF
:1020200016A0002300901A460521504600F098FFA4
:1020300000240BE005EBC40108224846FFF776FFB9
:1020400018B14FF0FF30BDE8FC87641C4445F1DB5C
:1020500047B102B0FAB205EBC4014846BDE8F0470B
:10206000FFF764BF0020EEE763616E2073656E6466
:102070003A0A000025303258200000000A00000013
:10208000012017F01BBE000010B5094901EB001438
:10209000208817F043FF41F20E1017F03FFFD4E9FC
:1020A00002326068BDE8104000210DF01CBB00004A
:1020B000B0140020034901EB0010816840680DF066
:1020C0000BBB0000B0140020034901EB0010816835
:1020D00040688161704700000013002070B505461C
:1020E0000E4800EB0514208817F018FFD4E901030F
:1020F000002201210DF0F7FAD4E9010302220021A8
:102100000DF015FBE06820B12846BDE87040FFF7F0
:10211000DBBF2846BDE8704000F002B80013002085
:10212000034901EB0010816840688162704700003C
:1021300000130020034901EB001081684068C16270
:10214000704700000013002006480078002804D0E3
:10215000012804D04FF0FF30704700207047012065
:10216000704700005015002010B541F21C0017F018
:10217000D5FE13F007FC05F08FFA22480068A0F5A1
:102180004851F03902D005F0A3FA14E041F61B5093
:1021900017F006FE1C4C20B941F6195017F000FE4E
:1021A00010B10020207006E041F61A5017F0F8FD3B
:1021B00008B10120207017F06FFD4FF48004204615
:1021C0000DF070F90022114620460DF071F9002241
:1021D0001146032012F092FF20460DF063F9201300
:1021E00017F004FF201217F0A1FF042017F0E0FF02
:1021F000002018F035F818F023F8BDE8104000F082
:1022000005B80000502800405015002010B58CB0D3
:10221000124817F0BDFE114C207805F027FA643003
:102220000690607805F022FA401E0590A07805F02F
:102230001DFA0490207905F019FA0390607905F0F1
:1022400015FA0290A07905F011FA019001A8FEF7A5
:102250001BF80CB0A0F5E14010BD000010060320F3
:102260002DE9F05F0446DDF828B0884691469A468D
:102270004FF4800528460DF015F9032012F033FFC6
:102280002E13304617F0B2FE2F12384617F034FFE7
:1022900017F0B4FF204605F0F2F91E4C20704046BE
:1022A00005F0EDF96070484605F0E9F9A0700020EE
:1022B0002061504605F0E3F92071584605F0DFF93A
:1022C00060710B9805F0DBF9A071204617F0A0FEB5
:1022D000044628460DF0E6F80022114628460DF087
:1022E000E7F800221146032012F008FF28460DF0FF
:1022F000D9F8304617F07AFE384617F017FF042059
:1023000017F056FF002017F0ABFF17F099FF20469B
:10231000BDE8F09F1006032010B588B040F60440D9
:1023200017F0FCFD41F20D1017F0F8FD0120FFF74A
:10233000D5FE134C6422052120460DF09BF9642341
:102340000022022120460DF0CEF964230322002151
:1023500020460DF0ECF9002002904FF482710191BB
:10236000039006906115049107900590054C01A912
:10237000204617F0EAFF204617F0D6FF08B010BD40
:102380000010024000340140A52000F001B8000018
:1023900070B505460A4C0221204617F0CFFF0028F1
:1023A000F9D02946204617F0C7FF0121204617F033
:1023B000C5FF0028F9D0204617F0BBFFC0B270BDA2
:1023C000003401402DE9F04F91B0054605EBC50002
:1023D00000EB05117E4800EB4104676AD4F82D80BC
:1023E0007C48415D5A297DD05A2141554FF40471F2
:1023F0003846FDF7B6FFA41CA08817F08FFD608853
:1024000017F08CFDE08817F089FDE2686169A0682B
:102410000DF030F922696169A0680DF02BF9E368CD
:10242000A068012202210DF05EF9E368A068022293
:1024300000210DF07CF92369A068012202210DF032
:1024400052F92369A068022200210DF070F954F8B6
:10245000020C1BF093FED4F81E1054F8020D1BF072
:1024600025FE206804211BF045FF206808211BF091
:1024700047FF4FF4A06012F087FE002294F8280076
:10248000114612F03BFE206853491BF005FF54F83B
:10249000020B1BF0EFFE217FA0693D220BF08BFDAC
:1024A000217FA0690BF04DFD00260E9610370A978C
:1024B0000B960C964FF40079CDF83C9054F8020C32
:1024C000001D08900D96012709974FF4403ACDF86A
:1024D00040A00AA91C228B466846FDF729FF217FF0
:1024E000A06900E026E03B46089A0BF001FE217F40
:1024F000A0690BF01DFD627F217FA0690BF004FD38
:10250000002294F82700114612F0F8FD217FA069FF
:1025100010220BF041FD217FA0690BF0ECFC54F878
:10252000020C40211BF09AFE94F82800A41E0128FA
:1025300005D04AE04FF0FF3011B0BDE8F08F2946DA
:1025400026A009F01BFB12343D22617EA0680BF02F
:1025500032FD617EA0680BF0F4FC40200E9008F57F
:102560000578CDF828800B960C96CDF83C9054F861
:10257000120C001D08900D97CDF840A01C22594662
:102580006846FDF7D5FE617EA0683B46089A0BF0D1
:10259000AFFD617EA0680BF0C2FCA27E617EA068E8
:1025A0000BF0B2FC0022E07F114612F0A7FD617E25
:1025B000A06810220BF0F0FC617EA0680BF092FC8A
:1025C00054F8120C00211BF04FFE0020B4E700006D
:1025D000A9F90208F8120020100000105561727469
:1025E00020496E64657820257520547820446D61FB
:1025F00020496E69740D0A0070B500EBC00101EB53
:1026000000111E4800EB41056C6AA97FD5F81A003D
:1026100001EB4102102303EBC2028258D20718D00B
:102620000BF0B8FDC0F500706080A088012811D0C3
:10263000A08801280DD9A97FD5F81A000BF052FC0B
:10264000286800211BF00AFE6088401CC0F30800C7
:10265000208070BD608821888842FAD3A97FD5F890
:102660001A000BF03FFC286800211BF0F7FD608882
:10267000401CC0F30800208070BD0000A9F90208CA
:1026800070B500EBC00101EB0012194901EB4204E7
:10269000656AA27FD4F81A1002EB4202102303EB02
:1026A000C2028958C90722D129886A8891421ED15D
:1026B000014610A009F062FA002028806880A880F6
:1026C000A41C3D22217FA0690BF075FC217FA0692D
:1026D0004FF400720BF058FD217FA0690BF00BFC4A
:1026E00054F8020CBDE8704040211BF0B7BD70BD2E
:1026F000A9F90208496E646578256420526553740F
:1027000061727420444D41205472616E736D69741E
:1027100074696E67202E2E2E0D0A000000EBC0019A
:1027200001EB0010034901EB4000406A8188491C1D
:1027300081807047A9F9020870B54FF0FF3400EBB3
:10274000C002104B02EB001203EB4202526A1388E4
:102750005588AB420CD0148802F11003E35C0B7077
:102760001188491CC90507D01188491C1180002413
:10277000FFF786FF204670BD9188491E9180002199
:102780001180F4E7A9F902082DE9FC4107460D463E
:102790001646002416A0CDE900074FF40068012377
:1027A00000220521404600F0DBFB0BE0285D14A170
:1027B000CDE9001000231A460521404600F0D0FB69
:1027C000641CA4B2B442F1D30FA0002300901A46B7
:1027D0000521404600F0C4FB002405E0295D384691
:1027E00000F014F8641CA4B2B442F7D3BDE8FC8135
:1027F000756172742025752073656E643A0A000055
:1028000025303258200000000A00000010B500EB0F
:10281000C00202EB0012064800EB420420681BF0E5
:10282000A9FC206807211BF02AFD0028F9D010BD63
:10283000A9F9020802A009F0A1F901F0E7FF0000E0
:102840005B4275734661756C745F48616E646C655C
:10285000725D0D0A0000000010B500F0A3F800F052
:1028600005F8BDE8104000F09BB800002DE9F041EC
:10287000104E002737807780B760F7607761B761C7
:1028800037610025FDF7B8FC80460024776100F031
:1028900049F800F059F870690544641CA4B2002C92
:1028A000F4D035617761B7614046BDE8F041FDF78E
:1028B000A7BC0000F816002003490969884201D925
:1028C000401A704700207047F816002010B5FDF739
:1028D00093FC04494C69FDF793FC2046BDE8104089
:1028E000FFF7EABFF816002010B5FFF7EFFF044628
:1028F000FDF782FC034A00215161FDF781FC20466F
:1029000010BD0000F816002010B5FDF775FC044955
:102910008C69FDF775FC2046BDE81040FFF7CCBF81
:10292000F816002010B5074C2088401C20806088D5
:10293000002802D100F05CF8A0606088401C608034
:1029400010BD0000F816002010B50A4C6088401E2B
:1029500080B2608000280CD100F04AF8E060A168E5
:10296000401A6169814200D26061A169814200D24E
:10297000A06110BDF816002010B5FDF73DFC04461F
:10298000FFF7D0FF1021054801F010FDFFF7DCFF35
:102990002046BDE81040FDF733BC0000FCC0062017
:1029A000FFF7EABF02490020486000F009B80000C4
:1029B000F81600200149486070470000F816002012
:1029C00010B5FFF75DFB08490A6842F080720A60A3
:1029D000064900224A600A6842F001020A60BDE826
:1029E0001040FFF7E7BF0000FCED00E0001000E042
:1029F0000148406870470000001000E070B50024F6
:102A0000074D07E00E5D4640F6B255F8266086EAAF
:102A10001020641C9442F5D3002B00D0C04370BD3D
:102A200024F20208014804F0B1BE0000C8C202202E
:102A3000034B0C224FF44871A3F1140004F0C0BE04
:102A4000DCC202200146014804F0D2BEC8C2022006
:102A50000146014804F0E8BEC8C20220F0B40746AF
:102A6000184600250026002419E04B5DA3F1300C28
:102A7000BCF1090F09D804EB84046400303C1C4409
:102A8000FF2C0AD90020F0BC70472E2B01D000206B
:102A9000F9E784550024761CF6B26D1CEDB2954220
:102AA000E3D3032E01D00020EDE7E2B2C27001783B
:102AB0007F2903D021B1FF2904D00BE00220E2E7F7
:102AC0000220E0E74378FF2B04D18378FF2B01D16C
:102AD000FF2A05D0012F05D0DF290AD90020D2E72F
:102AE0000220D0E7FF2A02D0F0BC01F091B800200C
:102AF000C9E70120C7E7F0B500240025002317E04F
:102B0000065DA6F13007092F08D803EB83035B00AD
:102B1000303B3344FF2B09D90020F0BD2E2E01D0CD
:102B20000020F0BD535500236D1CEDB2641CE4B2CF
:102B30008C42E5D3032D01D00020F0BDD9B2D17075
:102B400010787F2803D020B1FF2804D00BE00220AA
:102B5000F0BD0220F0BD5378FF2B04D19278FF2AFC
:102B600001D1FF2904D0E038102803D20120F0BDA4
:102B70000220F0BD0020F0BDF0B5002400250023A8
:102B800017E0065DA6F13007092F08D803EB830391
:102B90005B00303B3344FF2B09D90020F0BD2E2EC3
:102BA00001D00020F0BD535500236D1CEDB2641C14
:102BB000E4B28C42E5D3032D01D00020F0BDD8B2A1
:102BC000D070117821B9537813B9937803B910B143
:102BD000FF2902D009E00020F0BD5378FF2B04D17B
:102BE0009278FF2A01D1FF2803D0DF2903D90020E2
:102BF000F0BD0020F0BD0120F0BDFEB50746164631
:102C00000020029001900090002302AD01A86A46C6
:102C1000FC5C11F803C004EA0C04EC5411F803C086
:102C200064EA0C04C454F45C11F803C004EA0C0414
:102C3000D4545B1CDBB2042BEAD3042202A96846FD
:102C4000FDF7D7FB08B10220FEBD042202A93046E1
:102C5000FDF7CFFB98B1042201A93046FDF7C9FB6F
:102C600078B1042202A93846FDF7C3FB58B104220B
:102C700001A93846FDF7BDFB38B10120FEBD032098
:102C8000FEBD0420FEBD0520FEBD0620FEBDF0B544
:102C900000230024002500261FE0C25CA2F12007CB
:102CA0000F2F08D91A3F062F05D9213F052F02D92A
:102CB000203F032F01D801240DE0A2F13007092F96
:102CC00001D8012507E0A2F14106192E02D9613A87
:102CD000192A09D801265B1CDBB28B42DDD334B143
:102CE0002DB126B10020F0BD4FF0FF30F0BD6FF0E8
:102CF0000100F0BDFDF780BA10B5FDF781FA0020A4
:102D000010BD08B5684602F06FFABDF8000008BDB6
:102D100008B5684602F08EFABDF8000008BD000054
:102D20000648054901620649416206498162064931
:102D3000C162002070470000032D01081C1700200D
:102D4000112D0108F52C0108F92C010810B5084CCB
:102D50002022012120460BF049F910B10220FFF793
:102D6000DDFC20463D22BDE8104001210BF023B9D7
:102D70000060024010B5084C2022022120460BF0D2
:102D800035F910B10320FFF7C9FC20463D22BDE80C
:102D9000104002210BF00FB90060024010B5084C42
:102DA0002022032120460BF021F910B10520FFF766
:102DB000B5FC20463D22BDE8104003210BF0FBB8D6
:102DC0000060024010B5084C2022052120460BF07F
:102DD0000DF910B10120FFF7A1FC20463D22BDE80E
:102DE000104005210BF0E7B80060024010B5084C18
:102DF0002022062120460BF0F9F810B10620FFF73B
:102E00008DFC20463D22BDE8104006210BF0D3B8D2
:102E10000060024010B5084C2022012120460BF032
:102E2000E5F810B10420FFF779FC20463D22BDE80B
:102E3000104001210BF0BFB80064024010B5084CEF
:102E40002022022120460BF0D1F810B10020FFF71C
:102E500065FC20463D22BDE8104002210BF0ABB8D6
:102E60000064024070B51B4DD5F8F5401A4E202283
:102E7000062130460BF0BAF8002829D03D22062161
:102E800030460BF098F8D635697FE8680BF02AF8E1
:102E900055F80E0C00211BF0E7F92189002039B10B
:102EA000618822891144C1F30801618020810DE00D
:102EB000B4F8101251B1B4F80A12B4F81022114447
:102EC000C1F30801A4F80A12A4F810025A202080C5
:102ED00070BD0000A9F902080064024070B51B4DE6
:102EE000D5F82D401A4E2022072130460BF07EF8EF
:102EF000002829D03D22072130460BF05CF895F8D8
:102F00002B10D5F81A000AF0EDFF286800211BF0FD
:102F1000ABF92189002039B1618822891144C1F3BC
:102F20000801618020810DE0B4F8101251B1B4F8AD
:102F30000A12B4F810221144C1F30801A4F80A12CD
:102F4000A4F810025A20208070BD0000A9F90208E0
:102F50000064024010B50320FFF734FA002010BDD2
:102F60000FB42DE9F04F8FB01E464FF00009CDF899
:102F70003090CDF83490CDF8389000240025D44816
:102F80000DF17408007800287CD1D2481899806827
:102F9000084277D0D04919980978884272D8CF4F23
:102FA00040F2DC513888C0F5A05088426AD3DFF87F
:102FB00030A3DAF82000804738887988884203D126
:102FC000A7F80290A7F80090DFF818B39BF800006C
:102FD00038B93888C4A13844001D08F0DFFD84B238
:102FE000254601208BF80000BD48816C08A8884761
:102FF000089800F5E1400B900BA8FDF7B7FA42697D
:10300000642102F26C7292FBF1F303F0FF0A8DF877
:1030100030A092FBF1F301FB132101F0FF0B8DF8BF
:1030200031B0017C491CC9B28DF83210027B8DF899
:103030003320D0F808C018239CFBF3FE03FB1EC30B
:10304000DBB28DF8343090F804C08DF835C00078CC
:103050008DF83600DDF868E0BEF1010F7ED0BEF1DC
:10306000020F7CD0BEF1030F7AD086B1099C8DE8A7
:103070000E10CDE9040438885B46C119281D0844A8
:10308000524600E020E099A108F088FD84B228199A
:1030900084B242463888C119201D08441C9908F0A2
:1030A00099FDCDF82890204484B238881B22C1199C
:1030B000201D084497A108F071FD20443988084478
:1030C00038808748406A80478248189942680A4297
:1030D0005FD00078199981425BD8814C206A804783
:1030E000A16C08A88847089800F5E1400B900BA850
:1030F000FDF73CFA4269642102F26C7292FBF1F333
:10310000DFB28DF8307092FBF1F301FB132101F077
:10311000FF0C8DF831C0017C491CCDB28DF83250C6
:10312000017B8DF833108368182293FBF2FA02FBBF
:103130001A32D2B28DF8342003798DF83530007808
:103140008DF83600DDF868A0BAF1010F72D0BAF13F
:10315000020F70D0BAF1030F6ED002E01EE03BE028
:1031600058E056B1099ECDE903068DE80E002B46C6
:10317000624639465DA008F001FD41461C9808F002
:1031800021FDCDF828901B2162A008F0F7FC606AB1
:1031900080470FB0BDE8F00F5DF814FB96B1099CB5
:1031A000CDE9033CCDE900B1CDE9050402923888B0
:1031B0005346C119281D08441B2259A108F0EEFCF2
:1031C00084B264E738881B22C119281D084460A115
:1031D00008F0E4FC84B25AE796B1099CCDE9033CBF
:1031E000CDE900B1CDE90504029238885346C119F2
:1031F000281D08441B2259A108F0D0FC84B246E7E0
:1032000038881B22C119281D084460A108F0C6FC9B
:1032100084B23CE7B6B1099CCDE9033CCDE900B1ED
:10322000CDE90504029238885346C119281D084487
:103230001B2202E010E023E036E057A108F0AEFCCC
:1032400084B224E738881B22C119281D08445EA1D6
:1032500008F0A4FC84B21AE76EB1099ECDE90223FE
:10326000CDE90406CDE9005163463A461B212CA066
:1032700008F084FC81E71B2135A008F07FFC7CE787
:103280006EB1099ECDE90223CDE90406CDE90051D6
:1032900063463A461B2131A008F070FC6DE71B2104
:1032A0003AA008F06BFC68E76EB1099ECDE90223F5
:1032B000CDE90406CDE9005163463A461B2136A00C
:1032C00008F05CFC59E71B213FA008F057FC54E7CD
:1032D0001E1100205C1500201F11002020C80010C6
:1032E0001C1700201D1100200D0A0000253032643B
:1032F000253032642D253032642D2530326420256E
:103300003032643A253032643A253032643A25301E
:103310003364200025635B303B33376D00000000D1
:1033200025635B313B33316D2530326425303264A7
:103330002D253032642D2530326420253032643A18
:10334000253032643A253032643A25303364200027
:1033500025635B313B33316D0000000025635B3139
:103360003B33336D25303264253032642D253032C5
:10337000642D2530326420253032643A25303264A1
:103380003A253032643A25303364200025635B31BE
:103390003B33336D0000000025635B313B33326DFE
:1033A00025303264253032642D253032642D2530AD
:1033B000326420253032643A253032643A25303286
:1033C000643A25303364200025635B313B33326D32
:1033D00000000000024801884088081A7047000079
:1033E00020C800102DE9F0414FF480641F4E306872
:1033F000002839D0007E042836D11D4D1D4FA0462F
:1034000030E0288869884446401AA04200DA84B235
:1034100044B3386A804716486988001D0144012377
:103420002246306818F06BFFA0B131681248B1F83D
:10343000662008F0A3FB306820B117F003FE306867
:1034400017F044F800206880288030600B4908702D
:103450000B498860688820446880306817F0F2FD66
:10346000786A80474445CCD0BDE8F081381100200F
:1034700020C800101C170020DC9603081F11002034
:103480005C150020F0B589B0284DA86A804728490E
:103490000C68E96A8847274800900123002203212D
:1034A0000220FFF75DFD24A00090012300220321EC
:1034B0000220FFF755FD2CA00090012300220321DC
:1034C0000220FFF74DFD25E034F8880FFDF701F8E5
:1034D0003149FCF7C0FFFDF701F8D4E90823642661
:1034E000D7185643B6FBF7F654F8687CCDE90717B2
:1034F000069014F8510C01A94DC128A00090012399
:10350000002203210220FFF72BFDA86A8047246BCD
:10351000E96A8847002CD7D12B480090012300226C
:1035200003210220FFF71CFD09B0F0BD1C1700208D
:10353000B01600205093030820D3C5CFC8BCB620D6
:10354000CAB9D3C3D5BB20CAA3D3E0D5BB20B0D959
:10355000B7D6B1C820C0FBD3C3C2CA202020C8CE72
:10356000CEF1C3FB0D0A000020205072696F2020AD
:1035700020557365642020467265652020205065C3
:103580007220202020435055202020202054617399
:103590006B6E616D650D0A000000C8422020202579
:1035A0003264202025356420202535642020202504
:1035B000303264252520202025352E326625252011
:1035C000202025730D0A00000C93030810B54FF45A
:1035D000806420460BF0ACFF2046BDE810400BF0A5
:1035E000A1BF00007CB50546044C6846E16C8847E5
:1035F000216D68468847A842FAD97CBD1C17002077
:1036000010B51120FEF78CFD6420FFF7EBFF1120B1
:10361000FEF75AFDBDE810406420FFF7E3BF00004D
:1036200070B504460D460BF0E7FFD3200BF090FF7A
:10363000204600F02FFA0446284600F02BFA0646F2
:10364000084D09E055F824000BF096FF18B10BF077
:1036500085FF012070BD641CB442F3D90BF07EFFDE
:10366000002070BD7C12002030B50023074C07E01D
:1036700005682D6841F8235005682D1D05605B1C09
:10368000934202D20568A542F2D930BDFBFF1F0864
:103690002DE9F04105460E46174600240BF0ACFF1D
:1036A000D3200BF055FFDFF8488018E056F82410BF
:1036B00028680BF0B3FF20B10BF050FF0120BDE8EC
:1036C000F081286856F824100068884203D00BF077
:1036D00045FF0220F3E72868001D2860641CBC42F7
:1036E00002D228684045E1D90BF038FF0020E6E718
:1036F000FBFF1F0800B587B0074803900020049027
:10370000059001A906910190012002900348016FE4
:1037100003A8884707B000BD200F00201C17002019
:1037200007B588B0074803900492069101A8079056
:1037300008980190002002900348416F03A8884731
:103740000BB000BD200F00201C17002000B587B073
:103750000A4A039289000491059001A8069008483E
:10376000416801910021029104994268114441602D
:103770000448016F03A8884707B000BD200F002050
:10378000080F00201C1700202DE9F05F06460D46AB
:1037900091469B460024244FA24607F1080838783A
:1037A00000281ED0FF200CE0A54205D9315D5A1C2F
:1037B0003A7008F8031003E0591C397008F8030048
:1037C000641C3B78032BEFD9174801210830FFF721
:1037D000BDFF401C17D087F800A0A54201D92644A0
:1037E0002D1BA80805F0030393B1D9450FD0741918
:1037F000E11A0D7839784A1C3A7008F801505B1EBE
:10380000002BF5D104E04FF0FF30BDE8F09F401CE5
:1038100028B101463046FFF799FF401C01D0002037
:10382000F3E74FF0FF30F0E7080F002070B50546D2
:10383000224C2078627890423ED0A0780A2301463C
:10384000401CB0FBF3F603FB1606964201D09142F2
:1038500016D101EBC10000EB011004EB4000C01CCD
:10386000FCF7B2FD0246A07800EBC00101EB0010AE
:1038700004EB4001C91C2846FCF75AFDFF2070BD2F
:10388000B0FBF3F103FB1100A07000EBC00101EBF2
:10389000001004EB4000C01CFCF796FD0246A07827
:1038A00000EBC00101EB001004EB4001C91C2846ED
:1038B000FCF73EFD012070BD002070BD46D6002003
:1038C00070B505461F4C21786078814237D0A078CA
:1038D000814216D100EBC00101EB001004EB400067
:1038E000C01CFCF771FD0246A07800EBC00101EBA3
:1038F000001004EB4001C91C2846FCF719FDFF200D
:1039000070BDC8B1401EA070A07800EBC00101EBF3
:10391000001004EB4000C01CFCF756FD0246A078E6
:1039200000EBC00101EB001004EB4001C91C28466C
:10393000FCF7FEFC012070BD0920A070E4E7002028
:1039400070BD000046D600207CB505460E4600241A
:103950001AA0CDE900050123002219462020FFF717
:10396000FFFA06E0281905221AA1FCF758FD28B134
:10397000641CB442F6D340F2FF307CBDA41D00208D
:1039800017E0295D3039092911D828190446FCF7B8
:1039900055FD12A1CDE90010012303221946202074
:1039A000FFF7DEFA2046BDE87C40FCF747BD641C0B
:1039B000401C311B8142E4D8DDE7000046696E649B
:1039C0005F557067726164654D6F64756C65202525
:1039D000730D0A00646576696400000066696E64B0
:1039E000206465766964202575206E6565642075A0
:1039F0007067726164652E2E2E0D0A002DE9FC475A
:103A000006460F46904699460024354606E028199A
:103A10004A464146FCF703FD30B1641CBC42F6D374
:103A20004FF0FF30BDE8FC8705A0CDE9000601237B
:103A3000032219462020FFF793FA2046F2E7000000
:103A400046696E645F626F756E646172792025737A
:103A50000D0A00002DE9F04100244FF6FF7741F2F6
:103A6000210C12E000230E5D00F4004806FA03F575
:103A700005F0800585EA182507EA40000DB180EAC7
:103A80000C005B1C082BEFDB641C9442EADBBDE8F6
:103A9000F081000010B501460020A1F100624FF452
:103AA00080439A4204D345480844984201D20120F9
:103AB00010BD43480844984201D2022010BD41483D
:103AC0000844984201D2032010BD3F484FF480348F
:103AD0000844A04201D2042010BD3C484FF40032FB
:103AE0000844904201D2052010BD39480844904254
:103AF00001D2062010BD37480844904201D2072069
:103B000010BD35480844904201D2082010BD33480A
:103B10000844904201D2092010BD31480844904227
:103B200001D20A2010BD2F480844904201D20B2038
:103B300010BDA1F10160984201D20C2010BD2A48AD
:103B40000844984201D20D2010BD284808449842EC
:103B500001D20E2010BD26480844984201D20F2001
:103B600010BD24480844A04201D2102010BD2248B4
:103B70000844904201D2112010BD204808449042D0
:103B800001D2122010BD1E480844904201D21320D9
:103B900010BD1C480844904201D2142010BD1A48A0
:103BA0000844904201D2152010BD184808449042A4
:103BB00001D2162010BD172010BD000000C0FFF775
:103BC0000080FFF70040FFF70000FFF70000FEF75E
:103BD0000000FCF70000FAF70000F8F70000F6F725
:103BE0000000F4F70000F2F700C0EFF70080EFF7F5
:103BF0000040EFF70000EFF70000EEF70000ECF7F1
:103C00000000EAF70000E8F70000E6F70000E4F73C
:103C1000002102781202437813431B0282781A4370
:103C20001202C078104302E04008491CC9B2C20722
:103C3000FAD000B121B9002070474008491CC9B230
:103C4000C207FAD108B9202901D00020704701200D
:103C5000704700008CB000240A9400F0CBFB63484E
:103C6000C16F0AA8884762484FF47A710068B0FBB8
:103C7000F1F0401EB0F1807F08D24FF0E0214861A2
:103C80005C4AF02010708C6107200861FEF7E4FDAB
:103C90000BA801F0F1FC0326CDE9064605944FF48C
:103CA000807BCDE903B40BAD192053490895CDE9CC
:103CB0000110092000900023504A51A1534801F0FF
:103CC00045FDCDE906465248019005944FF4007732
:103CD0004FF033080B20CDE9028700904B48089540
:103CE000049400234B4A4CA1C03001F02FFD0A98E8
:103CF0004D4A262190F800C0F0010C2302F5C0695E
:103D00004FF00D0ABCF1010F50D0CDE906460594E5
:103D10000895CDE90304CDE9003202910023434A1E
:103D200043A109F5D25001F011FDCDE906460594F5
:103D3000CDE90287CDE900A90023404A40A109F559
:103D4000D8500895049401F001FDCDE9064605948C
:103D500030020895CDE903044C2109F50062CDE954
:103D600001210E2000900023384A39A109F5DE50C8
:103D700001F0ECFCCDE906460594CDE903B4192029
:103D800009F5A0510895CDE901100F2000900023FE
:103D9000324A33A109F5E45001F0D8FC1348016E12
:103DA0004FF4FA60884711F0EDFCFCE7CDE90646D8
:103DB00005940895CDE90304CDE900320291002372
:103DC0002A4A1BA12A4801F0C1FCCDE90646059408
:103DD000CDE902872648CDE900A90023254A18A18C
:103DE000C0300895049401F0B1FCD7E71C170020FF
:103DF0002016002023ED00E0FC1B0020257E01089A
:103E00005359535F5354415445000000BC460020B1
:103E1000FC1F0020794B01084E45545F5045524924
:103E20004F44494300000000FC270020798201082C
:103E30005441534B31325F50524F430095A001081B
:103E40005441534B31335F50524F4300D9950108D1
:103E50005441534B31345F50524F4300A9870108FE
:103E60005441534B31355F50524F43009D850108FB
:103E70003C4800200D8F01082DE9F0410646314CE9
:103E80000A2560780930B0FBF5F105FB110000EB65
:103E9000C00101EB001004EB4000C01CFCF794FAD9
:103EA00007463046FCF790FA874214D13046FCF7BB
:103EB0008BFA024660780930B0FBF5F105FB110082
:103EC00000EBC00101EB001004EB4000C01C3146C8
:103ED000FCF78FFA90B36078401CB0FBF5F105FB5E
:103EE00011012078814210D100EBC00101EB0010DC
:103EF00004EB4000C01C3221FCF733FA2078401C50
:103F0000B0FBF5F105FB110020703046FCF75CFAC0
:103F10000246607800EBC00101EB001004EB4000AA
:103F2000C01C3146FCF704FA6078401CB0FBF5F188
:103F300005FB11006070A070BDE8F081FFE76078BC
:103F4000A070F9E746D600207CB50446601C4FF00F
:103F5000FF311DD0104E06EB44156868D0B10FA09C
:103F6000CDE900040123022219468020FEF7F8FF64
:103F7000A96909B120468847154C3068002162685C
:103F8000904700206860A1683068884700207CBDA9
:103F900008467CBD08467CBDB43F02205B494E54B8
:103FA0004552464143455D2073657420696E665FE6
:103FB000666420257520746F2069646C652C20620E
:103FC00065636175736520636C6F73650A0000003B
:103FD0001C1700202DE9FC410024184818A1CDE948
:103FE00000100123002203218020FEF7B9FF1A4EA2
:103FF00006EB44156868D0B1A96909B12046884725
:10400000296909B120468847144F306800217A6831
:10401000904713A0CDE90004012302221946802015
:10402000FEF79EFF00206860B96830688847641C0E
:10403000142CDDDB0020BDE8FC8100004BF70208FA
:104040005B494E544552464143455D20456E74657B
:10405000722025730A000000B43F02201C170020C4
:104060005B494E544552464143455D20736574207B
:10407000696E665F666420257520746F2069646CC4
:10408000652C2062656361757365206465696E697E
:10409000740A000010B54FF421710A48FCF761F969
:1040A000094C084909A0226890470B48A0660B48B4
:1040B000E0660B4820670B4860670B48A06700204C
:1040C00010BD0000B43F02201C170020496E74652B
:1040D0007266616365000000ED400108493F010818
:1040E0001D430108D9420108D53F01082DE9F04FD1
:1040F00085B0064688460024A246CDF810A0601E72
:10410000C8F80000444845A1CDE900100123002271
:1041100003218020FEF724FFDFF81C91454F00218A
:10412000D9F804203868904707EB4410406840B144
:10413000641C142CF8DB142C08D0404DDFF800B1BF
:1041400021E007EB441101204860F4E73DA0012382
:1041500000901A4619468020FEF702FFD9F8081091
:10416000386888474FF0FF3005B0BDE8F08F286809
:104170003168884206D107EB441084606968001DED
:10418000884702E008355D45F1D35D4514D13068BC
:1041900039A1CDE9001001231A4619468020FEF707
:1041A000DFFE07EB4410C0F804A0D9F80810386807
:1041B00088474FF0FF30D7E707EB44156A69DAB15B
:1041C00004A970689047401C1CD00498E860C8F8A7
:1041D0000040C8F80400CDE9018435A10123009115
:1041E0000390032219468020FEF7BAFED9F8081082
:1041F000386888470020B7E7D9F80810386888473A
:104200000020B1E7C5F804A0D9F80810386888473D
:104210004FF0FF30A8E700003CF702085B494E541E
:104220004552464143455D20456E746572202573B5
:104230000A000000B43F02201C170020D09703089A
:10424000109803085B494E544552464143455D2052
:1042500063616E206E6F742066696E642069646CA1
:104260006520696E74657266616365206F70732086
:10427000656E747279210A005B494E54455246417D
:1042800043455D2063616E206E6F742066696E64C5
:1042900020696E697420656E74727920666F722071
:1042A000696E746572666163652025640A000000AA
:1042B0005B494E544552464143455D206F70656EE3
:1042C00020737563636573732C2066642025705BAF
:1042D00025752025705D0A0030B401684FF0FF3568
:1042E0000A68531C09D00C4B03EB4212146A84B1C8
:1042F000546874B14C681CB104E0284630BC704767
:10430000D2684A600168096803EB4111096A30BC50
:1043100008472846F2E70000B43F02207CB5026857
:104320004FF0FF3511684B1C09D0114C04EB4113C1
:10433000DE698EB15E687EB1516811B103E0284636
:104340007CBDD96851600168096804EB4111C969F5
:1043500002B0BDE87040084706A00123CDE9000186
:104360001A4619468020FEF7FBFD28467CBD00005A
:10437000B43F02205B494E544552464143455D20BF
:10438000696E665F6664202575202D3E2077726910
:10439000746520657272210A0000000010B50AF0F1
:1043A000C1FCBDE8104010F00DBB70470A4600216B
:1043B000AFF3008010B5002300241B020B43641CE4
:1043C000042CFAD300F0030424B909E000F8011B1F
:1043D000521E641C22B1042CF8D301E008C0121F45
:1043E000042AFBD202E000F8011B521E002AFAD177
:1043F00010BD000070B5054C054D03E0206800B10C
:104400008047241DAC42F9D370BD00001898030802
:10441000489803082DE9FE4F06460F4690469946F8
:104420000024204D05EB0410007818B1641CE4B2A0
:10443000142CF7D31C484FF4805C4FF0FF3A142C37
:1044400025D0C6B1DFF864A0DAF82000804705EB7C
:10445000041500202860EE60A870E870C5F8088098
:104460006F60C9F8004001202870DAF82400804706
:104470000020BDE8FE8FCDE901060DA101230091CA
:104480001A4619466046FEF76BFD5046F1E714A147
:10449000CDE9001001231A4619466046FEF760FD7B
:1044A0005046E6E7743E02202DF702081C17002054
:1044B0005B5359535D2025732063616E206E6F74CA
:1044C00020637265617465206D6F6E69746F722C04
:1044D000206E6F206E616D65202121210D0A000084
:1044E0005B5359535D2025732063616E206E6F749A
:1044F00020637265617465206D6F6E69746F722CD4
:10450000206E6F207370616365202121210D0A00E8
:1045100070B5094901EB0014207801280AD1074D34
:10452000286A8047002020606060A060E060207002
:10453000686A8047002070BD743E02201C1700206E
:104540001CB54FF0FF3414280ADB0CA1CDE9001094
:1045500001231A4619461803FEF702FD20461CBD2A
:104560000F4B03EB00100378012B01D020461CBD3C
:104570004160C2700121817000201CBD5B53595302
:104580005D20696E646578202575206F76657220E0
:104590004E554D5F4D4F4E49544F5253210D0A0019
:1045A000743E02201CB54FF0FF3414280ADB0BA127
:1045B000CDE9001001231A4619461803FEF7D0FC76
:1045C00020461CBD0E4901EB00100178012901D0E5
:1045D00020461CBD0021817000201CBD5B53595337
:1045E0005D20696E646578202575206F7665722080
:1045F0004E554D5F4D4F4E49544F5253210D0A00B9
:10460000743E022010B54FF4A0710848FBF7A9FED4
:104610000848074901630849C163084941630849DB
:10462000816308490164002010BD0000743E02202F
:10463000154401081C1700201145010841450108D7
:10464000A5450108494601087FB50546002400201C
:104650000F4E06EB04110A78012A13D14A688B68C1
:10466000AA1A9A420ED3C878C9680AA3CDE90031C4
:10467000CDE9020201231A4619461803FEF770FC21
:104680004FF0FF30641C142CE3DB04B070BD00005D
:10469000743E02205B5359535D202573207461736F
:1046A0006B2074696D656F75742061742073746517
:1046B000702025752074696D65722025750D0A00BE
:1046C000F8B50E460024164D04EB840101EBC4013D
:1046D00015F8211019B1641CE4B2142CF4D3142C75
:1046E0001BD004EB840101EBC40705EB87031B1D02
:1046F00001466A46184600F0BBFBBDF8000048B909
:10470000684600F071FD3460012005F82700684616
:1047100000F090FDBDF80000F8BD4FF0FF30F8BD8F
:10472000E436022038B500EB80010C4D01EBC004EB
:1047300015F82400012801D0002038BDBDF8000084
:1047400040B9684600F050FD002005F82400684696
:1047500000F070FDBDF8000038BD0000E436022016
:1047600010B54FF482610748FBF7FBFD0748064987
:1047700001600749C1600749416007498160002025
:1047800010BD0000E4360220C14601081C170020BD
:10479000254701089D470108D54701081CB500EBD6
:1047A000800202EBC0000A4A12F82030012B02D02E
:1047B0004FF0FF301CBD01AB02EB800000930023E3
:1047C000001D1A4600F07EFBBDF804001CBD000071
:1047D000E436022008B500EB800101EBC000094976
:1047E00011F82020012A02D04FF0FF3008BD01EB64
:1047F0008000001D6A46002100F01CFCBDF800008E
:1048000008BD0000E436022070470000BFF34F8F60
:1048100004480168044A01F4E06111430160BFF3F8
:104820004F8FFEE70CED00E00400FA05BFF34F8F59
:1048300004480168044A01F4E06111430160BFF3D8
:104840004F8FFEE70CED00E00400FA0513B5BDF84C
:1048500002008001BDF8044004430120FDF760FC24
:104860000620FDF795FD0120FDF72EFC052000F048
:104870001AF80120FDF754FCD820FDF789FD200C23
:10488000FDF786FDC4F30720FDF782FDE0B2FDF7DA
:104890007FFD0120FDF718FC052000F004F8BDE8BD
:1048A0001C4000F023B90021002803D00146401E1F
:1048B0000028FBD1084670472DE9FF4116461F46E8
:1048C0000024BDF802008001BDF804500543BDF886
:1048D00006800120FDF724FC1320FDF759FD280C6C
:1048E000FDF756FDC5F30720FDF752FDE8B2FDF7D1
:1048F0004FFD0120FDF7E8FB0520FFF7D4FF00F096
:10490000F5F8A0B10520FFF7CEFF0120FDF708FC68
:104910000320FDF73DFD4FEA1820FDF739FD08F0B3
:10492000FF00FDF735FDA520FDF732FD0BE001206E
:10493000FDF7CAFB002004B0BDE8F081FDF724FDBF
:104940003055641CA4B2BC42F8D30120FDF7BCFB77
:104950000120F0E72DE9FF4116461F460024BDF86F
:1049600002008001BDF804500543BDF80680012017
:10497000FDF7D6FB0220FDF70BFD4FEA1820FDF7EF
:1049800007FD08F0FF00FDF703FD04E0305DFDF7D3
:10499000FFFC641CA4B2BC42F8D30120FDF794FBD9
:1049A0000520FFF780FF0120FDF7BAFB0620FDF789
:1049B000EFFC0120FDF788FB0520FFF774FF0120C5
:1049C000FDF7AEFB1020FDF7E3FCC5F30740FDF754
:1049D000DFFCC5F30720FDF7DBFCE8B2FDF7D8FCF0
:1049E0000120FDF771FB0520FFF75DFFBDE8FF41EA
:1049F00000F07CB870B504460120FDF791FB9F20C4
:104A0000FDF7C6FC0020FDF7C3FCFDF7BDFC2070E0
:104A1000FDF7BAFC60700120FDF756FB0120FDF7A1
:104A20007FFBFF20FDF7B4FC0120FDF74DFB0120CB
:104A3000FDF776FB0F20FDF7ABFCA020FDF7A8FCEF
:104A4000FDF7A2FCA0700120FDF73EFB0120FDF761
:104A500067FB1F20FDF79CFCA020FDF799FC0020C0
:104A6000FDF796FCFDF790FCA0700120FDF72CFBF4
:104A70002178402280251C484FF40063C82902D1C8
:104A80006678D12E02D0C82910D012E02381E280AE
:104A90004FF47A71A18065818901E160D4E9003227
:104AA000A468C0E901240360C1601BE06178B229F9
:104AB0000CD001222281E2800021A1806281E1608C
:104AC0001CCC80E81C00C160002070BD2381E28006
:104AD0004FF4FA61A18065818901E1601CCC80E816
:104AE0001C00C160012070BD68EF02201CB50120D0
:104AF000FDF716FB0F20FDF74BFCC020FDF748FC2F
:104B0000FDF742FC044604F00100401E04F0800161
:104B1000084301D16006F3D50120FDF7D5FA04F072
:104B2000800004F0400108430AD006A00123CDE92B
:104B300000041A4619469802FEF712FA00201CBD1E
:104B400001201CBD535049204E616E642050726F8D
:104B50006772616D206F72204572617365722046C5
:104B600061696C212053746174757320307825302D
:104B700032580D0A0000000086B01F4C6846E16FF5
:104B80008847E16C02A88847206A8047FFF706FC47
:104B900006F080FC0CF0B2FD606A8047E16C04A86E
:104BA00088470499256B01AB052214A0A847E16C46
:104BB00004A888470499636B012201989847206AEA
:104BC000804700F023F8606A8047216D02A888477B
:104BD000642804D8FEF7FEFBB0F5806F04DBE16CBF
:104BE00002A88847FEF7FEFBA16B01988847216E5B
:104BF00002208847DBE700001C1700207461736BFC
:104C00005F6E65745F706572696F640010B50AF05D
:104C100045F808B10FF0D0FE02480068BDE810402A
:104C20000FF09CBE30120020704700000248006860
:104C3000002800D0004770474816002010B50446F1
:104C400000F09EF83C48002202703C4802703C484C
:104C500002703C4802603C4802603C4802703C489C
:104C600002703C4802703C49086840B13B4800680B
:104C700028B1096801E0491E04C00029FBD1384869
:104C8000026038480260384802603848026038489C
:104C9000026038480260384802603848027001F00B
:104CA000C1FB01F0F7FB204601F0D0F82088002876
:104CB00041D1204601F024F9208800283BD120462C
:104CC00001F02AF92088002835D1204601F0D0F9DA
:104CD000208800282FD1204601F0D0FB2088002812
:104CE00029D1204601F09CFC2088002823D12046B1
:104CF00001F02AFF208800281DD1204601F0CCF8C1
:104D00002088002817D1204602F064FA2088002865
:104D100011D1204601F00EFE208800280BD120463C
:104D200002F0B4FA2088002805D101F08DF8BDE822
:104D30001040FFF779BF10BD5C16002064160020FC
:104D40008A160020EC160020F01600207E160020A7
:104D50007F16002080160020ACFC0208A8FC020888
:104D60003C16002040160020441600204816002063
:104D70004C1600205016002054160020B6160020B5
:104D8000054806490068096800EB8100044920F0E5
:104D90000700086070470000A8FC0208ACFC02088D
:104DA000F416002005480078012805D10449087848
:104DB000FA2801D2401C08707047000064160020D9
:104DC0005C16002010B52248007801283ED1FBF780
:104DD00013FA04461F49087840B1401EC0B208705B
:104DE00048B12046BDE81040FBF70ABA2046BDE8AE
:104DF0001040FBF705BA1848007820B12046BDE8FE
:104E00001040FBF7FDB901F0FBFA14490870144992
:104E100000EB400051F8200012490860124909686F
:104E2000884204D12046BDE81040FBF7E9B950F8AC
:104E30008C1F491C01600D480168491C0160FBF78B
:104E40005AFF2046BDE81040FBF7DAB910BD00005C
:104E5000641600205C1600208A1600207F160020B1
:104E60008CBB0620F0160020EC160020AC160020AB
:104E70002DE9F04104460D461646FBF7BDF90746FD
:104E8000FDF750FD0D4820606560002525626562D4
:104E900084F82850E56204F1080001F085F9204605
:104EA00001F088F806480188491C0180FDF74CFD97
:104EB0003846FBF7A5F93580BDE8F0814D555458CB
:104EC0007C1600202DE9F04F89B00646129D8A46D7
:104ED00091461C4654493068884205D045F6C45076
:104EE000288009B0BDE8F08F002704B12760FBF7E8
:104EF00083F98346FDF716FD96F82810DFF82C811C
:104F0000A9B1706AD8F8002090422ED1FF2923D091
:104F1000491C86F828100CB1F06A2060FDF714FDDA
:104F20005846FBF76DF945F282702880D9E7D8F82A
:104F300000007062012086F828000CB1F06A206041
:104F40003146D8F8000001F047F8FDF7FDFC58465F
:104F5000FBF756F92F80C4E7FDF7F6FC5846FBF740
:104F60004FF945F284702880BBE75FEA094108D514
:104F7000FDF7EAFC5846FBF743F946F2B0102880EB
:104F8000AFE72B49097841B1FDF7DEFC5846FBF746
:104F900037F946F663502880A3E790F8373092F847
:104FA00037108B4201D901F03DFD534604223146B2
:104FB00001A801F069F8FDF7C7FC5846FBF720F996
:104FC00000F0D4F8FBF718F90646FDF7ABFCD8F86B
:104FD000002092F8351071B1012911D002291CD09E
:104FE000032914D046F62E602880FDF7ADFC30462C
:104FF000FBF706F975E70CB1906C20602F80F4E7A1
:105000000CB1906C206046F2A9102880EDE704B145
:10501000276047F2D9202880E7E70CB1906C206028
:1050200045F6C2502880E0E74D555458EC16002054
:105030008A1600202DE9FC5F04468B461546484938
:105040002068884204D045F6C4502880BDE8FC9F03
:10505000FBF7D2F80190FDF765FCDFF80891606A74
:10506000D9F80010884208D0FDF76EFC0198FBF7D4
:10507000C7F845F281702880E8E7FDF7B9FC804663
:10508000C4F82C8094F82800401EC0B284F8280090
:1050900040B1FDF759FC0198FBF7B2F845F2837077
:1050A0002880D3E72146D9F8000000F0D5FF04F1AD
:1050B00008074FF0000A3889E8B3D9F8000090F8E3
:1050C000371090F8382091421DD000F0B4FFD9F885
:1050D000001091F83820824200D21046064691F81E
:1050E0003700B0420FD2084601F038FAD9F8000074
:1050F00080F83760304601F0A1F9D9F8000001F0DE
:1051000011FA19480670386886686662012084F8CA
:1051100028002146304600F05FFF00231A46314642
:105120002046CDF8008001F0FEF8FDF70DFC019857
:10513000FBF766F800E007E05FEA0B4001D400F0FF
:1051400015F8A5F800A081E7C4F824A084F828A0E9
:10515000FDF7FAFB0198FBF753F8A5F800A075E7F7
:105160004D555458EC1600207E16002010B51748F7
:105170000078002829D116480078002825D1FBF7AF
:105180003BF8044601F03CF912490870124900EB63
:10519000400051F82000114908601149096888420F
:1051A00004D12046BDE81040FBF72AB850F88C1F08
:1051B000491C01600B480168491C0160FBF796FD22
:1051C0002046FBF71DF8BFF36F8F10BD5C16002063
:1051D0008A1600207F1600208CBB0620F0160020C7
:1051E000EC160020AC16002070B504460F4800787D
:1051F000012803D045F68960208070BD0C4D2878C9
:10520000FA2803D345F20920208070BDFAF7F4FF95
:105210000646FDF787FB2878401C2870FDF794FBB5
:105220003046FAF7EDFF0020208070BD64160020A4
:105230008A16002070B5044615480078012803D06E
:1052400045F68960208070BD124D287890B1FAF73C
:10525000D3FF0646FDF766FB2878401EC0B22870D3
:1052600060B1FDF771FB3046FAF7CAFF46F66350AE
:10527000208070BD46F66450208070BDFDF764FB51
:105280003046FAF7BDFFFFF771FF0020208070BDA8
:10529000641600208A1600202DE9F0410446884655
:1052A00015461E46FAF7A8FF0746FDF73BFB0D48DB
:1052B0002060256200256562C4F8048004F10800BE
:1052C00000F072FF204601F083F907480188491C6D
:1052D0000180FDF739FB3846FAF792FF3580BDE8CB
:1052E000F081000053454D41901600202DE9F84F04
:1052F00007468B46154634493868884205D045F63E
:10530000C45028800020BDE8F88FFAF775FF0090A0
:10531000FDF708FB07F108063489A046DFF8AC90DA
:105320004FF0000ABBF1000F0CD0BBF1010F28D0E9
:10533000FDF70AFB0098FAF763FF45F62560288021
:105340004046E0E7B8F1000F08D0FDF7FDFA0098FD
:10535000FAF756FF47F25F102880F1E7384601F070
:1053600049F9B9F80000401EA9F80000384601F0DC
:105370001FF9FDF7E9FA0098FAF742FFA5F800A037
:10538000DEE7FDF735FB834607E0306881685A4663
:10539000384600F06CFF641EA4B2002CF5D13846EC
:1053A00001F028F9B9F80000401EA9F800003846BD
:1053B00001F0FEF8FDF7C8FA0098FAF721FFFFF7B1
:1053C000D5FEA5F800A0BBE753454D41901600203F
:1053D0002DE9F04F89B00646129D8A4691461C463B
:1053E00044493068884206D045F6C45028800020E1
:1053F00009B0BDE8F08F4FF000080CB1C4F8008090
:10540000FAF7FAFE8346FDF78DFA376A77B17F1E09
:1054100037620CB1706A2060346AFDF795FA58461D
:10542000FAF7EEFEA5F800802046E1E75FEA0940C2
:1054300009D5FDF789FA5846FAF7E2FE46F2B010B0
:1054400028803846D4E72C48007848B1FDF77CFA2C
:105450005846FAF7D5FE46F6635028800020C7E785
:1054600053460622314601A800F00EFEFDF76CFA05
:105470005846FAF7C5FEFFF779FEFAF7BDFE074674
:10548000FDF750FA1D48016891F8350078B1012800
:1054900013D002281FD0032816D046F62E6028808D
:1054A000FDF752FA3846FAF7ABFE0020A0E70CB140
:1054B000886C2060A5F8008013E00CB1886C206037
:1054C00046F2A91028800CE00CB1C4F8008047F225
:1054D000D920288005E00CB1886C206045F6C250C8
:1054E0002880346AFDF730FA3846FAF789FE2046FC
:1054F0007EE7000053454D418A160020EC1600203F
:1055000070B505460E461446094A2868904204D0F4
:1055100045F6C4502080002070BDFDF769FA0246B0
:10552000234631462846BDE8704001F085B80000AA
:1055300053454D4170B504460F4D2878002803D0DF
:1055400045F68A60208070BD00F05AFF0B49087054
:105550000B4908700B4900EB400051F820000A4944
:1055600008600A49086001202870FBF781FB43F6B8
:105570009920208070BD0000641600207F16002056
:105580007E1600208CBB0620F0160020EC160020B2
:105590002DE9F0410646FAF72FFE0446FDF7C2F961
:1055A0002D48002505802D4805602D4805602D48B3
:1055B00005602D4805602D480581FDF7C5F9204699
:1055C000FAF71EFEFAF718FE0746FDF7ABF9284872
:1055D0000468FDF7B9F93846FAF712FE1BE0FAF74E
:1055E0000BFE0746FDF79EF97434E56325602563DD
:1055F000A561A582E5826562A562FDF7F9F92062E1
:10560000743C2146A1F86C50D4F8B840FDF79CF9E1
:105610003846FAF7F5FD002CE1D1FAF7EDFD074623
:10562000FDF780F913480468FDF78EF93846FAF75C
:10563000E7FD0CE0FAF7E0FD0746FDF773F92146B8
:105640008D85A469FDF780F93846FAF7D9FD002C5D
:10565000F0D13580BDE8F08196160020A816002014
:10566000BC160020DC1600206016002080BB06203F
:10567000B016002084160020F8B504466946284874
:1056800000F0DCFABDF8000008B12080F8BD6A46E1
:105690000021022000F006FBBDF8000008B12080C8
:1056A000F8BDFAF7A9FD0746FDF73CF91D4E0025A8
:1056B0003560FDF749F93846FAF7A2FD00201A498E
:1056C0001A4A0B681768BB4203D908681268B0FB16
:1056D000F2F018B909680A20B1FBF0F06A4600211F
:1056E00000F0E0FA69460E4800F068F9BDF80000E5
:1056F00008B12080F8BDFAF77FFD0746FDF712F9E3
:105700000B4805600B49306808600B4901200870A0
:10571000FDF71AF93846FAF773FD2580F8BD000049
:105720003CC0062098160020D0FC0208BCFC0208F1
:10573000A81600209C160020A4160020024800682D
:10574000002800D0004770474C1600202DE9FF4F7D
:1057500083B00446DDE91098DDE91765139F934691
:10576000B9F13F0F08D13A48844205D046F2732080
:10577000288007B0BDE8F08F204601F0F5F94FF022
:10578000000AA5F800A0F0070AD0B00708D54546E2
:10579000002003E0C5F800A02D1D401CB842F9D33D
:1057A000129808EB8005CDE900762B464246584614
:1057B000069900F00FFAC4F828B00699E16204993E
:1057C000216284F8379084F838902060A56016989C
:1057D0006060C4F824802764A4F84460002004EBCF
:1057E0008001C1F878A0401CC0B20028F7D004F1B5
:1057F0006000149900F0D6FB204600F02FF8FAF76D
:10580000FBFC0546FDF78EF894F8370000F016FE15
:10581000204600F087FE204601F064F90D49088813
:10582000401C08800C480078012807D0FDF78CF850
:1058300007B02846BDE8F04FFAF7E2BCFDF784F860
:105840002846FAF7DDFC07B0BDE8F04FFFF78EBC45
:10585000C0BA0620B4160020641600200249096868
:10586000002900D0084770473C1600202DE9F0477A
:1058700004460F464A48844204D147F24C1038800F
:10588000BDE8F0875CB9FAF7B7FC0546FDF74AF8C2
:1058900044480468FDF758F82846FAF7B1FCFAF7CF
:1058A000ABFC8146FDF73EF894F836004FF0000857
:1058B00008286CD2DFE800F004080C0C47080C0C38
:1058C000204600F04BFE3EE0204601F079FB3AE036
:1058D00094F8340007282DD2DFE800F02C042C04C3
:1058E00008040400204600F092FC23E0206BC0680E
:1058F000456A15F8376F204600F089FC28786978EA
:10590000373D88420CD094F83710884208D1284699
:1059100000F091FB95F83810814200D20846064607
:1059200084F8348095F83700B04203D031462846D9
:1059300001F078F894F83600032801D0072802D146
:10594000204601F03DFBE06B10B1204600F048FB23
:1059500004F1600000F00AFB204600F027F8204622
:1059600001F0D2F810480188491E0180204601F05C
:10597000FBF8FF2084F83600FCF7E6FF4846FAF70C
:105980003FFCA7F80080BDE8F047FFF7EFBBFCF74E
:10599000DBFF4846FAF734FC46F62D6038806FE7A7
:1059A000C0BA0620EC160020B4160020024909688F
:1059B000002900D0084770474016002070B5054602
:1059C0000E46FAF719FC0446FCF7ACFFFCF7BCFFE7
:1059D0002046FAF715FC31462846BDE8704001F034
:1059E0001BB9000002490968002900D00847704728
:1059F000441600202DE9F05F83468A4614461D4672
:105A00000026002C00D02660FAF7F6FB8146FCF752
:105A100089FF424F3868D0F84C80B8F1000F1DD094
:105A2000A8F10108C0F84C800CB1806C2060FCF734
:105A3000DFFF01463868826C891AC0F8A010D0F8E0
:105A4000A4208A4201D2C0F8A410FCF77DFF48468A
:105A5000FAF7D6FB2E804046BDE8F09F5FEA0A4089
:105A600009D5FCF771FF4846FAF7CAFB46F2B010B9
:105A700028800020F0E72A48007848B1FCF764FF4E
:105A80004846FAF7BDFB46F6635028800020E3E75E
:105A900000215B460722084600F0F6FAFCF754FFA7
:105AA0004846FAF7ADFBFFF761FBFAF7A5FB804626
:105AB000FCF738FF396891F8350078B1012820D01B
:105AC000032825D046F62E6028803868C46CFCF781
:105AD0003BFF4046FAF794FB2046BDE77CB1886C5B
