:020000040801F1
:10000000C86D0620C101010841630108CB01010848
:100010003F570108053D01081DAF01080000000021
:10002000000000000000000000000000E3010108E3
:10003000E50101080000000021180108A59201084F
:10004000EB010108EB010108EB010108118F010828
:10005000EB010108EB010108EB010108EB010108CC
:10006000EB010108EB010108EB0101086541010802
:100070008D410108B5410108DD4101080542010833
:100080002D42010855420108EB010108EB0101086E
:100090002D0F00206D0F0020EB010108EB0101087E
:1000A000EB010108EB010108EB010108EB0101087C
:1000B000EB010108EB010108EB010108EB0101086C
:1000C000EB010108EB010108EB010108EB0101085C
:1000D000EB0101083DAC010869AC010895AC0108D1
:1000E000B14B0108EB010108EB010108EB0101082C
:1000F000EB010108EB010108EB010108EB0101082C
:10010000EB010108EB010108EB010108EB0101081B
:10011000B1AB0108EB010108EB010108EB0101089B
:10012000EB0101087D420108A5420108EB0101082D
:10013000EB010108EB010108EB010108EB010108EB
:10014000EB010108EB010108EB010108EB010108DB
:10015000EB010108CD420108F5420108C1AC0108DC
:10016000EB010108EB010108EB010108EB010108BB
:10017000EB010108EB010108EB01010800000000A0
:10018000EB010108EB010108DDAB01080DAC010832
:10019000EB010108EB010108EB0101080000000080
:1001A000EB010108EB010108EB010108DFF80CD0BD
:1001B00001F026F80048004799810208C86D062022
:1001C0000A4880470A480047FEE71EF0040F0CBFAC
:1001D000EFF30880EFF309800EF0CEBEFEE7FEE7F6
:1001E000FEE7FEE7FEE7FEE7FEE7FEE7E197010830
:1001F000AD01010872B6704762B67047EFF3108028
:1002000072B6704780F31088704730BF704720BFC8
:100210007047B0FA80F0704790FAA0F0B0FA80F022
:10022000704790FAA0F070472DE9F05F0546002076
:1002300092469B4688460646814640241BE0284657
:1002400041464746224600F05DFA53465A46C01AD8
:10025000914110D311461846224600F044FA2D1A57
:1002600067EB01084F4622460120002100F03BFACF
:1002700017EB00094E41201EA4F10104DFDC4846C3
:1002800031462A464346BDE8F09F000038B5D0E924
:100290000221491E01EB410102EBC1014268C1EBA1
:1002A000011102EB81010268C1EB011102EB810235
:1002B000D0E9043101EB410103EB81013023A1F5C9
:1002C000527191FBF3F4174D6C4302EBC41291FB96
:1002D000F3F403FB141100921A2902DB124B1A44A7
:1002E00000920C2291FBF2F3104C6343009C04EB50
:1002F000C313009391FBF2F302FB13110C4A08E0C5
:10030000491E40F2A324535C6343009C04EBC313D7
:1003100000930029F4DC0146684600F009FA0098D1
:1003200038BD00003F0C0F008051010067C2030080
:100330007C58030840EA01039B0703D009E008C981
:10034000121F08C0042AFAD203E011F8013B00F89A
:10035000013B521EF9D27047D2B201E000F8012BE6
:10036000491EFBD270470022F6E710B513460A4635
:1003700004461946FFF7F0FF204610BD421E12F852
:10038000013F002BFBD111F8013B02F8013B002B90
:10039000F9D1704730B505462A460B4612F8010BD5
:1003A00013F8014B08B1A042F8D01CB1002802D0CC
:1003B0006D1CF1E7284630BDCAB2401E10F8011F7F
:1003C0008A4202D00029F9D100207047421C10F85F
:1003D000011B0029FBD1801A704710B5002200E0F4
:1003E000521C835C8C5CA34201D1002BF8D1D8B2A3
:1003F000E1B2401A10BD30B504460020034600E0CB
:100400005B1C934203D2E05CCD5C401BF8D030BD56
:10041000034611F8012B00F8012B002AF9D11846E8
:10042000704730B505460020034600E05B1C934250
:1004300005D2EC5CC85C201A01D1002CF6D130BD8D
:1004400000B58DB0099000920B904FF0FF300A90EC
:1004500000200C9004480690044807906A4609A8BA
:1004600000F078FC0DB000BD710D01088F0D010882
:100470000FB400B58DB010A909900B9000914FF00A
:10048000FF300A9000200C90054806900548079020
:100490006A4609A80F9900F05DFC0DB05DF814FBE9
:1004A000710D01088F0D01082DE9FF5F1D464FF00A
:1004B000FF3BD5E9014691465F464FF00008A96928
:1004C0007F1C01988847296A824688470028F6D110
:1004D000BAF1FF3F0CD024F4C064002E19DD600691
:1004E00014D5BAF12B0F09D0BAF12D0F0ED103E0BC
:1004F000584604B0BDE8F09F44F48064A9697F1CAD
:1005000001988847761E8246002E02DDBAF1300F30
:1005100003D0B9F1000F26D032E0A969761E44F469
:1005200000747F1C019888478246002E05DDBAF1D1
:10053000780F06D0BAF1580F03D0B9F1000F10D0E0
:100540001EE0B9F1000F02D0B9F1100F18D1A9695E
:10055000761E24F400747F1C019888478246102080
:1005600002E0082000E00A20814609E008FB0908B3
:10057000A969761E44F400747F1C0198884782465E
:10058000002E05DD4946504600F018F90028EDDA46
:10059000E96901988847A00502D46FF00100A8E737
:1005A000E00725D1600613D5600502D5C8F100002B
:1005B00000E0404629680A1D2A600968220501D525
:1005C000087015E0220701D5088011E008600FE0EF
:1005D0002868011D29600068210502D580F8008087
:1005E00006E0210702D5A0F8008001E0C0F80080F5
:1005F00038467EE770B506460AF030FF04680546C7
:100600000A220021304600F0D3FB2C6070BD30B4CC
:1006100080EA010202F0004530F0004221F0004083
:1006200013D090B1C30DD40DC2F31601C0F3160060
:10063000E41A41F4000140F400027D34914201D3F8
:10064000641C00E04900002C02DA30BC0020704736
:100650004FF400000023914201D3891A034340085C
:100660004FEA4101F7D151B1914202D14FF000411F
:1006700005E002D24FF0010101E06FF0010103EB50
:10068000C450284430BC00F0CBBB96230022114656
:1006900000F0CFBB00F0004230F000400AD0C10DA6
:1006A00001F56071C0F3160042EA0151C20840072B
:1006B0001143704700200146704730B50B46014694
:1006C00000202022012409E021FA02F59D4205D3F1
:1006D00003FA02F5491B04FA02F52844151EA2F19B
:1006E0000102F1DC30BD202A04DB203A00FA02F1DD
:1006F000002070479140C2F1200320FA03F3194310
:1007000090407047202A04DB203A21FA02F00021B1
:10071000704721FA02F3D040C2F120029140084311
:1007200019467047014900F003B80000986106209F
:1007300010B500683C22B0FBF2F302FB1303B0FBE0
:10074000F2F00B60B0FBF2F302FB1303B0FBF2F02C
:1007500018224B60B0FBF2F302FB1303B0FBF2F084
:10076000021D8B600723B2FBF3F403FB142280000D
:1007700040F2B55300F66C308A61B0FBF3F2B0FB87
:10078000F3F403FB1400443280084A61C8613B283B
:1007900002D3920700D0401C0022074C13460A6186
:1007A000E25C824203D8801A5B1C0B61F8E7401CB4
:1007B000C860084610BD0000885803083A2800D2D7
:1007C000303820F02002412A01D3A2F137008842BC
:1007D00001D34FF0FF3070472DE9FF4F1C4681B029
:1007E0000021D4E9016791464FF0FF358A468846DB
:1007F000A1696D1C02988847216A834688470028B2
:10080000F6D1BBF1FF3F0CD026F4C066002F1ADDF5
:10081000700615D5BBF12B0F0AD0BBF12D0F0FD1F0
:1008200004E04FF0FF3005B0BDE8F08F46F480667D
:10083000A1696D1C029888477F1E8346002F02DD48
:10084000BBF1300F03D0B9F1000F2AD025E0A16928
:100850006D1C46F400767F1E029888478346002F61
:1008600005DDBBF1780F06D0BBF1580F03D0B9F10D
:10087000000F10D011E0B9F1000F02D0B9F1100F44
:100880000BD1A1696D1C26F400767F1E0298884763
:100890008346102000E0082081464FEAE97000906E
:1008A00017E00A20F8E74346AAFB092803FB098062
:1008B000DDF800C07F1E0AFB0C0112EB0B0A41EBB6
:1008C000EB78A16946F4007605F1010502988847A6
:1008D0008346002F06DD49465846FFF76FFF5FEA63
:1008E000000BE0D5E16902988847B00502D46FF0AB
:1008F000010098E7F00718D1700610D57005514631
:1009000005D50023D1EB030163EB080200E042466A
:100910002068031D23600068C0E9001205E020681C
:10092000011D21600068C0E900A828467BE72DE989
:10093000FF5FD2E901A74FF000089169994614467C
:10094000DDF838B0464601988847054659EA0B005D
:1009500005D009E0A169761C019888470546216AFF
:10096000284688470028F5D1681C03D05FEACA7082
:1009700005D015E04FF0FF3004B0BDE8F09F2068CF
:10098000011D2160D0F800800AE05FEACA7001D141
:1009900008F8015BA169761C7F1E0198884705460F
:1009A000002F1ADD681C18D0B9F1000F0DD0E81720
:1009B00005EBD060421120F01F0059F822102A1ACE
:1009C000012090400142E0D107E0BBF1000FDCD1F3
:1009D000216A284688470028D7D0E16901988847CE
:1009E000BBF1000F07D1002E05DD5FEACA7002D10E
:1009F000002188F80010A068B84203DDBBF1000FA9
:100A000003D017B16FF00100B6E73046B4E700003D
:100A10002DE9FF4F087881B09946FF2805D0491C81
:100A20002D2804D00024002308E000230BE001243B
:100A3000F9E703EB830300EB4303491C0878FF2825
:100A4000F7D104B15B4200200090147801462D2CB0
:100A500001D02B2C04D1521C2D2C12D00024009438
:100A600000251678FF2E0ED00A24A0FB04C801FB37
:100A70000481002700FB0711521C16EB0C00694192
:100A8000EFE70124EBE7994450EA01020ED000247D
:100A9000AA4D2646DFF8A88200F026FE82468B4645
:100AA000B9F1000009DAC9F100071BE00198002143
:100AB000C0E9001105B0BDE8F08F074612E0F80765
:100AC00007D022462B463046414600F087FA0646BC
:100AD000884622462B461046194600F07FFA044607
:100AE0000D467F10002FEAD1B9F1000F3246434680
:100AF0005046594602DA00F0E3FA01E000F06EFADF
:100B0000009A0AB181F00041019AC2E90001D1E7DF
:100B10002DE9FF4F1F468DB0D7E901464FF0FF3852
:100B20002E2045464FF000090B90B9696D1C0E98B8
:100B30008847396A824688470028F6D1BAF1FF3FD4
:100B40000AD024F4D064002E11DDBAF12B0F08D0A6
:100B5000BAF12D0F0BD102E0404611B0ABE744F4DF
:100B60008064B9696D1C0E9888478246761E694676
:100B7000600501D52D2000E02B208DF8000001F14B
:100B8000010B0DF1200809E0B9696D1C0E9888472A
:100B900082460F9844F40074761E0560002E02DD34
:100BA000BAF1300FF0D00B998A453ED144F0800461
:100BB00006E00F99681CA9F1010944F4007408606B
:100BC000B9696D1C761E0E98884782463028F0D091
:100BD0002BE00B998A4505D1200603D444F080040C
:100BE000761E18E050460AF0FFFC08B30DF1130121
:100BF000761E44F400748B4508D2AAF130000BF83D
:100C0000010B200607D5A9F1010003E0200602D45C
:100C100009F101008146A00502D50F99681C086002
:100C2000B9696D1C0E9888478246002ED1DC53E0CE
:100C3000002E51DDBAF1650F02D0BAF1450F4BD14C
:100C4000A00549D5B9696D1C24F44074761E0E9830
:100C500088478246002E0CDD2B2804D0BAF12D0FD8
:100C600007D144F48074B9696D1C0E988847824698
:100C7000761EE00501D52D2100E02B2108F8011B8F
:100C8000CDF82C8021E00DF12901761E44F400748A
:100C900088450CD2AAF1300010F0FF0088F800005F
:100CA00002D10B99884509D908F1010806E0E00551
:100CB00001D5244801E042F20F708146B9696D1CEC
:100CC0000E98884782460F980560002E04DD504636
:100CD0000AF08AFC0028D6D1F9690E988847FF20CF
:100CE0008BF8000088F800000020069007904B4623
:100CF0006A4608A906A8FFF78BFEA00502D46FF08C
:100D000001002AE714F0240F0AD0E00714D1DDE92E
:100D100006123868031D3B600068C0E900120BE052
:100D2000DDE9060100F0ECFC0146E00704D138687B
:100D3000021D3A600068016028460EE7000024406A
:100D40000000F03FF1D8FFFF026811441378016002
:100D500018467047D160044951610449116200216D
:100D60001161114600F07EBA490D010851120108C7
:100D7000426842B1016811F8013B23B1521EC0E93B
:100D80000012184670470121C160881E70474268F2
:100D90005AB1C368016843B983688B4205D0491EC4
:100DA000521CC0E90012002070474FF0FF3070471E
:100DB0002DE9F04791460F4680460446002614F878
:100DC000015B2DB100F040FA0068405DC007F6D12C
:100DD0002B2D02D02D2D18D0641E4A4639462046B0
:100DE00000F0D6FB27B13968A14201D1C7F80080D5
:100DF00071054FF002040BD54042002803DD0AF0D4
:100E00002DFB0460A007BDE8F08746F48066E4E7A8
:100E10000028F8DA0AF022FB04606FF00040F2E7E5
:100E20000029A8BF7047401C490008BF20F00100FE
:100E3000704710B4B0FA80FC00FA0CF050EA0104DC
:100E400004BF10BC704749B1CCF1200421FA04F46E
:100E500011FA0CF118BF012121430843A3EB0C0147
:100E6000CB1D4FEA00614FEA102042BF002010BCAA
:100E7000704700EBC35010440029A4BF10BC70475A
:100E8000401C490008BF20F0010010BC70472DE94C
:100E9000FE4F804681EA0300C00F0C46009021F00F
:100EA000004123F00045B8EB0200A94105D24046BD
:100EB000214690461C460B46024623F00040104354
:100EC00047D0270DC7F30A00C3F30A510290401A16
:100ED000019040286BDAC3F3130040F4801B0098A4
:100EE000924620B10023D2EB030A63EB0B0B01986F
:100EF0005946C0F140025046FFF7F5FB06460D4645
:100F000050465946019A00F08DF910EB08006141F6
:100F1000002487EA115284EAE7731A4340D0009A0A
:100F200062B3019A012A4FEA075215DC001B61EBFC
:100F300002014FF0004202EA0752CDE90042001CD4
:100F400041F5801132462B4600F080FB03B0BDE82E
:100F5000F08F40462146F9E7001B61EB0201001CBF
:100F600041F5801300185B412018A2F5001747EBEC
:100F7000030140EAD570B6196D4111E06D084FEAE2
:100F8000360645EAC0754FEA0752001B61EB0201C5
:100F9000001C41F5801149084FEA30000019514109
:100FA00032462B4603B0BDE8F04F00F040BB00983E
:100FB000012240000023D0EB020263EBE0730098B3
:100FC00021464FEAE074B8EB000061EB0401E9E769
:100FD00083F000435BE781F0004158E72DE9FE4FC5
:100FE00081EA030404F0004421F0004100944FF032
:100FF000000B23F0004350EA01045ED052EA0304E0
:101000005BD0C3F30A54C1F30A552C44A4F2F33461
:101010000194A0FB0254C1F3130141F48011C3F306
:10102000130343F4801301FB024400FB034E840AC4
:10103000970A44EA815447EA8357A4FB076802955C
:101040008D0A05FB07854FEA932C04FB0C542705FA
:10105000029D4FEA065847EA1637B5EB08056EEBD6
:10106000070C870E920E47EA811742EA8312A7FB0C
:101070000201B6EB0B0164EB00042B0D43EA0C33C9
:101080005E1844EB1C50DA465146E7FB0201C5F3FB
:1010900013044FEA0B3343EA14534FEA0432019C22
:1010A00043EA0603A4F10C040294009CCDE900B4C9
:1010B00000F0CCFA03B0BDE8F08F00200146F9E75C
:1010C0002DE9F04D81EA030404F0004B21F00045C6
:1010D00014464FF0000A23F0004150EA050220D0E8
:1010E00054EA01021DD0C5F30A570246C5F31303A3
:1010F000C1F31300C1F30A5640F4801543F4801382
:10110000A7EB0608101BD64608F2FD3873EB050066
:1011100002D308F1010801E092185B41B8F1000F19
:1011200003DA00200146BDE8F08D00204FF4801165
:10113000064684460EE0171B73EB050705D3121B0A
:1011400063EB050306434CEA010C49084FEA300003
:1011500092185B4150EA0107EDD152EA030012D028
:1011600082EA040083EA0501084305D0101BAB4165
:1011700006D20122002306E000224FF0004302E0E5
:101180006FF0010253101AEB06004CEB085110EB04
:101190000A0041EB0B01BDE8F04D00F048BAC1F385
:1011A0000A52C1F3130140F2FF3341F480119A4215
:1011B00002DA00200146704740F233439A42A2F21D
:1011C000334202DC5242FFF79DBAFFF78CBA0000AF
:1011D00030B5041E71F1000404DB4FF000444042BE
:1011E00064EB0101141E73F1000405DB1C464FF093
:1011F0000043524263EB0403994208BF904230BD62
:10120000064C074D06E0E06840F0010394E8070053
:1012100098471034AC42F6D3FEF7CCFFA4D70408AD
:10122000D4D70408202A06DBCB17203A41FA02F073
:1012300043EAE07306E041FA02F3D040C2F1200233
:1012400091400843194670470048704718590308F1
:1012500010B50446FFF7F8FF0068005D00F00100DC
:1012600010BD00002DE9F34F8BB04FF0000801F1E5
:101270000C000C464FF0010B46460DF1080A019098
:10128000626901210198904705002DD0252D2CD0B1
:10129000216A8847C0B16269012101989047216A9B
:1012A00088470028F7D1411E62690198904700E005
:1012B000761CA1690B988847216A88470028F7D1D6
:1012C000E1690B988847DBE7A1690B9888470746D7
:1012D000A84201D1761CD3E7E1690B9888477F1CAF
:1012E00002D1B8F1000F6FD046E1002762693D4698
:1012F0003946019890472A2804D162690121019852
:1013000090470125DFF88492626901210198904796
:10131000A0F130010A290AD24F45E5DC07EB87012D
:1013200000EB4107303FDFD445F01005ECE7E9065C
:1013300001D46FF000476C280AD04C2814D06828DC
:1013400015D06A280DD074281CD07A281AD01DE038
:1013500062690121019890476C2802D045F004058C
:1013600014E045F002050DE045F020050AE0626951
:10137000012101989047682802D045F0080505E052
:1013800045F400656269012101989047C4E901575D
:1013900065283DD019DC58287AD00CDC452837D098
:1013A00004DC252826D0412831D131E046282FD031
:1013B00047282CD12CE05B2877D0612828D06328DF
:1013C0007CD0642823D15AE0D0E06F2848D008DCD4
:1013D00066281DD067281BD0692821D06E2816D119
:1013E00027E0702845D0732868D0752847D0782822
:1013F0000DD14DE0A1690B988847054625283FF49B
:1014000069AFE1690B9888476D1C3FF46AAFB3E0A0
:1014100023466A466FF001000B99FFF779FB9EE0C7
:1014200045F040006060A80723464FF0000236D424
:101430003EE0E8077FF447AF2068011D21600068A7
:10144000290501D506701BE7290701D5068017E796
:10145000A90703D5F117C0E9006111E706600FE79E
:1014600045F040006060A80723464FF0080216D4FC
:101470001EE040F60E0125EA0100606016E045F02E
:1014800040006060A80723464FF00A0207D40FE02F
:1014900045F040006060A80708D5234610226FF091
:1014A00001000B99FFF798F959E007E02346102255
:1014B0006FF001000B99FEF7F7FF50E04FF00009C5
:1014C0004F464B46632802D05B2806D040E0E80632
:1014D00001D40120A06001273AE06269012101984E
:1014E00090475E2805D14FF001096269494601988D
:1014F0009047216939B900210A46534643F8212013
:10150000491C0829FADBB0B3216969B9C11700EB9E
:10151000D16253110AEB830122F01F02821A0120CB
:101520000B68904003430B6062690121019890476A
:101530005D28E8D1B9F1000F09D00020514651F8DB
:101540002020D24341F82020401C0828F7DB02ABC2
:10155000224600976FF001000B99FFF7E8F9002889
:101560000CDA401C08D1BBF1000F05D04FF0FF3062
:101570000DB0BDE8F08FFFE74046F9E7E90701D17C
:1015800008F1010806444FF0000B79E6CCCCCC0CF6
:101590002DE9F05F82460078002715468B460AF158
:1015A0000104B946302801D09DB113E014F8010BB5
:1015B0000127782803D0582801D045B10AE00DB1A1
:1015C000102D07D10027102514F8010B02E0082583
:1015D00000E00A250026B0460EE005FB080005FBEA
:1015E00006F1012701EB10461FFA80F8B6F5803F9F
:1015F00000D3B94614F8010B2946FFF7DFF800289D
:10160000EBDABBF1000F05D00FB1641E00E05446C9
:10161000CBF80040B9F1000F06D009F01FFF0221FE
:101620000160C81EBDE8F09F48EA0640FAE710B521
:10163000141E73F1000408DA401C41F100019218F5
:101640005B411A4301D120F0010010BD2DE9F04D9E
:1016500092469B4611B1B1FA81F202E0B0FA80F2F3
:1016600020329046FFF73FF804460F4640EA0A0052
:1016700041EA0B0153465A46084313D0114653EA38
:10168000010019D0C8F140025046FFF73BF805466B
:101690000E46504659464246FFF725F8084305D006
:1016A000012004E020463946BDE8F08D00200543C6
:1016B00046EAE0762C4337430A986305E40AA0EB38
:1016C00008000022FD0A44EA47540A3002D50020EF
:1016D0000146E9E7010510196941DDE908450019EE
:1016E0006941BDE8F04DA2E70EB540F233420292E7
:1016F0000022CDE900221346FFF7A8FF03B000BD8A
:1017000001F0004330B421F0004150EA010206D05C
:101710000A0DA2F56072C1F31301002A02DC30BC8D
:1017200000207047440F44EAC104C100E01830BCF7
:1017300000EBC250FFF774BB70B58C1810F8015B5A
:1017400015F0070301D110F8013B2A1106D110F85A
:10175000012B03E010F8016B01F8016B5B1EF9D15E
:101760002B0705D40023521E0DD401F8013BFAE7E4
:1017700010F8013BCB1A921C03E013F8015B01F84F
:10178000015B521EF9D5A142D8D3002070BD0000E4
:1017900072B64EF62250CEF2000040F2FF01C0F2C7
:1017A000000101704FF0000080F3098805F058FE39
:1017B00044F6D420C2F20000016881F3088844F6A0
:1017C0005E20C2F2000044F65F21C2F200010A78F6
:1017D000027044F6CC25C2F2000544F6D021C2F2D4
:1017E00000010A682A60106880F30988EFF314800A
:1017F00040F0020080F31488BFF36F8FBDE8F00F54
:101800000FBCBDE8005006BC62B6084718484FF050
:1018100080510160704716484FF080510160704759
:1018200072B6EFF3098020E9F00F44F6CC25C2F23E
:1018300000052E683060744605F012FE44F65E2006
:10184000C2F2000044F65F21C2F200010A78027081
:1018500044F6D021C2F200010A682A6044F0F40E76
:101860001068B0E8F00F80F3098862B67047000096
:1018700004ED00E040F2010CC2F2000C604740F6BB
:10188000D55CC2F2000C604740F6195CC2F2000C55
:10189000604700EB810082600020704770B505460C
:1018A000094E084C00217268606890472421284640
:1018B000FEF759FDA068401EA060B16860688847C7
:1018C000002070BD9C930220BC4B00208078000952
:1018D000704700002DE9F84380460D460024384F3C
:1018E000364E00217A687068904704EBC40006EB1E
:1018F000800090F8F40110B3641C042CF5DB4FF465
:10190000005C4FF0FF39042C27D06868012831D0E3
:1019100000282FD02BA0012300901A4619466046BC
:1019200002F0FAFC04EBC40106EB8101002081F80F
:10193000F401B968706888474846BDE8F88304EB4D
:10194000C40006EB8000814600F5FA702421FEF702
:101950000AFD012089F8F401D1E724A001230090B9
:101960001A461946604602F0D7FCB9687068884785
:101970004846E2E704EBC40006EB800404F2F514E9
:10198000607820F0F000803060702878207028683F
:1019900000F0BEFA0146A07861F3C710A070297963
:1019A00061F38610A070641EC8F80040B068401C47
:1019B000B060B968706888470020BEE79C93022039
:1019C000BC4B00205B417069204770696F5D204708
:1019D00070692043746C20496E6974205661756C7F
:1019E00065204572726F72210A0000005B417069C8
:1019F000204770696F5D204770692043746C2049EF
:101A00006E6974204572726F722C204E6F20537075
:101A1000616365210A000000F8B50446607800F0B3
:101A200077FAC1B2E078420702D06268521C626065
:101A3000B1EBD01F10D04FF0005202EBB0104FEAC4
:101A4000B060C0F3C202E070032A08D361F3C7108C
:101A500020F03800E07002E020F03800E070E0781C
:101A6000002600F007014FF40055062924D2DFE8D4
:101A700001F0032A62C523EAC0F38011B1EBD01F45
:101A80001BD185A00222009001231146284602F0B6
:101A900043FCA07820F0F000A070A16809B12046B6
:101AA00088476660A07820F00F00401CA070E078A6
:101AB00020F00700401CE070F8BDA07820F0F00096
:101AC0008030A070F8BDC0F38011B1EBD01F17D0EB
:101AD0007BA00222009001231146284602F01CFC44
:101AE000A07820F0F0001030A070E16809B1204625
:101AF00088476660E07820F00700801CE070F8BD41
:101B00006068B0F5167FFAD977A002220090012311
:101B10001146284602F000FCA07820F0F00050307A
:101B2000A070E16909B120468847E07820F00700FD
:101B3000401DE070F8BDC0F38011B1EBD01F2AD179
:101B400055A00222009001231146284602F0E4FB32
:101B5000A07820F0F000A070A16809B12046884765
:101B60006DA00222009001231146284602F0D4FB0A
:101B7000A0784FF0805101EB30104FEA3070A07028
:101B8000216909B1204688476660E07820F00700A7
:101B9000C01CE070F8BD60683C28FBD9A07800F05C
:101BA0000F00012802D0022812D022E065A00222F4
:101BB000009001231146284602F0AEFBA07820F0E9
:101BC000F0003030A070616999B12046884710E07C
:101BD00067A00222009001231146284602F09CFBD8
:101BE000A07820F0F0004030A070A16909B1204633
:101BF0008847E07820F00700E070F8BDC0F380115E
:101C0000B1EBD01FF9D02EA0022200900123114683
:101C1000284602F081FBA07820F0F0001030A07080
:101C2000E16809B12046884760683C2806D26660B2
:101C3000E07820F00700801CE070F8BDE07820F02C
:101C40000700E070F8BDC0F38011B1EBD01F0CD1DC
:101C5000A07820F0F0006030A070216A0029F1D057
:101C600001B02046BDE8F040084715A002220090D0
:101C700001231146284602F04FFBA07820F0F00027
:101C80001030A070E16809B120468847E07820F064
:101C90000700E070F8BD00005B4170692047706983
:101CA0006F5D204770692042746E204576656E74C2
:101CB000205B50524553535F444F574E5D210A00FD
:101CC0005B417069204770696F5D204770692042F1
:101CD000746E204576656E74205B50524553535F99
:101CE00055505D210A0000005B4170692047706912
:101CF0006F5D204770692042746E204576656E7472
:101D0000205B4C4F4E475F50524553535F535441F5
:101D100052545D210A0000005B41706920477069E0
:101D20006F5D204770692042746E204576656E7441
:101D3000205B50524553535F5245504541545D21FD
:101D40000A0000005B417069204770696F5D2047A1
:101D500070692042746E204576656E74205B53492D
:101D60004E474C455F434C49434B5D210A00000000
:101D70005B417069204770696F5D20477069204240
:101D8000746E204576656E74205B444F55424C4519
:101D90005F434C49434B5D210A00000070B50024AD
:101DA000154D1648296D06468847052821D3E96C4C
:101DB00030468847114D0C3D04EBC40005EB800014
:101DC00090F8F411012903D100F5FA70FFF724FE11
:101DD000641C042CF0DB002404EB440005EBC00081
:101DE000017D012902D1143000F06AFA641C142C20
:101DF000F2DB002070BD0000BC4B0020A893022045
:101E00007FB5244824A1CDE9001001235D03002201
:101E10000321284602F080FA4FF421712448FEF78E
:101E2000A2FA244C2248E16C0C308847082002902A
:101E3000A26E1F4902A89047401C1FD03C341C4989
:101E400054F83C2C091D1CA090471E4860651E4894
:101E5000A0651E48E0651E4820661E48A0661E4814
:101E600060661E48E0661E4820671E4860671E4880
:101E7000A0671E48E067002004B070BD1CA00123CD
:101E800000901A461946284602F046FA4FF0FF30F5
:101E9000F2E70000105203085B4170692047706947
:101EA0006F5D20456E7465722025730A0000000086
:101EB0009C930220BC4B00206170695F6C6F636B68
:101EC00000000000111F0108CD1F01086D1F01084F
:101ED000A92101087921010829200108D518010844
:101EE0009D18010893180108CD1801089D1D0108CF
:101EF0005B417069204770696F5D204770696F2092
:101F00004F70656E206572726F72210A00000000CA
:101F10001FB50C490968019102900B48416F01A857
:101F20008847401C02D0039804B010BD012307A0CD
:101F300000901A461946580302F0EEF94FF0FF30B0
:101F4000F2E700009C930220BC4B00205B417069CB
:101F5000204770696F5D204770696F204F70656E14
:101F6000206572726F72210A000000001FB50D49D2
:101F7000096801910290022003900B48016F01A8AB
:101F80008847401C02D0002004B010BD012307A0E8
:101F900000901A461946580302F0BEF94FF0FF3080
:101FA000F2E700009C930220BC4B00205B4170696B
:101FB000204770696F5D204770696F204F70656EB4
:101FC000206572726F72210A000000001FB50C4A72
:101FD00012680192029003910A48016F01A8884794
:101FE000401C02D0002004B010BD012306A00090C8
:101FF0001A461946580302F08FF94FF0FF30F2E706
:102000009C930220BC4B00205B41706920477069A3
:102010006F5D204770696F204F70656E206572722A
:102020006F72210A00000000F8B5044608684FF0FE
:10203000FF35032801D14A689AB100224FF40056B7
:1020400088B1012829D0022841D0032845D038A0E2
:10205000012300901A461946304602F05DF900202F
:10206000F8BD2846F8BDA2706260E07801280AD069
:1020700070B137A0012300901A461946304602F08D
:102080004BF92846F8BD60780021FFF79FFFE6E78F
:1020900060780121FFF79AFFE1E7A2706260E078C3
:1020A00001280AD070B12AA0012300901A461946CF
:1020B000304602F031F92846F8BD60780121FFF77B
:1020C00085FFCCE760780021FFF780FFC7E7A270AB
:1020D00062606078FFF74AFFC1E70120A07048689E
:1020E00060608868A060C868E0602248C16C04F144
:1020F000100088476068002801DD401E6060E078BD
:1021000001280AD070B112A0012300901A46194686
:10211000304602F001F92846F8BD60780021FFF74B
:1021200055FF9CE760780121FFF750FF97E700001B
:102130005B417069204770696F5D20556E6B6E6FF3
:10214000776E204374726C20436F6465210A00002F
:102150005B417069204770696F5D2047706F204355
:10216000746C205661756C65204572726F72210A1D
:1021700000000000BC4B002070B50546094E084C1D
:10218000002172686068904718212846FEF7EBF836
:10219000A068401EA060B16860688847002070BDDC
:1021A0009C930220BC4B00202DE9F84380460D464D
:1021B00000242D4F2B4E00217A687068904704EB65
:1021C000440006EBC000007D08B3641C142CF6DB51
:1021D0004FF4005C4FF0FF39142C1FD068680128C1
:1021E00029D0002827D021A0012300901A461946A3
:1021F000604602F091F804EB440106EBC1010020B7
:102200000875B968706888474846BDE8F88304EBEC
:10221000440106EBC10101200875D9E71DA0012387
:1022200000901A461946604602F076F8B968706860
:1022300088474846E9E704EB440006EBC0002978EC
:1022400041752979C1751430C8F80000B068401C88
:10225000B06003CDFFF7BAFEB96870688847002008
:10226000D3E700009C930220BC4B00205B417069C7
:10227000204770696F5D2047706F2043746C204960
:102280006E6974205661756C65204572726F72219B
:102290000A0000005B417069204770696F5D20474C
:1022A000706F2043746C20496E6974204572726FA0
:1022B000722C204E6F205370616365210A0000006C
:1022C00070B504461F4DA07804F11006296D002852
:1022D00014D0012834D130468847A16888422FD3D2
:1022E0000020A070E06800282AD0E1786078FFF72D
:1022F0006DFE3046E96CBDE8704008476068002814
:102300001ED030468847E168884219D30120A0706A
:102310006068002801DD401E6060E078012801D07F
:1023200028B108E060780021FFF750FE03E06078F4
:102330000121FFF74BFE3046E96CBDE870400847CD
:1023400070BD0000BC4B00202DE9FC4105461C4E31
:10235000032D0CD31BA00123CDE900051A46194615
:10236000980501F0D9FF4FF0FF30BDE8FC81144C17
:10237000214F083C00217A68206890474FF47A7317
:1023800000224FF4806130460AF07BFA01462B466A
:102390001AA260680AF05EF8002040F213114D4363
:1023A0001A4901EBC501C1F88408D4F8C004401EE5
:1023B000C4F8C004B968206888470020D5E7000049
:1023C00068BE02205B417069204C74655D206572B7
:1023D000726F7220706172616D73206F662074631A
:1023E0007020636C69656E7420656E747279205B11
:1023F00025755D20210D0A00BC4B002041542B5156
:1024000049434C4F53453D25750D0A0094A40220C5
:1024100010B58AB0002109AA03230591CDE907323E
:1024200006913323094CCDE901434FF40072CDE905
:1024300003210A2100910346D0F8902804A104F555
:10244000006004F089FD0AB010BD00008CC30220BA
:1024500041545F434C49454E545F4C54455F544191
:10246000534B000010B5036840F2131253430C4A5B
:1024700002EBC303D3F88C380B60036840F21314EB
:10248000634302EBC303D3F890384B6000682346E4
:10249000584302EBC000D0F89408886010BD0000DB
:1024A00094A402202DE9FE430026029600252D4F1C
:1024B00002A8F96F884741F6F8612B48FDF753FFF2
:1024C000DFF8A880681EC8F8E00D294829A1CDE9E9
:1024D0000010012300220321980501F01DFF02983E
:1024E000417931B990F82006022802D00020BDE8D9
:1024F000FE833A68244925A09047DFF86C9040F2AB
:102500001310684309EBC00404F1700003F006F9EE
:1025100004F6840466602660A660E66026616D1C91
:10252000032DECDB1B4847F8BC0F1B4878601B48A9
:10253000B8601B48F8601B4838611B4878611B482D
:10254000B861042009F062FCC8F8D009FFF760FF09
:1025500000F030F805221649D8F8D0090AF05CF8E6
:102560000020C4E7BC4B002094A4022094B40220B5
:102570005F5203085B417069204C74655D20456EB5
:102580007465722025730A0060BE02204170695F85
:102590004C7465009928010809260108E128010802
:1025A0000D2801084923010865240108A92801080C
:1025B000E844002000B58BB000200AA90322059052
:1025C000CDE9072106903322084BCDE901324FF4C3
:1025D0000071CDE903100A2000900023044A05A1F0
:1025E000084804F0B9FC0BB000BD00004CCC022040
:1025F000997702084C54455F4E45545F5441534B04
:10260000000000004CD402202DE9FE4F05468B4609
:1026100000243C4F3C493DA2D7F88C0ECDE9002167
:10262000401C0123029000220321980501F074FE52
:10263000DFF8F490D7F8CC090021D9F804209047AE
:10264000A7F580584FF0FF3A40F21310604308EBB3
:10265000C000D0F8840860B1641C032CF4DBD9F806
:102660000810D7F8CC098847032C41D00020BDE8DA
:10267000FE8FB5F86600A0F5B441A53929D040F227
:102680001310604308EBC00670213046FDF76BFE67
:10269000E878A978CDE900106B782A78304623A134
:1026A00008F09CFEB5F86400A6F86400A86EB06659
:1026B000E86EF06640F21310604308EBC000C0F80B
:1026C00084A8CBF80040D7F88C0E401CC7F88C0EBD
:1026D000C5E740F21310604308EBC00006467021C6
:1026E000FDF741FE304670222946FDF723FEE1E763
:1026F000012311A000901A461946980501F00CFE1E
:102700005046B4E794B40220415203085B4170691B
:10271000204C74655D20257320636C69656E7420A0
:102720006E756D2025750A00BC4B002025752E2581
:10273000752E25752E2575005B417069204C7465DA
:102740005D2063616E206E6F742066696E6420691F
:10275000646C652074637020636C69656E742065B9
:102760006E74727920210D0A000000001CB50C481F
:102770000CA1CDE90010012300220321980501F0EE
:10278000CBFD0D4C00210620626B9047216840F67E
:10279000B83088470121626B0620904700201CBD9D
:1027A0002F5203085B417069204C74655D20456EB3
:1027B0007465722025730A001C4C00201CB50C485F
:1027C0000CA1CDE90010012300220321980501F09E
:1027D000A3FD0D4C00210620626B9047216840F656
:1027E000B83088470121626B0620904700201CBD4D
:1027F0001E5203085B417069204C74655D20456E74
:102800007465722025730A001C4C00202DE9FC41E0
:1028100005462E680024306803280BD310A1CDE9AB
:10282000001001231A461946980501F075FD601E37
:10283000BDE8FC81174F0DE0E86840F21312011962
:102840003068504307EBC000703002F06DFF401C51
:1028500003D0641C6868A042EEDCAC602046E7E769
:102860005B417069204C74655D206572726F7220E7
:10287000706172616D73206F662074637020636C89
:1028800069656E7420656E747279205B25755D20B4
:10289000210D0A0094A4022002484FF0FF31C0F835
:1028A000E01D704794B4022070B50C460B4A82F8C4
:1028B000900E012810D102F691604FF4A6610546F2
:1028C000FDF751FD2046FDF781FD024621462846D1
:1028D000BDE87040FDF72EBD70BD000094B402202D
:1028E0002DE9F04F89B006463568DFF8E0911421F4
:1028F00004A8FDF738FD764876A1CDE900104FF425
:10290000800A012300220321504601F005FD2868BA
:102910004FF0FF3803280CD373A1CDE90010012339
:102920001A461946504601F0F7FC404609B0BDE88A
:10293000F08F7A4CD4F8E01D491C51D040F21311AD
:102940004143A4F5805707EBC101D1F88418491C15
:1029500046D07168002903DD40F2B452914209DD8E
:102960006FA2CDE90020012302911A461946504674
:1029700001F0D2FCDFF8DCB1D4F8CC090021DBF89F
:1029800004209047C82300224FF48061484609F094
:1029900078FF81463E21D4F8D00909F009FE70681D
:1029A00000902B686CA24946D4F8D00909F052FD7A
:1029B000002820D00021D4F8D00909F0F9FD2868BA
:1029C0006AA1CDE9001001231A461946504601F0CC
:1029D000A3FCDBF80810D4F8CC0988474046A5E7EB
:1029E0006BA1CDE9001001231A461946504601F0AB
:1029F00093FC40469AE70021D4F8D00909F0D8FDAD
:102A0000D6E90121D4F8D00909F0FCFBDBF860100D
:102A10000A208847C82300224FF48061484609F005
:102A200030FF0646002000902B684BA23146D4F8B8
:102A3000D00909F00FFD0028CBD161A1304609F083
:102A4000E7FE0028C5D006A805A9CDE9001004AB13
:102A50005DA262A1304609F005FF401C2BD0DDE9E4
:102A600004102A6860A3CDE90032CDE902100123E9
:102A700000220321504601F04FFCDBF80810D4F887
:102A8000CC098847286840F21312504307EBC00076
:102A90000499C0F88C1828680599504307EBC000CA
:102AA000C0F8901828680699504307EBC000C0F89A
:102AB000941800203AE7286855A1CDE900100123B9
:102AC0001A461946504601F027FC82E768BE0220EC
:102AD000515203085B417069204C74655D20456E5E
:102AE0007465722025730A005B417069204C74651F
:102AF0005D206572726F7220706172616D73206FFC
:102B0000662074637020636C69656E7420656E74F2
:102B10007279205B25755D20210D0A0094B4022096
:102B20005B417069204C74655D206572726F722024
:102B3000706172616D73206F66207463702D2575EE
:102B40002073656E64206C656E205B25755D2021A9
:102B50000D0A0000BC4B002041542B514953454EF7
:102B6000443D25752C25750D0A0000005B417069F8
:102B7000204C74655D207463702D25752073656E1F
:102B8000642064617461206572726F72210D0A00A5
:102B90005B417069204C74655D207463702D2575F0
:102BA000206C696E6B20686164206E6F74206573A1
:102BB0007461626C6973686564210D0A000000002D
:102BC00053454E44204F4B002B514953454E443AF8
:102BD0002025752C25752C25750000002B51495397
:102BE000454E443A000000005B417069204C74651A
:102BF0005D207463702D25752073656E64206C658F
:102C00006E2025752061636B20257520210D0A003B
:102C10005B417069204C74655D207463702D25756F
:102C200020736E642064617461206572726F72201B
:102C3000210D0A0001490160002070476C840220C8
:102C400070B586B0274828A1CDE9001001235D02A8
:102C500000220321284601F05FFB0020039006209C
:102C6000049003A80590274C274904A8A26E90471A
:102C7000401C4FF0FF3620D0012003902249A26E65
:102C8000091D04A89047401C21D0204844F87C0F1F
:102C90001F4860601F48A0601F48E0601F48206117
:102CA0007C3C00F06BF828B184340020A168884790
:102CB00020688047002006B070BD19A00123009055
:102CC0001A461946284601F027FB3046F3E71FA0B5
:102CD000012300901A461946284601F01DFB304694
:102CE000E9E70000FD5103085B41706920537973E7
:102CF00020506172616D5D20456E74657220257390
:102D00000A000000BC4B0020C8440020352C0108FC
:102D1000BD320108253201087D2D0108912F0108DF
:102D20005B4170692053797320506172616D5D2041
:102D3000496E74657220466C617368204F70656ED1
:102D4000206572726F72210A000000005B41706999
:102D50002053797320506172616D5D20496E7465F6
:102D60007220466C6173682042616B204F70656E03
:102D7000206572726F72210A000000002DE9F04F89
:102D80008DB04FF0FF34554855A1CDE90010012317
:102D900000220321580201F0BFFADFF86081D8F861
:102DA000000008904FF4F369CDF82490DFF850B19B
:102DB000CDF82CB002AD0C9500260296514F08A814
:102DC000796F884740F296725946002002F046F823
:102DD000BBF896170BF5F36A81423BD10024D8F873
:102DE00004000890CDF82490CDF82CA00C95029604
:102DF000796F08A8884740F296725146002002F089
:102E00002DF80146BAF8960788420CD1BBF8961700
:102E1000884208D13CA001230090032219465802A1
:102E200001F07AFA56E00123464800901A46194606
:102E3000580201F071FAD8F804000490CDF814900B
:102E4000CDF818B00795029601200390396F04A8B9
:102E500088473FE03C4801234FF4007B00901A462E
:102E60001946584601F058FAD8F804000890CDF8F1
:102E70002490CDF82CA00C950296796F08A888476D
:102E800040F296723149002001F0E8FFBAF8961737
:102E9000814217D12E48012300900322194658463B
:102EA00001F03AFA0024D8F800000490CDF814900C
:102EB000CDF818A00795029601200390396F04A859
:102EC000884707E023A0012300901A461946584678
:102ED00001F022FA0DB02046BDE8F08FB45103088E
:102EE0005B4170692053797320506172616D5D2080
:102EF000456E7465722025730A000000C8440020E6
:102F00006C840220BC4B00205B41706920537973B4
:102F100020506172616D5D2053797374656D20433B
:102F20006F6E6669672047657420537563636573C8
:102F3000732C20506169722053756363657373212C
:102F40000D0A0000C8CC040830CC0408048C022010
:102F500078CC04085B41706920537973205061720A
:102F6000616D5D2053797374656D20436F6E666982
:102F70006720536861646F7720536563746F7220B4
:102F8000476574204572726F72210D0A00000000BF
:102F90002DE9FC478146894989A2CDE90021012319
:102FA00000220321580201F0B7F90025002601276D
:102FB0008A4C4FF4F368B9F1000F0ED14146204618
:102FC000FDF7D1F9522004F8AC0F3A206070802050
:102FD000A070E67026716771AC3C81483221814651
:102FE000FDF7C1F97E48322132308246FDF7BBF948
:102FF0000E227CA14846FDF79DF90F227DA1504687
:10300000FDF798F91E20983484F88B05C0212170B3
:10301000A8206070A7706422E27041F6C8636382E2
:10302000FF2222716271A271E67121726072A77231
:103030001422E27221736073A7736320E07323820A
:1030400084F87E6084F87F7084F8896584F88875D8
:103050004FF4E130C4F8FC0284F8036384F8017390
:10306000082084F8020384F800630A20C4F83805B5
:10307000C4F83C054FF4FA70C4F84005983C601958
:1030800080F8EC646D1CEDB2102DF8D384F8EF7469
:1030900000204FF4967104EB4002A2F8FC14401C8F
:1030A000C0B21028F7D300204FF4005104EB800287
:1030B000C2F81C15401CC0B21028F7D300204FF4F2
:1030C000FA6504EB8001C1F85C55401CC0B21028C1
:1030D000F7D3DC214B48FDF746F93220AE34A4F893
:1030E0006203A4F86453474834215C38FDF73BF988
:1030F000444828212838FDF736F940F6B830C4F89E
:103100000603C4F80A03C4F81653C4F81A53C4F8E3
:103110003E53C4F84253042084F8EF040F2084F88F
:10312000F40484F8F36484F8EE7484F8F17484F899
:10313000F06484F8F56484F8F26484F8F77484F831
:10314000F86484F8F66426486421DC38FDF70BF94E
:10315000234864217838FDF706F92B482BA109682C
:1031600001652CA180300A6842634A6882638968DD
:10317000C16384F86A6184F87475E0782178A27874
:1031800040EA016061780904AE3C41EA022108434B
:10319000B0F1004F01D300F10040010E2170010C8D
:1031A0006170010AA170E07002B04246BDE8F047CC
:1031B0000A4901F5F360FDF7BDB80000DE510308D0
:1031C0005B4170692053797320506172616D5D209D
:1031D000456E7465722025730A0000006C8402201D
:1031E000988602204952313031524330392D472DD3
:1031F00057470000503232303431313031323230C2
:10320000363133007C8802206C850220726F6F7427
:103210000000000048696B6C696665403132332BF1
:103220000000000030B589B0184819A1CDE90010A0
:10323000012300220321580201F06EF840F2967239
:103240001A49002001F00AFE1849A1F896074FF428
:10325000F3652A46A1F5F360FDF76CF8144C20687D
:10326000059006951348079003A808900020039046
:1032700001200490104D05A8296F884760680590CB
:10328000296F05A8884709B0002030BDCB5103083D
:103290005B4170692053797320506172616D5D20CC
:1032A000456E7465722025730A000000048C0220AC
:1032B000C84400206C840220BC4B002001490160FE
:1032C00000207047048C0220034902484A68C06805
:1032D00000211047D46A0020BC4B0020034902485B
:1032E0008968C06808470000D46A0020BC4B0020F1
:1032F0000146034A0148526940681047D46A0020D9
:10330000BC4B002003490248896940680847000017
:10331000D46A0020BC4B00200146034A0148526990
:1033200000681047D46A0020BC4B002003490248C3
:103330008969006808470000D46A0020BC4B00205F
:1033400010B5044600F0DCFD09F070FB2046BDE836
:10335000104009F0DDBA0000F0B589B006460F460E
:1033600015461F4C02A8E26C904704960020059079
:103370008DF819008DF818008DF81A502A46394634
:103380000DF11B00FCF7D6FF164F04A9384609F0D3
:10339000D8FC06464FF4FA7507E03146384609F086
:1033A00043FD01280ED0082811D0226D02A89047B5
:1033B000A842F2D93146384609F020FD4FF0FF30DF
:1033C00009B0F0BD216E012088470020F8E70123F5
:1033D00005A000901A461946180400F09DFFE9E781
:1033E000BC4B0020006400405B43616E5D20636164
:1033F0006E302073656E64206572726F72210A00F0
:103400002DE9FC4781460D4616460024F01706EBD1
:1034100050704FEAE00820F00700371A1DA04FF463
:10342000803A0090012300220521504600F074FFED
:103430000AE0285D1AA1CDE9001000231A460521F3
:10344000504600F069FF641CB442F2DB16A0002372
:1034500000901A460521504600F05EFF00240BE064
:1034600005EBC40108224846FFF776FF18B14FF07C
:10347000FF30BDE8FC87641C4445F1DB47B102B076
:10348000FAB205EBC4014846BDE8F047FFF764BF58
:103490000020EEE763616E2073656E643A0A0000F7
:1034A00025303258200000000A000000012016F0EC
:1034B000A9B8000010B5094901EB0014208816F0E6
:1034C000D1F941F20E1016F0CDF9D4E9023260685C
:1034D000BDE8104000210BF001BD00007048002045
:1034E000034901EB0010816840680BF0F0BC00005C
:1034F00070480020034901EB001081684068816139
:1035000070470000C046002070B505460E4800EB2D
:103510000514208816F0A6F9D4E901030022012140
:103520000BF0DCFCD4E90103022200210BF001FDC9
:10353000E06820B12846BDE87040FFF7DBBF2846B1
:10354000BDE8704000F002B8C0460020034901EB1E
:10355000001081684068816270470000C04600200A
:10356000034901EB001081684068C16270470000A8
:10357000C046002006480078002804D0012804D066
:103580004FF0FF3070470020704701207047000067
:103590001049002010B541F21C0016F063F915F037
:1035A00089FD05F065FC22480068A0F54851F03916
:1035B00002D005F079FC14E041F61B5016F094F8A7
:1035C0001C4C20B941F6195016F08EF810B10020AD
:1035D000207006E041F61A5016F086F808B1012076
:1035E000207015F0FDFF4FF4800420460BF0CEFA5A
:1035F0000022114620460BF0CFFA0022114603208C
:1036000015F014F920460BF0C1FA20131BF09CFDB5
:1036100020121BF039FE04201BF078FE00201BF066
:10362000CDFE1BF0BBFEBDE8104000F005B8000069
:10363000502800401049002010B58CB012481BF0F3
:1036400055FD114C207805F0FDFB64300690607844
:1036500005F0F8FB401E0590A07805F0F3FB049000
:10366000207905F0EFFB0390607905F0EBFB029009
:10367000A07905F0E7FB019001A8FCF707FE0CB06C
:10368000A0F5E14010BD000010F003202DE9F05F2F
:103690000446DDF828B0884691469A464FF48005E6
:1036A00028460BF073FA032015F0B5F82E133046B8
:1036B0001BF04AFD2F1238461BF0CCFD1BF04CFED0
:1036C000204605F0C8FB1E4C2070404605F0C3FBA9
:1036D0006070484605F0BFFBA07000202061504696
:1036E00005F0B9FB2071584605F0B5FB60710B98E9
:1036F00005F0B1FBA07120461BF038FD04462846BA
:103700000BF044FA0022114628460BF045FA00223D
:103710001146032015F08AF828460BF037FA304698
:103720001BF012FD38461BF0AFFD04201BF0EEFD30
:1037300000201BF043FE1BF031FE2046BDE8F09F49
:1037400010F003202DE9F04790B088461746352148
:1037500000FB01F283495418226A256B8249012B30
:103760000E5C06D14B1E18701EB1002010B0BDE8D3
:10377000F0874FF0FF3C0EB16046F7E7012F7DD098
:10378000A5230B5410211046FCF7EDFDA41CA088C6
:1037900016F068F8608816F065F8E08816F062F8B0
:1037A000E2686169A0680BF060FB22696169A0684A
:1037B0000BF05BFBE368A068012202210BF08EFB9B
:1037C000E368A068022200210BF0B3FB2369A06824
:1037D000012202210BF082FB2369A41E0222D4F8ED
:1037E0000A0000210BF0A5FB206820F083FC206874
:1037F000414620F017FC2068042120F037FD2068A6
:10380000082120F039FD4FF4A06015F055F8002292
:1038100094F82C00114615F009F82068534920F05F
:10382000F7FC54F8020B20F0E1FC217FA0693D2257
:1038300009F013FF217FA06909F0D5FE00260D963F
:10384000D4F8260009900A960B96D4F822000E9020
:1038500054F8020C001D07900C964FF00108CDF8AB
:1038600020804FF44039CDF83C9009A91C228A46AB
:103870006846FCF75FFD217FA06900E023E0434636
:10388000079A09F091FF217FA06909F0A3FE627FEA
:10389000217FA06909F08AFE002294F82B001146CE
:1038A00014F0C4FF217FA069102209F0C7FE217F18
:1038B000A06909F072FE54F8020D402120F08AFC44
:1038C000012F07D04CE02B0002D05A230B5459E7AC
:1038D00060464BE716343D22217E606809F0BDFE4C
:1038E000217E606809F07FFE40200D9005F10C00FC
:1038F00009900A960B964FF4A0500E9054F8160CAF
:10390000001D0790CDF83080CDF83C9045F6A520FD
:1039100028801C2251466846FCF70CFD217E606819
:103920004346079A09F040FF217E606809F049FE8E
:10393000627E217E606809F039FE0022A07F114678
:1039400014F074FF217E6068102209F077FE217E5A
:10395000606809F019FE54F8160C002120F040FCB4
:10396000002003E717550308B94600201000001097
:1039700070B53521484320494418256AA17FD4F801
:103980001A0001EB4102102303EBC2028258D20756
:103990001BD009F05BFFA18C081A6880A888012859
:1039A00014D0A888012810D9A17FD4F81A0009F0F2
:1039B000EBFD2068002120F00DFC6888616A401C46
:1039C000B0FBF1F201FB1200288070BD68882988E5
:1039D0008842FAD3A17FD4F81A0009F0D5FD2068F7
:1039E000002120F0F7FB6888616A401CB0FBF1F20F
:1039F00001FB1200288070BD1755030870B53521F2
:103A000000FB01F218495418256AA27FD4F81A1055
:103A100002EB4202102303EBC2028958C90722D1EC
:103A200029886A8891421ED1014610A007F0C6FC81
:103A3000002028806880A880A17FD4F81A003D2249
:103A400009F00BFE626AA17FD4F81A0009F0F8FEB3
:103A5000A17FD4F81A0009F0A0FD2068BDE87040ED
:103A6000402120F0B7BB70BD17550308496E64654F
:103A7000782564205265537461727420444D41204E
:103A80005472616E736D697474696E67202E2E2E88
:103A90000D0A0000F0B500243523164D43432B4496
:103AA0001B6B154D2D5C601E5A2D21D15D889E88A3
:103AB000C5F5A0552E444FF4A05596FBF5F705FB30
:103AC0001766DE80DE881644AE4211D203F10C0682
:103AD0000BE0085D9F88B8559888401CB0FBF5F74F
:103AE00005FB17009880641CA4B29442F1D3002017
:103AF000F0BD000017550308B946002070B5352108
:103B00004843114945182C6B12353D22297FA8687E
:103B100009F0A3FD297FA86809F036FD55F8120CBD
:103B2000002120F05DFB6088218908444FF4A051FA
:103B3000B0FBF1F201FB120060800020208145F60D
:103B4000A520208070BD000017550308352148438B
:103B500003490844006A8188491C8180704700003D
:103B60001755030870B503464FF0FF343520114A4E
:103B700058431044026A15885688B5420FD0846AAB
:103B80001588645D0C701188406A491CB1FBF0F423
:103B900000FB141040B11088401C1080002418460F
:103BA000FFF72CFF204670BD9088401E90800020BB
:103BB0001080F3E7175503082DE9FC4106460D4632
:103BC000174600241DA0CDE900064FF4006801232C
:103BD00000220521404600F09FFB0BE02B5D1BA05F
:103BE000CDE9000300231A460521404600F094FB6E
:103BF000641CA4B2BC42F1D316A0002300901A4664
:103C00000521404600F088FB1348805D5A2809D002
:103C1000A52810D102B03A4629463046BDE8F04109
:103C200000F01CB802B03A4629463046BDE8F041E3
:103C30000023FFF72FBFBDE8FC810000756172749F
:103C40002025752073656E643A0A000025303258CD
:103C5000200000000A000000B94600202DE9F041D4
:103C600007460D461646002405E0295D384600F05B
:103C700007F8641CA4B2B442F7D3BDE8F081000099
:103C800010B535225043064A8418206820F02EFAD9
:103C90002068072120F0AFFA0028F9D010BD0000FD
:103CA0001755030870B50D4616463521134A414392
:103CB0008C18216B124A105C5A281ED145F2AA506A
:103CC000088012343D22217FA06809F0C6FC217FC4
:103CD000A0682B46002209F05CFD217FA0683246D7
:103CE00009F0AEFD217FA06809F057FC54F8120CD2
:103CF000BDE87040802120F073BA70BD17550308ED
:103D0000B946002002A007F059FB02F01BFB00009F
:103D10005B4275734661756C745F48616E646C6577
:103D2000725D0D0A0000000010B500F0A3F800F06D
:103D300005F8BDE8104000F09BB800002DE9F04107
:103D4000104E002737807780B760F7607761B761E2
:103D500037610025FCF752FA80460024776100F0B5
:103D600049F800F059F870690544641CA4B2002CAD
:103D7000F4D035617761B7614046BDE8F041FCF7AA
:103D800041BA0000D84A002003490969884201D994
:103D9000401A704700207047D84A002010B5FCF741
:103DA0002DFA04494C69FCF72DFA2046BDE8104075
:103DB000FFF7EABFD84A002010B5FFF7EFFF04462F
:103DC000FCF71CFA034A00215161FCF71BFA20465C
:103DD00010BD0000D84A002010B5FCF70FFA0449C6
:103DE0008C69FCF70FFA2046BDE81040FFF7CCBF06
:103DF000D84A002010B5074C2088401C20806088DD
:103E0000002802D100F05CF8A0606088401C60804F
:103E100010BD0000D84A002010B50A4C6088401E32
:103E200080B2608000280CD100F04AF8E060A16800
:103E3000401A6169814200D26061A169814200D269
:103E4000A06110BDD84A002010B5FCF7D7F9044690
:103E5000FFF7D0FF1021054801F072FCFFF7DCFFEF
:103E60002046BDE81040FCF7CDB90000886106206F
:103E7000FFF7EABF02490020486000F009B80000DF
:103E8000D84A00200149486070470000D84A002005
:103E900010B5FFF70BFB08490A6842F080720A6010
:103EA000064900224A600A6842F001020A60BDE841
:103EB0001040FFF7E7BF0000FCED00E0001000E05D
:103EC0000148406870470000001000E070B5002411
:103ED000074D07E00E5D4640F6B255F8266086EACB
:103EE0001020641C9442F5D3002B00D0C04370BD59
:103EF000B44D0308014805F045B80000F060032008
:103F0000034B0C224FF44871A3F1140005F053B891
:103F1000046103200146014805F054B8F060032015
:103F20000146014805F06AB8F0600320F0B4074686
:103F3000184600250026002419E04B5DA3F1300C43
:103F4000BCF1090F09D804EB84046400303C1C4424
:103F5000FF2C0AD90020F0BC70472E2B01D0002086
:103F6000F9E784550024761CF6B26D1CEDB295423B
:103F7000E3D3032E01D00020EDE7E2B2C270017856
:103F80007F2903D021B1FF2904D00BE00220E2E712
:103F90000220E0E74378FF2B04D18378FF2B01D187
:103FA000FF2A05D0012F05D0DF290AD90020D2E74A
:103FB0000220D0E7FF2A02D0F0BC01F057B8002061
:103FC000C9E70120C7E7FEB5074616460020029064
:103FD00001900090002302AD01A86A46FC5C11F834
:103FE00003C004EA0C04EC5411F803C064EA0C04A6
:103FF000C454F45C11F803C004EA0C04D4545B1CF0
:10400000DBB2042BEAD3042202A96846FCF7F3F9D9
:1040100008B10220FEBD042202A93046FCF7EBF9EC
:1040200098B1042201A93046FCF7E5F978B10422E1
:1040300002A93846FCF7DFF958B1042201A9384635
:10404000FCF7D9F938B10120FEBD0320FEBD0420E4
:10405000FEBD0520FEBD0620FEBD024608460178D5
:104060007F2903D021B1FF2904D00CE00020704744
:10407000002070474378FF2B05D18378FF2B02D1B6
:10408000C378FF2B05D0012A05D0DF290AD90020EB
:10409000704700207047C178FF2901D000F0E6BFCB
:1040A0000020704701207047F0B500230024002550
:1040B00000261FE0C25CA2F120070F2F08D91A3F8B
:1040C000062F05D9213F052F02D9203F032F01D804
:1040D00001240DE0A2F13007092F01D8012507E0E6
:1040E000A2F14106192E02D9613A192A09D80126EE
:1040F0005B1CDBB28B42DDD334B12DB126B1002085
:10410000F0BD4FF0FF30F0BD6FF00100F0BDFCF7E7
:1041100075B810B5FCF776F8002010BD08B56846F4
:1041200002F068FCBDF8000008BD08B5684602F062
:1041300087FCBDF8000008BD064805490162064934
:104140004162064981620649C16200207047000051
:104150001D410108BC4B00202B4101080F41010803
:104160001341010810B506240748202290F86C116D
:10417000D0F8580109F08CFA002804D02046BDE898
:104180001040FFF7BBBC10BD1755030810B5084C15
:1041900020220121204609F07BFA10B10220FFF70E
:1041A000D5FC20463D22BDE81040012109F055BA5A
:1041B0000060024010B5084C20220221204609F080
:1041C00067FA10B10320FFF7C1FC20463D22BDE88D
:1041D0001040022109F041BA0060024010B5084CBD
:1041E00020220321204609F053FA10B10520FFF7E1
:1041F000ADFC20463D22BDE81040032109F02DBA58
:104200000060024010B503240748202290F8CD102A
:10421000D0F8B90009F03CFA002804D02046BDE8E7
:104220001040FFF76BBC10BD1755030810B5084CC4
:1042300020220521204609F02BFA10B10120FFF7BA
:1042400085FC20463D22BDE81040052109F005BA55
:104250000060024010B5084C20220621204609F0DB
:1042600017FA10B10620FFF771FC20463D22BDE889
:104270001040062109F0F1B90060024010B5084C69
:1042800020220121204609F003FA10B10420FFF793
:104290005DFC20463D22BDE81040012109F0DDB95A
:1042A0000064024010B5084C20220221204609F08B
:1042B000EFF910B10020FFF749FC20463D22BDE890
:1042C0001040022109F0C9B90064024010B504246D
:1042D0000748202290F80211D0F8EE0009F0D8F932
:1042E000002804D02046BDE81040FFF707BC10BDF1
:1042F0001755030810B5002406482022017D0068E8
:1043000009F0C6F9002804D02046BDE81040FFF7A8
:10431000F5BB10BD315503080FB42DE9F04F8FB038
:104320001E464FF00009CDF83090CDF83490CDF80E
:10433000389000240025D4480DF174080078002836
:104340007CD1D24818998068084277D0D049199812
:104350000978884272D8CF4F40F2DC513888C0F5D6
:10436000A05088426AD3DFF830A3DAF820008047F3
:1043700038887988884203D1A7F80290A7F800907E
:10438000DFF818B39BF8000038B93888C4A1384466
:10439000001D07F023F884B2254601208BF80000A9
:1043A000BD48816C08A88847089800F5E1400B904B
:1043B0000BA8FCF7B7F94269642102F26C7292FB18
:1043C000F1F303F0FF0A8DF830A092FBF1F301FB4B
:1043D000132101F0FF0B8DF831B0017C491CC9B2EB
:1043E0008DF83210027B8DF83320D0F808C01823E6
:1043F0009CFBF3FE03FB1EC3DBB28DF8343090F858
:1044000004C08DF835C000788DF83600DDF868E01E
:10441000BEF1010F7ED0BEF1020F7CD0BEF1030FC2
:104420007AD086B1099C8DE80E10CDE90404388855
:104430005B46C119281D0844524600E020E099A1BE
:1044400006F0CCFF84B2281984B242463888C119DC
:10445000201D08441C9906F0EFFFCDF82890204459
:1044600084B238881B22C119201D084497A106F088
:10447000B5FF20443988084438808748406A80471F
:104480008248189942680A425FD00078199981429F
:104490005BD8814C206A8047A16C08A8884708989F
:1044A00000F5E1400B900BA8FCF73CF94269642150
:1044B00002F26C7292FBF1F3DFB28DF8307092FB76
:1044C000F1F301FB132101F0FF0C8DF831C0017CE9
:1044D000491CCDB28DF83250017B8DF833108368C2
:1044E000182293FBF2FA02FB1A32D2B28DF8342072
:1044F00003798DF8353000788DF83600DDF868A046
:10450000BAF1010F72D0BAF1020F70D0BAF1030FF5
:104510006ED002E01EE03BE058E056B1099ECDE9C6
:1045200003068DE80E002B46624639465DA006F074
:1045300045FF41461C9806F065FFCDF828901B21E9
:1045400062A006F03BFF606A80470FB0BDE8F00F45
:104550005DF814FB96B1099CCDE9033CCDE900B1AF
:10456000CDE90504029238885346C119281D084434
:104570001B2259A106F032FF84B264E738881B225F
:10458000C119281D084460A106F028FF84B25AE72B
:1045900096B1099CCDE9033CCDE900B1CDE9050414
:1045A000029238885346C119281D08441B2259A17C
:1045B00006F014FF84B246E738881B22C119281D73
:1045C000084460A106F00AFF84B23CE7B6B1099C3A
:1045D000CDE9033CCDE900B1CDE90504029238886C
:1045E0005346C119281D08441B2202E010E023E0B5
:1045F00036E057A106F0F2FE84B224E738881B2289
:10460000C119281D08445EA106F0E8FE84B21AE72D
:104610006EB1099ECDE90223CDE90406CDE9005132
:1046200063463A461B212CA006F0C8FE81E71B21F9
:1046300035A006F0C3FE7CE76EB1099ECDE90223EA
:10464000CDE90406CDE9005163463A461B2131A06D
:1046500006F0B4FE6DE71B213AA006F0AFFE68E756
:104660006EB1099ECDE90223CDE90406CDE90051E2
:1046700063463A461B2136A006F0A0FE59E71B21EF
:104680003FA006F09BFE54E7B641002038490020C9
:10469000B741002016910120BC4B0020B5410020FD
:1046A0000D0A000025303264253032642D25303269
:1046B000642D2530326420253032643A253032644E
:1046C0003A253032643A25303364200025635B306C
:1046D0003B33376D0000000025635B313B33316DA8
:1046E00025303264253032642D253032642D25305A
:1046F000326420253032643A253032643A25303233
:10470000643A25303364200025635B313B33316DDF
:104710000000000025635B313B33336D253032648C
:10472000253032642D253032642D25303264202529
:104730003032643A253032643A253032643A2530DA
:104740003364200025635B313B33336D0000000090
:1047500025635B313B33326D253032642530326462
:104760002D253032642D2530326420253032643AD4
:10477000253032643A253032643A253033642000E3
:1047800025635B313B33326D000000000248018835
:104790004088081A70470000169101202DE9F04169
:1047A0004FF480641F4E3068002839D0007E042802
:1047B00036D11D4D1D4FA04630E0288869884446FB
:1047C000401AA04200DA84B244B3386A80471648DF
:1047D0006988001D01440123224630681CF035FF22
:1047E000A0B131681248B1F8662006F0E7FD3068E4
:1047F00020B11BF0CDFD30681AF068FF0020688002
:10480000288030600B4908700B4988606888204414
:10481000688030681BF0BCFD786A80474445CCD086
:10482000BDE8F081D041002016910120BC4B002052
:10483000ECD20408B74100203849002070B50024AC
:10484000184D285D5A2827D1352017496043084460
:10485000006B0188A1F5B442A53A1DD14188828838
:10486000914219D081884288914204D98188428836
:10487000891A018103E04188C1F5A05101810189B4
:104880004289914201D901894181028941880C30D4
:104890000144E0B2FFF706FA641C072CD1D30020D4
:1048A00070BD0000B946002017550308002808D045
:1048B00041F288320021491C9142FCD3401E00285D
:1048C000F8D17047002808D04FF4FA720021491C33
:1048D0009142FCD3401E0028F8D1704730B58DB00E
:1048E000234824A1CDE900100123002203219803CD
:1048F000FFF712FD00200C90244C0CA8E16F8847B4
:1049000023480568142103A8FBF72DFD0C98C178F6
:104910008DF80C1081788DF80D1041788DF80E10FF
:10492000017804208DF80F100895009003AB41F238
:1049300003020D21174814F017FD099015480A903D
:104940000C9890F82006022807D0FEF7BDFC216FD6
:1049500008A88847FEF7C2FC07E0FEF7B5FCD4F8CC
:10496000C41008A88847FEF7B9FC0DB0002030BD80
:10497000274903085B706F7274206170705D204579
:104980006E7465722025730D0A000000BC4B002078
:1049900038AF012066B2012030B58DB0274828A17C
:1049A000CDE900100123002203219803FFF7B4FC96
:1049B00000200C90284C0CA8E16F88472748056818
:1049C000142103A8FBF7CFFC0C98C1788DF80C10CC
:1049D00081788DF80D1041788DF80E1000788DF8E3
:1049E0000F001F4800888DF81000010A06208DF87E
:1049F00011100895009003AB41F201020D211948F6
:104A000014F0B2FC099017480A900C9890F8200610
:104A1000022807D0FEF758FC216F08A88847FEF748
:104A20005DFC07E0FEF750FCD4F8C41008A88847E6
:104A3000FEF754FC0DB0002030BD000018490308FB
:104A40005B706F7274206170705D20456E7465726A
:104A50002025730D0A000000BC4B002038AF012058
:104A60000811002066B20120F0B589B0284DA86A6F
:104A7000804728490C68E96A884727480090012345
:104A8000002203210220FFF747FC24A0009001230D
:104A9000002203210220FFF73FFC2CA000900123FD
:104AA000002203210220FFF737FC25E034F8880FAD
:104AB000FBF7EBFD3149FBF7AAFDFBF7EBFDD4E972
:104AC00008236426D7185643B6FBF7F654F8687CDB
:104AD000CDE90717069014F8510C01A94DC128A083
:104AE00000900123002203210220FFF715FCA86A91
:104AF0008047246BE96A8847002CD7D12B48009067
:104B00000123002203210220FFF706FC09B0F0BDBB
:104B1000BC4B0020904A0020B4CF040820D3C5CF5E
:104B2000C8BCB620CAB9D3C3D5BB20CAA3D3E0D56D
:104B3000BB20B0D9B7D6B1C820C0FBD3C3C2CA20EE
:104B40002020C8CECEF1C3FB0D0A000020205072F9
:104B5000696F2020205573656420204672656520AA
:104B600020205065722020202043505520202020F6
:104B7000205461736B6E616D650D0A000000C842C0
:104B8000202020253264202025356420202535640E
:104B900020202025303264252520202025352E3266
:104BA00066252520202025730D0A000070CF0408FB
:104BB00010B54FF4806420460AF02EF82046BDE878
:104BC00010400AF023B800007CB50546044C684646
:104BD000E16C8847216D68468847A842FAD97CBDB8
:104BE000BC4B002010B50920FEF7B0FC6420FFF795
:104BF000EBFF0920FEF77EFCBDE810406420FFF7C4
:104C0000E3BF000070B504460D460AF0A9F8D320B2
:104C10000AF052F8204600F05FF90446284600F0FA
:104C20005BF90646084D09E055F824000AF058F8EB
:104C300018B10AF047F8012070BD641CB442F3D9E2
:104C40000AF040F8002070BD3C46002010B50AF084
:104C500087F8BDE81040D3200AF02EB830B5002305
:104C6000074C07E005682D6841F8235005682D1DA5
:104C700005605B1C934202D20568A542F2D930BDA3
:104C8000FBFF1F082DE9F04105460E46174600249C
:104C90000AF066F8D3200AF00FF8DFF8488018E031
:104CA00056F8241028680AF06DF820B10AF00AF8C6
:104CB0000120BDE8F081286856F824100068884279
:104CC00003D009F0FFFF0220F3E72868001D2860E9
:104CD000641CBC4202D228684045E1D909F0F2FFC9
:104CE0000020E6E7FBFF1F0870B50546224C207840
:104CF000627890423ED0A0780A230146401CB0FB67
:104D0000F3F603FB1606964201D0914216D101EB51
:104D1000C10000EB011004EB4000C01CFBF756FB88
:104D20000246A07800EBC00101EB001004EB40014B
:104D3000C91C2846FBF7FEFAFF2070BDB0FBF3F15B
:104D400003FB1100A07000EBC00101EB001004EBAD
:104D50004000C01CFBF73AFB0246A07800EBC00104
:104D600001EB001004EB4001C91C2846FBF7E2FAF6
:104D7000012070BD002070BD1E8F012070B505465A
:104D80001F4C21786078814237D0A078814216D1BB
:104D900000EBC00101EB001004EB4000C01CFBF76E
:104DA00015FB0246A07800EBC00101EB001004EBFC
:104DB0004001C91C2846FBF7BDFAFF2070BDC8B1F1
:104DC000401EA070A07800EBC00101EB001004EBC6
:104DD0004000C01CFBF7FAFA0246A07800EBC001C5
:104DE00001EB001004EB4001C91C2846FBF7A2FAB6
:104DF000012070BD0920A070E4E7002070BD000014
:104E00001E8F01202DE9FC4706460F469046994625
:104E10000024354606E028194A464146FBF701FBC7
:104E200030B1641CBC42F6D34FF0FF30BDE8FC87C4
:104E300005A0CDE900060123032219462020FFF733
:104E40006BFA2046F2E7000046696E645F626F7598
:104E50006E646172792025730D0A00002DE9F0411E
:104E600000244FF6FF7741F2210C12E000230E5D83
:104E700000F4004806FA03F505F0800585EA1825D8
:104E800007EA40000DB180EA0C005B1C082BEFDB49
:104E9000641C9442EADBBDE8F081000030B50023D9
:104EA0000022064C05E010F8015B5D40635D521C7A
:104EB000D2B28A42F7D3184630BD00001848030822
:104EC0000048704738AF01200048704734B10120D6
:104ED000004870470442002010B501460020A1F1AF
:104EE00000624FF480439A4204D3454808449842F4
:104EF00001D2012010BD43480844984201D202204B
:104F000010BD41480844984201D2032010BD3F48DB
:104F10004FF480340844A04201D2042010BD3C4824
:104F20004FF400320844904201D2052010BD3948A8
:104F30000844904201D2062010BD374808449042F0
:104F400001D2072010BD35480844904201D2082004
:104F500010BD33480844904201D2092010BD3148A9
:104F60000844904201D20A2010BD2F4808449042C4
:104F700001D20B2010BDA1F10160984201D20C209A
:104F800010BD2A480844984201D20D2010BD28487F
:104F90000844984201D20E2010BD26480844984289
:104FA00001D20F2010BD24480844A04201D2102095
:104FB00010BD22480844904201D2112010BD204863
:104FC0000844904201D2122010BD1E48084490426D
:104FD00001D2132010BD1C480844904201D2142075
:104FE00010BD1A480844904201D2152010BD18483F
:104FF0000844904201D2162010BD172010BD0000B9
:1050000000C0FFF70080FFF70040FFF70000FFF748
:105010000000FEF70000FCF70000FAF70000F8F7C8
:105020000000F6F70000F4F70000F2F700C0EFF719
:105030000080EFF70040EFF70000EFF70000EEF719
:105040000000ECF70000EAF70000E8F70000E6F7E0
:105050000000E4F70148406970470000D46A00206E
:105060000148406870470000B0B400200021027879
:105070001202437813431B0282781A431202C0784B
:10508000104302E04008491CC9B2C207FAD000B17F
:1050900021B9002070474008491CC9B2C207FAD1A3
:1050A00008B9202901D00020704701207047000076
:1050B0008CB000240A9400F025FF274D0AA8E96F60
:1050C000884726484FF47A710068B0FBF1F0401E23
:1050D000B0F1807F08D24FF0E0214861204AF020F3
:1050E00010708C6107200861FEF71EFE0BA801F00E
:1050F000C9FE06AB0BAF03260594D0C34FF4007076
:10510000CDE903043321174ACDE90121092000909C
:105110000023154A15A1184801F01EFF06AB05949F
:10512000D0C34FF48060CDE903046621134ACDE972
:1051300001210B20009010480023114A11A1C0301A
:1051400001F00AFF04F002FF296E4FF4FA6088476D
:1051500013F0B0FEFCE70000BC4B0020004A00202A
:1051600023ED00E094500020F19501085359535F5E
:1051700053544154450000005469002094580020C5
:10518000856301084E45545F504552494F44494399
:10519000000000002DE9F0410646314C0A256078F8
:1051A0000930B0FBF5F105FB110000EBC00101EB8C
:1051B000001004EB4000C01CFBF708F9074630461E
:1051C000FBF704F9874214D13046FBF7FFF802469B
:1051D00060780930B0FBF5F105FB110000EBC00170
:1051E00001EB001004EB4000C01C3146FBF703F953
:1051F00090B36078401CB0FBF5F105FB11012078FD
:10520000814210D100EBC00101EB001004EB400023
:10521000C01C3221FBF7A7F82078401CB0FBF5F149
:1052200005FB110020703046FBF7D0F8024660788D
:1052300000EBC00101EB001004EB4000C01C314644
:10524000FBF778F86078401CB0FBF5F105FB110026
:105250006070A070BDE8F081FFE76078A070F9E7AA
:105260001E8F01207CB50446601C4FF0FF311DD01D
:10527000104E06EB44156868D0B10FA0CDE90004CC
:105280000123022219468020FFF746F8A96909B1D7
:1052900020468847154C30680021626890470020FE
:1052A0006860A1683068884700207CBD08467CBDE6
:1052B00008467CBDDCDD02205B494E544552464128
:1052C00043455D2073657420696E665F66642025C2
:1052D0007520746F2069646C652C2062656361754C
:1052E000736520636C6F73650A000000BC4B00207F
:1052F0002DE9FC410024184818A1CDE90010012334
:10530000002203218020FFF707F81A4E06EB441510
:105310006868D0B1A96909B120468847296909B1EF
:1053200020468847144F306800217A68904713A0C0
:10533000CDE900040123022219468020FEF7ECFF8C
:1053400000206860B96830688847641C142CDDDB75
:105350000020BDE8FC810000955203085B494E54D3
:105360004552464143455D20456E74657220257364
:105370000A000000DCDD0220BC4B00205B494E54DB
:105380004552464143455D2073657420696E665FF2
:10539000666420257520746F2069646C652C20621A
:1053A000656361757365206465696E69740A0000E0
:1053B00010B54FF421710A48FAF7D5FF094C084996
:1053C00009A0226890470B48A0660B48E0660B488E
:1053D00020670B4860670B48A067002010BD0000E5
:1053E000DCDD0220BC4B0020496E7465726661638F
:1053F0006500000009540108655201084156010882
:10540000F5550108F15201082DE9F04F85B0064627
:1054100089460024A246CDF810A0C9F800A045484E
:1054200045A1CDE900100123002203218020FEF7D1
:1054300073FFDFF82081464F0021D8F80420386838
:10544000904707EB4410406840B1641C142CF8DB13
:10545000142C08D0404DDFF804B121E007EB4411D3
:1054600001204860F4E73EA0012300901A46194647
:105470008020FEF751FFD8F80810386888474FF0B1
:10548000FF3005B0BDE8F08F28683168884206D14A
:1054900007EB441084606968001D884702E0083506
:1054A0005D45F1D35D4514D130683AA1CDE90010D6
:1054B00001231A4619468020FEF72EFF07EB441001
:1054C000C0F804A0D8F80810386888474FF0FF30BB
:1054D000D7E707EB44146269E2B104A9706890470A
:1054E000401C1DD00498E0600834C9F80040D4E99D
:1054F000001036A2CDE90210CDE9002401230322D9
:1055000019468020FEF708FFD8F808103868884749
:105510000020B6E7D8F80810386888470020B0E7C0
:10552000C4F804A0D8F80810386888474FF0FF3056
:10553000A7E70000865203085B494E544552464196
:1055400043455D20456E7465722025730A00000096
:10555000DCDD0220BC4B0020D4D704081CD8040892
:105560005B494E544552464143455D2063616E2080
:105570006E6F742066696E642069646C6520696E64
:1055800074657266616365206F707320656E7472F6
:1055900079210A005B494E544552464143455D20FE
:1055A00063616E206E6F742066696E6420696E6937
:1055B0007420656E74727920666F7220696E7465EE
:1055C00072666163652025640A0000005B494E54E1
:1055D0004552464143455D206F70656E207375638B
:1055E000636573732C2066642025705B2575202508
:1055F000705D0A0030B44FF0FF3300280DD0016811
:105600000A68541C0CD00D4C04EB4212156A95B17B
:10561000556885B14B682BB106E0184630BC704721
:105620001846FBE7D2684A600168096804EB41113B
:10563000096A30BC08471846F0E70000DCDD0220AC
:105640007CB54FF0FF3400280DD0026811684B1C68
:105650000BD0124D05EB4113DE699EB15E688EB131
:10566000516821B105E020467CBD20467CBDD9684B
:1056700051600168096805EB4111C96902B0BDE8D4
:105680007040084706A00123CDE900011A461946DB
:105690008020FEF741FE20467CBD0000DCDD0220BC
:1056A0005B494E544552464143455D20696E665FF5
:1056B0006664202575202D3E20777269746520650B
:1056C0007272210A0000000000B595B0342104A8D0
:1056D000FAF749FE00200190029003900D494968B5
:1056E0001191009001AB03220D2104A813F0B8FD25
:1056F000129004A8139000F0F1FB0748016F11A865
:10570000884700F0F5FB4FF4FA70FDF7F1FD15B096
:1057100000BD000038AF0120BC4B0020012200F189
:105720001403D10203F047BC03F04CBC03F066BC89
:1057300010B508F053FEBDE8104012F0B7BC70473A
:105740000A460021AFF3008010B5002300241B029D
:105750000B43641C042CFAD300F0030424B909E0C1
:1057600000F8011B521E641C22B1042CF8D301E086
:1057700008C0121F042AFBD202E000F8011B521ECF
:10578000002AFAD110BD000030B58BB0164817A121
:10579000CDE900100123002203219803FEF7BCFD90
:1057A000184844680025142102A8FAF7DCFD079484
:1057B00002AB03220D211448009513F051FD08900F
:1057C0001148099000F08AFB1048016F07A888472C
:1057D00000F08EFBC820FDF78BFD10B1681E0BB0EA
:1057E00030BD0020FBE70000334903085B706F7297
:1057F0007420726669645D20456E7465722025733D
:105800000D0A000038AF012066B60120BC4B002015
:105810002DE9F0478EB0202102A8FAF7A4FD002759
:10582000FFF74EFB04463C4E94F8ED0140F6B838C5
:105830004FF00109002590BB04F15000316D824604
:10584000884740452BD9F16C5046884760680A90DC
:1058500002AB08220D213148009713F001FD0B9097
:105860002E4F0C9700F03AFB316F0AA8884700F0E2
:105870003FFB8DF8085002208DF80950009002ABD4
:1058800045F203020D21384613F0EAFC0B900C9709
:1058900000F024FB316F0AA8884700F029FB94F838
:1058A000EF01012803D184F8EF5100F093FA94F846
:1058B000F001012810D103F037FE19A001230221C5
:1058C00000901A468805FEF727FD84F8F051A5617F
:1058D00084F8ED5184F8EE5194F8EE0160B9A069B6
:1058E000012809D184F8EE9184F8EC91F16C04F16F
:1058F0005800884700F09CF894F8EC01012807D183
:10590000316D04F158008847404501D984F8EC51C5
:105910000EB0BDE8F0870000BC4B0020C4A1002001
:105920005379735F4D6F64756C6552657365740D63
:105930000A00000070B58CB005461B491BA0CDE9DC
:1059400000010123002203219803FEF7E5FC1D4E10
:105950007468142103A8FAF706FD0F21F1610021F4
:105960008DF80C1002208DF80D500894009003ABB8
:1059700011220D2106F22E7013F072FC099006F22E
:105980002E700A9000F0AAFA0F48016F08A8884705
:1059900000F0AEFAC820FDF7ABFC18B14FF0FF30B5
:1059A0000CB070BD0020FBE73F4903085B706F72CD
:1059B0007420726669645D20456E7465722025737B
:1059C0000D0A000038AF0120BC4B002070B596B026
:1059D000002420210AA8FAF7C6FC202102A8FAF721
:1059E000C2FC114D1148296D0646884740F6B83172
:1059F000884217D9E96C304688470C4838384068E7
:105A000012900AAB06220D2102A8009413F028FC84
:105A1000139002A8149000F061FA296F12A8884729
:105A200000F066FA16B070BDBC4B002070AF0120CC
:105A30002DE9F04F93B000251295E24E12A8F16FB8
:105A400088470024342101A8FAF78DFC12984FF002
:105A5000010890F8A5058DF80400DB4840680E9019
:105A600001AB1E220D21D948CDF8008013F0F8FBC0
:105A70000F90D64F109700F031FA316F0EA888477B
:105A800000F036FA129890F8A6058DF80400CE487A
:105A900040680E9001AB1F220D213846CDF80080E2
:105AA00013F0DEFB0F90109700F018FA316F0EA87C
:105AB000884700F01DFA129800F29C5001788DF88A
:105AC000041041788DF8051081788DF80610C178A2
:105AD0008DF8071001798DF8081041798DF80910BB
