:020000040801F1
:10000000C01A0420C5010108C9430108CF01010835
:10001000433F010851270108E97B01080000000067
:10002000000000000000000000000000E7010108DF
:10003000E901010800000000850B0108E1700108DA
:10004000EF010108EF010108EF0101081D6E010831
:10005000EF010108EF010108EF010108EF010108BC
:10006000EF010108EF010108EF010108A9290108CA
:10007000D1290108F9290108212A0108492A010882
:10008000712A0108992A0108EF010108EF0101080E
:1000900099040020D9040020EF010108EF010108B4
:1000A000EF010108EF010108EF010108EF0101086C
:1000B000EF010108EF010108EF010108EF0101085C
:1000C000EF010108EF010108EF010108EF0101084C
:1000D000EF0101081D7A0108497A0108757A0108C3
:1000E00031330108EF010108EF010108EF010108B8
:1000F000EF010108EF010108EF010108EF0101081C
:10010000EF010108EF010108EF010108EF0101080B
:1001100099790108EF010108EF010108EF010108D9
:10012000EF010108C12A0108E92A0108EF010108CD
:10013000EF010108EF010108EF010108EF010108DB
:10014000EF010108EF010108EF010108EF010108CB
:10015000EF010108112B0108392B0108A17A0108D0
:10016000EF010108EF010108EF010108EF010108AB
:10017000EF010108EF010108EF0101080000000094
:10018000EF010108EF010108C5790108F1790108C3
:10019000EF010108EF010108EF0101080000000074
:1001A000EF010108EF010108EF010108DFF810D0AD
:1001B00000F0F4FB0048004765E30108AFF300805E
:1001C000C01A04200A4880470A480047FEE71EF08C
:1001D000040F0CBFEFF30880EFF309800BF090B829
:1001E000FEE7FEE7FEE7FEE7FEE7FEE7FEE7FEE7E7
:1001F000AD750108AD01010872B6704762B670476F
:10020000EFF3108072B6704780F31088704730BFEC
:10021000704720BF7047B0FA80F0704790FAA0F0A6
:10022000B0FA80F0704790FAA0F070472DE9F05FC7
:100230000546002092469B46884606468146402455
:100240001BE0284641464746224600F05BF95346EC
:100250005A46C01A914110D311461846224600F062
:1002600042F92D1A67EB01084F4622460120002172
:1002700000F039F917EB00094E41201EA4F10104EA
:10028000DFDC484631462A464346BDE8F09F000081
:1002900038B5D0E90221491E01EB410102EBC10151
:1002A0004268C1EB011102EB81010268C1EB01114F
:1002B00002EB8102D0E9043101EB410103EB810142
:1002C0003023A1F5527191FBF3F4174D6C4302EB0F
:1002D000C41291FBF3F403FB141100921A2902DB00
:1002E000124B1A4400920C2291FBF2F3104C634320
:1002F000009C04EBC313009391FBF2F302FB131178
:100300000C4A08E0491E40F2A324535C6343009C5E
:1003100004EBC31300930029F4DC0146684600F0A7
:1003200007F9009838BD00003F0C0F008051010014
:1003300067C20300404D020840EA01039B0703D057
:1003400009E008C9121F08C0042AFAD203E011F814
:10035000013B00F8013B521EF9D27047D2B201E0D6
:1003600000F8012B491EFBD270470022F6E710B5BA
:1003700013460A4604461946FFF7F0FF204610BD13
:10038000421E12F8013F002BFBD111F8013B02F88D
:10039000013B002BF9D17047CAB2401E10F8011F73
:1003A0008A4202D00029F9D100207047421C10F87F
:1003B000011B0029FBD1801A704710B5002200E014
:1003C000521C835C8C5CA34201D1002BF8D1D8B2C3
:1003D000E1B2401A10BD30B504460020034600E0EB
:1003E0005B1C934203D2E05CCD5C401BF8D030BD77
:1003F00030B505460020034600E05B1C934205D261
:10040000EC5CC85C201A01D1002CF6D130BD30B4B0
:1004100080EA010202F0004530F0004221F0004085
:1004200013D090B1C30DD40DC2F31601C0F3160062
:10043000E41A41F4000140F400027D34914201D3FA
:10044000641C00E04900002C02DA30BC0020704738
:100450004FF400000023914201D3891A034340085E
:100460004FEA4101F7D151B1914202D14FF0004121
:1004700005E002D24FF0010101E06FF0010103EB52
:10048000C450284430BC00F099B89623002211468D
:1004900000F09DB800F0004230F000400AD0C10DDD
:1004A00001F56071C0F3160042EA0151C20840072D
:1004B0001143704700200146704730B50B46014696
:1004C00000202022012409E021FA02F59D4205D3F3
:1004D00003FA02F5491B04FA02F52844151EA2F19D
:1004E0000102F1DC30BD202A04DB203A00FA02F1DF
:1004F000002070479140C2F1200320FA03F3194312
:1005000090407047202A04DB203A21FA02F00021B3
:10051000704721FA02F3D040C2F120029140084313
:1005200019467047014900F003B80000900E0420FE
:1005300010B500683C22B0FBF2F302FB1303B0FBE2
:10054000F2F00B60B0FBF2F302FB1303B0FBF2F02E
:1005500018224B60B0FBF2F302FB1303B0FBF2F086
:10056000021D8B600723B2FBF3F403FB142280000F
:1005700040F2B55300F66C308A61B0FBF3F2B0FB89
:10058000F3F403FB1400443280084A61C8613B283D
:1005900002D3920700D0401C0022074C13460A6188
:1005A000E25C824203D8801A5B1C0B61F8E7401CB6
:1005B000C860084610BD00004C4D02080029A8BFC5
:1005C0007047401C490008BF20F00100704710B47C
:1005D000B0FA80FC00FA0CF050EA010404BF10BC31
:1005E000704749B1CCF1200421FA04F411FA0CF15E
:1005F00018BF012121430843A3EB0C01CB1D4FEA97
:1006000000614FEA102042BF002010BC704700EB91
:10061000C35010440029A4BF10BC7047401C4900BF
:1006200008BF20F0010010BC70472DE9FE4F804646
:1006300081EA0300C00F0C46009021F0004123F036
:100640000045B8EB0200A94105D24046214690463C
:100650001C460B46024623F00040104347D0270DAE
:10066000C7F30A00C3F30A510290401A01904028D0
:100670006BDAC3F3130040F4801B0098924620B15C
:100680000023D2EB030A63EB0B0B01985946C0F130
:1006900040025046FFF727FF06460D465046594692
:1006A000019A00F08DF910EB08006141002487EAFF
:1006B000115284EAE7731A4340D0009A62B3019A58
:1006C000012A4FEA075215DC001B61EB02014FF0D3
:1006D000004202EA0752CDE90042001C41F58011B8
:1006E00032462B4600F08DF903B0BDE8F08F40464E
:1006F0002146F9E7001B61EB0201001C41F5801364
:1007000000185B412018A2F5001747EB030140EAEF
:10071000D570B6196D4111E06D084FEA360645EA0D
:10072000C0754FEA0752001B61EB0201001C41F546
:10073000801149084FEA30000019514132462B46DA
:1007400003B0BDE8F04F00F04DB900980122400021
:100750000023D0EB020263EBE073009821464FEADE
:10076000E074B8EB000061EB0401E9E783F00043BB
:100770005BE781F0004158E72DE9FE4F81EA030471
:1007800004F0004421F0004100944FF0000B23F0EE
:10079000004350EA01045ED052EA03045BD0C3F385
:1007A0000A54C1F30A552C44A4F2F3340194A0FB7B
:1007B0000254C1F3130141F48011C3F3130343F452
:1007C000801301FB024400FB034E840A970A44EAAB
:1007D000815447EA8357A4FB076802958D0A05FBFD
:1007E00007854FEA932C04FB0C542705029D4FEA22
:1007F000065847EA1637B5EB08056EEB070C870E6F
:10080000920E47EA811742EA8312A7FB0201B6EB78
:100810000B0164EB00042B0D43EA0C335E1844EB30
:100820001C50DA465146E7FB0201C5F313044FEAB8
:100830000B3343EA14534FEA0432019C43EA0603A4
:10084000A4F10C040294009CCDE900B400F0D9F8A6
:1008500003B0BDE8F08F00200146F9E72DE9F04D27
:1008600081EA030404F0004B21F0004514464FF0E8
:10087000000A23F0004150EA050220D054EA0102A8
:100880001DD0C5F30A570246C5F31303C1F3130085
:10089000C1F30A5640F4801543F48013A7EB060811
:1008A000101BD64608F2FD3873EB050002D308F1A1
:1008B000010801E092185B41B8F1000F03DA002053
:1008C0000146BDE8F08D00204FF4801106468446B5
:1008D0000EE0171B73EB050705D3121B63EB050333
:1008E00006434CEA010C49084FEA300092185B417C
:1008F00050EA0107EDD152EA030012D082EA040067
:1009000083EA0501084305D0101BAB4106D2012242
:10091000002306E000224FF0004302E06FF00102E6
:1009200053101AEB06004CEB085110EB0A0041EB98
:100930000B01BDE8F04D00F055B8C1F30A52C1F308
:10094000130140F2FF3341F480119A4202DA002091
:100950000146704740F233439A42A2F2334202DC2E
:100960005242FFF7CFBDFFF7BEBD000030B5041EF9
:1009700071F1000404DB4FF00044404264EB0101DC
:10098000141E73F1000405DB1C464FF00043524275
:1009900063EB0403994208BF904230BD064C074DFB
:1009A00006E0E06840F0010394E80700984710343F
:1009B000AC42F6D3FFF7FEFB78590208A8590208AB
:1009C000202A06DBCB17203A41FA02F043EAE07313
:1009D00006E041FA02F3D040C2F120029140084300
:1009E0001946704710B5141E73F1000408DA401C54
:1009F00041F1000192185B411A4301D120F001003E
:100A000010BD2DE9F04D92469B4611B1B1FA81F22D
:100A100002E0B0FA80F220329046FFF764FD04460F
:100A20000F4640EA0A0041EA0B0153465A46084382
:100A300013D0114653EA010019D0C8F140025046C4
:100A4000FFF760FD05460E46504659464246FFF701
:100A50004AFD084305D0012004E020463946BDE8A0
:100A6000F08D0020054346EAE0762C4337430A9890
:100A70006305E40AA0EB08000022FD0A44EA47549B
:100A80000A3002D500200146E9E701051019694145
:100A9000DDE9084500196941BDE8F04DA2E770B5F0
:100AA0008C1810F8015B15F0070301D110F8013B19
:100AB0002A1106D110F8012B03E010F8016B01F8A0
:100AC000016B5B1EF9D12B0705D40023521E0DD4F8
:100AD00001F8013BFAE710F8013BCB1A921C03E046
:100AE00013F8015B01F8015B521EF9D5A142D8D37E
:100AF000002070BD72B64EF62250CEF2000040F2D9
:100B0000FF01C0F2000101704FF0000080F309887E
:100B100004F0E8FC40F6EC30C2F20000016881F31A
:100B2000088840F67630C2F2000040F67731C2F213
:100B300000010A78027040F6E435C2F2000540F682
:100B4000E831C2F200010A682A60106880F309885F
:100B5000EFF3148040F0020080F31488BFF36F8F2E
:100B6000BDE8F00F0FBCBDE8005006BC62B60847F8
:100B700018484FF080510160704716484FF080517F
:100B80000160704772B6EFF3098020E9F00F40F67C
:100B9000E435C2F200052E683060744604F0A2FC11
:100BA00040F67630C2F2000040F67731C2F2000122
:100BB0000A78027040F6E831C2F200010A682A6041
:100BC00044F0F40E1068B0E8F00F80F3098862B6C4
:100BD0007047000004ED00E040F2413CC2F2000C1E
:100BE000604740F2852CC2F2000C604700EB8100A8
:100BF000826000207047000070B50546094E084C21
:100C0000002172686068904724212846FFF7ADFBF9
:100C1000A068401EA060B16860688847002070BD71
:100C2000F87F0020F82A0020807800097047000033
:100C30002DE9F84380460D460024384F364E0021FA
:100C40007A687068904704EBC40006EB800090F867
:100C5000F40110B3641C042CF5DB4FF4005C4FF07E
:100C6000FF39042C27D06868012831D000282FD004
:100C70002BA0012300901A461946604601F06EFF32
:100C800004EBC40106EB8101002081F8F401B9688E
:100C9000706888474846BDE8F88304EBC40006EB5B
:100CA0008000814600F5FA702421FFF75EFB0120E9
:100CB00089F8F401D1E724A0012300901A461946CF
:100CC000604601F04BFFB968706888474846E2E724
:100CD00004EBC40006EB800404F2F514607820F005
:100CE000F0008030607028782070286800F0BEFA2C
:100CF0000146A07861F3C710A070297961F38610CE
:100D0000A070641EC8F80040B068401CB060B968AC
:100D1000706888470020BEE7F87F0020F82A00208E
:100D20005B417069204770696F5D2047706920439F
:100D3000746C20496E6974205661756C652045722B
:100D4000726F72210A0000005B4170692047706970
:100D50006F5D204770692043746C20496E69742070
:100D60004572726F722C204E6F2053706163652143
:100D70000A000000F8B50446607800F077FAC1B2C6
:100D8000E078420702D06268521C6260B1EBD01F6B
:100D900010D04FF0005202EBB0104FEAB060C0F339
:100DA000C202E070032A08D361F3C71020F03800B4
:100DB000E07002E020F03800E070E078002600F0FB
:100DC00007014FF40055062924D2DFE801F0032A79
:100DD00062C523EAC0F38011B1EBD01F1BD185A0FF
:100DE0000222009001231146284601F0B7FEA078A8
:100DF00020F0F000A070A16809B120468847666025
:100E0000A07820F00F00401CA070E07820F00700D0
:100E1000401CE070F8BDA07820F0F0008030A07099
:100E2000F8BDC0F38011B1EBD01F17D07BA0022218
:100E3000009001231146284601F090FEA07820F092
:100E4000F0001030A070E16809B120468847666064
:100E5000E07820F00700801CE070F8BD6068B0F515
:100E6000167FFAD977A00222009001231146284666
:100E700001F074FEA07820F0F0005030A070E1691D
:100E800009B120468847E07820F00700401DE07057
:100E9000F8BDC0F38011B1EBD01F2AD155A00222BA
:100EA000009001231146284601F058FEA07820F05A
:100EB000F000A070A16809B1204688476DA0022209
:100EC000009001231146284601F048FEA0784FF01B
:100ED000805101EB30104FEA3070A070216909B1E8
:100EE000204688476660E07820F00700C01CE0706C
:100EF000F8BD60683C28FBD9A07800F00F000128FD
:100F000002D0022812D022E065A002220090012324
:100F10001146284601F022FEA07820F0F000303083
:100F2000A070616999B12046884710E067A002224D
:100F3000009001231146284601F010FEA07820F011
:100F4000F0004030A070A16909B120468847E078E0
:100F500020F00700E070F8BDC0F38011B1EBD01FA6
:100F6000F9D02EA00222009001231146284601F05C
:100F7000F5FDA07820F0F0001030A070E16809B114
:100F80002046884760683C2806D26660E07820F0FA
:100F90000700801CE070F8BDE07820F00700E070EA
:100FA000F8BDC0F38011B1EBD01F0CD1A07820F0B8
:100FB000F0006030A070216A0029F1D001B0204615
:100FC000BDE8F040084715A0022200900123114619
:100FD000284601F0C3FDA07820F0F0001030A0708A
:100FE000E16809B120468847E07820F00700E0700A
:100FF000F8BD00005B417069204770696F5D204754
:1010000070692042746E204576656E74205B505284
:101010004553535F444F574E5D210A005B41706951
:10102000204770696F5D204770692042746E2045CB
:1010300076656E74205B50524553535F55505D2169
:101040000A0000005B417069204770696F5D2047AE
:1010500070692042746E204576656E74205B4C4F3B
:101060004E475F50524553535F53544152545D2194
:101070000A0000005B417069204770696F5D20477E
:1010800070692042746E204576656E74205B505204
:101090004553535F5245504541545D210A000000BD
:1010A0005B417069204770696F5D2047706920421D
:1010B000746E204576656E74205B53494E474C45EF
:1010C0005F434C49434B5D210A0000005B4170695E
:1010D000204770696F5D204770692042746E20451B
:1010E00076656E74205B444F55424C455F434C49D6
:1010F000434B5D210A00000070B50024154D1648D1
:10110000296D06468847052821D3E96C3046884773
:10111000114D0C3D04EBC40005EB800090F8F41178
:10112000012903D100F5FA70FFF724FE641C042C9A
:10113000F0DB002404EB440005EBC000017D012935
:1011400002D1143000F06AFA641C142CF2DB002087
:1011500070BD0000F82A0020048000207FB52448DC
:1011600024A1CDE9001001235D03002203212846BC
:1011700001F0F4FC4FF421712448FFF7F6F8244CF9
:101180002248E16C0C30884708200290A26E1F496B
:1011900002A89047401C1FD03C341C4954F83C2CFA
:1011A000091D1CA090471E4860651E48A0651E488A
:1011B000E0651E4820661E48A0661E4860661E4800
:1011C000E0661E4820671E4860671E48A0671E48EC
:1011D000E067002004B070BD1CA0012300901A46F7
:1011E0001946284601F0BAFC4FF0FF30F2E7000044
:1011F000234702085B417069204770696F5D204595
:101200006E7465722025730A00000000F87F0020CC
:10121000F82A00206170695F6C6F636B000000004A
:101220006D12010829130108C912010805150108EA
:10123000D514010885130108310C0108F90B0108C8
:10124000ED0B0108290C0108F91001085B417069D8
:10125000204770696F5D204770696F204F70656E21
:10126000206572726F72210A000000001FB50C49E0
:101270000968019102900B48416F01A88847401C02
:1012800002D0039804B010BD012307A000901A46B5
:101290001946580301F062FC4FF0FF30F2E70000FE
:1012A000F87F0020F82A00205B41706920477069B0
:1012B0006F5D204770696F204F70656E2065727298
:1012C0006F72210A000000001FB50D4909680191E5
:1012D0000290022003900B48016F01A88847401C30
:1012E00002D0002004B010BD012307A000901A46D0
:1012F0001946580301F032FC4FF0FF30F2E70000CE
:10130000F87F0020F82A00205B417069204770694F
:101310006F5D204770696F204F70656E2065727237
:101320006F72210A000000001FB50C4A126801927A
:10133000029003910A48016F01A88847401C02D01F
:10134000002004B010BD012306A000901A461946E3
:10135000580301F003FC4FF0FF30F2E7F87F002064
:10136000F82A00205B417069204770696F5D204753
:1013700070696F204F70656E206572726F72210AFE
:1013800000000000F8B5044608684FF0FF35032858
:1013900001D14A689AB100224FF4005688B1012861
:1013A00029D0022841D0032845D038A0012300903D
:1013B0001A461946304601F0D1FB0020F8BD2846F8
:1013C000F8BDA2706260E07801280AD070B137A041
:1013D000012300901A461946304601F0BFFB28460B
:1013E000F8BD60780021FFF79FFFE6E760780121F4
:1013F000FFF79AFFE1E7A2706260E07801280AD067
:1014000070B12AA0012300901A461946304601F017
:10141000A5FB2846F8BD60780121FFF785FFCCE7E2
:1014200060780021FFF780FFC7E7A27062606078F4
:10143000FFF74AFFC1E70120A07048686060886834
:10144000A060C868E0602248C16C04F110008847C1
:101450006068002801DD401E6060E07801280AD045
:1014600070B112A0012300901A461946304601F0CF
:1014700075FB2846F8BD60780021FFF755FF9CE713
:1014800060780121FFF750FF97E700005B4170692A
:10149000204770696F5D20556E6B6E6F776E2043CD
:1014A00074726C20436F6465210A00005B417069AF
:1014B000204770696F5D2047706F2043746C205621
:1014C00061756C65204572726F72210A0000000020
:1014D000F82A002070B50546094E084C00217268B4
:1014E0006068904718212846FEF73FFFA068401E1D
:1014F000A060B16860688847002070BDF87F002058
:10150000F82A00202DE9F84380460D4600242D4F8F
:101510002B4E00217A687068904704EB440006EB7C
:10152000C000007D08B3641C142CF6DB4FF4005C93
:101530004FF0FF39142C1FD06868012829D00028EB
:1015400027D021A0012300901A461946604601F0D9
:1015500005FB04EB440106EBC10100200875B968E6
:10156000706888474846BDE8F88304EB440106EB01
:10157000C10101200875D9E71DA0012300901A467A
:101580001946604601F0EAFAB9687068884748462B
:10159000E9E704EB440006EBC0002978417529799E
:1015A000C1751430C8F80000B068401CB06003CDAD
:1015B000FFF7BAFEB968706888470020D3E70000DB
:1015C000F87F0020F82A00205B417069204770698D
:1015D0006F5D2047706F2043746C20496E697420E2
:1015E0005661756C65204572726F72210A000000A9
:1015F0005B417069204770696F5D2047706F2043C1
:10160000746C20496E6974204572726F722C204E82
:101610006F205370616365210A00000070B50446B5
:101620001F4DA07804F11006296D002814D0012860
:1016300034D130468847A16888422FD30020A0705B
:10164000E06800282AD0E1786078FFF76DFE304628
:10165000E96CBDE870400847606800281ED030463D
:101660008847E168884219D30120A070606800288B
:1016700001DD401E6060E078012801D028B108E05B
:1016800060780021FFF750FE03E060780121FFF74A
:101690004BFE3046E96CBDE87040084770BD000065
:1016A000F82A00200149016000207047F55F002002
:1016B00070B586B0274828A1CDE9001001235D024E
:1016C00000220321284601F049FA00200390062059
:1016D000049003A80590274C274904A8A26E9047C0
:1016E000401C4FF0FF3620D0012003902249A26E0B
:1016F000091D04A89047401C21D0204844F87C0FC5
:101700001F4860601F48A0601F48E0601F482061BC
:101710007C3C00F06BF828B184340020A168884735
:1017200020688047002006B070BD19A001230090FA
:101730001A461946284601F011FA3046F3E71FA071
:10174000012300901A461946284601F007FA304650
:10175000E9E70000104702085B4170692053797384
:1017600020506172616D5D20456E74657220257335
:101770000A000000F82A002034060020A5160108FF
:101780007D1D0108E51C0108ED170108011A01087B
:101790005B4170692053797320506172616D5D20E7
:1017A000496E74657220466C617368204F70656E77
:1017B000206572726F72210A000000005B4170693F
:1017C0002053797320506172616D5D20496E74659C
:1017D0007220466C6173682042616B204F70656EA9
:1017E000206572726F72210A000000002DE9F04F2F
:1017F0008DB04FF0FF34554855A1CDE900100123BD
:1018000000220321580201F0A9F9DFF86081D8F81D
:10181000000008904FF48059CDF82490DFF850B1C3
:10182000CDF82CB002AD0C9500260296514F08A8B9
:10183000796F884740F6FE725946002001F028FF74
:10184000BBF8FE1F0BF5805A81423BD10024D8F82B
:1018500004000890CDF82490CDF82CA00C950296A9
:10186000796F08A8884740F6FE725146002001F0C3
:101870000FFF0146BAF8FE0F88420CD1BBF8FE1FDD
:10188000884208D13CA00123009003221946580247
:1018900001F064F956E00123464800901A461946C3
:1018A000580201F05BF9D8F804000490CDF81490C8
:1018B000CDF818B00795029601200390396F04A85F
:1018C00088473FE03C4801234FF4007B00901A46D4
:1018D0001946584601F042F9D8F804000890CDF8AE
:1018E0002490CDF82CA00C950296796F08A8884713
:1018F00040F6FE723149002001F0CAFEBAF8FE1F20
:10190000814217D12E4801230090032219465846E0
:1019100001F024F90024D8F800000490CDF81490C8
:10192000CDF818A00795029601200390396F04A8FE
:10193000884707E023A0012300901A46194658461D
:1019400001F00CF90DB02046BDE8F08FC746020843
:101950005B4170692053797320506172616D5D2025
:10196000456E7465722025730A000000340600205D
:10197000F55F0020F82A00205B41706920537973DD
:1019800020506172616D5D2053797374656D2043E1
:101990006F6E66696720476574205375636365736E
:1019A000732C2050616972205375636365737321D2
:1019B0000D0A0000FC50020864500208F56F002078
:1019C000AC5002085B4170692053797320506172FA
:1019D000616D5D2053797374656D20436F6E666928
:1019E0006720536861646F7720536563746F72205A
:1019F000476574204572726F72210D0A0000000065
:101A00002DE9FC5F81469C499CA0CDE900010123A2
:101A100000220321580201F0A1F800279E4C94F8FF
:101A2000B485002601254FF4805AB9F1000F0ED17C
:101A300051462046FEF799FC522004F8AC0F3A209C
:101A400060708020A070E67026716571AC3C934890
:101A500032218146FEF789FC90483221323083469C
:101A6000FEF783FC0E228EA14846FEF765FC0F228E
:101A70008FA15846FEF760FCC02104F8981FA822E9
:101A80006270A5706420E07041F6C86363824FF015
:101A9000FF0C84F804C084F805C084F806C0E67121
:101AA00021726272A5724FF0140C84F80BC021737E
:101AB0006273A5736321E173238284F87E6084F8E6
:101AC0007F5084F85E6984F85D594FF4E131C4F8C1
:101AD000FC1284F8036384F80153082184F802138C
:101AE00084F8006384F8165384F8105384F8116363
:101AF0000A21C4F86815C4F86C154FF4FA79C4F8D3
:101B00007095983CE11981F8EC647F1CFFB2102FAE
:101B1000F8D384F8EF540021D22204EB4103A3F858
:101B2000FC24491CC9B21029F7D300214FF40052FC
:101B300004EB8103C3F81C25491CC9B21029F7D353
:101B400000214FF4FA6704EB8102C2F85C75491C6E
:101B5000C9B21029F7D3AE3484F84B59A4F84C0914
:101B6000A4F84E69DC215648FEF7FFFB84F82A549E
:101B70000520A4F82B043220A4F8620384F86753EC
:101B80004FF47A70A4F864034D4834215C38FEF7B2
:101B9000ECFB4B4828212838FEF7E7FB84F8265356
:101BA00084F8275340F6B830C4F80603C4F80A9303
:101BB000C4F81673C4F81A73C4F83E73C4F84273B9
:101BC000022084F8EF040F2084F8F40484F8F3640E
:101BD00084F8EE6484F8F15484F8F06484F8F564D1
:101BE00084F8F26484F8F75484F8F86484F8F664AE
:101BF00012213448FEF7B9FB84F806852748642192
:101C0000DC38FEF7B2FB254864217838FEF7ADFBDF
:101C10002D482EA1096801656E2180F854102DA170
:101C200080300A6842634A6882638968C16384F8C5
:101C30006A6184F84959E0782178A27840EA016025
:101C400061780904AE3C41EA02210843B0F1004F3B
:101C500001D300F10040010E2170010C6170010AF6
:101C6000A170E07002B05246BDE8F05F0A4901F58C
:101C70008050FEF761BB0000F14602085B417069CD
:101C80002053797320506172616D5D20456E7465DB
:101C9000722025730A000000F55F002021620020F9
:101CA0004952313031524330392D462D57470000CB
:101CB000503232303431313031323230363133001B
:101CC00005640020A9650020F560002061646D694D
:101CD0006E00000048696B6C696665403132332BD9
:101CE0000000000030B589B0184819A1CDE90010F6
:101CF000012300220321580200F030FF40F6FE725B
:101D00001A49002001F0C4FC1849A1F8FE0F4FF455
:101D100080552A46A1F58050FEF70EFB144C206832
:101D2000059006951348079003A80890002003909B
:101D300001200490104D05A8296F88476068059020
:101D4000296F05A8884709B0002030BDDE4602088B
:101D50005B4170692053797320506172616D5D2021
:101D6000456E7465722025730A000000F56F00202F
:101D700034060020F55F0020F82A002001490160A8
:101D800000207047F56F002010B5044600F0CAFD32
:101D900006F062FC2046BDE8104006F0CFBB000014
:101DA000F0B589B006460F4615461F4C02A8E26CF6
:101DB00090470496002005908DF819008DF81800C2
:101DC0008DF81A502A4639460DF11B00FEF7B4FA79
:101DD000164F04A9384606F0CAFD06464FF4FA75B8
:101DE00007E03146384606F035FE01280ED00828B7
:101DF00011D0226D02A89047A842F2D93146384648
:101E000006F012FE4FF0FF3009B0F0BD216E012048
:101E100088470020F8E7012305A000901A461946DC
:101E2000180400F09BFEE9E7F82A00200064004057
:101E30005B43616E5D2063616E302073656E64206C
:101E40006572726F72210A002DE9FC4781460D46CA
:101E500016460024F01706EB50704FEAE00820F019
:101E60000700371A1DA04FF4803A0090012300228A
:101E70000521504600F072FE0AE0285D1AA1CDE966
:101E8000001000231A460521504600F067FE641C2E
:101E9000B442F2DB16A0002300901A4605215046FA
:101EA00000F05CFE00240BE005EBC401082248466C
:101EB000FFF776FF18B14FF0FF30BDE8FC87641CD8
:101EC0004445F1DB47B102B0FAB205EBC401484624
:101ED000BDE8F047FFF764BF0020EEE763616E20C6
:101EE00073656E643A0A0000253032582000000005
:101EF0000A00000001200DF083BA000010B5094966
:101F000001EB001420880DF0ABFB41F20E100DF038
:101F1000A7FBD4E902326068BDE81040002109F057
:101F2000A8B9000088090020034901EB001081686E
:101F3000406809F097B9000088090020034901EBC7
:101F4000001081684068816170470000D807002058
:101F500070B505460E4800EB051420880DF080FB97
:101F6000D4E901030022012109F083F9D4E9010336
:101F70000222002109F0A1F9E06820B12846BDE85D
:101F80007040FFF7DBBF2846BDE8704000F002B8A4
:101F9000D8070020034901EB001081684068816286
:101FA00070470000D8070020034901EB001081684A
:101FB0004068C16270470000D807002006480078DA
:101FC000002804D0012804D04FF0FF3070470020D3
:101FD0007047012070470000280A002010B541F228
:101FE0001C000DF03DFB0DF037F904F0C7FE224850
:101FF0000068A0F54851F03902D004F0DBFE14E08F
:1020000041F61B500DF06EFA1C4C20B941F61950E8
:102010000DF068FA10B10020207006E041F61A5069
:102020000DF060FA08B1012020700DF0D7F94FF4DF
:102030008004204608F0BCFF00221146204608F02C
:10204000BDFF0022114603200CF0C2FC204608F020
:10205000AFFF20130DF0F0FB20120DF08DFC0420DB
:102060000DF0CCFC00200DF021FD0DF00FFDBDE8C2
:10207000104000F005B8000050280040280A002059
:1020800010B58CB012480DF0A9FB114C207804F06B
:102090005FFE64300690607804F05AFE401E0590A2
:1020A000A07804F055FE0490207904F051FE0390CE
:1020B000607904F04DFE0290A07904F049FE019091
:1020C00001A8FEF7E5F80CB0A0F5E14010BD000056
:1020D000809D01202DE9F05F0446DDF828B0884698
:1020E00091469A464FF48005284608F061FF032088
:1020F0000CF063FC2E1330460DF09EFB2F12384679
:102100000DF020FC0DF0A0FC204604F02AFE1E4C31
:102110002070404604F025FE6070484604F021FE21
:10212000A07000202061504604F01BFE207158462C
:1021300004F017FE60710B9804F013FEA0712046A6
:102140000DF08CFB0446284608F032FF00221146B1
:10215000284608F033FF0022114603200CF038FC1B
:10216000284608F025FF30460DF066FB38460DF096
:1021700003FC04200DF042FC00200DF097FC0DF054
:1021800085FC2046BDE8F09F809D01202DE9F047A9
:1021900090B088461746352100FB01F28449541857
:1021A000226A256B8349012B0E5C06D14B1E1870E9
:1021B0001EB1002010B0BDE8F0874FF0FF3C0EB11B
:1021C0006046F7E7012F7DD0A5230B541021104660
:1021D000FEF7CBF8A41CA0880DF042FA60880DF041
:1021E0003FFAE0880DF03CFAE2686169A06809F006
:1021F00007F822696169A06809F002F8E368A0683D
:102200000122022109F035F8E368A06802220021CA
:1022100009F053F82369A0680122022109F029F886
:102220002369A41E0222D4F80A00002109F045F80F
:10223000206812F0D1F82068414612F065F8206855
:10224000042112F085F92068082112F087F94FF473
:10225000A0600CF003FC002294F82C0011460CF056
:10226000B7FB2068544912F045F954F8020B12F0FC
:102270002FF9217FA0693D2207F019FC217FA06979
:1022800007F0DBFB00260D96D4F8260009900A968D
:102290000B96D4F822000E9054F8020C001D079003
:1022A0000C964FF00108CDF820804FF44039CDF85E
:1022B0003C9009A91C228A466846FEF73DF8217F1A
:1022C000A06900E023E04346079A07F097FC217FCE
:1022D000A06907F0A9FB627F217FA06907F090FB4E
:1022E000002294F82B0011460CF072FB217FA069AC
:1022F000102207F0CDFB217FA06907F078FB54F88E
:10230000020D402112F0D8F8012F07D04EE02B002B
:1023100002D05A230B5459E760464BE716343D224E
:10232000217E606807F0C3FB217E606807F085FBB3
:1023300040200D9005F10C0009900A960B964FF481
:10234000A0500E9054F8160C001D0790CDF8308068
:10235000CDF82080CDF83C9045F6A52028801C22A1
:1023600051466846FDF7E8FF217E6068DDE90723F6
:1023700007F044FC217E606807F04DFB627E217E01
:10238000606807F03DFB0022A07F11460CF020FBA7
:10239000217E6068102207F07BFB217E606807F0D9
:1023A0001DFB54F8160C002112F08CF8002001E7F8
:1023B000DC490208D10700201000001070B535215B
:1023C000484320494418256AA17FD4F81A0001EB3C
:1023D0004102102303EBC2028258D2071BD007F040
:1023E0005FFCA18C081A6880A888012814D0A888EE
:1023F000012810D9A17FD4F81A0007F0EFFA20685D
:10240000002112F059F86888616A401CB0FBF1F2B3
:1024100001FB1200288070BD688829888842FAD3A1
:10242000A17FD4F81A0007F0D9FA2068002112F031
:1024300043F86888616A401CB0FBF1F201FB1200AE
:10244000288070BDDC49020870B5352100FB01F21F
:1024500018495418256AA27FD4F81A1002EB4202D8
:10246000102303EBC2028958C90722D129886A8840
:1024700091421ED1014610A005F0C8FB0020288023
:102480006880A880A17FD4F81A003D2207F00FFBD6
:10249000626AA17FD4F81A0007F0FCFBA17FD4F890
:1024A0001A0007F0A4FA2068BDE87040402112F03D
:1024B00003B870BDDC490208496E64657825642064
:1024C0005265537461727420444D41205472616EA0
:1024D000736D697474696E67202E2E2E0D0A0000CC
:1024E000F0B500243523164D43432B441B6B154D8B
:1024F0002D5C601E5A2D21D15D889E88C5F5A055A2
:102500002E444FF4A05596FBF5F705FB1766DE80C9
:10251000DE881644AE4211D203F10C060BE0085DD2
:102520009F88B8559888401CB0FBF5F705FB17004D
:102530009880641CA4B29442F1D30020F0BD000046
:10254000DC490208D107002070B535214843114904
:1025500045182C6B12353D22297FA86807F0A7FA91
:10256000297FA86807F03AFA55F8120C002111F0FB
:10257000A9FF6088218908444FF4A051B0FBF1F213
:1025800001FB120060800020208145F6A5202080FC
:1025900070BD0000DC490208352148430349084466
:1025A000006A8188491C818070470000DC4902086C
:1025B00070B503464FF0FF343520114A584310449C
:1025C000026A15885688B5420FD0846A1588645D02
:1025D0000C701188406A491CB1FBF0F400FB141028
:1025E00040B11088401C108000241846FFF72CFFD3
:1025F000204670BD9088401E908000201080F3E738
:10260000DC4902082DE9FC4106460D461746002428
:102610001DA0CDE900064FF400680123002205212A
:10262000404600F09BFA0BE02B5D1BA0CDE90003B8
:1026300000231A460521404600F090FA641CA4B21B
:10264000BC42F1D316A0002300901A460521404653
:1026500000F084FA1348805D5A2809D0A52810D1CB
:1026600002B03A4629463046BDE8F04100F01CB8B9
:1026700002B03A4629463046BDE8F0410023FFF754
:102680002FBFBDE8FC8100007561727420257520A4
:1026900073656E643A0A000025303258200000004D
:1026A0000A000000D10700202DE9F04107460D4641
:1026B0001646002405E0295D384600F007F8641C42
:1026C000A4B2B442F7D3BDE8F081000010B53522C2
:1026D0005043064A8418206811F07AFE20680721CA
:1026E00011F0FBFE0028F9D010BD0000DC49020803
:1026F00070B50D4616463521134A41438C18216B9F
:10270000124A105C5A281ED145F2AA500880123491
:102710003D22217FA06807F0CAF9217FA0682B46DF
:10272000002207F060FA217FA068324607F0B2FA73
:10273000217FA06807F05BF954F8120CBDE87040E7
:10274000802111F0BFBE70BDDC490208D107002016
:1027500002A005F05BFA01F039FE00005B427573E0
:102760004661756C745F48616E646C65725D0D0ADC
:102770000000000010B500F0A3F800F005F8BDE877
:10278000104000F09BB800002DE9F041104E0027EA
:1027900037807780B760F7607761B7613761002570
:1027A000FDF72EFD80460024776100F049F800F027
:1027B00059F870690544641CA4B2002CF4D035614A
:1027C0007761B7614046BDE8F041FDF71DBD0000EF
:1027D000F00B002003490969884201D9401A70476B
:1027E00000207047F00B002010B5FDF709FD0449EB
:1027F0004C69FDF709FD2046BDE81040FFF7EABF30
:10280000F00B002010B5FFF7EFFF0446FDF7F8FCD2
:10281000034A00215161FDF7F7FC204610BD00007E
:10282000F00B002010B5FDF7EBFC04498C69FDF7B7
:10283000EBFC2046BDE81040FFF7CCBFF00B0020BA
:1028400010B5074C2088401C20806088002802D1E9
:1028500000F05CF8A0606088401C608010BD000043
:10286000F00B002010B50A4C6088401E80B26080DA
:1028700000280CD100F04AF8E060A168401A6169B4
:10288000814200D26061A169814200D2A06110BD85
:10289000F00B002010B5FDF7B3FC0446FFF7D0FFA6
:1028A0001021054801F04EFBFFF7DCFF2046BDE894
:1028B0001040FDF7A9BC0000800E0420FFF7EABF1E
:1028C00002490020486000F009B80000F00B002029
:1028D0000149486070470000F00B002010B5FFF779
:1028E00009FB08490A6842F080720A600649002222
:1028F0004A600A6842F001020A60BDE81040FFF732
:10290000E7BF0000FCED00E0001000E00148406877
:1029100070470000001000E0014804F097BA000082
:10292000600E0120034B0C224FF44871A3F11400F8
:1029300004F0A5BA740E01200146014804F0A6BABD
:10294000600E01200146014804F0BCBA600E01206F
:10295000FDF756BC10B5FDF757FC002010BD08B5BB
:10296000684602F089F8BDF8000008BD08B5684661
:1029700002F0A8F8BDF8000008BD000006480549AF
:10298000016206494162064981620649C16200202E
:10299000704700005F290108F82A00206D2901080E
:1029A000512901085529010810B50624074820229D
:1029B00090F86C11D0F8580107F094F8002804D072
:1029C0002046BDE81040FFF7BFBD10BDDC4902083E
:1029D00010B5084C20220121204607F083F810B1E1
:1029E0000220FFF7D9FD20463D22BDE8104001211D
:1029F00007F05DB80060024010B5084C20220221AB
:102A0000204607F06FF810B10320FFF7C5FD204600
:102A10003D22BDE81040022107F049B800600240A5
:102A200010B5084C20220321204607F05BF810B1B6
:102A30000520FFF7B1FD20463D22BDE810400321EF
:102A400007F035B80060024010B503240748202283
:102A500090F8CD10D0F8B90007F044F8002804D061
:102A60002046BDE81040FFF76FBD10BDDC490208ED
:102A700010B5084C20220521204607F033F810B18C
:102A80000120FFF789FD20463D22BDE810400521C9
:102A900007F00DB80060024010B5084C2022062156
:102AA000204607F01FF810B10620FFF775FD2046FD
:102AB0003D22BDE81040062106F0F9BF006002404B
:102AC00010B5084C20220121204607F00BF810B168
:102AD0000420FFF761FD20463D22BDE810400121A2
:102AE00006F0E5BF0064024010B5084C2022022128
:102AF000204606F0F7FF10B10020FFF74DFD2046FD
:102B00003D22BDE81040022106F0D1BF0064024022
:102B100010B504240748202290F80211D0F8EE00E6
:102B200006F0E0FF002804D02046BDE81040FFF783
:102B30000BBD10BDDC49020810B500240648202258
:102B4000017D006806F0CEFF002804D02046BDE8D5
:102B50001040FFF7F9BC10BDF64902080FB42DE98B
:102B6000F04F8FB01E464FF00009CDF83090CDF8F1
:102B70003490CDF8389000240025D4480DF1740825
:102B8000007800287CD1D24818998068084277D014
:102B9000D04919980978884272D8CF4F40F2DC5159
:102BA0003888C0F5A05088426AD3DFF830A3DAF83D
:102BB0002000804738887988884203D1A7F802909E
:102BC000A7F80090DFF818B39BF8000038B93888F0
:102BD000C4A13844001D05F029F884B2254601201F
:102BE0008BF80000BD48816C08A88847089800F55C
:102BF000E1400B900BA8FDF795FC4269642102F2BD
:102C00006C7292FBF1F303F0FF0A8DF830A092FB97
:102C1000F1F301FB132101F0FF0B8DF831B0017CC2
:102C2000491CC9B28DF83210027B8DF83320D0F8E0
:102C300008C018239CFBF3FE03FB1EC3DBB28DF818
:102C4000343090F804C08DF835C000788DF8360027
:102C5000DDF868E0BEF1010F7ED0BEF1020F7CD03E
:102C6000BEF1030F7AD086B1099C8DE80E10CDE934
:102C7000040438885B46C119281D0844524600E008
:102C800020E099A104F0D2FF84B2281984B2424610
:102C90003888C119201D08441C9904F0E3FFCDF8C1
:102CA0002890204484B238881B22C119201D084472
:102CB00097A104F0BBFF2044398808443880874836
:102CC000406A80478248189942680A425FD000787B
:102CD000199981425BD8814C206A8047A16C08A871
:102CE0008847089800F5E1400B900BA8FDF71AFC07
:102CF0004269642102F26C7292FBF1F3DFB28DF84B
:102D0000307092FBF1F301FB132101F0FF0C8DF801
:102D100031C0017C491CCDB28DF83250017B8DF859
:102D200033108368182293FBF2FA02FB1A32D2B2F4
:102D30008DF8342003798DF8353000788DF8360021
:102D4000DDF868A0BAF1010F72D0BAF1020F70D0AD
:102D5000BAF1030F6ED002E01EE03BE058E056B13E
:102D6000099ECDE903068DE80E002B4662463946E2
:102D70005DA004F04BFF41461C9804F06BFFCDF8BA
:102D800028901B2162A004F041FF606A80470FB0C9
:102D9000BDE8F00F5DF814FB96B1099CCDE9033C4A
:102DA000CDE900B1CDE90504029238885346C11936
:102DB000281D08441B2259A104F038FF84B264E79F
:102DC00038881B22C119281D084460A104F02EFF79
:102DD00084B25AE796B1099CCDE9033CCDE900B134
:102DE000CDE90504029238885346C119281D0844CC
:102DF0001B2259A104F01AFF84B246E738881B222F
:102E0000C119281D084460A104F010FF84B23CE7FA
:102E1000B6B1099CCDE9033CCDE900B1CDE905048B
:102E2000029238885346C119281D08441B2202E02B
:102E300010E023E036E057A104F0F8FE84B224E766
:102E400038881B22C119281D08445EA104F0EEFE3B
:102E500084B21AE76EB1099ECDE90223CDE90406DA
:102E6000CDE9005163463A461B212CA004F0CEFE6A
:102E700081E71B2135A004F0C9FE7CE76EB1099EF5
:102E8000CDE90223CDE90406CDE9005163463A4677
:102E90001B2131A004F0BAFE6DE71B213AA004F01B
:102EA000B5FE68E76EB1099ECDE90223CDE90406BF
:102EB000CDE9005163463A461B2136A004F0A6FE38
:102EC00059E71B213FA004F0A1FE54E7CA050020EA
:102ED000500A0020CB05002056450020F82A00208B
:102EE000C90500200D0A0000253032642530326407
:102EF0002D253032642D2530326420253032643A5D
:102F0000253032643A253032643A2530336420006B
:102F100025635B303B33376D0000000025635B3178
:102F20003B33316D25303264253032642D2530320B
:102F3000642D2530326420253032643A25303264E5
:102F40003A253032643A25303364200025635B3102
:102F50003B33316D0000000025635B313B33336D43
:102F600025303264253032642D253032642D2530F1
:102F7000326420253032643A253032643A253032CA
:102F8000643A25303364200025635B313B33336D75
:102F90000000000025635B313B33326D2530326425
:102FA000253032642D253032642D253032642025C1
:102FB0003032643A253032643A253032643A253072
:102FC0003364200025635B313B33326D0000000029
:102FD000024801884088081A7047000056450020C2
:102FE0002DE9F0474FF48064264E3068002847D022
:102FF000007E042844D14FF00008234D234FA14602
:103000003CE028886988884203D1A5F80280A5F8A9
:103010000080288869884C46401AA04200DA84B2B1
:1030200064B3386A804718486988001D0144012349
:10303000224630680EF007FFC0B131681448B1F87D
:10304000662004F0E3FD306820B10DF09FFD30688C
:103050000CF03AFFA5F80280A5F80080C6F80080C1
:103060000C4880F800800C48C0F80880688820442C
:10307000688030680DF08AFD786A80474C45C0D082
:10308000BDE8F087E405002056450020F82A00201E
:10309000DC540208CB050020500A002070B5002443
:1030A000184D285D5A2827D1352017496043084418
:1030B000006B0188A1F5B442A53A1DD141888288F0
:1030C000914219D081884288914204D981884288EE
:1030D000891A018103E04188C1F5A051018101896C
:1030E0004289914201D901894181028941880C308C
:1030F0000144E0B2FFF7FCFA641C072CD1D3002096
:1031000070BD0000D1070020DC4902082DE9F04124
:10311000074600250024002F11D00A4E07E0301981
:1031200009A104F083FDE41CA4B26D1CEDB2BD4204
:10313000F5D32146BDE8F041024805F065BFBDE882
:10314000F08100003E5A0020082008001FB5044608
:10315000002003901148C16F03A88847104A1B2024
:1031600084B10090CDE90104039BD21C03F50B73DD
:103170000CA1A2F2031004F059FD81B2114805F030
:1031800043FF1FBD039B0090019003F50B73D21CFE
:103190000DA10C4804F04AFD81B2EFE7F82A0020A7
:1031A0003E5B00200D0A5B25734025732025635B81
:1031B000313B33326D7E25635B303B33376D5D24AD
:1031C000257300003E5A00200D0A5B2573402573CD
:1031D0002025635B313B33326D7E25635B303B33AF
:1031E000376D5D2400000000F0B589B0284DA86A55
:1031F000804728490C68E96A8847274800900123DE
:10320000002203210220FFF7A9FC24A00090012343
:10321000002203210220FFF7A1FC2CA00090012333
:10322000002203210220FFF799FC25E034F8880FE3
:10323000FDF72BF93149FDF7EAF8FDF72BF9D4E951
:1032400008236426D7185643B6FBF7F654F8687C73
:10325000CDE90717069014F8510C01A94DC128A01B
:1032600000900123002203210220FFF777FCA86AC7
:103270008047246BE96A8847002CD7D12B480090FF
:103280000123002203210220FFF768FC09B0F0BDF2
:10329000F82A0020A80B0020A451020820D3C5CF93
:1032A000C8BCB620CAB9D3C3D5BB20CAA3D3E0D506
:1032B000BB20B0D9B7D6B1C820C0FBD3C3C2CA2087
:1032C0002020C8CECEF1C3FB0D0A00002020507292
:1032D000696F202020557365642020467265652043
:1032E000202050657220202020435055202020208F
:1032F000205461736B6E616D650D0A000000C84259
:1033000020202025326420202535642020253564A6
:1033100020202025303264252520202025352E32FE
:1033200066252520202025730D0A00006051020823
:1033300010B54FF48064204607F080FE2046BDE8BB
:10334000104007F075BE00007CB50546044C684689
:10335000E16C8847216D68468847A842FAD97CBD50
:10336000F82A002010B50520FEF714FE6420FFF7B0
:10337000EBFF0520FEF7E2FDBDE810406420FFF7FB
:10338000E3BF000070B504460D4607F0FBFED320F6
:1033900007F0A4FE204600F09BF90446284600F002
:1033A00097F90646084D09E055F8240007F0AAFEF3
:1033B00018B107F099FE012070BD641CB442F3D926
:1033C00007F092FE002070BD5407002030B50023A6
:1033D000074C07E005682D6841F8235005682D1D4E
:1033E00005605B1C934202D20568A542F2D930BD4C
:1033F000FBFF1F082DE9F04105460E461746002445
:1034000007F0C0FED32007F069FEDFF8488018E01F
:1034100056F82410286807F0C7FE20B107F064FEB4
:103420000120BDE8F081286856F824100068884221
:1034300003D007F059FE0220F3E72868001D28603A
:10344000641CBC4202D228684045E1D907F04CFE1A
:103450000020E6E7FBFF1F0870B50546224C2078E8
:10346000627890423ED0A0780A230146401CB0FB0F
:10347000F3F603FB1606964201D0914216D101EBFA
:10348000C10000EB011004EB8000C01CFCF78EFFB4
:103490000246A07800EBC00101EB001004EB8001B4
:1034A000C91C2846FCF748FFFF2070BDB0FBF3F1B4
:1034B00003FB1100A07000EBC00101EB001004EB56
:1034C0008000C01CFCF772FF0246A07800EBC00130
:1034D00001EB001004EB8001C91C2846FCF72CFF0F
:1034E000012070BD002070BD0A5C002070B505464B
:1034F0001F4C21786078814237D0A078814216D164
:1035000000EBC00101EB001004EB8000C01CFCF7D5
:103510004DFF0246A07800EBC00101EB001004EB68
:103520008001C91C2846FCF707FFFF2070BDC8B109
:10353000401EA070A07800EBC00101EB001004EB6E
:103540008000C01CFCF732FF0246A07800EBC001EF
:1035500001EB001004EB8001C91C2846FCF7ECFECF
:10356000012070BD0920A070E4E7002070BD0000BC
:103570000A5C002070B50546224C207862789042A3
:103580003ED0A0780A230146401CB0FBF3F603FBB3
:103590001606964201D0914216D101EBC10000EB14
:1035A000011004EB4000C01CFCF700FF0246A078AD
:1035B00000EBC00101EB001004EB4001C91C2846E0
:1035C000FCF7BAFEFF2070BDB0FBF3F103FB110066
:1035D000A07000EBC00101EB001004EB4000C01C28
:1035E000FCF7E4FE0246A07800EBC00101EB0010FE
:1035F00004EB4001C91C2846FCF79EFE012070BD6B
:10360000002070BD5E43002070B505461F4C217838
:103610006078814237D0A078814216D100EBC0019A
:1036200001EB001004EB4000C01CFCF7BFFE02469B
:10363000A07800EBC00101EB001004EB4001C91CB5
:103640002846FCF779FEFF2070BDC8B1401EA0706F
:10365000A07800EBC00101EB001004EB4000C01C9F
:10366000FCF7A4FE0246A07800EBC00101EB0010BD
:1036700004EB4001C91C2846FCF75EFE012070BD2A
:103680000920A070E4E7002070BD00005E43002028
:103690002DE9F04100244FF6FF7741F2210C12E0B2
:1036A00000230E5D00F4004806FA03F505F08005DE
:1036B00085EA182507EA40000DB180EA0C005B1C82
:1036C000082BEFDB641C9442EADBBDE8F0810000CC
:1036D00010B501460020A1F100624FF480439A42E8
:1036E00004D345480844984201D2012010BD434804
:1036F0000844984201D2022010BD41480844984233
:1037000001D2032010BD3F484FF480340844A0424A
:1037100001D2042010BD3C484FF4003208449042CE
:1037200001D2052010BD39480844904201D206203C
:1037300010BD37480844904201D2072010BD3548DB
:103740000844904201D2082010BD334808449042FA
:1037500001D2092010BD31480844904201D20A200C
:1037600010BD2F480844904201D20B2010BDA1F19A
:103770000160984201D20C2010BD2A4808449842AA
:1037800001D20D2010BD28480844984201D20E20D5
:1037900010BD26480844984201D20F2010BD24488D
:1037A0000844A04201D2102010BD22480844904293
:1037B00001D2112010BD20480844904201D21220AD
:1037C00010BD1E480844904201D2132010BD1C4871
:1037D0000844904201D2142010BD1A480844904277
:1037E00001D2152010BD18480844904201D216207D
:1037F00010BD172010BD000000C0FFF70080FFF7CC
:103800000040FFF70000FFF70000FEF70000FCF7A4
:103810000000FAF70000F8F70000F6F70000F4F7F0
:103820000000F2F700C0EFF70080EFF70040EFF77D
:103830000000EFF70000EEF70000ECF70000EAF7F9
:103840000000E8F70000E6F70000E4F78CB0002481
:103850000A9400F09BFB274D0AA8E96F8847264889
:103860004FF47A710068B0FBF1F0401EB0F1807F38
:1038700008D24FF0E0214861204AF02010708C619E
:1038800007200861FEF776FF0BA801F03DFB06ABB1
:103890000BAF03260594D0C34FF40070CDE90304A9
:1038A0003321174ACDE90121092000900023154A50
:1038B00015A1184801F092FB06AB0594D0C34FF454
:1038C0008060CDE903046621134ACDE901210B2074
:1038D000009008480023114A11A1C03801F07EFB76
:1038E00003F066FE296E4FF4FA6088470BF0B4FBD4
:1038F000FCE70000F82A0020180B002023ED00E070
:10390000B81000202D7401085359535F535441548B
:103910004500000078290020B81800200D44010857
:103920004E45545F504552494F4449430000000002
:103930002DE9F0410646314C0A2560780930B0FB8C
:10394000F5F105FB110000EBC00101EB001004EBE9
:103950008000C01CFCF72AFD07463046FCF726FD18
:10396000874214D13046FCF721FD024660780930C9
:10397000B0FBF5F105FB110000EBC00101EB0010FD
:1039800004EB8000C01C3146FCF725FD90B3607845
:10399000401CB0FBF5F105FB11012078814210D1EC
:1039A00000EBC00101EB001004EB8000C01C64219F
:1039B000FCF7DBFC2078401CB0FBF5F105FB1100A7
:1039C00020703046FCF7F2FC0246607800EBC00144
:1039D00001EB001004EB8000C01C3146FCF7ACFC8E
:1039E0006078401CB0FBF5F105FB11006070A07021
:1039F000BDE8F081FFE76078A070F9E70A5C00207D
:103A00002DE9F0410646314C0A2560780930B0FBBB
:103A1000F5F105FB110000EBC00101EB001004EB18
:103A20004000C01CFCF7C2FC07463046FCF7BEFC59
:103A3000874214D13046FCF7B9FC02466078093061
:103A4000B0FBF5F105FB110000EBC00101EB00102C
:103A500004EB4000C01C3146FCF7BDFC90B360781D
:103A6000401CB0FBF5F105FB11012078814210D11B
:103A700000EBC00101EB001004EB4000C01C322140
:103A8000FCF773FC2078401CB0FBF5F105FB11003E
:103A900020703046FCF78AFC0246607800EBC001DB
:103AA00001EB001004EB4000C01C3146FCF744FC65
:103AB0006078401CB0FBF5F105FB11006070A07050
:103AC000BDE8F081FFE76078A070F9E75E43002071
:103AD0007CB50446601C4FF0FF311DD0104E06EB44
:103AE00044156868D0B10FA0CDE90004012302227B
:103AF00019468020FFF732F8A96909B120468847A6
:103B0000154C306800216268904700206860A16809
:103B10003068884700207CBD08467CBD08467CBDD7
:103B20004C8B00205B494E544552464143455D2035
:103B300073657420696E665F666420257520746FF6
:103B40002069646C652C2062656361757365206310
:103B50006C6F73650A000000F82A00202DE9FC4113
:103B60000024184818A1CDE90010012300220321E8
:103B70008020FEF7F3FF1A4E06EB44156868D0B1BB
:103B8000A96909B120468847296909B120468847B3
:103B9000144F306800217A68904713A0CDE90004E3
:103BA0000123022219468020FEF7D8FF002068601A
:103BB000B96830688847641C142CDDDB0020BDE840
:103BC000FC8100005A4702085B494E544552464169
:103BD00043455D20456E7465722025730A00000020
:103BE0004C8B0020F82A00205B494E544552464138
:103BF00043455D2073657420696E665F66642025A9
:103C00007520746F2069646C652C20626563617532
:103C10007365206465696E69740A000010B54FF41D
:103C200021710A48FCF7A1FB094C084909A0226848
:103C300090470B48A0660B48E0660B4820670B488E
:103C400060670B48A067002010BD00004C8B00206F
:103C5000F82A0020496E7465726661636500000091
:103C6000753C0108D13A0108AD3E0108613E0108EA
:103C70005D3B01082DE9F04F85B0064689460024DA
:103C8000A246CDF810A0C9F800A0454845A1CDE94D
:103C900000100123002203218020FEF75FFFDFF8E0
:103CA0002081464F0021D8F804203868904707EB60
:103CB0004410406840B1641C142CF8DB142C08D06C
:103CC000404DDFF804B121E007EB441101204860CA
:103CD000F4E73EA0012300901A4619468020FEF723
:103CE0003DFFD8F80810386888474FF0FF3005B01E
:103CF000BDE8F08F28683168884206D107EB441090
:103D000084606968001D884702E008355D45F1D38D
:103D10005D4514D130683AA1CDE9001001231A465F
:103D200019468020FEF71AFF07EB4410C0F804A0E4
:103D3000D8F80810386888474FF0FF30D7E707EB0E
:103D400044146269E2B104A970689047401C1DD018
:103D50000498E0600834C9F80040D4E9001036A2A5
:103D6000CDE90210CDE90024012303221946802069
:103D7000FEF7F4FED8F80810386888470020B6E748
:103D8000D8F80810386888470020B0E7C4F804A0C5
:103D9000D8F80810386888474FF0FF30A7E70000D0
:103DA0004B4702085B494E544552464143455D200E
:103DB000456E7465722025730A0000004C8B00204C
:103DC000F82A0020A8590208F05902085B494E540D
:103DD0004552464143455D2063616E206E6F7420FD
:103DE00066696E642069646C6520696E74657266CC
:103DF000616365206F707320656E747279210A00AB
:103E00005B494E544552464143455D2063616E20F7
:103E10006E6F742066696E6420696E697420656EC9
:103E200074727920666F7220696E74657266616360
:103E3000652025640A0000005B494E544552464106
:103E400043455D206F70656E2073756363657373A2
:103E50002C2066642025705B25752025705D0A0086
:103E600030B44FF0FF3300280DD001680A68541CAD
:103E70000CD00D4C04EB4212156A95B1556885B112
:103E80004B682BB106E0184630BC70471846FBE77C
:103E9000D2684A600168096804EB4111096A30BCC4
:103EA00008471846F0E700004C8B00207CB54FF027
:103EB000FF3400280DD0026811684B1C0BD0124D46
:103EC00005EB4113DE699EB15E688EB1516821B188
:103ED00005E020467CBD20467CBDD9685160016864
:103EE000096805EB4111C96902B0BDE87040084797
:103EF00006A00123CDE900011A4619468020FEF7ED
:103F00002DFE20467CBD00004C8B00205B494E54AA
:103F10004552464143455D20696E665F66642025D3
:103F200075202D3E20777269746520657272210AB2
:103F30000000000010B506F07BFCBDE810400AF060
:103F40009BB970470A460021AFF3008010B50023EB
:103F500000241B020B43641C042CFAD300F003045E
:103F600024B909E000F8011B521E641C22B1042C84
:103F7000F8D301E008C0121F042AFBD202E000F8C7
:103F8000011B521E002AFAD110BD000070B5054C6D
:103F9000054D03E0206800B18047241DAC42F9D3F1
:103FA00070BD0000F8590208245A02080146034A6D
:103FB0000148526940681047B42B0020F82A0020BD
:103FC000034902488969406808470000B42B002073
:103FD000F82A00202DE9FE4F06460F4690469946E6
:103FE0000024204D05EB0410007818B1641CE4B2E5
:103FF000142CF7D31C484FF4805C4FF0FF3A142C7C
:1040000025D0C6B1DFF864A0DAF82000804705EBC0
:10401000041500202860EE60A870E870C5F80880DC
:104020006F60C9F8004001202870DAF8240080474A
:104030000020BDE8FE8FCDE901060DA1012300910E
:104040001A4619466046FEF789FD5046F1E714A16D
:10405000CDE9001001231A4619466046FEF77EFDA1
:104060005046E6E70C8A00203C470208F82A002068
:104070005B5359535D2025732063616E206E6F740E
:1040800020637265617465206D6F6E69746F722C48
:10409000206E6F206E616D65202121210D0A0000C8
:1040A0005B5359535D2025732063616E206E6F74DE
:1040B00020637265617465206D6F6E69746F722C18
:1040C000206E6F207370616365202121210D0A002D
:1040D00070B5094901EB0014207801280AD1074D79
:1040E000286A8047002020606060A060E060207047
:1040F000686A8047002070BD0C8A0020F82A0020E2
:104100001CB54FF0FF3414280ADB0CA1CDE90010D8
:1041100001231A4619461803FEF720FD20461CBD50
:104120000F4B03EB00100378012B01D020461CBD80
:104130004160C2700121817000201CBD5B53595346
:104140005D20696E646578202575206F7665722024
:104150004E554D5F4D4F4E49544F5253210D0A005D
:104160000C8A00201CB54FF0FF3414280ADB0BA189
:10417000CDE9001001231A4619461803FEF7EEFC9C
:1041800020461CBD0E4901EB00100178012901D029
:1041900020461CBD0021817000201CBD5B5359537B
:1041A0005D20696E646578202575206F76657220C4
:1041B0004E554D5F4D4F4E49544F5253210D0A00FD
:1041C0000C8A002010B54FF4A0710848FCF7CDF818
:1041D0000848074901630849C16308494163084920
:1041E000816308490164002010BD00000C8A002092
:1041F000D53F0108F82A0020D140010801410108FB
:1042000065410108094201087FB5054600240020E8
:104210000F4E06EB04110A78012A13D14A688B6805
:10422000AA1A9A420ED3C878C9680AA3CDE9003108
:10423000CDE9020201231A4619461803FEF78EFC47
:104240004FF0FF30641C142CE3DB04B070BD0000A1
:104250000C8A00205B5359535D20257320746173D1
:104260006B2074696D656F7574206174207374655B
:10427000702025752074696D65722025750D0A0002
:10428000F8B50E460024164D04EB840101EBC40181
:1042900015F8211019B1641CE4B2142CF4D3142CB9
:1042A0001BD004EB840101EBC40705EB87031B1D46
:1042B00001466A46184600F023FABDF8000048B9E6
:1042C000684600F0D9FB3460012005F827006846F5
:1042D00000F0F8FBBDF80000F8BD4FF0FF30F8BD6E
:1042E0007C82002038B500EB80010C4D01EBC0044E
:1042F00015F82400012801D0002038BDBDF80000C9
:1043000040B9684600F0B8FB002005F82400684674
:1043100000F0D8FBBDF8000038BD00007C82002012
:1043200010B54FF482610748FCF71FF807480649AB
:1043300001600749C1600749416007498160002069
:1043400010BD00007C82002081420108F82A002074
:10435000E54201085D430108954301081CB500EBE7
:10436000800202EBC0000A4A12F82030012B02D072
:104370004FF0FF301CBD01AB02EB80000093002327
:10438000001D1A4600F0E6F9BDF804001CBD00004F
:104390007C82002008B500EB800101EBC0000949D8
:1043A00011F82020012A02D04FF0FF3008BD01EBA8
:1043B0008000001D6A46002100F084FABDF800006C
:1043C00008BD00007C82002070470000BFF34F8FC3
:1043D00004480168044A01F4E06111430160BFF33D
:1043E0004F8FFEE70CED00E00400FA05BFF34F8F9E
:1043F00004480168044A01F4E06111430160BFF31D
:104400004F8FFEE70CED00E00400FA0586B01E4C6D
:104410006846E16F8847E16C02A88847206A8047B8
:10442000FFF788FD03F062FA606A8047E16C04A838
:1044300088470499256B01AB052214A0A847E16CBD
:1044400004A888470499636B012201989847206A61
:10445000804700F023F8606A8047216D02A88847F2
:10446000642804D8FEF7B4FDB0F5806F04DBE16C7E
:1044700002A88847FEF7B4FDA16B01988847216E1A
:1044800002208847DBE70000F82A00207461736B84
:104490005F6E65745F706572696F640010B506F0D9
:1044A00083F908B109F0E2FE02480068BDE8104057
:1044B00009F0AEBE180700207047000002480068EF
:1044C000002800D000477047400B002010B504467C
:1044D00000F09EF83C48002202703C4802703C48C4
:1044E00002703C4802603C4802603C4802703C4814
:1044F00002703C4802703C49086840B13B48006883
:1045000028B1096801E0491E04C00029FBD13848E0
:104510000260384802603848026038480260384813
:10452000026038480260384802603848027001F082
:10453000C1FB01F0F7FB204601F0D0F820880028ED
:1045400041D1204601F024F9208800283BD12046A3
:1045500001F02AF92088002835D1204601F0D0F951
:10456000208800282FD1204601F0D0FB2088002889
:1045700029D1204601F09CFC2088002823D1204628
:1045800001F02AFF208800281DD1204601F0CCF838
:104590002088002817D1204602F064FA20880028DD
:1045A00011D1204601F00EFE208800280BD12046B4
:1045B00002F0B4FA2088002805D101F08DF8BDE89A
:1045C0001040FFF779BF10BD540B00205C0B00209A
:1045D000820B0020E40B0020E80B0020760B00206B
:1045E000770B0020780B0020F44C0208F04C0208F6
:1045F000340B0020380B00203C0B0020400B002027
:10460000440B0020480B00204C0B0020AE0B002078
:10461000054806490068096800EB8100044920F05C
:104620000700086070470000F04C0208F44C0208D4
:10463000EC0B002005480078012805D104490878D2
:10464000FA2801D2401C0870704700005C0B002063
:10465000540B002010B52248007801283ED1FBF70A
:10466000CFFD04461F49087840B1401EC0B2087013
:1046700048B12046BDE81040FBF7C6BD2046BDE866
:104680001040FBF7C1BD1848007820B12046BDE8B6
:104690001040FBF7B9BD01F0FBFA1449087014494A
:1046A00000EB400051F820001249086012490968E7
:1046B000884204D12046BDE81040FBF7A5BD50F864
:1046C0008C1F491C01600D480168491C0160FCF702
:1046D00054FA2046BDE81040FBF796BD10BD00001F
:1046E0005C0B0020540B0020820B0020770B002075
:1046F00010090420E80B0020E40B0020A40B00208C
:104700002DE9F04104460D461646FBF779FD0746B4
:10471000FEF796F80D482060656000252562656209
:1047200084F82850E56204F1080001F085F920467C
:1047300001F088F806480188491C0180FEF792F8CC
:104740003846FBF761FD3580BDE8F0814D55545882
:10475000740B00202DE9F04F89B00646129D8A4661
:1047600091461C4654493068884205D045F6C450ED
:10477000288009B0BDE8F08F002704B12760FBF75F
:104780003FFD8346FEF75CF896F82810DFF82C8191
:10479000A9B1706AD8F8002090422ED1FF2923D009
:1047A000491C86F828100CB1F06A2060FEF75AF810
:1047B0005846FBF729FD45F282702880D9E7D8F8E2
:1047C00000007062012086F828000CB1F06A2060B9
:1047D0003146D8F8000001F047F8FEF743F8584694
:1047E000FBF712FD2F80C4E7FEF73CF85846FBF7B5
:1047F0000BFD45F284702880BBE75FEA094108D5CC
:10480000FEF730F85846FBF7FFFC46F2B010288060
:10481000AFE72B49097841B1FEF724F85846FBF77A
:10482000F3FC46F663502880A3E790F8373092F8FF
:1048300037108B4201D901F03DFD53460422314629
:1048400001A801F069F8FEF70DF85846FBF7DCFC0B
:1048500000F0D4F8FBF7D4FC0646FDF7F1FFD8F8DA
:10486000002092F8351071B1012911D002291CD015
:10487000032914D046F62E602880FDF7F3FF30465A
:10488000FBF7C2FC75E70CB1906C20602F80F4E759
:104890000CB1906C206046F2A9102880EDE704B1BD
:1048A000276047F2D9202880E7E70CB1906C2060A0
:1048B00045F6C2502880E0E74D555458E40B0020DF
:1048C000820B00202DE9FC5F04468B4615464849C3
:1048D0002068884204D045F6C4502880BDE8FC9F7B
:1048E000FBF78EFC0190FDF7ABFFDFF80891606AE3
:1048F000D9F80010884208D0FDF7B4FF0198FBF703
:1049000083FC45F281702880E8E7FDF7FFFF8046D1
:10491000C4F82C8094F82800401EC0B284F8280007
:1049200040B1FDF79FFF0198FBF76EFC45F28370E5
:104930002880D3E72146D9F8000000F0D5FF04F124
:1049400008074FF0000A3889E8B3D9F8000090F85A
:10495000371090F8382091421DD000F0B4FFD9F8FC
:10496000001091F83820824200D21046064691F895
:104970003700B0420FD2084601F038FAD9F80000EB
:1049800080F83760304601F0A1F9D9F8000001F055
:1049900011FA19480670386886686662012084F842
:1049A00028002146304600F05FFF00231A463146BA
:1049B0002046CDF8008001F0FEF8FDF753FF019886
:1049C000FBF722FC00E007E05FEA0B4001D400F0B7
:1049D00015F8A5F800A081E7C4F824A084F828A061
:1049E000FDF740FF0198FBF70FFCA5F800A075E765
:1049F0004D555458E40B0020760B002010B5174895
:104A00000078002829D116480078002825D1FBF726
:104A1000F7FB044601F03CF912490870124900EB1B
:104A2000400051F820001149086011490968884286
:104A300004D12046BDE81040FBF7E6BB50F88C1FC0
:104A4000491C01600B480168491C0160FCF790F8A3
:104A50002046FBF7D9FBBFF36F8F10BD540B00202E
:104A6000820B0020770B002010090420E80B0020A7
:104A7000E40B0020A40B002070B504460F4800781A
:104A8000012803D045F68960208070BD0C4D287840
:104A9000FA2803D345F20920208070BDFBF7B0FB54
:104AA0000646FDF7CDFE2878401C2870FDF7DAFE9B
:104AB0003046FBF7A9FB0020208070BD5C0B002076
:104AC000820B002070B5044615480078012803D0F9
:104AD00045F68960208070BD124D287890B1FBF7B3
:104AE0008FFB0646FDF7ACFE2878401EC0B228704A
:104AF00060B1FDF7B7FE3046FBF786FB46F6635024
:104B0000208070BD46F66450208070BDFDF7AAFE7F
:104B10003046FBF779FBFFF771FF0020208070BD66
:104B20005C0B0020820B00202DE9F04104468846F2
:104B300015461E46FBF764FB0746FDF781FE0D4850
:104B40002060256200256562C4F8048004F1080035
:104B500000F072FF204601F083F907480188491CE4
:104B60000180FDF77FFE3846FBF74EFB3580BDE840
:104B7000F081000053454D41880B00202DE9F84F8E
:104B800007468B46154634493868884205D045F6B5
:104B9000C45028800020BDE8F88FFBF731FB00905F
:104BA000FDF74EFE07F108063489A046DFF8AC9009
:104BB0004FF0000ABBF1000F0CD0BBF1010F28D061
:104BC000FDF750FE0098FBF71FFB45F62560288097
:104BD0004046E0E7B8F1000F08D0FDF743FE00982B
:104BE000FBF712FB47F25F102880F1E7384601F02F
:104BF00049F9B9F80000401EA9F80000384601F054
:104C00001FF9FDF72FFE0098FBF7FEFAA5F800A0AC
:104C1000DEE7FDF77BFE834607E0306881685A4691
:104C2000384600F06CFF641EA4B2002CF5D1384663
:104C300001F028F9B9F80000401EA9F80000384634
:104C400001F0FEF8FDF70EFE0098FBF7DDFAFFF726
:104C5000D5FEA5F800A0BBE753454D41880B0020C9
:104C60002DE9F04F89B00646129D8A4691461C46B2
:104C700044493068884206D045F6C4502880002058
:104C800009B0BDE8F08F4FF000080CB1C4F8008007
:104C9000FBF7B6FA8346FDF7D3FD376A77B17F1E7F
:104CA00037620CB1706A2060346AFDF7DBFD58464C
:104CB000FBF7AAFAA5F800802046E1E75FEA094081
:104CC00009D5FDF7CFFD5846FBF79EFA46F2B01026
:104CD00028803846D4E72C48007848B1FDF7C2FD5B
:104CE0005846FBF791FA46F6635028800020C7E744
:104CF00053460622314601A800F00EFEFDF7B2FD34
:104D00005846FBF781FAFFF779FEFBF779FA074679
:104D1000FDF796FD1D48016891F8350078B101282E
:104D200013D002281FD0032816D046F62E60288004
:104D3000FDF798FD3846FBF767FA0020A0E70CB1B5
:104D4000886C2060A5F8008013E00CB1886C2060AE
:104D500046F2A91028800CE00CB1C4F8008047F29C
:104D6000D920288005E00CB1886C206045F6C2503F
:104D70002880346AFDF776FD3846FBF745FA204671
:104D80007EE7000053454D41820B0020E40B0020DC
:104D900070B505460E461446094A2868904204D06C
:104DA00045F6C4502080002070BDFDF7AFFD0246DF
:104DB000234631462846BDE8704001F085B8000022
:104DC00053454D4170B504460F4D2878002803D057
:104DD00045F68A60208070BD00F05AFF0B490870CC
:104DE0000B4908700B4900EB400051F820000A49BC
:104DF00008600A49086001202870FBF77BFE43F633
:104E00009920208070BD00005C0B0020770B0020F3
:104E1000760B002010090420E80B0020E40B002092
:104E20002DE9F0410646FBF7EBF90446FDF708FDD6
:104E30002D48002505802D4805602D4805602D482A
:104E400005602D4805602D480581FDF70BFD2046C6
:104E5000FBF7DAF9FBF7D4F90746FDF7F1FC284830
:104E60000468FDF7FFFC3846FBF7CEF91BE0FBF7C3
:104E7000C7F90746FDF7E4FC7434E5632560256354
:104E8000A561A582E5826562A562FDF73FFD20620E
:104E9000743C2146A1F86C50D4F8B840FDF7E2FC10
:104EA0003846FBF7B1F9002CE1D1FBF7A9F9074629
:104EB000FDF7C6FC13480468FDF7D4FC3846FBF741
:104EC000A3F90CE0FBF79CF90746FDF7B9FC214676
:104ED0008D85A469FDF7C6FC3846FBF795F9002CD3
:104EE000F0D13580BDE8F0818E0B0020A00B0020B2
:104EF000B40B0020D40B0020580B00200409042020
:104F0000A80B00207C0B0020F8B504466946284811
:104F100000F0DCFABDF8000008B12080F8BD6A4658
:104F20000021022000F006FBBDF8000008B120803F
:104F3000F8BDFBF765F90746FDF782FC1D4E00251D
:104F40003560FDF78FFC3846FBF75EF900201A4903
:104F50001A4A0B681768BB4203D908681268B0FB8D
:104F6000F2F018B909680A20B1FBF0F06A46002196
:104F700000F0E0FA69460E4800F068F9BDF800005C
:104F800008B12080F8BDFBF73BF90746FDF758FC58
:104F90000B4805600B49306808600B490120087018
:104FA000FDF760FC3846FBF72FF92580F8BD0000BF
:104FB000C00D0420900B0020184D0208044D02087B
:104FC000A00B0020940B00209C0B002002480068DE
:104FD000002800D000477047440B00202DE9FF4F08
:104FE00083B00446DDE91098DDE91765139F934609
:104FF000B9F13F0F08D13A48844205D046F27320F8
:10500000288007B0BDE8F08F204601F0F5F94FF099
:10501000000AA5F800A0F0070AD0B00708D5454659
:10502000002003E0C5F800A02D1D401CB842F9D3B4
:10503000129808EB8005CDE900762B46424658468B
:10504000069900F00FFAC4F828B00699E1620499B5
:10505000216284F8379084F838902060A560169813
:105060006060C4F824802764A4F84460002004EB46
:105070008001C1F878A0401CC0B20028F7D004F12C
:105080006000149900F0D6FB204600F02FF8FBF7E3
:10509000B7F80546FDF7D4FB94F8370000F016FE8C
:1050A000204600F087FE204601F064F90D4908888B
:1050B000401C08800C480078012807D0FDF7D2FB7F
:1050C00007B02846BDE8F04FFBF79EB8FDF7CAFBD6
:1050D0002846FBF799F807B0BDE8F04FFFF78EBC04
:1050E00044080420AC0B00205C0B00200249096836
:1050F000002900D008477047340B00202DE9F04705
:1051000004460F464A48844204D147F24C10388086
:10511000BDE8F0875CB9FBF773F80546FDF790FB37
:1051200044480468FDF79EFB2846FBF76DF8FBF743
:1051300067F88146FDF784FB94F836004FF00008CD
:1051400008286CD2DFE800F004080C0C47080C0CAF
:10515000204600F04BFE3EE0204601F079FB3AE0AD
:1051600094F8340007282DD2DFE800F02C042C043A
:1051700008040400204600F092FC23E0206BC06885
:10518000456A15F8376F204600F089FC2878697861
:10519000373D88420CD094F83710884208D1284611
:1051A00000F091FB95F83810814200D2084606467F
:1051B00084F8348095F83700B04203D03146284651
:1051C00001F078F894F83600032801D0072802D1BE
:1051D000204601F03DFBE06B10B1204600F048FB9B
:1051E00004F1600000F00AFB204600F027F820469A
:1051F00001F0D2F810480188491E0180204601F0D4
:10520000FBF8FF2084F83600FDF72CFB4846FAF740
:10521000FBFFA7F80080BDE8F047FFF7EFBBFDF705
:1052200021FB4846FAF7F0FF46F62D6038806FE71D
:1052300044080420E40B0020AC0B0020024909685C
:10524000002900D008477047380B002070B505468C
:105250000E46FAF7D5FF0446FDF7F2FAFDF702FB1A
:105260002046FAF7D1FF31462846BDE8704001F0EC
:105270001BB9000002490968002900D0084770479F
:105280003C0B00202DE9F05F83468A4614461D46FC
:105290000026002C00D02660FAF7B2FF8146FDF709
:1052A000CFFA424F3868D0F84C80B8F1000F1DD0CB
:1052B000A8F10108C0F84C800CB1806C2060FDF7AB
:1052C00025FB01463868826C891AC0F8A010D0F816
:1052D000A4208A4201D2C0F8A410FDF7C3FA4846C0
:1052E000FAF792FF2E804046BDE8F09F5FEA0A4041
:1052F00009D5FDF7B7FA4846FAF786FF46F2B0102F
:1053000028800020F0E72A48007848B1FDF7AAFA83
:105310004846FAF779FF46F6635028800020E3E715
:1053200000215B460722084600F0F6FAFDF79AFADC
:105330004846FAF769FFFFF761FBFAF761FF80461D
:10534000FDF77EFA396891F8350078B1012820D050
:10535000032825D046F62E6028803868C46CFDF7F7
:1053600081FA4046FAF750FF2046BDE77CB1886CD1
:105370002060FDF7CBFA01463868826C891AC0F8C4
:10538000A010D0F8A4208A4201D2C0F8A4102E8028
:10539000E3E70CB1886C206046F2A9102880DCE7B6
:1053A00004B1266047F2D9202880D6E7E40B00201C
:1053B000820B002070B505460E461446FDF7A6FA8E
:1053C0000246234631462846BDE8704001F0E4B865
:1053D0002DE9F04706460F4690469946FAF710FF2A
:1053E0000446FDF72DFA0EB91D4806684FF0000A75
:1053F000306858B196F84400C00716D0FDF732FA6D
:105400002046FAF701FF0024756A1EE0FDF72AFA2C
:105410002046FAF7F9FEC7F800A0C8F800A047F246
:105420005210A9F80000BDE8F087FDF71BFA2046EE
:10543000FAF7EAFEC7F800A0C8F800A047F2541037
:10544000A9F80000EFE72D1D641C28680028FAD099
:105450003C60306C001BC8F80000A9F800A0E2E72F
:10546000E40B002010B5029C02EB840222F007023C
:105470004FF0807442F8044C42F8080C0C3A124881
:105480001060A2F130004FF01234C4624FF00332CA
:1054900082624FF0023242620362C1614FF0113109
:1054A0008161D1004161611001619100C1604FF0E3
:1054B000073181604FF0063141604FF0053140F80F
:1054C00004195100016010BD81650108044A904231
:1054D00003D147F25B100880704701F0C7B80000A5
:1054E0004408042070B510480068002800D08047A8
:1054F000FDF70CFA0D4C0E4A21681368994206D04C
:1055000090314A68821A0A608D682A448A60C3F81A
:105510009400FDF777F92168D1F8B020824201D2DA
:10552000C1F8B00070BD0000480B0020E40B002063
:10553000E80B00202DE9F04106460D4614461D48B3
:105540000078002804D046F663502080BDE8F08142
:105550004DB1022D07D0042D06D0082D03D045F6FD
:1055600025602080F2E7A6B1FAF74AFE0746FDF76C
:1055700067F92A46104D23463146286801F022F982
:10558000208850B1FDF76EF93846BDE8F041FAF7D2
:105590003BBE47F27E202080D8E7286800F026FC3A
:1055A000FDF760F93846FAF72FFEFFF727FA0020DB
:1055B0002080CBE7820B0020E40B00202DE9F04196
:1055C0001E46DDE906342D4D2D78002D04D046F61B
:1055D00063502080BDE8F08103F00E0547F27E277E
:1055E0004DB1022D07D0042D09D0082D03D045F66A
:1055F00025602080EEE716B90AB901B960B3204BE7
:105600001B684FF4FA7CBCFBF3FC66445E434FF42A
:105610007A7CB6FBFCF64FF4616C00FB0CF0C1EB3E
:10562000011100EB8100104400FB03661EB3FAF782
:10563000E7FD0746FDF704F92A46124D2346314699
:10564000286801F0BFF8218841B1FDF70BF9384611
:10565000BDE8F041FAF7D8BD2780BBE7286800F025
:10566000C5FBFDF7FFF83846FAF7CEFDFFF7C6F9A0
:1056700000202080AEE72780ACE70000820B0020EE
:10568000184D0208E40B002008B500F01DF86A462A
:1056900000210948FFF78EFE08490868401E08608F
:1056A000002807D10648006808606A4600210548BE
:1056B000FFF780FE08BD0000D00C0420E00B0020A6
:1056C000DC0B0020C00D042002480068002800D038
:1056D000004770474C0B002070470000034A002130
:1056E0001160034A1180018070470000600B0020A8
:1056F000640B00200A4C0B4DFAF782FD0646FDF7BD
:105700009FF82168491C21602968491C2960FDF720
:10571000A9F83046FAF778FDFEF7D0FEECE7000076
:10572000500B0020900B002000B589B00D4A0021DD
:1057300011600B22CDE9061208900C4A05910A4827
:105740000B4B126800681B68CDE90132CDE90301FB
:105750003F2000900023074A07A10C48FFF73EFCBA
:1057600009B000BD500B0020EC4C0208E84C0208C8
:10577000E44C0208F556010875432F4F532D494953
:10578000492049646C65205461736B00440804200F
:10579000034A00211160034A118001807047000014
:1057A000680B00206C0B0020F0B5114E3168326898
:1057B0001032104F3B885B1E9DB20023002407E08F
:1057C0000A604C600C81CC60103110325B1C9BB2C3
:1057D000AB42F5D30C604C600C81CC60064932685A
:1057E0000A603A888A80CC800C810480F0BD000079
:1057F000FC4C0208F84C02080409042010B5428948
:10580000002A12D003680A490C681C6043680B60C8
:10581000CB8844891B1BCB808B88448923448B8095
:1058200000214181818101604160104610BD00006E
:1058300004090420018100214181818101604160CE
:105840007047000006A1C16100224261054B196842
:10585000002903D081614861186070478261FBE7CD
:1058600020000000700B0020C26B0A62C163704709
:10587000F8B50746FC6B1EE0256AFDF747F80346BE
:10588000E3622146384600F02FF804F10800018950
:10589000A1B1006886686762012084F8280021466B
:1058A0003046FFF7E1FF009300231A4631462046B9
:1058B00000F081F92C46002CDED1F8BD002084F8E0
:1058C00028006062F6E73F213C3008E082682AB198
:1058D000926892F837208A4200D211462030006840
:1058E0000028F3D1084670473C3001E002F1200067
:1058F00002688A42FAD10168096A016070470000B3
:10590000034A00211160034A1180018070470000A2
:10591000700B0020740B00202DE9F0410C46074667
:105920001946104D286880F83420002680F835602C
:1059300000F0A8FC64B104F10806FC6001223946BD
:10594000286800F011F83946304600F07AF803E094
:105950002868A0F84660066320462968BDE8F04143
:1059600000F016B8E40B002010B5A0F84620016343
:105970000024002309E04B600B600B614B610B833B
:10598000CB6188602031641CA4B29442F3D310BD73
:10599000002809D04268C1F8BC2000F1080109685C
:1059A0008968096AC161704791F83400022805D0FE
:1059B000072807D005A0C1F8BC00704704A0C1F8B3
:1059C000BC00704704A0C1F8BC0070472000000074
:1059D0005461736B205100005461736B2053656DEB
:1059E0000000000007A2C1F8BC2000F1080109680E
:1059F000002903D08968096AC161704701A1C161AA
:105A0000704700002000000070B5056BB0F84640FC
:105A10000FE0EE6808363089012807D9294630465C
:105A200000F052F82946304600F00BF82035641E8D
:105A3000A4B2002CEDD170BD002101604160018154
:105A4000704730B58A6892F8374002890025002AED
:105A500003D0521C028102680CE0012202814D60D9
:105A60000D600160416030BD936893F83730A34208
:105A700002D85268002AF7D132B1136853B10B60D3
:105A80004A605960116030BD4D6042680A605160E3
:105A9000416030BD11600D604A60016030BD70B57D
:105AA0000646356BB6F8464007E0E86808302946F8
:105AB00000F00AF82035641EA4B2002CF5D10020B5
:105AC000A6F84600306370BD10B502890024012A93
:105AD0000BD00A6862B14B6873B153601A600289D7
