:020000040801F1
:10000000F0370620C10101086D640108CB01010829
:10001000AF590108153D010881AF0108000000003B
:10002000000000000000000000000000E3010108E3
:10003000E50101080000000021180108AD93010846
:10004000EB010108EB010108EB0101083590010803
:10005000EB010108EB010108EB010108EB010108CC
:10006000EB010108EB010108EB01010875410108F2
:100070009D410108C5410108ED41010815420108F3
:100080003D42010865420108EB010108EB0101084E
:10009000050D0020450D0020EB010108EB010108D2
:1000A000EB010108EB010108EB010108EB0101087C
:1000B000EB010108EB010108EB010108EB0101086C
:1000C000EB010108EB010108EB010108EB0101085C
:1000D000EB010108D9AC010805AD010831AD0108FB
:1000E000394C0108EB010108EB010108EB010108A3
:1000F000EB010108EB010108EB010108EB0101082C
:10010000EB010108EB010108EB010108EB0101081B
:1001100045AC0108EB010108EB010108EB01010806
:10012000EB0101088D420108B5420108EB0101080D
:10013000EB010108EB010108EB010108EB010108EB
:10014000EB010108EB010108EB010108EB010108DB
:10015000EB010108DD420108054301085DAD01081E
:10016000EB010108EB010108EB010108EB010108BB
:10017000EB010108EB010108EB01010800000000A0
:10018000EB010108EB01010871AC0108A1AC010809
:10019000EB010108EB010108EB0101080000000080
:1001A000EB010108EB010108EB010108DFF80CD0BD
:1001B00001F026F800480047E5650208F037062000
:1001C0000A4880470A480047FEE71EF0040F0CBFAC
:1001D000EFF30880EFF309800FF0EAB8FEE7FEE7DF
:1001E000FEE7FEE7FEE7FEE7FEE7FEE7E19801082F
:1001F000AD01010872B6704762B67047EFF3108028
:1002000072B6704780F31088704730BF704720BFC8
:100210007047B0FA80F0704790FAA0F0B0FA80F022
:10022000704790FAA0F070472DE9F05F0546002076
:1002300092469B4688460646814640241BE0284657
:1002400041464746224600F05DFA53465A46C01AD8
:10025000914110D311461846224600F044FA2D1A57
:1002600067EB01084F4622460120002100F03BFACF
:1002700017EB00094E41201EA4F10104DFDC4846C3
:1002800031462A464346BDE8F09F000038B5D0E924
:100290000221491E01EB410102EBC1014268C1EBA1
:1002A000011102EB81010268C1EB011102EB810235
:1002B000D0E9043101EB410103EB81013023A1F5C9
:1002C000527191FBF3F4174D6C4302EBC41291FB96
:1002D000F3F403FB141100921A2902DB124B1A44A7
:1002E00000920C2291FBF2F3104C6343009C04EB50
:1002F000C313009391FBF2F302FB13110C4A08E0C5
:10030000491E40F2A324535C6343009C04EBC313D7
:1003100000930029F4DC0146684600F009FA0098D1
:1003200038BD00003F0C0F008051010067C2030080
:100330009037030840EA01039B0703D009E008C98E
:10034000121F08C0042AFAD203E011F8013B00F89A
:10035000013B521EF9D27047D2B201E000F8012BE6
:10036000491EFBD270470022F6E710B513460A4635
:1003700004461946FFF7F0FF204610BD421E12F852
:10038000013F002BFBD111F8013B02F8013B002B90
:10039000F9D1704730B505462A460B4612F8010BD5
:1003A00013F8014B08B1A042F8D01CB1002802D0CC
:1003B0006D1CF1E7284630BDCAB2401E10F8011F7F
:1003C0008A4202D00029F9D100207047421C10F85F
:1003D000011B0029FBD1801A704710B5002200E0F4
:1003E000521C835C8C5CA34201D1002BF8D1D8B2A3
:1003F000E1B2401A10BD30B504460020034600E0CB
:100400005B1C934203D2E05CCD5C401BF8D030BD56
:10041000034611F8012B00F8012B002AF9D11846E8
:10042000704730B505460020034600E05B1C934250
:1004300005D2EC5CC85C201A01D1002CF6D130BD8D
:1004400000B58DB0099000920B904FF0FF300A90EC
:1004500000200C9004480690044807906A4609A8BA
:1004600000F078FC0DB000BD710D01088F0D010882
:100470000FB400B58DB010A909900B9000914FF00A
:10048000FF300A9000200C90054806900548079020
:100490006A4609A80F9900F05DFC0DB05DF814FBE9
:1004A000710D01088F0D01082DE9FF5F1D464FF00A
:1004B000FF3BD5E9014691465F464FF00008A96928
:1004C0007F1C01988847296A824688470028F6D110
:1004D000BAF1FF3F0CD024F4C064002E19DD600691
:1004E00014D5BAF12B0F09D0BAF12D0F0ED103E0BC
:1004F000584604B0BDE8F09F44F48064A9697F1CAD
:1005000001988847761E8246002E02DDBAF1300F30
:1005100003D0B9F1000F26D032E0A969761E44F469
:1005200000747F1C019888478246002E05DDBAF1D1
:10053000780F06D0BAF1580F03D0B9F1000F10D0E0
:100540001EE0B9F1000F02D0B9F1100F18D1A9695E
:10055000761E24F400747F1C019888478246102080
:1005600002E0082000E00A20814609E008FB0908B3
:10057000A969761E44F400747F1C0198884782465E
:10058000002E05DD4946504600F018F90028EDDA46
:10059000E96901988847A00502D46FF00100A8E737
:1005A000E00725D1600613D5600502D5C8F100002B
:1005B00000E0404629680A1D2A600968220501D525
:1005C000087015E0220701D5088011E008600FE0EF
:1005D0002868011D29600068210502D580F8008087
:1005E00006E0210702D5A0F8008001E0C0F80080F5
:1005F00038467EE770B506460AF024FD04680546D5
:100600000A220021304600F0D3FB2C6070BD30B4CC
:1006100080EA010202F0004530F0004221F0004083
:1006200013D090B1C30DD40DC2F31601C0F3160060
:10063000E41A41F4000140F400027D34914201D3F8
:10064000641C00E04900002C02DA30BC0020704736
:100650004FF400000023914201D3891A034340085C
:100660004FEA4101F7D151B1914202D14FF000411F
:1006700005E002D24FF0010101E06FF0010103EB50
:10068000C450284430BC00F0CBBB96230022114656
:1006900000F0CFBB00F0004230F000400AD0C10DA6
:1006A00001F56071C0F3160042EA0151C20840072B
:1006B0001143704700200146704730B50B46014694
:1006C00000202022012409E021FA02F59D4205D3F1
:1006D00003FA02F5491B04FA02F52844151EA2F19B
:1006E0000102F1DC30BD202A04DB203A00FA02F1DD
:1006F000002070479140C2F1200320FA03F3194310
:1007000090407047202A04DB203A21FA02F00021B1
:10071000704721FA02F3D040C2F120029140084311
:1007200019467047014900F003B80000C42B0620A9
:1007300010B500683C22B0FBF2F302FB1303B0FBE0
:10074000F2F00B60B0FBF2F302FB1303B0FBF2F02C
:1007500018224B60B0FBF2F302FB1303B0FBF2F084
:10076000021D8B600723B2FBF3F403FB142280000D
:1007700040F2B55300F66C308A61B0FBF3F2B0FB87
:10078000F3F403FB1400443280084A61C8613B283B
:1007900002D3920700D0401C0022074C13460A6186
:1007A000E25C824203D8801A5B1C0B61F8E7401CB4
:1007B000C860084610BD00009C3703083A2800D2E4
:1007C000303820F02002412A01D3A2F137008842BC
:1007D00001D34FF0FF3070472DE9FF4F1C4681B029
:1007E0000021D4E9016791464FF0FF358A468846DB
:1007F000A1696D1C02988847216A834688470028B2
:10080000F6D1BBF1FF3F0CD026F4C066002F1ADDF5
:10081000700615D5BBF12B0F0AD0BBF12D0F0FD1F0
:1008200004E04FF0FF3005B0BDE8F08F46F480667D
:10083000A1696D1C029888477F1E8346002F02DD48
:10084000BBF1300F03D0B9F1000F2AD025E0A16928
:100850006D1C46F400767F1E029888478346002F61
:1008600005DDBBF1780F06D0BBF1580F03D0B9F10D
:10087000000F10D011E0B9F1000F02D0B9F1100F44
:100880000BD1A1696D1C26F400767F1E0298884763
:100890008346102000E0082081464FEAE97000906E
:1008A00017E00A20F8E74346AAFB092803FB098062
:1008B000DDF800C07F1E0AFB0C0112EB0B0A41EBB6
:1008C000EB78A16946F4007605F1010502988847A6
:1008D0008346002F06DD49465846FFF76FFF5FEA63
:1008E000000BE0D5E16902988847B00502D46FF0AB
:1008F000010098E7F00718D1700610D57005514631
:1009000005D50023D1EB030163EB080200E042466A
:100910002068031D23600068C0E9001205E020681C
:10092000011D21600068C0E900A828467BE72DE989
:10093000FF5FD2E901A74FF000089169994614467C
:10094000DDF838B0464601988847054659EA0B005D
:1009500005D009E0A169761C019888470546216AFF
:10096000284688470028F5D1681C03D05FEACA7082
:1009700005D015E04FF0FF3004B0BDE8F09F2068CF
:10098000011D2160D0F800800AE05FEACA7001D141
:1009900008F8015BA169761C7F1E0198884705460F
:1009A000002F1ADD681C18D0B9F1000F0DD0E81720
:1009B00005EBD060421120F01F0059F822102A1ACE
:1009C000012090400142E0D107E0BBF1000FDCD1F3
:1009D000216A284688470028D7D0E16901988847CE
:1009E000BBF1000F07D1002E05DD5FEACA7002D10E
:1009F000002188F80010A068B84203DDBBF1000FA9
:100A000003D017B16FF00100B6E73046B4E700003D
:100A10002DE9FF4F087881B09946FF2805D0491C81
:100A20002D2804D00024002308E000230BE001243B
:100A3000F9E703EB830300EB4303491C0878FF2825
:100A4000F7D104B15B4200200090147801462D2CB0
:100A500001D02B2C04D1521C2D2C12D00024009438
:100A600000251678FF2E0ED00A24A0FB04C801FB37
:100A70000481002700FB0711521C16EB0C00694192
:100A8000EFE70124EBE7994450EA01020ED000247D
:100A9000AA4D2646DFF8A88200F026FE82468B4645
:100AA000B9F1000009DAC9F100071BE00198002143
:100AB000C0E9001105B0BDE8F08F074612E0F80765
:100AC00007D022462B463046414600F087FA0646BC
:100AD000884622462B461046194600F07FFA044607
:100AE0000D467F10002FEAD1B9F1000F3246434680
:100AF0005046594602DA00F0E3FA01E000F06EFADF
:100B0000009A0AB181F00041019AC2E90001D1E7DF
:100B10002DE9FF4F1F468DB0D7E901464FF0FF3852
:100B20002E2045464FF000090B90B9696D1C0E98B8
:100B30008847396A824688470028F6D1BAF1FF3FD4
:100B40000AD024F4D064002E11DDBAF12B0F08D0A6
:100B5000BAF12D0F0BD102E0404611B0ABE744F4DF
:100B60008064B9696D1C0E9888478246761E694676
:100B7000600501D52D2000E02B208DF8000001F14B
:100B8000010B0DF1200809E0B9696D1C0E9888472A
:100B900082460F9844F40074761E0560002E02DD34
:100BA000BAF1300FF0D00B998A453ED144F0800461
:100BB00006E00F99681CA9F1010944F4007408606B
:100BC000B9696D1C761E0E98884782463028F0D091
:100BD0002BE00B998A4505D1200603D444F080040C
:100BE000761E18E050460AF0F3FA08B30DF113012F
:100BF000761E44F400748B4508D2AAF130000BF83D
:100C0000010B200607D5A9F1010003E0200602D45C
:100C100009F101008146A00502D50F99681C086002
:100C2000B9696D1C0E9888478246002ED1DC53E0CE
:100C3000002E51DDBAF1650F02D0BAF1450F4BD14C
:100C4000A00549D5B9696D1C24F44074761E0E9830
:100C500088478246002E0CDD2B2804D0BAF12D0FD8
:100C600007D144F48074B9696D1C0E988847824698
:100C7000761EE00501D52D2100E02B2108F8011B8F
:100C8000CDF82C8021E00DF12901761E44F400748A
:100C900088450CD2AAF1300010F0FF0088F800005F
:100CA00002D10B99884509D908F1010806E0E00551
:100CB00001D5244801E042F20F708146B9696D1CEC
:100CC0000E98884782460F980560002E04DD504636
:100CD0000AF07EFA0028D6D1F9690E988847FF20DD
:100CE0008BF8000088F800000020069007904B4623
:100CF0006A4608A906A8FFF78BFEA00502D46FF08C
:100D000001002AE714F0240F0AD0E00714D1DDE92E
:100D100006123868031D3B600068C0E900120BE052
:100D2000DDE9060100F0ECFC0146E00704D138687B
:100D3000021D3A600068016028460EE7000024406A
:100D40000000F03FF1D8FFFF026811441378016002
:100D500018467047D160044951610449116200216D
:100D60001161114600F07EBA490D010851120108C7
:100D7000426842B1016811F8013B23B1521EC0E93B
:100D80000012184670470121C160881E70474268F2
:100D90005AB1C368016843B983688B4205D0491EC4
:100DA000521CC0E90012002070474FF0FF3070471E
:100DB0002DE9F04791460F4680460446002614F878
:100DC000015B2DB100F040FA0068405DC007F6D12C
:100DD0002B2D02D02D2D18D0641E4A4639462046B0
:100DE00000F0D6FB27B13968A14201D1C7F80080D5
:100DF00071054FF002040BD54042002803DD0AF0D4
:100E000021F90460A007BDE8F08746F48066E4E7B6
:100E10000028F8DA0AF016F904606FF00040F2E7F3
:100E20000029A8BF7047401C490008BF20F00100FE
:100E3000704710B4B0FA80FC00FA0CF050EA0104DC
:100E400004BF10BC704749B1CCF1200421FA04F46E
:100E500011FA0CF118BF012121430843A3EB0C0147
:100E6000CB1D4FEA00614FEA102042BF002010BCAA
:100E7000704700EBC35010440029A4BF10BC70475A
:100E8000401C490008BF20F0010010BC70472DE94C
:100E9000FE4F804681EA0300C00F0C46009021F00F
:100EA000004123F00045B8EB0200A94105D24046BD
:100EB000214690461C460B46024623F00040104354
:100EC00047D0270DC7F30A00C3F30A510290401A16
:100ED000019040286BDAC3F3130040F4801B0098A4
:100EE000924620B10023D2EB030A63EB0B0B01986F
:100EF0005946C0F140025046FFF7F5FB06460D4645
:100F000050465946019A00F08DF910EB08006141F6
:100F1000002487EA115284EAE7731A4340D0009A0A
:100F200062B3019A012A4FEA075215DC001B61EBFC
:100F300002014FF0004202EA0752CDE90042001CD4
:100F400041F5801132462B4600F080FB03B0BDE82E
:100F5000F08F40462146F9E7001B61EB0201001CBF
:100F600041F5801300185B412018A2F5001747EBEC
:100F7000030140EAD570B6196D4111E06D084FEAE2
:100F8000360645EAC0754FEA0752001B61EB0201C5
:100F9000001C41F5801149084FEA30000019514109
:100FA00032462B4603B0BDE8F04F00F040BB00983E
:100FB000012240000023D0EB020263EBE0730098B3
:100FC00021464FEAE074B8EB000061EB0401E9E769
:100FD00083F000435BE781F0004158E72DE9FE4FC5
:100FE00081EA030404F0004421F0004100944FF032
:100FF000000B23F0004350EA01045ED052EA0304E0
:101000005BD0C3F30A54C1F30A552C44A4F2F33461
:101010000194A0FB0254C1F3130141F48011C3F306
:10102000130343F4801301FB024400FB034E840AC4
:10103000970A44EA815447EA8357A4FB076802955C
:101040008D0A05FB07854FEA932C04FB0C542705FA
:10105000029D4FEA065847EA1637B5EB08056EEBD6
:10106000070C870E920E47EA811742EA8312A7FB0C
:101070000201B6EB0B0164EB00042B0D43EA0C33C9
:101080005E1844EB1C50DA465146E7FB0201C5F3FB
:1010900013044FEA0B3343EA14534FEA0432019C22
:1010A00043EA0603A4F10C040294009CCDE900B4C9
:1010B00000F0CCFA03B0BDE8F08F00200146F9E75C
:1010C0002DE9F04D81EA030404F0004B21F00045C6
:1010D00014464FF0000A23F0004150EA050220D0E8
:1010E00054EA01021DD0C5F30A570246C5F31303A3
:1010F000C1F31300C1F30A5640F4801543F4801382
:10110000A7EB0608101BD64608F2FD3873EB050066
:1011100002D308F1010801E092185B41B8F1000F19
:1011200003DA00200146BDE8F08D00204FF4801165
:10113000064684460EE0171B73EB050705D3121B0A
:1011400063EB050306434CEA010C49084FEA300003
:1011500092185B4150EA0107EDD152EA030012D028
:1011600082EA040083EA0501084305D0101BAB4165
:1011700006D20122002306E000224FF0004302E0E5
:101180006FF0010253101AEB06004CEB085110EB04
:101190000A0041EB0B01BDE8F04D00F048BAC1F385
:1011A0000A52C1F3130140F2FF3341F480119A4215
:1011B00002DA00200146704740F233439A42A2F21D
:1011C000334202DC5242FFF79DBAFFF78CBA0000AF
:1011D00030B5041E71F1000404DB4FF000444042BE
:1011E00064EB0101141E73F1000405DB1C464FF093
:1011F0000043524263EB0403994208BF904230BD62
:10120000064C074D06E0E06840F0010394E8070053
:1012100098471034AC42F6D3FEF7CCFF78030408AD
:10122000A8030408202A06DBCB17203A41FA02F073
:1012300043EAE07306E041FA02F3D040C2F1200233
:101240009140084319467047004870472C380308FE
:1012500010B50446FFF7F8FF0068005D00F00100DC
:1012600010BD00002DE9F34F8BB04FF0000801F1E5
:101270000C000C464FF0010B46460DF1080A019098
:10128000626901210198904705002DD0252D2CD0B1
:10129000216A8847C0B16269012101989047216A9B
:1012A00088470028F7D1411E62690198904700E005
:1012B000761CA1690B988847216A88470028F7D1D6
:1012C000E1690B988847DBE7A1690B9888470746D7
:1012D000A84201D1761CD3E7E1690B9888477F1CAF
:1012E00002D1B8F1000F6FD046E1002762693D4698
:1012F0003946019890472A2804D162690121019852
:1013000090470125DFF88492626901210198904796
:10131000A0F130010A290AD24F45E5DC07EB87012D
:1013200000EB4107303FDFD445F01005ECE7E9065C
:1013300001D46FF000476C280AD04C2814D06828DC
:1013400015D06A280DD074281CD07A281AD01DE038
:1013500062690121019890476C2802D045F004058C
:1013600014E045F002050DE045F020050AE0626951
:10137000012101989047682802D045F0080505E052
:1013800045F400656269012101989047C4E901575D
:1013900065283DD019DC58287AD00CDC452837D098
:1013A00004DC252826D0412831D131E046282FD031
:1013B00047282CD12CE05B2877D0612828D06328DF
:1013C0007CD0642823D15AE0D0E06F2848D008DCD4
:1013D00066281DD067281BD0692821D06E2816D119
:1013E00027E0702845D0732868D0752847D0782822
:1013F0000DD14DE0A1690B988847054625283FF49B
:1014000069AFE1690B9888476D1C3FF46AAFB3E0A0
:1014100023466A466FF001000B99FFF779FB9EE0C7
:1014200045F040006060A80723464FF0000236D424
:101430003EE0E8077FF447AF2068011D21600068A7
:10144000290501D506701BE7290701D5068017E796
:10145000A90703D5F117C0E9006111E706600FE79E
:1014600045F040006060A80723464FF0080216D4FC
:101470001EE040F60E0125EA0100606016E045F02E
:1014800040006060A80723464FF00A0207D40FE02F
:1014900045F040006060A80708D5234610226FF091
:1014A00001000B99FFF798F959E007E02346102255
:1014B0006FF001000B99FEF7F7FF50E04FF00009C5
:1014C0004F464B46632802D05B2806D040E0E80632
:1014D00001D40120A06001273AE06269012101984E
:1014E00090475E2805D14FF001096269494601988D
:1014F0009047216939B900210A46534643F8212013
:10150000491C0829FADBB0B3216969B9C11700EB9E
:10151000D16253110AEB830122F01F02821A0120CB
:101520000B68904003430B6062690121019890476A
:101530005D28E8D1B9F1000F09D00020514651F8DB
:101540002020D24341F82020401C0828F7DB02ABC2
:10155000224600976FF001000B99FFF7E8F9002889
:101560000CDA401C08D1BBF1000F05D04FF0FF3062
:101570000DB0BDE8F08FFFE74046F9E7E90701D17C
:1015800008F1010806444FF0000B79E6CCCCCC0CF6
:101590002DE9F05F82460078002715468B460AF158
:1015A0000104B946302801D09DB113E014F8010BB5
:1015B0000127782803D0582801D045B10AE00DB1A1
:1015C000102D07D10027102514F8010B02E0082583
:1015D00000E00A250026B0460EE005FB080005FBEA
:1015E00006F1012701EB10461FFA80F8B6F5803F9F
:1015F00000D3B94614F8010B2946FFF7DFF800289D
:10160000EBDABBF1000F05D00FB1641E00E05446C9
:10161000CBF80040B9F1000F06D009F013FD02210C
:101620000160C81EBDE8F09F48EA0640FAE710B521
:10163000141E73F1000408DA401C41F100019218F5
:101640005B411A4301D120F0010010BD2DE9F04D9E
:1016500092469B4611B1B1FA81F202E0B0FA80F2F3
:1016600020329046FFF73FF804460F4640EA0A0052
:1016700041EA0B0153465A46084313D0114653EA38
:10168000010019D0C8F140025046FFF73BF805466B
:101690000E46504659464246FFF725F8084305D006
:1016A000012004E020463946BDE8F08D00200543C6
:1016B00046EAE0762C4337430A986305E40AA0EB38
:1016C00008000022FD0A44EA47540A3002D50020EF
:1016D0000146E9E7010510196941DDE908450019EE
:1016E0006941BDE8F04DA2E70EB540F233420292E7
:1016F0000022CDE900221346FFF7A8FF03B000BD8A
:1017000001F0004330B421F0004150EA010206D05C
:101710000A0DA2F56072C1F31301002A02DC30BC8D
:1017200000207047440F44EAC104C100E01830BCF7
:1017300000EBC250FFF774BB70B58C1810F8015B5A
:1017400015F0070301D110F8013B2A1106D110F85A
:10175000012B03E010F8016B01F8016B5B1EF9D15E
:101760002B0705D40023521E0DD401F8013BFAE7E4
:1017700010F8013BCB1A921C03E013F8015B01F84F
:10178000015B521EF9D5A142D8D3002070BD0000E4
:1017900072B64EF62250CEF2000040F2FF01C0F2C7
:1017A000000101704FF0000080F3098805F0EEFEA3
:1017B00042F26440C2F20000016881F3088842F2FC
:1017C000EE30C2F2000042F2EF31C2F200010A78BC
:1017D000027042F25C45C2F2000542F26041C2F280
:1017E00000010A682A60106880F30988EFF314800A
:1017F00040F0020080F31488BFF36F8FBDE8F00F54
:101800000FBCBDE8005006BC62B6084718484FF050
:1018100080510160704716484FF080510160704759
:1018200072B6EFF3098020E9F00F42F25C45C2F294
:1018300000052E683060744605F0A8FE42F2EE30D6
:10184000C2F2000042F2EF31C2F200010A780270E7
:1018500042F26041C2F200010A682A6044F0F40ECC
:101860001068B0E8F00F80F3098862B67047000096
:1018700004ED00E040F2010CC2F2000C604740F6BB
:10188000AD3CC2F2000C604740F6F12CC2F2000CF5
:10189000604700EB810082600020704770B505460C
:1018A000094E084C00217268A06890472421284600
:1018B000FEF759FDE068401EE060B168A068884707
:1018C000002070BDD4570220342500208078000904
:1018D000704700002DE9F84380460D460024384F3C
:1018E000364E00217A68B068904704EBC40006EBDE
:1018F000800090F8F80110B3641C042CF5DB4FF461
:10190000005C4FF0FF39042C27D06868012831D0E3
:1019100000282FD02BA0012300901A4619466046BC
:1019200002F002FD04EBC40106EB8101002081F806
:10193000F801B968B06888474846BDE8F88304EB09
:10194000C40006EB8000814600F5FC702421FEF700
:101950000AFD012089F8F801D1E724A001230090B5
:101960001A461946604602F0DFFCB968B06888473D
:101970004846E2E704EBC40006EB800404F2F914E5
:10198000607820F0F000803060702878207028683F
:1019900000F0BEFA0146A07861F3C710A070297963
:1019A00061F38610A070641EC8F80040F068401C07
:1019B000F060B968B06888470020BEE7D4570220BD
:1019C000342500205B417069204770696F5D2047B6
:1019D00070692043746C20496E6974205661756C7F
:1019E00065204572726F72210A0000005B417069C8
:1019F000204770696F5D204770692043746C2049EF
:101A00006E6974204572726F722C204E6F20537075
:101A1000616365210A000000F8B50446607800F0B3
:101A200077FAC1B2E078420702D06268521C626065
:101A3000B1EBD01F10D04FF0005202EBB0104FEAC4
:101A4000B060C0F3C202E070032A08D361F3C7108C
:101A500020F03800E07002E020F03800E070E0781C
:101A6000002600F007014FF40055062924D2DFE8D4
:101A700001F0032A62C523EAC0F38011B1EBD01F45
:101A80001BD185A00222009001231146284602F0B6
:101A90004BFCA07820F0F000A070A16809B12046AE
:101AA00088476660A07820F00F00401CA070E078A6
:101AB00020F00700401CE070F8BDA07820F0F00096
:101AC0008030A070F8BDC0F38011B1EBD01F17D0EB
:101AD0007BA00222009001231146284602F024FC3C
:101AE000A07820F0F0001030A070E16809B1204625
:101AF00088476660E07820F00700801CE070F8BD41
:101B00006068B0F5167FFAD977A002220090012311
:101B10001146284602F008FCA07820F0F000503072
:101B2000A070E16909B120468847E07820F00700FD
:101B3000401DE070F8BDC0F38011B1EBD01F2AD179
:101B400055A00222009001231146284602F0ECFB2A
:101B5000A07820F0F000A070A16809B12046884765
:101B60006DA00222009001231146284602F0DCFB02
:101B7000A0784FF0805101EB30104FEA3070A07028
:101B8000216909B1204688476660E07820F00700A7
:101B9000C01CE070F8BD60683C28FBD9A07800F05C
:101BA0000F00012802D0022812D022E065A00222F4
:101BB000009001231146284602F0B6FBA07820F0E1
:101BC000F0003030A070616999B12046884710E07C
:101BD00067A00222009001231146284602F0A4FBD0
:101BE000A07820F0F0004030A070A16909B1204633
:101BF0008847E07820F00700E070F8BDC0F380115E
:101C0000B1EBD01FF9D02EA0022200900123114683
:101C1000284602F089FBA07820F0F0001030A07078
:101C2000E16809B12046884760683C2806D26660B2
:101C3000E07820F00700801CE070F8BDE07820F02C
:101C40000700E070F8BDC0F38011B1EBD01F0CD1DC
:101C5000A07820F0F0006030A070216A0029F1D057
:101C600001B02046BDE8F040084715A002220090D0
:101C700001231146284602F057FBA07820F0F0001F
:101C80001030A070E16809B120468847E07820F064
:101C90000700E070F8BD00005B4170692047706983
:101CA0006F5D204770692042746E204576656E74C2
:101CB000205B50524553535F444F574E5D210A00FD
:101CC0005B417069204770696F5D204770692042F1
:101CD000746E204576656E74205B50524553535F99
:101CE00055505D210A0000005B4170692047706912
:101CF0006F5D204770692042746E204576656E7472
:101D0000205B4C4F4E475F50524553535F535441F5
:101D100052545D210A0000005B41706920477069E0
:101D20006F5D204770692042746E204576656E7441
:101D3000205B50524553535F5245504541545D21FD
:101D40000A0000005B417069204770696F5D2047A1
:101D500070692042746E204576656E74205B53492D
:101D60004E474C455F434C49434B5D210A00000000
:101D70005B417069204770696F5D20477069204240
:101D8000746E204576656E74205B444F55424C4519
:101D90005F434C49434B5D210A00000070B50024AD
:101DA000154D1648296D06468847052821D3E96C4C
:101DB00030468847114D103D04EBC40005EB800010
:101DC00090F8F811012903D100F5FC70FFF724FE0B
:101DD000641C042CF0DB002404EB440005EBC00081
:101DE000017E012902D1183000F066FA641C142C1F
:101DF000F2DB002070BD000034250020E4570220F3
:101E00007FB5244824A1CDE9001001235D03002201
:101E10000321284602F088FA4FF422712448FEF785
:101E2000A2FA244C2248E16C103088470720029027
:101E3000A26E1F4902A89047401C1FD03C341C4989
:101E400054F83C2C08311CA090471E4860651E4881
:101E5000A0651E48E0651E4820661E48A0661E4814
:101E600060661E48E0661E4820671E4860671E4880
:101E7000A0671E48E067002004B070BD1CA00123CD
:101E800000901A461946284602F04EFA4FF0FF30ED
:101E9000F2E70000983103085B41706920477069E0
:101EA0006F5D20456E7465722025730A0000000086
:101EB000D4570220342500206170695F6C6F636B1A
:101EC00000000000111F0108C51F0108691F01085B
:101ED000A12101087121010821200108D51801085C
:101EE0009D18010893180108CD1801089D1D0108CF
:101EF0005B417069204770696F5D204770696F2092
:101F00004F70656E206572726F72210A00000000CA
:101F10001FB50B49019102900A48416F01A88847FB
:101F2000401C02D0039804B010BD012306A000900D
:101F30001A461946580302F0F7F94FF0FF30F2E75E
:101F4000D4570220342500205B4170692047706916
:101F50006F5D204770696F204F70656E20657272EB
:101F60006F72210A000000001FB50C490191029018
:101F7000022003900A48016F01A88847401C02D044
:101F8000002004B010BD012306A000901A46194697
:101F9000580302F0C9F94FF0FF30F2E7D45702209E
:101FA000342500205B417069204770696F5D2047D0
:101FB00070696F204F70656E206572726F72210AB2
:101FC000000000001FB50C4A0192029003910B48DB
:101FD000016F01A88847401C02D0002004B010BD4A
:101FE000012307A000901A461946580302F09CF9F5
:101FF0004FF0FF30F2E70000D457022034250020D4
:102000005B417069204770696F5D204770696F2080
:102010004F70656E206572726F72210A00000000B9
:10202000F8B5044608684FF0FF35032801D14A6827
:102030009AB100224FF4005688B1012829D0022815
:1020400041D0032845D038A0012300901A461946F4
:10205000304602F069F90020F8BD2846F8BDA270AC
:102060006260E07801280AD070B137A001230090A7
:102070001A461946304602F057F92846F8BD6078EE
:102080000021FFF79FFFE6E760780121FFF79AFF45
:10209000E1E7A2706260E07801280AD070B12AA05E
:1020A000012300901A461946304602F03DF92846B1
:1020B000F8BD60780121FFF785FFCCE7607800214B
:1020C000FFF780FFC7E7A27062606078FFF74CFF00
:1020D000C1E70120A070486860608868A060C86897
:1020E000E0602248C16C04F1100088476068002855
:1020F00001DD401E6060E07801280AD070B112A0B6
:10210000012300901A461946304602F00DF9284680
:10211000F8BD60780021FFF755FF9CE7607801214A
:10212000FFF750FF97E700005B4170692047706937
:102130006F5D20556E6B6E6F776E204374726C20EE
:10214000436F6465210A00005B4170692047706934
:102150006F5D2047706F2043746C205661756C650D
:10216000204572726F72210A0000000034250020A1
:1021700070B50546094E084C00217268A06890476A
:1021800018212846FEF7EFF8E068401EE060B168CD
:10219000A0688847002070BDD45702203425002055
:1021A0002DE9F84380460D4600242D4F2B4E00218B
:1021B0007A68B068904704EB440006EBC000007EEC
:1021C00008B3641C142CF6DB4FF4005C4FF0FF39AD
:1021D000142C1FD06868012829D0002827D021A0FE
:1021E000012300901A461946604602F09DF804EB60
:1021F000440106EBC10100200876B968B068884741
:102200004846BDE8F88304EB440106EBC101012018
:102210000876D9E71DA0012300901A4619466046AA
:1022200002F082F8B968B06888474846E9E704EBED
:10223000440006EBC000297841762979C176183030
:10224000C8F80000F068401CF06003CDFFF7BAFE4C
:10225000B968B06888470020D3E70000D45702204F
:10226000342500205B417069204770696F5D20470D
:10227000706F2043746C20496E6974205661756CD0
:1022800065204572726F72210A0000005B4170691F
:10229000204770696F5D2047706F2043746C204940
:1022A0006E6974204572726F722C204E6F205370CD
:1022B000616365210A00000070B504461D4DA078D9
:1022C00004F11006296D002811D0012831D13046C3
:1022D0008847A16888422CD30020A070E1786078FC
:1022E000FFF770FE3046E96CBDE870400847606853
:1022F00000281ED030468847E168884219D3012063
:10230000A0706068002801DD401E6060E078012850
:1023100001D028B108E060780021FFF753FE03E008
:1023200060780121FFF74EFE3046E96CBDE8704051
:10233000084770BD342500202DE9FC410446194EA4
:10234000032C0CD318A00123CDE900041A4619462A
:10235000980501F0E9FF4FF0FF30BDE8FC81114D19
:102360001E4F083D00217A68286890474FF47A7321
:1023700000224FF4806130460AF077F80146234688
:1023800017A2686809F05AFE002040F213114C436E
:10239000174901EBC401C1F88408B9682868884767
:1023A0000020DAE7AC8202205B417069204C746542
:1023B0005D206572726F7220706172616D73206F43
:1023C000662074637020636C69656E7420656E743A
:1023D0007279205B25755D20210D0A0034250020CF
:1023E00041542B5149434C4F53453D25750D0A002F
:1023F000D468022010B58AB0002109AA03230591F0
:10240000CDE9073206913323094CCDE901434FF45E
:102410000072CDE903210A2100910346D0F89028EB
:1024200004A104F5006004F02DFE0AB010BD000008
:10243000D087022041545F434C49454E545F4C5471
:10244000455F5441534B000010B5036840F213122E
:1024500053430C4A02EBC303D3F88C380B60036878
:1024600040F21314634302EBC303D3F890384B607C
:1024700000682346584302EBC000D0F894088860F7
:1024800010BD0000D46802202DE9FE43002602960C
:1024900000252D4F02A8F96F884741F6FC612B48B3
:1024A000FDF761FFDFF8A880681EC8F8E40D294831
:1024B00029A1CDE90010012300220321980501F094
:1024C00033FF0298417931B990F81406022802D0FE
:1024D0000020BDE8FE833A68244925A09047DFF834
:1024E0006C9040F21310684309EBC00404F17000D3
:1024F00003F04CFA04F6840466602660A660E66089
:1025000026616D1C032DECDB1B4847F8BC0F1B48F4
:1025100078601B48B8601B48F8601B4838611B484E
:1025200078611B48B861062009F064FAC8F8D4093C
:10253000FFF760FF00F030F805221649D8F8D409FB
:1025400009F05EFE0020C4E734250020D468022094
:10255000D4780220E73103085B417069204C746530
:102560005D20456E7465722025730A00A4820220E6
:102570004170695F4C746500C1280108ED250108B0
:1025800009290108352801083923010849240108CF
:10259000D12801087C1E002000B58BB000200AA9BC
:1025A00003220590CDE9072106903322084BCDE99F
:1025B00001324FF40071CDE903100A20009000238E
:1025C000044A05A1084804F05DFD0BB000BD000001
:1025D00090900220E55B02084C54455F4E45545FE5
:1025E0005441534B00000000909802202DE9FE4F0B
:1025F00006468A4600254D4C4D494EA2D4F8900E11
:10260000CDE90021401C02904FF4800B01230022F1
:102610000321584601F088FEDFF83481D4F8D00950
:102620000021D8F804209047A4F580574FF0FF39D7
:1026300040F21310684307EBC000D0F8840860B183
:102640006D1C032DF4DBD8F80810D4F8D0098847A6
:10265000032D61D00020BDE8FE8FB6F86600A0F51E
:10266000B441A53942D004F5696440F213112068E1
:10267000484307EBC0007021FDF775FEF078B17894
:10268000CDE90010206840F2131148437378327886
:1026900007EBC0002FA108F095FC206840F2131250
:1026A000504307EBC000B6F86410A0F8641020682F
:1026B000B16E504307EBC00081662068F16E504355
:1026C00007EBC000A4F56964C166D4F8900E40F22F
:1026D0001311484307EBC000C0F88498CAF80050B3
:1026E000D4F8900E401CC4F8900EACE7D4F8900ECD
:1026F00040F21311484307EBC0007021FDF733FE91
:10270000D4F8900E40F21311484307EBC00070223A
:102710003146FDF70FFED8E711A0012300901A46BD
:102720001946584601F000FE484694E7D478022046
:10273000C93103085B417069204C74655D202573C5
:1027400020636C69656E74206E756D2025750A00B6
:102750003425002025752E25752E25752E2575000E
:102760005B417069204C74655D2063616E206E6F03
:10277000742066696E642069646C652074637020DF
:10278000636C69656E7420656E74727920210D0A20
:10279000000000001CB50C480CA1CDE9001001237D
:1027A00000220321980501F0BFFD0D4C00210620F9
:1027B000626B9047216840F6B83088470121626B10
:1027C0000620904700201CBDB73103085B417069AB
:1027D000204C74655D20456E7465722025730A0077
:1027E000942500201CB50C480CA1CDE90010012354
:1027F00000220321980501F097FD0D4C00210620D1
:10280000626B9047216840F6B83088470121626BBF
:102810000620904700201CBDA63103085B4170696B
:10282000204C74655D20456E7465722025730A0026
:10283000942500207CB505460024286800680328FC
:102840000AD311A1CDE9001001231A4619469805B3
:1028500001F06AFD601E7CBD184E0EE0E86840F293
:102860001312011928680068504306EBC00070304D
:1028700003F092F8401C03D0641C6868A042EDDCB1
:10288000AC6020467CBD00005B417069204C7465E3
:102890005D206572726F7220706172616D73206F5E
:1028A000662074637020636C69656E7420656E7455
:1028B0007279205B25755D20210D0A00D468022005
:1028C00002484FF0FF31C0F8E41D7047D478022071
:1028D00070B50C460B4A82F8940E012810D102F60E
:1028E000956040F234510546FDF73DFD2046FDF769
:1028F0006DFD024621462846BDE87040FDF71ABD31
:1029000070BD0000D47802202DE9F04F89B0044654
:102910007C4F142104A8FDF726FD7B487BA1CDE95F
:1029200000104FF48008012300220321404601F0EB
:10293000FBFC20684FF0FF36006803280CD378A119
:10294000CDE9001001231A461946404601F0ECFC7F
:10295000304609B0BDE8F08F7E4DD5F8E41D491C26
:1029600054D040F213114143A5F5805909EBC10140
:10297000D1F88418491C49D06168002903DD40F270
:10298000B452914209DD74A2CDE9002001230291E5
:102990001A461946404601F0C7FCDFF8F0A1D5F809
:1029A000D0090021DAF8042090474FF4806BC82347
:1029B00000225946384609F058FD07463E21D5F811
:1029C000D40909F0E9FB60680090206870A23946DC
:1029D0000368D5F8D40909F031FB002821D0002183
:1029E000D5F8D40909F0D8FB20686EA1012300684E
:1029F0001A46CDE900101946404601F095FCDAF878
:102A00000810D5F8D00988473046A2E76EA1CDE975
:102A1000001001231A461946404601F085FC304655
:102A200097E70021D5F8D40909F0B6FBD4E90121D4
:102A3000D5F8D40909F0DAF9DAF860100A208847E5
:102A4000C82300225946384609F00FFD07460020EA
:102A5000009020684EA239460368D5F8D40909F0E1
:102A6000EDFA0028CBD164A1384609F0C5FC002856
:102A7000C5D006A805A9CDE9001004AB60A265A1E8
:102A8000384609F0E3FC401C2FD0DDE90401226840
:102A900063A31268CDE90201CDE9003201230022CF
:102AA0000321404601F040FCDAF80810D5F8D009BF
:102AB0008847206840F2131204990068504309EBDC
:102AC000C000C0F88C18206805990068504309EBD5
:102AD000C000C0F89018206806990068504309EBC0
:102AE000C000C0F89418002033E7206856A10123E5
:102AF00000681A46CDE900101946404601F014FC62
:102B00007DE70000AC820220D93103085B41706987
:102B1000204C74655D20456E7465722025730A0033
:102B20005B417069204C74655D206572726F722024
:102B3000706172616D73206F662074637020636CC6
:102B400069656E7420656E747279205B25755D20F1
:102B5000210D0A00D47802205B417069204C746515
:102B60005D206572726F7220706172616D73206F8B
:102B700066207463702D25752073656E64206C6506
:102B80006E205B25755D20210D0A00003425002094
:102B900041542B514953454E443D25752C25750D07
:102BA0000A0000005B417069204C74655D2074630D
:102BB000702D25752073656E6420646174612065D5
:102BC00072726F72210D0A005B417069204C74654E
:102BD0005D207463702D2575206C696E6B206861B3
:102BE00064206E6F742065737461626C69736865CC
:102BF00064210D0A0000000053454E44204F4B0055
:102C00002B514953454E443A2025752C25752C25CA
:102C1000750000002B514953454E443A0000000016
:102C20005B417069204C74655D207463702D25755F
:102C30002073656E64206C656E2025752061636B62
:102C400020257520210D0A005B417069204C7465B8
:102C50005D207463702D257520736E64206461742B
:102C600061206572726F7220210D0A0001490160B6
:102C700000207047A448022070B586B0274828A1DC
:102C8000CDE9001001235D0200220321284601F056
:102C90004BFB002003900520049003A80590274CCF
:102CA000274904A8A26E9047401C4FF0FF3620D061
:102CB000012003902249A26E083104A89047401CCD
:102CC00021D0204844F87C0F1F4860601F48A06056
:102CD0001F48E0601F4820617C3C00F06BF828B181
:102CE00084340020A168884720688047002006B00F
:102CF00070BD19A0012300901A461946284601F01C
:102D000013FB3046F3E71FA0012300901A46194633
:102D1000284601F009FB3046E9E700008531030849
:102D20005B4170692053797320506172616D5D2041
:102D3000456E7465722025730A000000342500205A
:102D4000944802206D2C0108C53201083132010877
:102D5000B52D0108C52F01085B41706920537973B7
:102D600020506172616D5D20496E74657220466C01
:102D7000617368204F70656E206572726F72210AF0
:102D8000000000005B41706920537973205061722C
:102D9000616D5D20496E74657220466C61736820B8
:102DA00042616B204F70656E206572726F72210AEE
:102DB000000000002DE9F04F8DB04FF0FF35554871
:102DC00055A1CDE90010012300220321580201F092
:102DD000ABFA584808904FF4F367099700F11006D2
:102DE0000B960DF10808CDF830804FF00009CDF8B2
:102DF0000890DFF844A108A8DAF874108847BA1ED2
:102E00003146002002F0FCF8B6F89617A6F1080447
:102E100004F5F46B814239D1002508940997CDF867
:102E20002CB0CDF83080CDF80890DAF8741008A8EE
:102E30008847BA1E5946002002F0E2F80146BBF866
:102E4000960788420CD1B6F89617884208D13BA065
:102E50000123009003221946580201F065FA55E05B
:102E60000123454800901A461946580201F05CFAC1
:102E7000049405970696CDF81C80CDF808900120A3
:102E80000390DAF8701004A888473FE001233B481C
:102E90005E0200901A461946304601F045FA089441
:102EA0000997CDF82CB0CDF83080CDF80890DAF83D
:102EB000741008A8884740F296723149002002F049
:102EC0009FF8BBF89617814218D12E480123009035
:102ED00003221946304601F027FA002515480490D0
:102EE0000597CDF818B0CDF81C80CDF808900120DA
:102EF0000390DAF8701004A8884707E022A00123A5
:102F000000901A461946304601F00EFA0DB02846D8
:102F1000BDE8F08F3C3103085B4170692053797341
:102F200020506172616D5D20456E7465722025735D
:102F30000A00000094480220342500205B4170699B
:102F40002053797320506172616D5D2053797374E1
:102F5000656D20436F6E6669672047657420537501
:102F600063636573732C20506169722053756363CA
:102F7000657373210D0A0000B8F8030820F80308F0
:102F80003C50022068F803085B4170692053797354
:102F900020506172616D5D2053797374656D2043BB
:102FA0006F6E66696720536861646F77205365634D
:102FB000746F7220476574204572726F72210D0A1A
:102FC000000000002DE9FE438146824982A2CDE93E
:102FD0000021012300220321580201F0A5F9002558
:102FE000002602960127834C4FF4F368B9F1000FD5
:102FF00025D141462046FDF7B6F9522004F8AC0F22
:103000003A2060708020A070E67026716771AC3C39
:1030100032217948FDF7A7F97748322132308146CD
:10302000FDF7A1F9744975A23C391068C8633820CE
:1030300081F840000F2273A14846FDF77BF9C020BC
:1030400004F8980FA8216170A7706422E27041F61D
:10305000C8636382FF2222716271A271E6712072DD
:103060006172A7721422E27220736173A7736320E6
:10307000E073238284F87E6084F87F7084F87D6535
:1030800084F87C754FF4E130C4F8FC0284F80363E3
:1030900084F80173082084F8020384F80063983CE4
:1030A000601980F8E0646D1CEDB2102DF8D384F83F
:1030B000E37400204FF4967104EB4002A2F8F01480
:1030C000401CC0B21028F7D300204FF4005104EB8D
:1030D0008002C2F81015401CC0B21028F7D300209F
:1030E0004FF4FA6104EB8002C2F85015401CC0B2E4
:1030F0001028F7D33220AE34A4F85603A4F858139E
:1031000040F6B830C4F8FA02C4F8FE02C4F80A1354
:10311000C4F80E13C4F83213C4F83613042084F82C
:10312000E3040F2084F8E80484F8E76484F8E27488
:1031300084F8E57484F8E46484F8E96484F8E66467
:1031400084F8EB7484F8EC6484F8EA643421314840
:10315000FDF709F92F4828213430FDF704F92648F6
:103160006421DC38FDF7FFF8234864217838FDF747
:10317000FAF8204828A1F0300968016628A18030BB
:10318000D1E900238968C0E91123C16484F86A6128
:1031900084F86875E0782178A27840EA0160617867
:1031A0000904AE3C41EA02210843B0F1004F01D3CB
:1031B00000F10040010E2170010C6170010AA17044
:1031C000E07003B04246BDE8F0430A4901F5F36000
:1031D000FDF7B0B8663103085B417069205379731D
:1031E00020506172616D5D20456E7465722025739B
:1031F0000A000000A4480220D04A02204652313082
:103200003800000050323230343131303132323017
:10321000363133004C4C0220726F6F740000000096
:1032200048696B6C696665403132332B00000000E1
:1032300010B588B0184819A1CDE90010012300226B
:103240000321580201F070F840F296721A490020EA
:1032500001F0D6FE1849A1F896074FF4F364224610
:10326000A1F5F360FDF766F814480490059410305A
:10327000069002A807900020029001200390104CB5
:1032800004A8216F88470D4808300490216F04A8D6
:10329000884708B0002010BD533103085B417069B6
:1032A0002053797320506172616D5D20456E7465A5
:1032B000722025730A0000003C500220944802202E
:1032C0003425002001490160002070473C50022055
:1032D000034902484A68C068002110474C44002056
:1032E00034250020034902488968C0680847000067
:1032F0004C440020342500200146034A014852690D
:10330000406810474C4400203425002003490248FF
:1033100089694068084700004C440020342500209B
:103320000146034A01485269006810474C44002096
:1033300034250020034902488969006808470000D5
:103340004C4400203425002010B5044600F0E0FD78
:1033500009F060F92046BDE8104009F0CDB8000042
:10336000F0B589B006460F4615461F4C02A8E26C20
:1033700090470496002005908DF819008DF81800EC
:103380008DF81A502A4639460DF11B00FCF7D2FF82
:10339000164F04A9384609F0C8FA06464FF4FA75E4
:1033A00007E03146384609F033FB01280ED00828E3
:1033B00011D0226D02A89047A842F2D93146384672
:1033C00009F010FB4FF0FF3009B0F0BD216E012075
:1033D00088470020F8E7012305A000901A46194607
:1033E000180400F0A1FFE9E7342500200064004044
:1033F0005B43616E5D2063616E302073656E642097
:103400006572726F72210A002DE9FC4781460D46F4
:1034100016460024F01706EB50704FEAE00820F043
:103420000700371A1DA04FF4803A009001230022B4
:103430000521504600F078FF0AE0285D1AA1CDE989
:10344000001000231A460521504600F06DFF641C51
:10345000B442F2DB16A0002300901A460521504624
:1034600000F062FF00240BE005EBC401082248468F
:10347000FFF776FF18B14FF0FF30BDE8FC87641C02
:103480004445F1DB47B102B0FAB205EBC40148464E
:10349000BDE8F047FFF764BF0020EEE763616E20F0
:1034A00073656E643A0A000025303258200000002F
:1034B0000A000000012014F0CBBA000010B5094941
:1034C00001EB0014208814F0F3FB41F20E1014F00D
:1034D000EFFBD4E902326068BDE8104000210BF038
:1034E00019BF000008220020034901EB0010816889
:1034F00040680BF008BF000008220020034901EBE0
:1035000000108168406881617047000058200020E9
:1035100070B505460E4800EB0514208814F0C8FB72
:10352000D4E90103002201210BF0F4FED4E90103E8
:10353000022200210BF019FFE06820B12846BDE807
:103540007040FFF7DBBF2846BDE8704000F002B8CE
:1035500058200020034901EB001081684068816217
:103560007047000058200020034901EB00108168DB
:103570004068C1627047000058200020064800786B
:10358000002804D0012804D04FF0FF3070470020FD
:103590007047012070470000A822002010B541F2BA
:1035A0001C0014F085FB13F0ABFF05F0F3FC224880
:1035B0000068A0F54851F03902D005F007FD14E08D
:1035C00041F61B5014F0B6FA1C4C20B941F61950C4
:1035D00014F0B0FA10B10020207006E041F61A5045
:1035E00014F0A8FA08B10120207014F01FFA4FF46B
:1035F000800420460BF0E6FC0022114620460BF02A
:10360000E7FC00221146032013F036FB20460BF0A6
:10361000D9FC201319F0A6FD201219F043FE042056
:1036200019F082FE002019F0D7FE19F0C5FEBDE8A2
:10363000104000F005B8000050280040A8220020EB
:1036400010B58CB0124819F05FFD114C207805F0D0
:103650008BFC64300690607805F086FC401E059077
:10366000A07805F081FC0490207905F07DFC0390A2
:10367000607905F079FC0290A07905F075FC019065
:1036800001A8FCF703FE0CB0A0F5E14010BD00005E
:1036900024BB03202DE9F05F0446DDF828B08846FE
:1036A00091469A464FF4800528460BF08BFC032088
:1036B00013F0D7FA2E13304619F054FD2F12384666
:1036C00019F0D6FD19F056FE204605F056FC1E4CAA
:1036D0002070404605F051FC6070484605F04DFCF6
:1036E000A07000202061504605F047FC207158462C
:1036F00005F043FC60710B9805F03FFCA07120467B
:1037000019F042FD044628460BF05CFC00221146ED
:1037100028460BF05DFC00221146032013F0ACFAA2
:1037200028460BF04FFC304619F01CFD384619F0C6
:10373000B9FD042019F0F8FD002019F04DFE19F034
:103740003BFE2046BDE8F09F24BB03202DE9F04757
:1037500090B089469046C0EB001101EB41028249CE
:103760005418276AA56A8149012B0E5C06D14A1EAE
:1037700010701EB1002010B0BDE8F0874FF0FF338D
:103780000EB11846F7E7B8F1010F7CD0A5220A5414
:103790004FF401613846FCF7E6FDE08814F088FA42
:1037A000A08814F085FA2089A41D14F081FAA2687B
:1037B000216960680BF075FDE268216960680BF0B3
:1037C00070FDA3686068012202210BF0A3FDA368CD
:1037D0006068022200210BF0C8FDE36860680122E6
:1037E00002210BF097FDE3686068A41F022200210C
:1037F0000BF0BBFD20681EF045FC206849461EF01A
:10380000D9FB206804211EF0F9FC206808211EF075
:10381000FBFC4FF4A06013F075FA002294F824002A
:10382000114613F029FA206851491EF0B9FC54F8EA
:10383000060B1EF0A3FC217E60693D220AF029F9E7
:10384000217E60690AF0EBF800260D961037099783
:103850000A960B964FF400600E9054F8060C001D6B
:1038600007900C96012708974FF44039CDF83C900B
:1038700009A91C228A466846FCF75CFD217E606926
:103880003B46079A00E021E00AF0AAF9217E606930
:103890000AF0BCF8627E217E60690AF0A3F800227B
:1038A000E07F114613F0E8F9217E606910220AF0EA
:1038B000E1F8217E60690AF08CF854F8060D402189
:1038C0001EF050FCB8F1010F07D04BE02A0002D0E7
:1038D0005A220A545CE718464DE70E343D22217EF9
:1038E000E0680AF0D6F8217EE0680AF098F84020F7
:1038F0000D9005F10C0009900A960B964FF4A0501C
:103900000E9054F80E0C001D07900C97CDF83C90CB
:1039100045F6A52028801C2251466846FCF70AFD82
:10392000217EE0683B46079A0AF05AF9217EE0685A
:103930000AF063F8627E217EE0680AF053F8002204
:10394000A07F114613F098F9217EE06810220AF05A
:1039500091F8217EE0680AF033F854F80E0C00214B
:103960001EF006FC002006E7643403085120002006
:103970001000001070B5C0EB001000EB40011D48B6
:103980000D182C6AA97FD5F81A0001EB410210230B
:1039900003EBC2028258D20718D00AF073F9C0F5BF
:1039A00000606080A088012811D0A08801280DD96E
:1039B000A97FD5F81A000AF003F8286800211EF044
:1039C000D1FB6088401CC0F30A00208070BD608875
:1039D00021888842FAD3A97FD5F81A0009F0F0FFB0
:1039E000286800211EF0BEFB6088401CC0F30A005E
:1039F000208070BD6434030870B5C0EB00121A4912
:103A000002EB42025418256AA27FD4F81A1002EB86
:103A10004202102303EBC2028958C90722D1298828
:103A20006A8891421ED1014610A007F0BBFA00201F
:103A300028806880A880A41C3D22217FA0690AF00C
:103A400028F8217FA0694FF400620AF015F9217F60
:103A5000A06909F0BEFF54F8020CBDE87040402197
:103A60001EF080BB70BD000064340308496E6465BD
:103A7000782564205265537461727420444D41204E
:103A80005472616E736D697474696E67202E2E2E88
:103A90000D0A0000F0B50024C0EB0013164D03EB37
:103AA00043032B449B6A154D2D5C601E5A2D21D17A
:103AB0005D889E88C5F5A0552E444FF4A05596FB11
:103AC000F5F705FB1766DE80DE881644AE4211D29C
:103AD00003F10C060BE0085D9F88B8559888401CE0
:103AE000B0FBF5F705FB17009880641CA4B2944264
:103AF000F1D30020F0BD0000643403085120002001
:103B000070B5C0EB001000EB400111480D18AC6A15
:103B10000A353D22297F286909F0BBFF297F2869E2
:103B200009F04EFF55F80A0C00211EF021FB6088B9
:103B3000218908444FF4A051B0FBF1F201FB1200BF
:103B400060800020208145F6A520208070BD000007
:103B500064340308C0EB0010044900EB4000084443
:103B6000006A8188491C8180704700006434030822
:103B700070B54FF0FF34C0EB0012104B02EB420265
:103B80001A44126A13885588AB420CD0148802F18B
:103B90001003E35C0B701188491C490507D011889C
:103BA000491C11800024FFF727FF204670BD918833
:103BB000491E918000211180F4E70000643403085D
:103BC0002DE9FC4106460D46174600241DA0CDE90F
:103BD00000064FF40068012300220521404600F052
:103BE000A3FB0BE02B5D1BA0CDE9000300231A46CD
:103BF0000521404600F098FB641CA4B2BC42F1D3FE
:103C000016A0002300901A460521404600F08CFBC8
:103C10001348805D5A2809D0A52810D102B03A4631
:103C200029463046BDE8F04100F01CB802B03A46E3
:103C300029463046BDE8F0410023FFF72BBFBDE821
:103C4000FC810000756172742025752073656E64B7
:103C50003A0A000025303258200000000A00000017
:103C6000512000202DE9F04107460D46164600245C
:103C700005E0295D384600F007F8641CA4B2B442A0
:103C8000F7D3BDE8F081000010B5C0EB001000EBE9
:103C900040020648141820681EF0F0F92068072139
:103CA0001EF071FA0028F9D010BD0000643403083A
:103CB00070B50D461646C0EB0014144904EB4402DF
:103CC0005418A16A124A105C5A281ED145F2AA5013
:103CD00008800A343D22217F206909F0DAFE217F25
:103CE00020692B46002209F070FF217F20693246AF
:103CF00009F0C2FF217F206909F06BFE54F80A0C1D
:103D0000BDE8704080211EF033BA70BD64340308F2
:103D10005120002002A007F045F902F0A9FB0000A5
:103D20005B4275734661756C745F48616E646C6567
:103D3000725D0D0A0000000010B500F0A3F800F05D
:103D400005F8BDE8104000F09BB800002DE9F041F7
:103D5000104E002737807780B760F7607761B761D2
:103D600037610025FCF74AFA80460024776100F0AD
:103D700049F800F059F870690544641CA4B2002C9D
:103D8000F4D035617761B7614046BDE8F041FCF79A
:103D900039BA00006824002003490969884201D922
:103DA000401A7047002070476824002010B5FCF7C7
:103DB00025FA04494C69FCF725FA2046BDE8104075
:103DC000FFF7EABF6824002010B5FFF7EFFF0446B5
:103DD000FCF714FA034A00215161FCF713FA20465C
:103DE00010BD00006824002010B5FCF707FA044954
:103DF0008C69FCF707FA2046BDE81040FFF7CCBFFE
:103E00006824002010B5074C2088401C2080608862
:103E1000002802D100F05CF8A0606088401C60803F
:103E200010BD00006824002010B50A4C6088401EB8
:103E300080B2608000280CD100F04AF8E060A168F0
:103E4000401A6169814200D26061A169814200D259
:103E5000A06110BD6824002010B5FCF7CFF904461E
:103E6000FFF7D0FF1021054801F0A2FDFFF7DCFFAE
:103E70002046BDE81040FCF7C5B90000B42B062071
:103E8000FFF7EABF02490020486000F009B80000CF
:103E90006824002001494860704700006824002021
:103EA00010B5FFF707FB08490A6842F080720A6004
:103EB000064900224A600A6842F001020A60BDE831
:103EC0001040FFF7E7BF0000FCED00E0001000E04D
:103ED0000148406870470000001000E070B5002401
:103EE000074D07E00E5D4640F6B255F8266086EABB
:103EF0001020641C9442F5D3002B00D0C04370BD49
:103F00003C2D0308014805F0BFB80000342503200C
:103F1000034B0C224FF44871A3F1140005F0CDB807
:103F2000482503200146014805F0CEB8342503207A
:103F30000146014805F0E4B834250320F0B40746F3
:103F4000184600250026002419E04B5DA3F1300C33
:103F5000BCF1090F09D804EB84046400303C1C4414
:103F6000FF2C0AD90020F0BC70472E2B01D0002076
:103F7000F9E784550024761CF6B26D1CEDB295422B
:103F8000E3D3032E01D00020EDE7E2B2C270017846
:103F90007F2903D021B1FF2904D00BE00220E2E702
:103FA0000220E0E74378FF2B04D18378FF2B01D177
:103FB000FF2A05D0012F05D0DF290AD90020D2E73A
:103FC0000220D0E7FF2A02D0F0BC01F021B9002086
:103FD000C9E70120C7E7FEB5074616460020029054
:103FE00001900090002302AD01A86A46FC5C11F824
:103FF00003C004EA0C04EC5411F803C064EA0C0496
:10400000C454F45C11F803C004EA0C04D4545B1CDF
:10401000DBB2042BEAD3042202A96846FCF7EBF9D1
:1040200008B10220FEBD042202A93046FCF7E3F9E4
:1040300098B1042201A93046FCF7DDF978B10422D9
:1040400002A93846FCF7D7F958B1042201A938462D
:10405000FCF7D1F938B10120FEBD0320FEBD0420DC
:10406000FEBD0520FEBD0620FEBD024608460178C5
:104070007F2903D021B1FF2904D00CE00020704734
:10408000002070474378FF2B05D18378FF2B02D1A6
:10409000C378FF2B05D0012A05D0DF290AD90020DB
:1040A000704700207047C178FF2901D001F0B0B8F7
:1040B0000020704701207047F0B500230024002540
:1040C00000261FE0C25CA2F120070F2F08D91A3F7B
:1040D000062F05D9213F052F02D9203F032F01D8F4
:1040E00001240DE0A2F13007092F01D8012507E0D6
:1040F000A2F14106192E02D9613A192A09D80126DE
:104100005B1CDBB28B42DDD334B12DB126B1002074
:10411000F0BD4FF0FF30F0BD6FF00100F0BDFCF7D7
:104120006DB810B5FCF76EF8002010BD08B56846F4
:1041300002F0F6FCBDF8000008BD08B5684602F0C4
:1041400015FDBDF8000008BD064805490162064995
:104150004162064981620649C16200207047000041
:104160002D410108342500203B4101081F41010871
:104170002341010810B506240748202290F8341185
:10418000D0F8280109F0A0FC002804D02046BDE8A2
:104190001040FFF7B5BC10BD6434030810B5084CDF
:1041A00020220121204609F08FFC10B10220FFF7E8
:1041B000D1FC20463D22BDE81040012109F069BC38
:1041C0000060024010B5084C20220221204609F070
:1041D0007BFC10B10320FFF7BDFC20463D22BDE86B
:1041E0001040022109F055BC0060024010B5084C97
:1041F00020220321204609F067FC10B10520FFF7BB
:10420000A9FC20463D22BDE81040032109F041BC35
:104210000060024010B503240748202290F8AD103A
:10422000D0F8A10009F050FC002804D02046BDE8D9
:104230001040FFF765BC10BD6434030810B5084C8E
:1042400020220521204609F03FFC10B10120FFF794
:1042500081FC20463D22BDE81040052109F019BC33
:104260000060024010B5084C20220621204609F0CB
:104270002BFC10B10620FFF76DFC20463D22BDE867
:104280001040062109F005BC0060024010B5084C42
:1042900020220121204609F017FC10B10420FFF76D
:1042A00059FC20463D22BDE81040012109F0F1BB38
:1042B0000064024010B5084C20220221204609F07B
:1042C00003FC10B10020FFF745FC20463D22BDE86D
:1042D0001040022109F0DDBB0064024010B5042447
:1042E0000748202290F8DA10D0F8CE0009F0ECFB55
:1042F000002804D02046BDE81040FFF701BC10BDE7
:104300006434030810B5002406482022017B0068AD
:1043100009F0DAFB002804D02046BDE81040FFF782
:10432000EFBB10BD7E3403080FB42DE9F04F8FB002
:104330001E464FF00009CDF83090CDF83490CDF8FE
:10434000389000240025D4480DF174080078002826
:104350007CD1D24818998068084277D0D049199802
:104360000978884272D8CF4F40F2DC513888C0F5C6
:10437000A05088426AD3DFF830A3DAF820008047E3
:1043800038887988884203D1A7F80290A7F800906E
:10439000DFF818B39BF8000038B93888C4A1384456
:1043A000001D06F00FFE84B2254601208BF80000A8
:1043B000BD48816C08A88847089800F5E1400B903B
:1043C0000BA8FCF7AFF94269642102F26C7292FB10
:1043D000F1F303F0FF0A8DF830A092FBF1F301FB3B
:1043E000132101F0FF0B8DF831B0017C491CC9B2DB
:1043F0008DF83210027B8DF83320D0F808C01823D6
:104400009CFBF3FE03FB1EC3DBB28DF8343090F847
:1044100004C08DF835C000788DF83600DDF868E00E
:10442000BEF1010F7ED0BEF1020F7CD0BEF1030FB2
:104430007AD086B1099C8DE80E10CDE90404388845
:104440005B46C119281D0844524600E020E099A1AE
:1044500006F0B8FD84B2281984B242463888C119E2
:10446000201D08441C9906F0DBFDCDF8289020445F
:1044700084B238881B22C119201D084497A106F078
:10448000A1FD20443988084438808748406A804725
:104490008248189942680A425FD00078199981428F
:1044A0005BD8814C206A8047A16C08A8884708988F
:1044B00000F5E1400B900BA8FCF734F94269642148
:1044C00002F26C7292FBF1F3DFB28DF8307092FB66
:1044D000F1F301FB132101F0FF0C8DF831C0017CD9
:1044E000491CCDB28DF83250017B8DF833108368B2
:1044F000182293FBF2FA02FB1A32D2B28DF8342062
:1045000003798DF8353000788DF83600DDF868A035
:10451000BAF1010F72D0BAF1020F70D0BAF1030FE5
:104520006ED002E01EE03BE058E056B1099ECDE9B6
:1045300003068DE80E002B46624639465DA006F064
:1045400031FD41461C9806F051FDCDF828901B2105
:1045500062A006F027FD606A80470FB0BDE8F00F4B
:104560005DF814FB96B1099CCDE9033CCDE900B19F
:10457000CDE90504029238885346C119281D084424
:104580001B2259A106F01EFD84B264E738881B2265
:10459000C119281D084460A106F014FD84B25AE731
:1045A00096B1099CCDE9033CCDE900B1CDE9050404
:1045B000029238885346C119281D08441B2259A16C
:1045C00006F000FD84B246E738881B22C119281D79
:1045D000084460A106F0F6FC84B23CE7B6B1099C41
:1045E000CDE9033CCDE900B1CDE90504029238885C
:1045F0005346C119281D08441B2202E010E023E0A5
:1046000036E057A106F0DEFC84B224E738881B228E
:10461000C119281D08445EA106F0D4FC84B21AE733
:104620006EB1099ECDE90223CDE90406CDE9005122
:1046300063463A461B212CA006F0B4FC81E71B21FF
:1046400035A006F0AFFC7CE76EB1099ECDE90223F0
:10465000CDE90406CDE9005163463A461B2131A05D
:1046600006F0A0FC6DE71B213AA006F09BFC68E772
:104670006EB1099ECDE90223CDE90406CDE90051D2
:1046800063463A461B2136A006F08CFC59E71B21F5
:104690003FA006F087FC54E7221B0020C822002020
:1046A000231B0020BE56012034250020211B0020A2
:1046B0000D0A000025303264253032642D25303259
:1046C000642D2530326420253032643A253032643E
:1046D0003A253032643A25303364200025635B305C
:1046E0003B33376D0000000025635B313B33316D98
:1046F00025303264253032642D253032642D25304A
:10470000326420253032643A253032643A25303222
:10471000643A25303364200025635B313B33316DCF
:104720000000000025635B313B33336D253032647C
:10473000253032642D253032642D25303264202519
:104740003032643A253032643A253032643A2530CA
:104750003364200025635B313B33336D0000000080
:1047600025635B313B33326D253032642530326452
:104770002D253032642D2530326420253032643AC4
:10478000253032643A253032643A253033642000D3
:1047900025635B313B33326D000000000248018825
:1047A0004088081A70470000BE5601202DE9F041EC
:1047B0004FF480641F4E3068002839D0007E0428F2
:1047C00036D11D4D1D4FA04630E0288869884446EB
:1047D000401AA04200DA84B244B3386A80471648CF
:1047E0006988001D01440123224630681BF005F84A
:1047F000A0B131681248B1F8662006F0D3FB3068EA
:1048000020B119F09DFE306819F038F8002068805A
:10481000288030600B4908700B4988606888204404
:104820006880306819F08CFE786A80474445CCD0A7
:10483000BDE8F0813C1B0020BE560120342500203D
:10484000DCFE0308231B0020C822002070B50024D2
:10485000194D285D5A2829D1C4EB0410174900EBE3
:1048600040000844806A0188A1F5B442A53A1DD1F0
:1048700041888288914219D081884288914204D926
:1048800081884288891A018103E04188C1F5A051DD
:10489000018101894289914201D9018941810289BD
:1048A00041880C300144E0B2FFF702FA641C072C87
:1048B000CFD3002070BD00005120002064340308D5
:1048C0002DE9F041074600250024002F11D00A4EA3
:1048D00007E0301909A106F075FBE41CA4B26D1CB9
:1048E000EDB2BD42F5D32146BDE8F041024808F0E3
:1048F0006BBBBDE8F0810000A66B0120082008001A
:104900001FB50446002003901148C16F03A88847D3
:10491000104A1B2084B10090CDE90104039BD21CF6
:1049200003F50B730CA1A2F2031006F04BFB81B24E
:10493000114808F049FB1FBD039B0090019003F54F
:104940000B73D21C0DA10C4806F03CFB81B2EFE7C3
:1049500034250020A66C01200D0A5B2573402573C9
:104960002025635B313B33326D7E25635B303B3307
:10497000376D5D2425730000A66B01200D0A5B25B1
:10498000734025732025635B313B33326D7E256395
:104990005B303B33376D5D240000000030B58DB0D7
:1049A0001C481DA1CDE9001001230022032198031A
:1049B000FFF7BAFC00200C901D4D0CA8E96F88474A
:1049C0001C480468142103A8FBF7CDFC0C98C1789F
:1049D0008DF80C1081788DF80D1041788DF80E103F
:1049E000017804208DF80F100894009003AB41F279
:1049F00003020D21104812F0DDFE09900E480A90C6
:104A0000FEF766FC296F08A88847FEF76BFC0DB01F
:104A1000002030BDAF2803085B706F727420617096
:104A2000705D20456E7465722025730D0A000000CC
:104A300034250020107E01201074012030B58DB087
:104A4000204821A1CDE90010012300220321980371
:104A5000FFF76AFC00200C90214D0CA8E96F8847F5
:104A600020480468142103A8FBF77DFC0C98C1784A
:104A70008DF80C1081788DF80D1041788DF80E109E
:104A800000788DF80F00184800888DF81000010A92
:104A900006208DF811100894009003AB41F201023A
:104AA0000D21124812F086FE099010480A90FEF778
:104AB0000FFC296F08A88847FEF714FC0DB00020F2
:104AC00030BD0000A02803085B706F727420617015
:104AD000705D20456E7465722025730D0A0000001C
:104AE00034250020107E0120D80E002010740120F3
:104AF000F0B589B0284DA86A804728490C68E96A52
:104B00008847274800900123002203210220FFF755
:104B10000BFC24A000900123002203210220FFF7B8
:104B200003FC2CA000900123002203210220FFF7A8
:104B3000FBFB25E034F8880FFBF7A7FD3149FBF7B5
:104B400066FDFBF7A7FDD4E908236426D718564372
:104B5000B6FBF7F654F8687CCDE90717069014F811
:104B6000510C01A94DC128A000900123002203216E
:104B70000220FFF7D9FBA86A8047246BE96A8847BF
:104B8000002CD7D12B4800900123002203210220C2
:104B9000FFF7CAFB09B0F0BD342500202024002017
:104BA000A4FB030820D3C5CFC8BCB620CAB9D3C361
:104BB000D5BB20CAA3D3E0D5BB20B0D9B7D6B1C8E6
:104BC00020C0FBD3C3C2CA202020C8CECEF1C3FB75
:104BD0000D0A000020205072696F20202055736557
:104BE00064202046726565202020506572202020B8
:104BF0002043505520202020205461736B6E616D3E
:104C0000650D0A000000C8422020202532642020C3
:104C10002535642020253564202020253032642568
:104C20002520202025352E3266252520202025739D
:104C30000D0A000060FB030810B54FF480642046A5
:104C40000AF006FA2046BDE810400AF0FBB9000061
:104C50007CB50546044C6846E16C8847216D684682
:104C60008847A842FAD97CBD3425002010B5092018
:104C7000FEF770FC6420FFF7EBFF0920FEF73EFC17
:104C8000BDE810406420FFF7E3BF000070B50446A4
:104C90000D460AF081FAD3200AF02AFA204600F0E5
:104CA000EDF90446284600F0E9F90646084D09E00A
:104CB00055F824000AF030FA18B10AF01FFA012062
:104CC00070BD641CB442F3D90AF018FA002070BD1C
:104CD000D41F002010B50AF05FFABDE81040D320C1
:104CE0000AF006BA30B50023074C07E005682D68C6
:104CF00041F8235005682D1D05605B1C934202D2CC
:104D00000568A542F2D930BDFBFF1F082DE9F0412F
:104D100005460E46174600240AF03EFAD3200AF054
:104D2000E7F9DFF8488018E056F8241028680AF000
:104D300045FA20B10AF0E2F90120BDE8F0812868C7
:104D400056F824100068884203D00AF0D7F90220F0
:104D5000F3E72868001D2860641CBC4202D2286862
:104D60004045E1D90AF0CAF90020E6E7FBFF1F0839
:104D700070B50546224C2078627890423ED0A078EB
:104D80000A230146401CB0FBF3F603FB16069642CD
:104D900001D0914216D101EBC10000EB011004EBF0
:104DA0008000C01CFBF712FB0246A07800EBC0019C
:104DB00001EB001004EB8001C91C2846FBF7BAFA8E
:104DC000FF2070BDB0FBF3F103FB1100A07000EBFE
:104DD000C00101EB001004EB8000C01CFBF7F6FAE9
:104DE0000246A07800EBC00101EB001004EB80014B
:104DF000C91C2846FBF79EFA012070BD002070BD3B
:104E0000726D012070B505461F4C21786078814293
:104E100037D0A078814216D100EBC00101EB001021
:104E200004EB8000C01CFBF7D1FA0246A07800EB2F
:104E3000C00101EB001004EB8001C91C2846FBF700
:104E400079FAFF2070BDC8B1401EA070A07800EBB9
:104E5000C00101EB001004EB8000C01CFBF7B6FAA8
:104E60000246A07800EBC00101EB001004EB8001CA
:104E7000C91C2846FBF75EFA012070BD0920A0700E
:104E8000E4E7002070BD0000726D012070B505469A
:104E9000224C2078627890423ED0A0780A230146C6
:104EA000401CB0FBF3F603FB1606964201D091427C
:104EB00016D101EBC10000EB011004EB4000C01C57
:104EC000FBF784FA0246A07800EBC00101EB00106A
:104ED00004EB4001C91C2846FBF72CFAFF2070BDEB
:104EE000B0FBF3F103FB1100A07000EBC00101EB7C
:104EF000001004EB4000C01CFBF768FA0246A078E3
:104F000000EBC00101EB001004EB4001C91C284676
:104F1000FBF710FA012070BD002070BDC6540120BF
:104F200070B505461F4C21786078814237D0A07853
:104F3000814216D100EBC00101EB001004EB4000F0
:104F4000C01CFBF743FA0246A07800EBC00101EB5E
:104F5000001004EB4001C91C2846FBF7EBF9FF20C9
:104F600070BDC8B1401EA070A07800EBC00101EB7D
:104F7000001004EB4000C01CFBF728FA0246A078A2
:104F800000EBC00101EB001004EB4001C91C2846F6
:104F9000FBF7D0F9012070BD0920A070E4E70020E4
:104FA00070BD0000C65401202DE9FC4706460F469F
:104FB000904699460024354606E028194A4641465F
:104FC000FBF72FFA30B1641CBC42F6D34FF0FF3030
:104FD000BDE8FC8705A0CDE90006012303221946A0
:104FE0002020FFF7A1F92046F2E7000046696E6431
:104FF0005F626F756E646172792025730D0A00001F
:105000002DE9F04100244FF6FF7741F2210C12E028
:1050100000230E5D00F4004806FA03F505F0800554
:1050200085EA182507EA40000DB180EA0C005B1CF8
:10503000082BEFDB641C9442EADBBDE8F081000042
:1050400030B500230022064C05E010F8015B5D40FE
:10505000635D521CD2B28A42F7D3184630BD0000BD
:10506000A027030800487047107E012000487047C1
:105070006073012000487047981B002010B501465E
:105080000020A1F100624FF480439A4204D34548C6
:105090000844984201D2012010BD43480844984278
:1050A00001D2022010BD41480844984201D2032099
:1050B00010BD3F484FF480340844A04201D2042080
:1050C00010BD3C484FF400320844904201D2052004
:1050D00010BD39480844904201D2062010BD37481F
:1050E0000844904201D2072010BD35480844904240
:1050F00001D2082010BD33480844904201D2092053
:1051000010BD31480844904201D20A2010BD2F48FA
:105110000844904201D20B2010BDA1F101609842D9
:1051200001D20C2010BD2A480844984201D20D201B
:1051300010BD28480844984201D20E2010BD2648D0
:105140000844984201D20F2010BD24480844A042D0
:1051500001D2102010BD22480844904201D21120F3
:1051600010BD20480844904201D2122010BD1E48B4
:105170000844904201D2132010BD1C4808449042BC
:1051800001D2142010BD1A480844904201D21520C3
:1051900010BD18480844904201D2162010BD1720B7
:1051A00010BD000000C0FFF70080FFF70040FFF7D0
:1051B0000000FFF70000FEF70000FCF70000FAF720
:1051C0000000F8F70000F6F70000F4F70000F2F72F
:1051D00000C0EFF70080EFF70040EFF70000EFF7B7
:1051E0000000EEF70000ECF70000EAF70000E8F737
:1051F0000000E6F70000E4F7004870476444002030
:1052000000487047488400200048704750840020C0
:10521000002102781202437813431B0282781A435A
:105220001202C078104302E04008491CC9B2C2070C
:10523000FAD000B121B9002070474008491CC9B21A
:10524000C207FAD108B9202901D0002070470120F7
:10525000704700008CB000240A9400F0E9FE2A4D4B
:1052600001210220D5F894209047E96F0AA88847C9
:1052700026484FF47A710068B0FBF1F0401EB0F19F
:10528000807F08D24FF0E0214861214AF020107061
:105290008C6107200861FEF74FFD0BA801F088FE26
:1052A0000327CDE906470BAE05944FF4007008962E
:1052B000CDE903043321174ACDE9012109200090EB
:1052C0000023154A15A1184801F0DCFECDE9064778
:1052D00005944FF480600896CDE903046621134AD3
:1052E000CDE901210B2000900F480023104A11A1A5
:1052F000C03001F0C7FE04F091FE296E4FF4FA6051
:10530000884711F0FDFFFCE73425002090230020A2
:1053100023ED00E00C2A0020F99601085359535F51
:105320005354415445000000CC4200200C32002070
:10533000B16401084E45545F504552494F444943BA
:10534000000000002DE9F0410646314C0A25607846
:105350000930B0FBF5F105FB110000EBC00101EBDA
:10536000001004EB8000C01CFBF730F80746304605
:10537000FBF72CF8874214D13046FBF727F802469A
:1053800060780930B0FBF5F105FB110000EBC001BE
:1053900001EB001004EB8000C01C3146FBF72BF83A
:1053A00090B36078401CB0FBF5F105FB110120784B
:1053B000814210D100EBC00101EB001004EB800032
:1053C000C01C6421FAF7CFFF2078401CB0FBF5F138
:1053D00005FB110020703046FAF7F8FF02466078AE
:1053E00000EBC00101EB001004EB8000C01C314653
:1053F000FAF7A0FF6078401CB0FBF5F105FB110047
:105400006070A070BDE8F081FFE76078A070F9E7F8
:10541000726D01202DE9F0410646314C0A25607875
:105420000930B0FBF5F105FB110000EBC00101EB09
:10543000001004EB4000C01CFAF7C8FF07463046D6
:10544000FAF7C4FF874214D13046FAF7BFFF02468D
:1054500060780930B0FBF5F105FB110000EBC001ED
:1054600001EB001004EB4000C01C3146FAF7C3FF0B
:1054700090B36078401CB0FBF5F105FB110120787A
:10548000814210D100EBC00101EB001004EB4000A1
:10549000C01C3221FAF767FF2078401CB0FBF5F101
:1054A00005FB110020703046FAF790FF0246607845
:1054B00000EBC00101EB001004EB4000C01C3146C2
:1054C000FAF738FF6078401CB0FBF5F105FB1100DE
:1054D0006070A070BDE8F081FFE76078A070F9E728
:1054E000C65401207CB50446601C4FF0FF311DD02E
:1054F000104E06EB44156868D0B10FA0CDE900044A
:105500000123022219468020FEF70EFFA96909B186
:1055100020468847154C306800216268904700207B
:105520006860A1683068884700207CBD08467CBD63
:1055300008467CBD20A202205B494E54455246419C
:1055400043455D2073657420696E665F666420253F
:105550007520746F2069646C652C206265636175C9
:10556000736520636C6F73650A00000034250020AA
:105570002DE9FC410024184818A1CDE900100123B1
:10558000002203218020FEF7CFFE1A4E06EB4415C1
:105590006868D0B1A96909B120468847296909B16D
:1055A00020468847144F306800217A68904713A03E
:1055B000CDE900040123022219468020FEF7B4FE43
:1055C00000206860B96830688847641C142CDDDBF3
:1055D0000020BDE8FC8100001D3203085B494E54E9
:1055E0004552464143455D20456E746572202573E2
:1055F0000A00000020A20220342500205B494E54FE
:105600004552464143455D2073657420696E665F6F
:10561000666420257520746F2069646C652C206297
:10562000656361757365206465696E69740A00005D
:1056300010B54FF421710A48FAF795FE094C084954
:1056400009A0226890470B48A0660B48E0660B480B
:1056500020670B4860670B48A067002010BD000062
:1056600020A2022034250020496E746572666163B1
:105670006500000089560108E5540108B958010881
:1056800075580108715501082DE9F04F85B006469F
:1056900088460024A246CDF810A0601EC8F800007D
:1056A000444845A1CDE900100123002203218020B8
:1056B000FEF73AFEDFF81C91454F0021D9F804208F
:1056C0003868904707EB4410406840B1641C142CC4
:1056D000F8DB142C08D0404DDFF800B121E007EBD7
:1056E000441101204860F4E73DA0012300901A46D0
:1056F00019468020FEF718FED9F808103868884748
:105700004FF0FF3005B0BDE8F08F2868316888425F
:1057100006D107EB441084606968001D884702E0E9
:1057200008355D45F1D35D4514D1306839A1CDE927
:10573000001001231A4619468020FEF7F5FD07EBFD
:105740004410C0F804A0D9F80810386888474FF012
:10575000FF30D7E707EB44156A69DAB104A970682E
:105760009047401C1CD00498E860C8F80040C8F876
:105770000400CDE9018435A10123009103900322A7
:1057800019468020FEF7D0FDD9F808103868884700
:105790000020B7E7D9F80810386888470020B1E73B
:1057A000C5F804A0D9F80810386888474FF0FF30D2
:1057B000A8E700000E3203085B494E5445524641AB
:1057C00043455D20456E7465722025730A00000014
:1057D00020A2022034250020A8030408E8030408BE
:1057E0005B494E544552464143455D2063616E20FE
:1057F0006E6F742066696E642069646C6520696EE2
:1058000074657266616365206F707320656E747273
:1058100079210A005B494E544552464143455D207B
:1058200063616E206E6F742066696E6420696E69B4
:105830007420656E74727920666F7220696E74656B
:1058400072666163652025640A0000005B494E545E
:105850004552464143455D206F70656E2073756308
:10586000636573732C2066642025705B2575202585
:10587000705D0A0030B401684FF0FF350A68531CB0
:1058800009D00C4B03EB4212146A84B1546874B112
:105890004C681CB104E0284630BC7047D2684A60AE
:1058A0000168096803EB4111096A30BC08472846C2
:1058B000F2E7000020A202207CB502684FF0FF351D
:1058C00011684B1C09D0114C04EB4113DE698EB1F9
:1058D0005E687EB1516811B103E028467CBDD9688D
:1058E00051600168096804EB4111C96902B0BDE863
:1058F0007040084706A00123CDE900011A46194669
:105900008020FEF711FD28467CBD000020A2022069
:105910005B494E544552464143455D20696E665F82
:105920006664202575202D3E207772697465206598
:105930007272210A0000000000B595B0342104A85D
:10594000FAF711FD00200190029003900D4949687B
:105950001191009001AB03220D2104A811F0A6FEC5
:10596000129004A8139000F04FFB0748016F11A894
:10597000884700F053FB4FF4FA70FDF7BDFC15B0FB
:1059800000BD0000107E012034250020012200F11E
:105990001403D10203F091BB03F096BB03F0B0BB3C
:1059A00010B508F037FFBDE8104010F0A5BD7047F6
:1059B0000A460021AFF3008010B5002300241B022B
:1059C0000B43641C042CFAD300F0030424B909E04F
:1059D00000F8011B521E641C22B1042CF8D301E014
:1059E00008C0121F042AFBD202E000F8011B521E5D
:1059F000002AFAD110BD000030B58BB0164817A1AF
:105A0000CDE900100123002203219803FEF78CFC4E
:105A1000184844680025142102A8FAF7A4FC07944A
:105A200002AB03220D211448009511F03FFE0890AF
:105A30001148099000F0E8FA1048016F07A888475C
:105A400000F0ECFAC820FDF757FC10B1681E0BB04F
:105A500030BD0020FBE70000BB2803085B706F72BD
:105A60007420726669645D20456E746572202573CA
:105A70000D0A0000107E012010780120342500203E
:105A80002DE9F0478EB0202102A8FAF76CFC002720
:105A9000FFF7E8FA04463C4E94F8ED0140F6B838BA
:105AA0004FF00109002590BB04F15000316D824692
:105AB000884740452BD9F16C5046884760680A906A
:105AC00002AB08220D213148009711F0EFFD0B9039
:105AD0002E4F0C9700F098FA316F0AA8884700F013
