:020000040801F1
:1000000078350520C1010108F9420108CB0101083A
:100010009B3E0108BD250108818801080000000001
:10002000000000000000000000000000E3010108E3
:10003000E501010800000000050D01081D7101081F
:10004000EB010108EB010108EB010108116E010849
:10005000EB010108EB010108EB010108EB010108CC
:10006000EB010108EB010108EB010108EB010108BC
:10007000512A0108792A0108A12A0108EB01010887
:10008000C92A0108F12A0108EB010108EB01010866
:1000900095040020D5040020EB010108EB010108C4
:1000A000EB010108EB010108EB010108EB0101087C
:1000B000EB010108EB010108EB010108EB0101086C
:1000C000EB010108EB010108EB010108EB0101085C
:1000D000EB0101084D87010879870108A587010810
:1000E000D1320108EB010108EB010108EB01010825
:1000F000EB010108EB010108EB010108EB0101082C
:10010000EB010108EB010108EB010108EB0101081B
:10011000C9860108EB010108EB010108EB010108A8
:10012000EB010108192B0108412B0108EB01010823
:10013000EB010108EB010108EB010108EB010108EB
:10014000EB010108EB010108EB010108EB010108DB
:10015000EB010108692B0108E12B0108D187010897
:10016000EB010108EB010108EB010108EB010108BB
:10017000EB010108EB010108EB01010800000000A0
:10018000EB010108EB010108F58601082187010850
:10019000EB010108EB010108EB0101080000000080
:1001A000EB010108EB010108EB010108DFF80CD0BD
:1001B00000F052FC0048004775FE01087835052024
:1001C0000A4880470A480047FEE71EF0040F0CBFAC
:1001D000EFF30880EFF309800BF06CB8FEE7FEE761
:1001E000FEE7FEE7FEE7FEE7FEE7FEE7F97501083A
:1001F000AD01010872B6704762B67047EFF3108028
:1002000072B6704780F31088704730BF704720BFC8
:100210007047B0FA80F0704790FAA0F0B0FA80F022
:10022000704790FAA0F070472DE9F05F0546002076
:1002300092469B4688460646814640241BE0284657
:1002400041464746224600F083F953465A46C01AB3
:10025000914110D311461846224600F06AF92D1A32
:1002600067EB01084F4622460120002100F061F9AA
:1002700017EB00094E41201EA4F10104DFDC4846C3
:1002800031462A464346BDE8F09F000038B5D0E924
:100290000221491E01EB410102EBC1014268C1EBA1
:1002A000011102EB81010268C1EB011102EB810235
:1002B000D0E9043101EB410103EB81013023A1F5C9
:1002C000527191FBF3F4174D6C4302EBC41291FB96
:1002D000F3F403FB141100921A2902DB124B1A44A7
:1002E00000920C2291FBF2F3104C6343009C04EB50
:1002F000C313009391FBF2F302FB13110C4A08E0C5
:10030000491E40F2A324535C6343009C04EBC313D7
:1003100000930029F4DC0146684600F02FF90098AC
:1003200038BD00003F0C0F008051010067C2030080
:10033000CC6E020840EA01039B0703D009E008C91C
:10034000121F08C0042AFAD203E011F8013B00F89A
:10035000013B521EF9D27047D2B201E000F8012BE6
:10036000491EFBD270470022F6E710B513460A4635
:1003700004461946FFF7F0FF204610BD421E12F852
:10038000013F002BFBD111F8013B02F8013B002B90
:10039000F9D1704730B505462A460B4612F8010BD5
:1003A00013F8014B08B1A042F8D01CB1002802D0CC
:1003B0006D1CF1E7284630BDCAB2401E10F8011F7F
:1003C0008A4202D00029F9D100207047421C10F85F
:1003D000011B0029FBD1801A704710B5002200E0F4
:1003E000521C835C8C5CA34201D1002BF8D1D8B2A3
:1003F000E1B2401A10BD30B504460020034600E0CB
:100400005B1C934203D2E05CCD5C401BF8D030BD56
:10041000034611F8012B00F8012B002AF9D11846E8
:10042000704730B505460020034600E05B1C934250
:1004300005D2EC5CC85C201A01D1002CF6D130BD8D
:1004400070B5064608F06CFA046805460A220021D9
:10045000304600F0D9F82C6070BD30B480EA01025B
:1004600002F0004530F0004221F0004013D090B17E
:10047000C30DD40DC2F31601C0F31600E41A41F403
:10048000000140F400027D34914201D3641C00E07D
:100490004900002C02DA30BC002070474FF4000005
:1004A0000023914201D3891A034340084FEA4101D6
:1004B000F7D151B1914202D14FF0004105E002D293
:1004C0004FF0010101E06FF0010103EBC45028443B
:1004D00030BC00F0D1B896230022114600F0D5B808
:1004E00000F0004230F000400AD0C10D01F560710B
:1004F000C0F3160042EA0151C20840071143704799
:1005000000200146704730B50B46014600202022EE
:10051000012409E021FA02F59D4205D303FA02F510
:10052000491B04FA02F52844151EA2F10102F1DC70
:1005300030BD202A04DB203A00FA02F10020704787
:100540009140C2F1200320FA03F319439040704711
:10055000202A04DB203A21FA02F00021704721FA18
:1005600002F3D040C2F1200291400843194670477F
:10057000014900F003B800004C29052010B50068BF
:100580003C22B0FBF2F302FB1303B0FBF2F00B6072
:10059000B0FBF2F302FB1303B0FBF2F018224B6046
:1005A000B0FBF2F302FB1303B0FBF2F0021D8B6011
:1005B0000723B2FBF3F403FB1422800040F2B5538F
:1005C00000F66C308A61B0FBF3F2B0FBF3F403FB8E
:1005D0001400443280084A61C8613B2802D3920764
:1005E00000D0401C0022074C13460A61E25C8242A4
:1005F00003D8801A5B1C0B61F8E7401CC8600846F2
:1006000010BD0000D86E02082DE9F04791460F4654
:1006100080460446002614F8015B2DB100F040FA34
:100620000068405DC007F6D12B2D02D02D2D18D0CB
:10063000641E4A463946204600F044FA27B139681C
:10064000A14201D1C7F8008071054FF002040BD51B
:100650004042002803DD08F063F90460A007BDE80C
:10066000F08746F48066E4E70028F8DA08F058F9E5
:1006700004606FF00040F2E70029A8BF7047401CFB
:10068000490008BF20F00100704710B4B0FA80FCA8
:1006900000FA0CF050EA010404BF10BC704749B1E5
:1006A000CCF1200421FA04F411FA0CF118BF012155
:1006B00021430843A3EB0C01CB1D4FEA00614FEA35
:1006C000102042BF002010BC704700EBC350104404
:1006D0000029A4BF10BC7047401C490008BF20F08F
:1006E000010010BC70472DE9FE4F804681EA0300EF
:1006F000C00F0C46009021F0004123F00045B8EBFC
:100700000200A94105D24046214690461C460B46B0
:10071000024623F00040104347D0270DC7F30A00DC
:10072000C3F30A510290401A019040286BDAC3F3D8
:10073000130040F4801B0098924620B10023D2EBB6
:10074000030A63EB0B0B01985946C0F14002504677
:10075000FFF7EFFE06460D4650465946019A00F057
:100760008DF910EB08006141002487EA115284EAF8
:10077000E7731A4340D0009A62B3019A012A4FEA04
:10078000075215DC001B61EB02014FF0004202EA48
:100790000752CDE90042001C41F5801132462B463C
:1007A00000F0EEF903B0BDE8F08F40462146F9E7CE
:1007B000001B61EB0201001C41F5801300185B4136
:1007C0002018A2F5001747EB030140EAD570B619CF
:1007D0006D4111E06D084FEA360645EAC0754FEAF3
:1007E0000752001B61EB0201001C41F58011490812
:1007F0004FEA30000019514132462B4603B0BDE8A4
:10080000F04F00F0AEB90098012240000023D0EB79
:10081000020263EBE073009821464FEAE074B8EB04
:10082000000061EB0401E9E783F000435BE781F03E
:10083000004158E72DE9FE4F81EA030404F000442B
:1008400021F0004100944FF0000B23F0004350EAE8
:1008500001045ED052EA03045BD0C3F30A54C1F32F
:100860000A552C44A4F2F3340194A0FB0254C1F3C2
:10087000130141F48011C3F3130343F4801301FB0C
:10088000024400FB034E840A970A44EA815447EA73
:100890008357A4FB076802958D0A05FB07854FEA7D
:1008A000932C04FB0C542705029D4FEA065847EA97
:1008B0001637B5EB08056EEB070C870E920E47EA6C
:1008C000811742EA8312A7FB0201B6EB0B0164EB2E
:1008D00000042B0D43EA0C335E1844EB1C50DA463F
:1008E0005146E7FB0201C5F313044FEA0B3343EA19
:1008F00014534FEA0432019C43EA0603A4F10C04AA
:100900000294009CCDE900B400F03AF903B0BDE8D0
:10091000F08F00200146F9E72DE9F04D81EA03044C
:1009200004F0004B21F0004514464FF0000A23F07C
:10093000004150EA050220D054EA01021DD0C5F35F
:100940000A570246C5F31303C1F31300C1F30A5655
:1009500040F4801543F48013A7EB0608101BD6461D
:1009600008F2FD3873EB050002D308F1010801E03D
:1009700092185B41B8F1000F03DA00200146BDE890
:10098000F08D00204FF48011064684460EE0171BC0
:1009900073EB050705D3121B63EB050306434CEA13
:1009A000010C49084FEA300092185B4150EA0107F8
:1009B000EDD152EA030012D082EA040083EA050175
:1009C000084305D0101BAB4106D20122002306E0EC
:1009D00000224FF0004302E06FF0010253101AEBC7
:1009E00006004CEB085110EB0A0041EB0B01BDE88F
:1009F000F04D00F0B6B8C1F30A52C1F3130140F252
:100A0000FF3341F480119A4202DA00200146704718
:100A100040F233439A42A2F2334202DC5242FFF7E1
:100A200097BDFFF786BD000030B5041E71F10004CC
:100A300004DB4FF00044404264EB0101141E73F1EB
:100A4000000405DB1C464FF00043524263EB0403F5
:100A5000994208BF904230BD064C074D06E0E06861
:100A600040F0010394E8070098471034AC42F6D3F5
:100A7000FFF7A0FBF0FB020820FC0208202A06DB9F
:100A8000CB17203A41FA02F043EAE07306E041FA5C
:100A900002F3D040C2F1200291400843194670474A
:100AA00000487047686F02083A2800D2303820F0BA
:100AB0002002412A01D3A2F13700884201D34FF02E
:100AC000FF3070472DE9F05F824600780027154619
:100AD0008B460AF10104B946302801D09DB113E0DC
:100AE00014F8010B0127782803D0582801D045B10C
:100AF0000AE00DB1102D07D10027102514F8010BC5
:100B000002E0082500E00A250026B0460EE005FBBD
:100B1000080005FB06F1012701EB10461FFA80F8DB
:100B2000B6F5803F00D3B94614F8010B2946FFF70C
:100B3000BBFF0028EBDABBF1000F05D00FB1641E3C
:100B400000E05446CBF80040B9F1000F06D007F0A2
:100B5000E7FE02210160C81EBDE8F09F48EA06409A
:100B6000FAE710B5141E73F1000408DA401C41F1D5
:100B7000000192185B411A4301D120F0010010BD21
:100B80002DE9F04D92469B4611B1B1FA81F202E097
:100B9000B0FA80F220329046FFF7CBFC04460F46B5
:100BA00040EA0A0041EA0B0153465A46084313D073
:100BB000114653EA010019D0C8F140025046FFF730
:100BC000C7FC05460E46504659464246FFF7B1FC63
:100BD000084305D0012004E020463946BDE8F08DE9
:100BE0000020054346EAE0762C4337430A98630524
:100BF000E40AA0EB08000022FD0A44EA47540A3048
:100C000002D500200146E9E7010510196941DDE937
:100C1000084500196941BDE8F04DA2E770B58C1890
:100C200010F8015B15F0070301D110F8013B2A1100
:100C300006D110F8012B03E010F8016B01F8016BED
:100C40005B1EF9D12B0705D40023521E0DD401F8E9
:100C5000013BFAE710F8013BCB1A921C03E013F8B2
:100C6000015B01F8015B521EF9D5A142D8D30020E7
:100C700070BD000072B64EF62250CEF2000040F277
:100C8000FF01C0F2000101704FF0000080F30988FD
:100C900004F0C2FB41F26460C2F20000016881F31B
:100CA000088841F2EE50C2F2000041F2EF51C2F268
:100CB00000010A78027041F25C65C2F2000541F25F
:100CC0006061C2F200010A682A60106880F3098836
:100CD000EFF3148040F0020080F31488BFF36F8FAD
:100CE000BDE8F00F0FBCBDE8005006BC62B6084777
:100CF00018484FF080510160704716484FF08051FE
:100D00000160704772B6EFF3098020E9F00F41F2FD
:100D10005C65C2F200052E683060744604F07CFB0E
:100D200041F2EE50C2F2000041F2EF51C2F2000176
:100D30000A78027041F26061C2F200010A682A601A
:100D400044F0F40E1068B0E8F00F80F3098862B642
:100D50007047000004ED00E040F2413CC2F2000C9C
:100D6000604740F2852CC2F2000C604700EB810026
:100D7000826000207047000070B50546094E084C9F
:100D800000217268A068904724212846FFF7EBFAFB
:100D9000E068401EE060B168A0688847002070BD30
:100DA000348400208C1600208078000970470000F1
:100DB0002DE9F84380460D460024384F364E002179
:100DC0007A68B068904704EBC40006EB800090F8A6
:100DD000F80110B3641C042CF5DB4FF4005C4FF0F9
:100DE000FF39042C27D06868012831D000282FD083
:100DF0002BA0012300901A461946604601F032FFED
:100E000004EBC40106EB8101002081F8F801B96808
:100E1000B06888474846BDE8F88304EBC40006EB99
:100E20008000814600F5FC702421FFF79CFA012028
:100E300089F8F801D1E724A0012300901A46194649
:100E4000604601F00FFFB968B06888474846E2E79E
:100E500004EBC40006EB800404F2F914607820F07F
:100E6000F0008030607028782070286800F0BEFAAA
:100E70000146A07861F3C710A070297961F386104C
:100E8000A070641EC8F80040F068401CF060B968AB
:100E9000B06888470020BEE7348400208C1600200C
:100EA0005B417069204770696F5D2047706920431E
:100EB000746C20496E6974205661756C65204572AA
:100EC000726F72210A0000005B41706920477069EF
:100ED0006F5D204770692043746C20496E697420EF
:100EE0004572726F722C204E6F20537061636521C2
:100EF0000A000000F8B50446607800F077FAC1B245
:100F0000E078420702D06268521C6260B1EBD01FE9
:100F100010D04FF0005202EBB0104FEAB060C0F3B7
:100F2000C202E070032A08D361F3C71020F0380032
:100F3000E07002E020F03800E070E078002600F079
:100F400007014FF40055062924D2DFE801F0032AF7
:100F500062C523EAC0F38011B1EBD01F1BD185A07D
:100F60000222009001231146284601F07BFEA07862
:100F700020F0F000A070A16809B1204688476660A3
:100F8000A07820F00F00401CA070E07820F007004F
:100F9000401CE070F8BDA07820F0F0008030A07018
:100FA000F8BDC0F38011B1EBD01F17D07BA0022297
:100FB000009001231146284601F054FEA07820F04D
:100FC000F0001030A070E16809B1204688476660E3
:100FD000E07820F00700801CE070F8BD6068B0F594
:100FE000167FFAD977A002220090012311462846E5
:100FF00001F038FEA07820F0F0005030A070E169D8
:1010000009B120468847E07820F00700401DE070D5
:10101000F8BDC0F38011B1EBD01F2AD155A0022238
:10102000009001231146284601F01CFEA07820F014
:10103000F000A070A16809B1204688476DA0022287
:10104000009001231146284601F00CFEA0784FF0D5
:10105000805101EB30104FEA3070A070216909B166
:10106000204688476660E07820F00700C01CE070EA
:10107000F8BD60683C28FBD9A07800F00F0001287B
:1010800002D0022812D022E065A0022200900123A3
:101090001146284601F0E6FDA07820F0F00030303F
:1010A000A070616999B12046884710E067A00222CC
:1010B000009001231146284601F0D4FDA07820F0CD
:1010C000F0004030A070A16909B120468847E0785F
:1010D00020F00700E070F8BDC0F38011B1EBD01F25
:1010E000F9D02EA00222009001231146284601F0DB
:1010F000B9FDA07820F0F0001030A070E16809B1CF
:101100002046884760683C2806D26660E07820F078
:101110000700801CE070F8BDE07820F00700E07068
:10112000F8BDC0F38011B1EBD01F0CD1A07820F036
:10113000F0006030A070216A0029F1D001B0204693
:10114000BDE8F040084715A0022200900123114697
:10115000284601F087FDA07820F0F0001030A07044
:10116000E16809B120468847E07820F00700E07088
:10117000F8BD00005B417069204770696F5D2047D2
:1011800070692042746E204576656E74205B505203
:101190004553535F444F574E5D210A005B417069D0
:1011A000204770696F5D204770692042746E20454A
:1011B00076656E74205B50524553535F55505D21E8
:1011C0000A0000005B417069204770696F5D20472D
:1011D00070692042746E204576656E74205B4C4FBA
:1011E0004E475F50524553535F53544152545D2113
:1011F0000A0000005B417069204770696F5D2047FD
:1012000070692042746E204576656E74205B505282
:101210004553535F5245504541545D210A0000003B
:101220005B417069204770696F5D2047706920429B
:10123000746E204576656E74205B53494E474C456D
:101240005F434C49434B5D210A0000005B417069DC
:10125000204770696F5D204770692042746E204599
:1012600076656E74205B444F55424C455F434C4954
:10127000434B5D210A00000070B50024154D16484F
:10128000296D06468847052821D3E96C30468847F2
:10129000114D103D04EBC40005EB800090F8F811EF
:1012A000012903D100F5FC70FFF724FE641C042C17
:1012B000F0DB002404EB440005EBC000017E0129B3
:1012C00002D1183000F066FA641C142CF2DB002006
:1012D00070BD00008C160020448400207FB5244897
:1012E00024A1CDE9001001235D030022032128463B
:1012F00001F0B8FC4FF422712448FFF734F8244C75
:101300002248E16C1030884707200290A26E1F49E6
:1013100002A89047401C1FD03C341C4954F83C2C78
:1013200008311CA090471E4860651E48A0651E48F5
:10133000E0651E4820661E48A0661E4860661E487E
:10134000E0661E4820671E4860671E48A0671E486A
:10135000E067002004B070BD1CA0012300901A4675
:101360001946284601F07EFC4FF0FF30F2E70000FE
:10137000006902085B417069204770696F5D204514
:101380006E7465722025730A00000000348400200A
:101390008C1600206170695F6C6F636B0000000049
:1013A000ED130108A1140108451401087D16010878
:1013B0004D160108FD140108B10D0108790D010851
:1013C0006D0D0108A90D0108791201085B417069D2
:1013D000204770696F5D204770696F204F70656EA0
:1013E000206572726F72210A000000001FB50B4960
:1013F000019102900A48416F01A88847401C02D021
:10140000039804B010BD012306A000901A461946A7
:10141000580301F027FC4FF0FF30F2E7348400203E
:101420008C1600205B417069204770696F5D204712
:1014300070696F204F70656E206572726F72210A3D
:10144000000000001FB50C4901910290022003909A
:101450000A48016F01A88847401C02D0002004B050
:1014600010BD012306A000901A461946580301F04A
:10147000F9FB4FF0FF30F2E7348400208C16002097
:101480005B417069204770696F5D204770696F200C
:101490004F70656E206572726F72210A0000000045
:1014A0001FB50C4A0192029003910B48016F01A8ED
:1014B0008847401C02D0002004B010BD012307A0C3
:1014C00000901A461946580301F0CCFB4FF0FF304C
:1014D000F2E70000348400208C1600205B41706924
:1014E000204770696F5D204770696F204F70656E8F
:1014F000206572726F72210A00000000F8B5044680
:1015000008684FF0FF35032801D14A689AB10022DC
:101510004FF4005688B1012829D0022841D0032871
:1015200045D038A0012300901A461946304601F0F4
:1015300099FB0020F8BD2846F8BDA2706260E078F3
:1015400001280AD070B137A0012300901A4619462D
:10155000304601F087FB2846F8BD60780021FFF790
:101560009FFFE6E760780121FFF79AFFE1E7A270AD
:101570006260E07801280AD070B12AA001230090AF
:101580001A461946304601F06DFB2846F8BD6078D2
:101590000121FFF785FFCCE760780021FFF780FF8E
:1015A000C7E7A27062606078FFF74CFFC1E70120D7
:1015B000A070486860608868A060C868E0602248E1
:1015C000C16C04F1100088476068002801DD401EEE
:1015D0006060E07801280AD070B112A00123009069
:1015E0001A461946304601F03DFB2846F8BD6078A2
:1015F0000021FFF755FF9CE760780121FFF750FFBE
:1016000097E700005B417069204770696F5D205566
:101610006E6B6E6F776E204374726C20436F6465DF
:10162000210A00005B417069204770696F5D2047A7
:10163000706F2043746C205661756C652045727222
:101640006F72210A000000008C16002070B505465C
:10165000094E084C00217268A0689047182128465E
:10166000FEF781FEE068401EE060B168A068884730
:10167000002070BD348400208C1600202DE9F84332
:1016800080460D4600242D4F2B4E00217A68B0680D
:10169000904704EB440006EBC000007E08B3641CD6
:1016A000142CF6DB4FF4005C4FF0FF39142C1FD0E4
:1016B0006868012829D0002827D021A001230090A4
:1016C0001A461946604601F0CDFA04EB440106EBD8
:1016D000C10100200876B968B06888474846BDE86F
:1016E000F88304EB440106EBC10101200876D9E739
:1016F0001DA0012300901A461946604601F0B2FA77
:10170000B968B06888474846E9E704EB440006EB4F
:10171000C000297841762979C1761830C8F80000D0
:10172000F068401CF06003CDFFF7BAFEB968B068FE
:1017300088470020D3E70000348400208C16002066
:101740005B417069204770696F5D2047706F20436F
:10175000746C20496E6974205661756C6520457201
:10176000726F72210A0000005B4170692047706946
:101770006F5D2047706F2043746C20496E69742040
:101780004572726F722C204E6F2053706163652119
:101790000A00000070B504461D4DA07804F1100643
:1017A000296D002811D0012831D130468847A16821
:1017B00088422CD30020A070E1786078FFF770FE9B
:1017C0003046E96CBDE870400847606800281ED0CC
:1017D00030468847E168884219D30120A0706068CC
:1017E000002801DD401E6060E078012801D028B1AA
:1017F00008E060780021FFF753FE03E060780121E4
:10180000FFF74EFE3046E96CBDE87040084770BDFA
:101810008C1600200149016000207047B477002039
:1018200070B586B0274828A1CDE9001001235D02DC
:1018300000220321284601F015FA0020039005201C
:10184000049003A80590274C274904A8A26E90474E
:10185000401C4FF0FF3620D0012003902249A26E99
:10186000083104A89047401C21D0204844F87C0F40
:101870001F4860601F48A0601F48E0601F4820614B
:101880007C3C00F06BF828B184340020A1688847C4
:1018900020688047002006B070BD19A00123009089
:1018A0001A461946284601F0DDF93046F3E71FA035
:1018B000012300901A461946284601F0D3F9304614
:1018C000E9E70000ED6802085B4170692053797315
:1018D00020506172616D5D20456E746572202573C4
:1018E0000A0000008C160020A477002015180108BB
:1018F0003D1D0108A91C01085D1901086D1B0108A7
:101900005B4170692053797320506172616D5D2075
:10191000496E74657220466C617368204F70656E05
:10192000206572726F72210A000000005B417069CD
:101930002053797320506172616D5D20496E74652A
:101940007220466C6173682042616B204F70656E37
:10195000206572726F72210A000000002DE9F04FBD
:101960008DB04FF0FF35554855A1CDE9001001234A
:1019700000220321580201F075F9584808904FF4ED
:10198000C867099700F110060B960DF10808CDF80D
:1019900030804FF00009CDF80890DFF844A108A886
:1019A000DAF874108847BA1E3146002001F06CFE48
:1019B000B6F83E16A6F1080404F5C96B814239D188
:1019C000002508940997CDF82CB0CDF83080CDF8DB
:1019D0000890DAF8741008A88847BA1E5946002003
:1019E00001F052FE0146BBF83E0688420CD1B6F823
:1019F0003E16884208D13BA00123009003221946DD
:101A0000580201F02FF955E00123454800901A468D
:101A10001946580201F026F9049405970696CDF868
:101A20001C80CDF8089001200390DAF8701004A80B
:101A300088473FE001233B485E0200901A46194662
:101A4000304601F00FF908940997CDF82CB0CDF885
:101A50003080CDF80890DAF8741008A8884740F272
:101A60003E623149002001F00FFEBBF83E16814274
:101A700018D12E480123009003221946304601F068
:101A8000F1F80025154804900597CDF818B0CDF869
:101A90001C80CDF8089001200390DAF8701004A89B
:101AA000884707E022A0012300901A4619463046D5
:101AB00001F0D8F80DB02846BDE8F08FA468020800
:101AC0005B4170692053797320506172616D5D20B4
:101AD000456E7465722025730A000000A47700200B
:101AE0008C1600205B41706920537973205061721D
:101AF000616D5D2053797374656D20436F6E666907
:101B0000672047657420537563636573732C205099
:101B10006169722053756363657373210D0A000058
:101B20004CF70208B4F60208F47D0020FCF6020827
:101B30005B4170692053797320506172616D5D2043
:101B400053797374656D20436F6E666967205368BF
:101B500061646F7720536563746F722047657420EA
:101B60004572726F72210D0A000000002DE9FC41E0
:101B70000746374937A2CDE900210123002203217E
:101B8000580201F06FF83A4C00254FF4C866CFB9FF
:101B900031462046FEF7E7FB522004F8AA0F3A2010
:101BA00060708020A070E570257101206071AA3CF2
:101BB00031A3304806CBC0E90F120F2231A16E309D
:101BC000FEF7B8FBC02004F8980FA82161702C2202
:101BD000A2705823E370FF2323716371A371E57131
:101BE00020726172A2721423E37220736173A27374
:101BF0006420E07341F6CB60208284F87C501C485E
:101C000024A1F030096801666E2180F86410092271
:101C100022A1C430FEF78EFB84F8BD5084F8255114
:101C200084F88051207D04F8980C607D04F8970CAE
:101C3000A07D04F8960CE07D04F8950D657002B067
:101C40003246BDE8F0410A4901F5C860FEF772BBB3
:101C5000CE6802085B41706920537973205061722D
:101C6000616D5D20456E7465722025730A00000069
:101C7000B4770020A47900205374616E64617264AB
:101C800000000000503031313632323434323230DC
:101C90003130380061646D696E00000048696B3155
:101CA000323334352B00000010B588B0184819A124
:101CB000CDE90010012300220321580200F0D2FFD9
:101CC00040F23E621A49002001F0DEFC1849A1F8FA
:101CD0003E064FF4C8642246A1F5C860FEF72AFB11
:101CE0001448049005941030069002A80790002034
:101CF000029001200390104C04A8216F88470D48E2
:101D000008300490216F04A8884708B0002010BD57
:101D1000BB6802085B41706920537973205061727F
:101D2000616D5D20456E7465722025730A000000A8
:101D3000F47D0020A47700208C160020014901606A
:101D400000207047F47D002010B5044600F034FDFB
:101D500007F0F6FA2046BDE8104007F063BA00002D
:101D6000F0B589B006460F4615461F4C02A8E26C36
:101D700090470496002005908DF819008DF8180002
:101D80008DF81A502A4639460DF11B00FEF7D2FA9B
:101D9000164F04A9384607F05EFC06464FF4FA7564
:101DA00007E03146384607F0C9FC01280ED0082864
:101DB00011D0226D02A89047A842F2D93146384688
:101DC00007F0A6FC4FF0FF3009B0F0BD216E0120F6
:101DD00088470020F8E7012305A000901A4619461D
:101DE000180400F03FFFE9E78C1600200064004073
:101DF0005B43616E5D2063616E302073656E6420AD
:101E00006572726F72210A002DE9FC4781460D460A
:101E100016460024F01706EB50704FEAE00820F059
:101E20000700371A1DA04FF4803A009001230022CA
:101E30000521504600F016FF0AE0285D1AA1CDE901
:101E4000001000231A460521504600F00BFF641CC9
:101E5000B442F2DB16A0002300901A46052150463A
:101E600000F000FF00240BE005EBC4010822484607
:101E7000FFF776FF18B14FF0FF30BDE8FC87641C18
:101E80004445F1DB47B102B0FAB205EBC401484664
:101E9000BDE8F047FFF764BF0020EEE763616E2006
:101EA00073656E643A0A0000253032582000000045
:101EB0000A00000001200FF01BB8000010B509490E
:101EC00001EB001420880FF043F941F20E100FF0DF
:101ED0003FF9D4E902326068BDE81040002109F002
:101EE000A2B9000004140020034901EB001081682E
:101EF000406809F091B9000004140020034901EB87
:101F00000010816840688161704700005412002011
:101F100070B505460E4800EB051420880FF018F93F
:101F2000D4E901030022012109F07DF9D4E901037C
:101F30000222002109F09BF9E06820B12846BDE8A3
:101F40007040FFF7DBBF2846BDE8704000F002B8E4
:101F500054120020034901EB00108168406881623F
:101F60007047000054120020034901EB0010816803
:101F70004068C16270470000541200200648007893
:101F8000002804D0012804D04FF0FF307047002013
:101F90007047012070470000A414002010B541F2E2
:101FA0001C000FF0D5F80EF0CFFE04F0E1FE224841
:101FB0000068A0F54851F03902D004F0F5FE14E0B5
:101FC00041F61B500FF006F81C4C20B941F6195091
:101FD0000FF000F810B10020207006E041F61A5012
:101FE0000EF0F8FF08B1012020700EF06FFF4FF4E3
:101FF0008004204608F0F6FF00221146204608F033
:10200000F7FF0022114603200EF05AFA204608F08E
:10201000E9FF20130FF004F920120FF0A1F90420BA
:102020000FF0E0F900200FF035FA0FF023FABDE8C9
:10203000104000F005B8000050280040A414002013
:1020400010B58CB012480FF0BDF8114C207804F098
:1020500079FE64300690607804F074FE401E0590AE
:10206000A07804F06FFE0490207904F06BFE0390DA
:10207000607904F067FE0290A07904F063FE01909D
:1020800001A8FEF703F90CB0A0F5E14010BD000077
:10209000406E01202DE9F05F0446DDF828B0884647
:1020A00091469A464FF48005284608F09BFF03208E
:1020B0000EF0FBF92E1330460FF0B2F82F1238460F
:1020C0000FF034F90FF0B4F9204604F044FE1E4C32
:1020D0002070404604F03FFE6070484604F03BFE2E
:1020E000A07000202061504604F035FE2071584653
:1020F00004F031FE60710B9804F02DFEA0712046B3
:102100000FF0A0F80446284608F06CFF00221146A4
:10211000284608F06DFF0022114603200EF0D0F98A
:10212000284608F05FFF30460FF07AF838460FF087
:1021300017F904200FF056F900200FF0ABF90FF05B
:1021400099F92046BDE8F09F406E01202DE9F04F3F
:1021500091B0054605EBC50000EB05117E4800EB8C
:102160004104676AD4F82D807C48415D5A297DD0AE
:102170005A2141554FF404713846FEF7F4F8A41C77
:10218000A0880EF0E5FF60880EF0E2FFE0880EF018
:10219000DFFFE2686169A06809F00CF822696169F3
:1021A000A06809F007F8E368A0680122022109F09D
:1021B0003AF8E368A0680222002109F058F8236980
:1021C000A0680122022109F02EF82369A0680222EA
:1021D000002109F04CF854F8020C13F0C7FCD4F8B5
:1021E0001E1054F8020D13F059FC2068042113F05E
:1021F00079FD2068082113F07BFD4FF4A0600EF0FC
:10220000A5F9002294F8280011460EF059F920682B
:10221000534913F039FD54F8020B13F023FD217FCD
:10222000A0693D2207F067FC217FA06907F029FC27
:1022300000260E9610370A970B960C964FF40079ED
:10224000CDF83C9054F8020C001D08900D96012723
:1022500009974FF4403ACDF840A00AA91C228B46BA
:102260006846FEF767F8217FA06900E026E03B465C
:10227000089A07F0DDFC217FA06907F0F9FB627F77
:10228000217FA06907F0E0FB002294F827001146A7
:102290000EF016F9217FA069102207F01DFC217FA6
:1022A000A06907F0C8FB54F8020C402113F0CEFCE3
:1022B00094F82800A41E012805D04AE04FF0FF3012
:1022C00011B0BDE8F08F294626A006F0EBFA1234D3
:1022D0003D22617EA06807F00EFC617EA06807F0D9
:1022E000D0FB40200E9008F50578CDF828800B969D
:1022F0000C96CDF83C9054F8120C001D08900D97E8
:10230000CDF840A01C2259466846FEF713F8617EBE
:10231000A0683B46089A07F08BFC617EA06807F036
:102320009EFBA27E617EA06807F08EFB0022E07F0C
:1023300011460EF0C5F8617EA068102207F0CCFBB4
:10234000617EA06807F06EFB54F8120C002113F0B8
:1023500083FC0020B4E700007E6B02084C120020D2
:10236000100000105561727420496E646578202554
:102370007520547820446D6120496E69740D0A00FF
:1023800070B500EBC00101EB00111E4800EB4105E8
:102390006C6AA97FD5F81A0001EB4102102303EB08
:1023A000C2028258D20718D007F094FCC0F5007022
:1023B0006080A088012811D0A08801280DD9A97FAC
:1023C000D5F81A0007F02EFB2868002113F03EFC18
:1023D0006088401CC0F30800208070BD60882188A0
:1023E0008842FAD3A97FD5F81A0007F01BFB2868AA
:1023F000002113F02BFC6088401CC0F308002080F3
:1024000070BD00007E6B020870B500EBC00101EBEF
:102410000012194901EB4204656AA27FD4F81A1030
:1024200002EB4202102303EBC2028958C90722D1F2
:1024300029886A8891421ED1014610A006F032FA1E
:10244000002028806880A880A41C3D22217FA069EC
:1024500007F051FB217FA0694FF4007207F034FCB4
:10246000217FA06907F0E7FA54F8020CBDE870403C
:10247000402113F0EBBB70BD7E6B0208496E6465B2
:10248000782564205265537461727420444D412054
:102490005472616E736D697474696E67202E2E2E8E
:1024A0000D0A000000EBC00101EB0010034901EB35
:1024B0004000406A8188491C818070477E6B020819
:1024C00070B54FF0FF3400EBC002104B02EB00126E
:1024D00003EB4202526A13885588AB420CD0148831
:1024E00002F11003E35C0B701188491CC90507D089
:1024F0001188491C11800024FFF786FF204670BD1B
:102500009188491E918000211180F4E77E6B0208BA
:102510002DE9FC4107460D461646002416A0CDE9DC
:1025200000074FF40068012300220521404600F017
:1025300099FB0BE0285D14A1CDE9001000231A4699
:102540000521404600F08EFB641CA4B2B442F1D3D6
:102550000FA0002300901A460521404600F082FBA0
:10256000002405E0295D384600F014F8641CA4B28C
:10257000B442F7D3BDE8FC817561727420257520E3
:1025800073656E643A0A000025303258200000005E
:102590000A00000010B500EBC00202EB0012064872
:1025A00000EB4204206813F0DDFA2068072113F0E5
:1025B0005EFB0028F9D010BD7E6B020802A006F079
:1025C00071F901F09BFE00005B4275734661756C0A
:1025D000745F48616E646C65725D0D0A00000000F6
:1025E00010B500F0A3F800F005F8BDE8104000F0C9
:1025F0009BB800002DE9F041104E0027378077800E
:10260000B760F7607761B76137610025FDF7F6FDC8
:1026100080460024776100F049F800F059F87069AD
:102620000544641CA4B2002CF4D035617761B76115
:102630004046BDE8F041FDF7E5BD0000681600200A
:1026400003490969884201D9401A70470020704740
:102650006816002010B5FDF7D1FD04494C69FDF75F
:10266000D1FD2046BDE81040FFF7EABF6816002004
:1026700010B5FFF7EFFF0446FDF7C0FD034A002148
:102680005161FDF7BFFD204610BD00006816002017
:1026900010B5FDF7B3FD04498C69FDF7B3FD204685
:1026A000BDE81040FFF7CCBF6816002010B5074CFE
:1026B0002088401C20806088002802D100F05CF84F
:1026C000A0606088401C608010BD0000681600207B
:1026D00010B50A4C6088401E80B2608000280CD182
:1026E00000F04AF8E060A168401A6169814200D2B6
:1026F0006061A169814200D2A06110BD681600200E
:1027000010B5FDF77BFD0446FFF7D0FF102105480B
:1027100001F0C4FBFFF7DCFF2046BDE81040FDF7E9
:1027200071BD00003C290520FFF7EABF02490020E7
:10273000486000F009B800006816002001494860B0
:10274000704700006816002010B5FFF7B3FB08497A
:102750000A6842F080720A60064900224A600A68EC
:1027600042F001020A60BDE81040FFF7E7BF000039
:10277000FCED00E0001000E00148406870470000F8
:10278000001000E070B50024074D07E00E5D4640E4
:10279000F6B255F8266086EA1020641C9442F5D300
:1027A000002B00D0C04370BDA4640208014804F0AF
:1027B00059BB000020230120034B0C224FF4487129
:1027C000A3F1140004F067BB342301200146014843
:1027D00004F068BB202301200146014804F07EBBC1
:1027E00020230120F0B407461846002500260024C7
:1027F00019E04B5DA3F1300CBCF1090F09D804EBD3
:1028000084046400303C1C44FF2C0AD90020F0BC36
:1028100070472E2B01D00020F9E784550024761C48
:10282000F6B26D1CEDB29542E3D3032E01D0002029
:10283000EDE7E2B2C27001787F2903D021B1FF2910
:1028400004D00BE00220E2E70220E0E74378FF2B10
:1028500004D18378FF2B01D1FF2A05D0012F05D0A9
:10286000DF290AD90020D2E70220D0E7FF2A02D0D0
:10287000F0BC00F0E7BF0020C9E70120C7E7F0B5D2
:1028800000240025002317E0065DA6F13007092F7C
:1028900008D803EB83035B00303B3344FF2B09D99B
:1028A0000020F0BD2E2E01D00020F0BD5355002396
:1028B0006D1CEDB2641CE4B28C42E5D3032D01D053
:1028C0000020F0BDD8B2D070117821B9537813B977
:1028D000937803B910B1FF2902D009E00020F0BDC0
:1028E0005378FF2B04D19278FF2A01D1FF2803D01F
:1028F000DF2903D90020F0BD0020F0BD0120F0BD8C
:10290000FEB5074616460020029001900090002375
:1029100002AD01A86A46FC5C11F803C004EA0C048D
:10292000EC5411F803C064EA0C04C454F45C11F8CC
:1029300003C004EA0C04D4545B1CDBB2042BEAD3BE
:10294000042202A96846FDF756FD08B10220FEBD2B
:10295000042202A93046FDF74EFD98B1042201A9D8
:102960003046FDF748FD78B1042202A93846FDF74C
:1029700042FD58B1042201A93846FDF73CFD38B1AB
:102980000120FEBD0320FEBD0420FEBD0520FEBDCE
:102990000620FEBDF0B500230024002500261FE020
:1029A000C25CA2F120070F2F08D91A3F062F05D9C4
:1029B000213F052F02D9203F032F01D801240DE02C
:1029C000A2F13007092F01D8012507E0A2F1410645
:1029D000192E02D9613A192A09D801265B1CDBB2EB
:1029E0008B42DDD334B12DB126B10020F0BD4FF0C4
:1029F000FF30F0BD6FF00100F0BDFDF7FFBB10B57B
:102A0000FDF700FC002010BD08B5684601F0CEFFC0
:102A1000BDF8000008BD08B5684601F0EDFFBDF83F
:102A2000000008BD064805490162064941620649A1
:102A300081620649C162002070470000092A01082E
:102A40008C160020172A0108FB290108FF2901081C
:102A500010B5084C20220121204607F067F810B17C
:102A60000220FFF71FFD20463D22BDE81040012156
:102A700007F041B80060024010B5084C2022022146
:102A8000204607F053F810B10320FFF70BFD204656
:102A90003D22BDE81040022107F02DB80060024041
:102AA00010B5084C20220321204607F03FF810B152
:102AB0000520FFF7F7FC20463D22BDE8104003212A
:102AC00007F019B80060024010B5084C202205211B
:102AD000204607F02BF810B10120FFF7E3FC204659
:102AE0003D22BDE81040052107F005B80060024016
:102AF00010B5084C20220621204607F017F810B127
:102B00000620FFF7CFFC20463D22BDE810400621FD
:102B100006F0F1BF0060024010B5084C20220121F0
:102B2000204607F003F810B10420FFF7BBFC204655
:102B30003D22BDE81040012106F0DDBF00640240E7
:102B400010B5084C20220221204606F0EFFF10B1FC
:102B50000020FFF7A7FC20463D22BDE810400221DF
:102B600006F0C9BF0064024070B51B4DD5F8F540B2
:102B70001A4E20220621304606F0D8FF002829D020
:102B80003D220621304606F0B6FFD635697FE8685B
:102B900006F048FF55F80E0C002113F05DF821896E
:102BA000002039B1618822891144C1F30801618094
:102BB00020810DE0B4F8101251B1B4F80A12B4F843
:102BC00010221144C1F30801A4F80A12A4F810025B
:102BD0005A20208070BD00007E6B02080064024015
:102BE00070B51B4DD5F82D401A4E202207213046D6
:102BF00006F09CFF002829D03D220721304606F030
:102C00007AFF95F82B10D5F81A0006F00BFF28680C
:102C1000002113F021F82189002039B1618822892F
:102C20001144C1F30801618020810DE0B4F8101255
:102C300051B1B4F80A12B4F810221144C1F30801DA
:102C4000A4F80A12A4F810025A20208070BD0000D7
:102C50007E6B02080064024010B50320FFF776FA8D
:102C6000002010BD0FB42DE9F04F8FB01E464FF07D
:102C70000009CDF83090CDF83490CDF8389000248C
:102C80000025D4480DF17408007800287CD1D24882
:102C900018998068084277D0D049199809788842F5
:102CA00072D8CF4F40F2DC513888C0F5A05088422E
:102CB0006AD3DFF830A3DAF82000804738887988B3
:102CC000884203D1A7F80290A7F80090DFF818B364
:102CD0009BF8000038B93888C4A13844001D05F0BD
:102CE000F1FD84B2254601208BF80000BD48816CBF
:102CF00008A88847089800F5E1400B900BA8FDF75D
:102D000037FC4269642102F26C7292FBF1F303F02A
:102D1000FF0A8DF830A092FBF1F301FB132101F0C3
:102D2000FF0B8DF831B0017C491CC9B28DF832100F
:102D3000027B8DF83320D0F808C018239CFBF3FEEB
:102D400003FB1EC3DBB28DF8343090F804C08DF85D
:102D500035C000788DF83600DDF868E0BEF1010F6F
:102D60007ED0BEF1020F7CD0BEF1030F7AD086B1C7
:102D7000099C8DE80E10CDE9040438885B46C11922
:102D8000281D0844524600E020E099A105F09AFD74
:102D900084B2281984B242463888C119201D0844DB
:102DA0001C9905F0ABFDCDF82890204484B23888FA
:102DB0001B22C119201D084497A105F083FD204462
:102DC0003988084438808748406A80478248189983
:102DD00042680A425FD00078199981425BD8814CE1
:102DE000206A8047A16C08A88847089800F5E14050
:102DF0000B900BA8FDF7BCFB4269642102F26C72D8
:102E000092FBF1F3DFB28DF8307092FBF1F301FB2E
:102E1000132101F0FF0C8DF831C0017C491CCDB2AB
:102E20008DF83250017B8DF833108368182293FBA4
:102E3000F2FA02FB1A32D2B28DF8342003798DF8FF
:102E4000353000788DF83600DDF868A0BAF1010F52
:102E500072D0BAF1020F70D0BAF1030F6ED002E057
:102E60001EE03BE058E056B1099ECDE903068DE82F
:102E70000E002B46624639465DA005F013FD414623
:102E80001C9805F033FDCDF828901B2162A005F0B9
:102E900009FD606A80470FB0BDE8F00F5DF814FBD4
:102EA00096B1099CCDE9033CCDE900B1CDE905041B
:102EB000029238885346C119281D08441B2259A183
:102EC00005F000FD84B264E738881B22C119281D73
:102ED000084460A105F0F6FC84B25AE796B1099C5B
:102EE000CDE9033CCDE900B1CDE905040292388873
:102EF0005346C119281D08441B2259A105F0E2FCC4
:102F000084B246E738881B22C119281D084460A1F5
:102F100005F0D8FC84B23CE7B6B1099CCDE9033C8E
:102F2000CDE900B1CDE90504029238885346C119B4
:102F3000281D08441B2202E010E023E036E057A1E0
:102F400005F0C0FC84B224E738881B22C119281D73
:102F500008445EA105F0B6FC84B21AE76EB1099E82
:102F6000CDE90223CDE90406CDE9005163463A4696
:102F70001B212CA005F096FC81E71B2135A005F054
:102F800091FC7CE76EB1099ECDE90223CDE90406F0
:102F9000CDE9005163463A461B2131A005F082FC81
:102FA0006DE71B213AA005F07DFC68E76EB1099E34
:102FB000CDE90223CDE90406CDE9005163463A4646
:102FC0001B2136A005F06EFC59E71B213FA005F040
:102FD00069FC54E77E100020CC1400207F100020F4
:102FE00020C800108C1600207D1000200D0A000063
:102FF00025303264253032642D253032642D253061
:10300000326420253032643A253032643A25303239
:10301000643A25303364200025635B303B33376DE1
:103020000000000025635B313B33316D2530326495
:10303000253032642D253032642D25303264202530
:103040003032643A253032643A253032643A2530E1
:103050003364200025635B313B33316D0000000099
:1030600025635B313B33336D253032642530326468
:103070002D253032642D2530326420253032643ADB
:10308000253032643A253032643A253033642000EA
:1030900025635B313B33336D0000000025635B31FA
:1030A0003B33326D25303264253032642D25303289
:1030B000642D2530326420253032643A2530326464
:1030C0003A253032643A25303364200025635B3181
:1030D0003B33326D00000000024801884088081A26
:1030E0007047000020C800102DE9F0414FF48064C3
:1030F0001F4E3068002839D0007E042836D11D4D7F
:103100001D4FA04630E0288869884446401AA042F6
:1031100000DA84B244B3386A804716486988001DD3
:10312000014401232246306810F081FAA0B13168D1
:103130001248B1F8662005F0B5FB306820B10FF0F9
:1031400019F930680EF0B4FA0020688028803060E9
:103150000B4908700B498860688820446880306893
:103160000FF008F9786A80474445CCD0BDE8F0817B
:103170009810002020C800108C1600202CFB02089C
:103180007F100020CC140020F0B589B0284DA86A2B
:10319000804728490C68E96A88472748009001233E
:1031A000002203210220FFF75DFD24A000900123EF
:1031B000002203210220FFF755FD2CA000900123DF
:1031C000002203210220FFF74DFD25E034F8880F8F
:1031D000FDF781F93149FDF740F9FDF781F9D4E9AF
:1031E00008236426D7185643B6FBF7F654F8687CD4
:1031F000CDE90717069014F8510C01A94DC128A07C
:1032000000900123002203210220FFF72BFDA86A72
:103210008047246BE96A8847002CD7D12B4800905F
:103220000123002203210220FFF71CFD09B0F0BD9D
:103230008C16002020160020F4F7020820D3C5CFFA
:10324000C8BCB620CAB9D3C3D5BB20CAA3D3E0D566
:10325000BB20B0D9B7D6B1C820C0FBD3C3C2CA20E7
:103260002020C8CECEF1C3FB0D0A000020205072F2
:10327000696F2020205573656420204672656520A3
:1032800020205065722020202043505520202020EF
:10329000205461736B6E616D650D0A000000C842B9
:1032A0002020202532642020253564202025356407
:1032B00020202025303264252520202025352E325F
:1032C00066252520202025730D0A0000B0F702088E
:1032D00010B54FF48064204607F0CAFE2046BDE8D2
:1032E000104007F0BFBE00007CB50546044C6846A0
:1032F000E16C8847216D68468847A842FAD97CBDB1
:103300008C16002010B50720FEF724FE6420FFF77E
:10331000EBFF0720FEF7F2FDBDE810406420FFF749
:10332000E3BF000070B504460D4607F005FFD3204B
:1033300007F0AEFE204600F0C7F90446284600F02C
:10334000C3F90646084D09E055F8240007F0B4FE1D
:1033500018B107F0A3FE012070BD641CB442F3D97C
:1033600007F09CFE002070BDD011002010B507F0C2
:10337000E3FEBDE81040D32007F08ABE30B500233D
:10338000074C07E005682D6841F8235005682D1D9E
:1033900005605B1C934202D20568A542F2D930BD9C
:1033A000FBFF1F082DE9F04105460E461746002495
:1033B00007F0C2FED32007F06BFEDFF8488018E06C
:1033C00056F82410286807F0C9FE20B107F066FE01
:1033D0000120BDE8F081286856F824100068884272
:1033E00003D007F05BFE0220F3E72868001D286089
:1033F000641CBC4202D228684045E1D907F04EFE69
:103400000020E6E7FBFF1F0800B587B007480390E0
:1034100000200490059001A90691019001200290DE
:103420000348016F03A8884707B000BD800E002045
:103430008C16002000B587B00A4A039289000491D7
:10344000059001A806900848816801910021029129
:1034500004998268114481600448016F03A8884779
:1034600007B000BD800E0020640E00208C160020E6
:103470002DE9F05F06460D4691469B460024244FF9
:10348000A24607F10C08387800281ED0FF200CE077
:10349000A54205D9315D5A1C3A7008F8031003E0C3
:1034A000591C397008F80300641C3B78032BEFD9D2
:1034B000174801210C30FFF7BDFF401C17D087F8DB
:1034C00000A0A54201D926442D1BA80805F003033E
:1034D00093B1D9450FD07419E11A0D7839784A1C87
:1034E0003A7008F801505B1E002BF5D104E04FF054
:1034F000FF30BDE8F09F401C28B101463046FFF781
:1035000099FF401C01D00020F3E74FF0FF30F0E7B7
:10351000640E002070B50546224C207862789042F7
:103520003ED0A0780A230146401CB0FBF3F603FB13
:103530001606964201D0914216D101EBC10000EB74
:10354000011004EB4000C01CFCF740FF0246A078CD
:1035500000EBC00101EB001004EB4001C91C284640
:10356000FCF7E8FEFF2070BDB0FBF3F103FB110098
:10357000A07000EBC00101EB001004EB4000C01C88
:10358000FCF724FF0246A07800EBC00101EB00101D
:1035900004EB4001C91C2846FCF7CCFE012070BD9D
:1035A000002070BDAA75002070B505461F4C21781B
:1035B0006078814237D0A078814216D100EBC001FB
:1035C00001EB001004EB4000C01CFCF7FFFE0246BC
:1035D000A07800EBC00101EB001004EB4001C91C16
:1035E0002846FCF7A7FEFF2070BDC8B1401EA070A2
:1035F000A07800EBC00101EB001004EB4000C01C00
:10360000FCF7E4FE0246A07800EBC00101EB0010DD
:1036100004EB4001C91C2846FCF78CFE012070BD5C
:103620000920A070E4E7002070BD0000AA7500200A
:103630002DE9FC4706460F4690469946002435463C
:1036400006E028194A464146FCF7EBFE30B1641CFF
:10365000BC42F6D34FF0FF30BDE8FC8705A0CDE9B2
:1036600000060123032219462020FFF7FBFA20461B
:10367000F2E7000046696E645F626F756E646172A6
:10368000792025730D0A00002DE9F04100244FF642
:10369000FF7741F2210C12E000230E5D00F4004898
:1036A00006FA03F505F0800585EA182507EA4000CB
:1036B0000DB180EA0C005B1C082BEFDB641C94420C
:1036C000EADBBDE8F081000010B501460020A1F161
:1036D00000624FF480439A4204D34548084498421C
:1036E00001D2012010BD43480844984201D2022073
:1036F00010BD41480844984201D2032010BD3F4804
:103700004FF480340844A04201D2042010BD3C484C
:103710004FF400320844904201D2052010BD3948D0
:103720000844904201D2062010BD37480844904218
:1037300001D2072010BD35480844904201D208202C
:1037400010BD33480844904201D2092010BD3148D1
:103750000844904201D20A2010BD2F4808449042EC
:1037600001D20B2010BDA1F10160984201D20C20C2
:1037700010BD2A480844984201D20D2010BD2848A7
:103780000844984201D20E2010BD264808449842B1
:1037900001D20F2010BD24480844A04201D21020BD
:1037A00010BD22480844904201D2112010BD20488B
:1037B0000844904201D2122010BD1E480844904295
:1037C00001D2132010BD1C480844904201D214209D
:1037D00010BD1A480844904201D2152010BD184867
:1037E0000844904201D2162010BD172010BD0000E1
:1037F00000C0FFF70080FFF70040FFF70000FFF771
:103800000000FEF70000FCF70000FAF70000F8F7F0
:103810000000F6F70000F4F70000F2F700C0EFF741
:103820000080EFF70040EFF70000EFF70000EEF741
:103830000000ECF70000EAF70000E8F70000E6F708
:103840000000E4F7002102781202437813431B02C0
:1038500082781A431202C078104302E04008491CE3
:10386000C9B2C207FAD000B121B9002070474008A0
:10387000491CC9B2C207FAD108B9202901D00020D9
:1038800070470120704700008CB000240A9400F0BB
:1038900029FB264D0AA8E96F884725484FF47A711D
:1038A0000068B0FBF1F0401EB0F1807F08D24FF00D
:1038B000E02148611F4AF02010708C6107200861E8
:1038C000FEF78EFE0BA801F0B9FA06AB0BAF03268C
:1038D0000594D0C34FF48070CDE903041921164A32
:1038E000CDE90121092000900023144A14A11748B2
:1038F00001F00EFB06AB0594D0C34FF40070CDE988
:1039000003043321124ACDE901210B2000900F4816
:103910000023104A10A1C03001F0FAFA296E4FF4CA
:10392000FA6088470DF010F9FCE700008C160020C3
:103930009015002023ED00E04C1B00209D74010831
:103940005359535F53544154450000000C3000203C
:103950004C1F00203D4301084E45545F50455249DD
:103960004F444943000000002DE9F0410646314C28
:103970000A2560780930B0FBF5F105FB110000EB7A
:10398000C00101EB001004EB4000C01CFCF71EFD61
:1039900007463046FCF71AFD874214D13046FCF743
:1039A00015FD024660780930B0FBF5F105FB11000A
:1039B00000EBC00101EB001004EB4000C01C3146DD
:1039C000FCF719FD90B36078401CB0FBF5F105FBE6
:1039D00011012078814210D100EBC00101EB0010F1
:1039E00004EB4000C01C3221FCF7BDFC2078401CD9
:1039F000B0FBF5F105FB110020703046FCF7E6FC4A
:103A00000246607800EBC00101EB001004EB4000BF
:103A1000C01C3146FCF78EFC6078401CB0FBF5F111
:103A200005FB11006070A070BDE8F081FFE76078D1
:103A3000A070F9E7AA7500207CB50446601C4FF021
:103A4000FF311DD0104E06EB44156868D0B10FA0B1
:103A5000CDE900040123022219468020FFF702F974
:103A6000A96909B120468847154C30680021626871
:103A7000904700206860A1683068884700207CBDBE
:103A800008467CBD08467CBD0CA000205B494E5416
:103A90004552464143455D2073657420696E665FFB
:103AA000666420257520746F2069646C652C206223
:103AB00065636175736520636C6F73650A00000050
:103AC0008C1600202DE9FC410024184818A1CDE9EE
:103AD00000100123002203218020FFF7C3F81A4EB3
:103AE00006EB44156868D0B1A96909B1204688473A
:103AF000296909B120468847144F306800217A6847
:103B0000904713A0CDE9000401230222194680202A
:103B1000FFF7A8F800206860B96830688847641C1F
:103B2000142CDDDB0020BDE8FC81000037690208B1
:103B30005B494E544552464143455D20456E746590
:103B4000722025730A0000000CA000208C160020B3
:103B50005B494E544552464143455D207365742090
:103B6000696E665F666420257520746F2069646CD9
:103B7000652C2062656361757365206465696E6993
:103B8000740A000010B54FF421710A48FCF7EBFBF2
:103B9000094C084909A0226890470B48A0660B48C9
:103BA000E0660B4820670B4860670B48A067002061
:103BB00010BD00000CA000208C160020496E74651A
:103BC0007266616365000000DD3B0108393A010857
:103BD0000D3E0108C93D0108C53A01082DE9F04F25
:103BE00085B0064688460024A246CDF810A0601E87
:103BF000C8F80000444845A1CDE900100123002287
:103C000003218020FFF72EF8DFF81C91454F00219B
:103C1000D9F804203868904707EB4410406840B159
:103C2000641C142CF8DB142C08D0404DDFF800B1D4
:103C300021E007EB441101204860F4E73DA0012397
:103C400000901A4619468020FFF70CF8D9F80810A2
:103C5000386888474FF0FF3005B0BDE8F08F28681E
:103C60003168884206D107EB441084606968001D02
:103C7000884702E008355D45F1D35D4514D13068D1
:103C800039A1CDE9001001231A4619468020FEF71C
:103C9000E9FF07EB4410C0F804A0D9F80810386811
:103CA00088474FF0FF30D7E707EB44156A69DAB170
:103CB00004A970689047401C1CD00498E860C8F8BC
:103CC0000040C8F80400CDE9018435A1012300912A
:103CD0000390032219468020FEF7C4FFD9F808108C
:103CE000386888470020B7E7D9F80810386888474F
:103CF0000020B1E7C5F804A0D9F808103868884753
:103D00004FF0FF30A8E70000286902085B494E54D5
:103D10004552464143455D20456E746572202573CA
:103D20000A0000000CA000208C16002020FC0208D5
:103D300060FC02085B494E544552464143455D20B4
:103D400063616E206E6F742066696E642069646CB6
:103D50006520696E74657266616365206F7073209B
:103D6000656E747279210A005B494E544552464192
:103D700043455D2063616E206E6F742066696E64DA
:103D800020696E697420656E74727920666F722086
:103D9000696E746572666163652025640A000000BF
:103DA0005B494E544552464143455D206F70656EF8
:103DB00020737563636573732C2066642025705BC4
:103DC00025752025705D0A0030B401684FF0FF357D
:103DD0000A68531C09D00C4B03EB4212146A84B1DD
:103DE000546874B14C681CB104E0284630BC70477C
:103DF000D2684A600168096803EB4111096A30BC66
:103E000008472846F2E700000CA000207CB50268B5
:103E10004FF0FF3511684B1C09D0114C04EB4113D6
:103E2000DE698EB15E687EB1516811B103E028464B
:103E30007CBDD96851600168096804EB4111C9690A
:103E400002B0BDE87040084706A00123CDE900019B
:103E50001A4619468020FEF705FF28467CBD000063
:103E60000CA000205B494E544552464143455D201D
:103E7000696E665F6664202575202D3E2077726925
:103E8000746520657272210A0000000010B506F00A
:103E9000E9FCBDE810400BF077BF70470A460021EF
:103EA000AFF3008010B5002300241B020B43641CF9
:103EB000042CFAD300F0030424B909E000F8011B34
:103EC000521E641C22B1042CF8D301E008C0121F5A
:103ED000042AFBD202E000F8011B521E002AFAD18C
:103EE00010BD000070B5054C054D03E0206800B121
:103EF0008047241DAC42F9D370BD000068FC020865
:103F000090FC02082DE9FE4F06460F469046994662
:103F10000024204D05EB0410007818B1641CE4B2B5
:103F2000142CF7D31C484FF4805C4FF0FF3A142C4C
:103F300025D0C6B1DFF864A0DAF82000804705EB91
:103F4000041500202860EE60A870E870C5F80880AD
:103F50006F60C9F8004001202870DAF8240080471B
:103F60000020BDE8FE8FCDE901060DA101230091DF
:103F70001A4619466046FEF775FE5046F1E714A151
:103F8000CDE9001001231A4619466046FEF76AFE85
:103F90005046E6E7CC9E0020196902088C160020E6
:103FA0005B5359535D2025732063616E206E6F74DF
:103FB00020637265617465206D6F6E69746F722C19
:103FC000206E6F206E616D65202121210D0A000099
:103FD0005B5359535D2025732063616E206E6F74AF
:103FE00020637265617465206D6F6E69746F722CE9
:103FF000206E6F207370616365202121210D0A00FE
:1040000070B5094901EB0014207801280AD1074D49
:10401000286A8047002020606060A060E060207017
:10402000686A8047002070BDCC9E00208C1600205E
:104030001CB54FF0FF3414280ADB0CA1CDE90010A9
:1040400001231A4619461803FEF70CFE20461CBD34
:104050000F4B03EB00100378012B01D020461CBD51
:104060004160C2700121817000201CBD5B53595317
:104070005D20696E646578202575206F76657220F5
:104080004E554D5F4D4F4E49544F5253210D0A002E
:10409000CC9E00201CB54FF0FF3414280ADB0BA186
:1040A000CDE9001001231A4619461803FEF7DAFD80
:1040B00020461CBD0E4901EB00100178012901D0FA
:1040C00020461CBD0021817000201CBD5B5359534C
:1040D0005D20696E646578202575206F7665722095
:1040E0004E554D5F4D4F4E49544F5253210D0A00CE
:1040F000CC9E002010B54FF4A0710848FCF733F9AE
:104100000848074901630849C163084941630849F0
:10411000816308490164002010BD0000CC9E00208E
:10412000053F01088C1600200140010831400108BC
:1041300095400108394101087FB50546002400205B
:104140000F4E06EB04110A78012A13D14A688B68D6
:10415000AA1A9A420ED3C878C9680AA3CDE90031D9
:10416000CDE9020201231A4619461803FEF77AFD2B
:104170004FF0FF30641C142CE3DB04B070BD000072
:10418000CC9E00205B5359535D20257320746173CE
:104190006B2074696D656F7574206174207374652C
:1041A000702025752074696D65722025750D0A00D3
:1041B000F8B50E460024164D04EB840101EBC40152
:1041C00015F8211019B1641CE4B2142CF4D3142C8A
:1041D0001BD004EB840101EBC40705EB87031B1D17
:1041E00001466A46184600F025FABDF8000048B9B5
:1041F000684600F0DBFB3460012005F827006846C4
:1042000000F0FAFBBDF80000F8BD4FF0FF30F8BD3C
:104210003C97002038B500EB80010C4D01EBC00449
:1042200015F82400012801D0002038BDBDF8000099
:1042300040B9684600F0BAFB002005F82400684643
:1042400000F0DAFBBDF8000038BD00003C9700200C
:1042500010B54FF482610748FCF785F80748064916
:1042600001600749C160074941600749816000203A
:1042700010BD00003C970020B14101088C160020C1
:10428000154201088D420108C54201081CB500EB2A
:10429000800202EBC0000A4A12F82030012B02D043
:1042A0004FF0FF301CBD01AB02EB800000930023F8
:1042B000001D1A4600F0E8F9BDF804001CBD00001E
:1042C0003C97002008B500EB800101EBC0000949D4
:1042D00011F82020012A02D04FF0FF3008BD01EB79
:1042E0008000001D6A46002100F086FABDF800003B
:1042F00008BD00003C97002070470000BFF34F8FBF
:1043000004480168044A01F4E06111430160BFF30D
:104310004F8FFEE70CED00E00400FA05BFF34F8F6E
:1043200004480168044A01F4E06111430160BFF3ED
:104330004F8FFEE70CED00E00400FA0586B01F4C3D
:104340006846E16F8847E16C02A88847206A804789
:10435000FFF79CFD04F06CF808F06AFF606A804784
:10436000E16C04A888470499256B01AB052214A0D1
:10437000A847E16C04A888470499636B012201985F
:104380009847206A804700F023F8606A8047216DD3
:1043900002A88847642804D8FEF79EFEB0F5806F17
:1043A00004DBE16C02A88847FEF79EFEA16B019832
:1043B0008847216E02208847DBE700008C1600202A
:1043C0007461736B5F6E65745F706572696F6400B2
:1043D00010B506F003FA08B10BF0D0FC02480068F3
:1043E000BDE810400BF09CBC841100207047000019
:1043F00002480068002800D000477047B815002028
:1044000010B5044600F09EF83C48002202703C487B
:1044100002703C4802703C4802603C4802603C48E4
:1044200002703C4802703C4802703C49086840B148
:104430003B48006828B1096801E0491E04C0002912
:10444000FBD138480260384802603848026038487A
:1044500002603848026038480260384802603848D4
:10446000027001F0C1FB01F0F7FB204601F0D0F82B
:104470002088002841D1204601F024F92088002816
:104480003BD1204601F02AF92088002835D120466A
:1044900001F0D0F9208800282FD1204601F0D0FB70
:1044A0002088002829D1204601F09CFC2088002883
:1044B00023D1204601F02AFF208800281DD1204664
:1044C00001F0CCF82088002817D1204602F064FAC9
:1044D0002088002811D1204601F00EFE20880028F7
:1044E0000BD1204602F0B4FA2088002805D101F053
:1044F0008DF8BDE81040FFF779BF10BDCC15002046
:10450000D4150020FA1500205C160020601600204B
:10451000EE150020EF150020F0150020806E020837
:104520007C6E0208AC150020B0150020B4150020E8
:10453000B8150020BC150020C0150020C4150020AF
:1045400026160020054806490068096800EB81002E
:10455000044920F007000860704700007C6E0208E4
:10456000806E02086416002005480078012805D1F5
:1045700004490878FA2801D2401C087070470000EE
:10458000D4150020CC15002010B522480078012851
:104590003ED1FBF733FE04461F49087840B1401E68
:1045A000C0B2087048B12046BDE81040FBF72ABEF3
:1045B0002046BDE81040FBF725BE1848007820B122
:1045C0002046BDE81040FBF71DBE01F0FBFA144980
:1045D0000870144900EB400051F8200012490860AF
:1045E00012490968884204D12046BDE81040FBF713
:1045F00009BE50F88C1F491C01600D480168491C18
:104600000160FCF77AFB2046BDE81040FBF7FABDDD
:1046100010BD0000D4150020CC150020FA15002094
:10462000EF150020CC230520601600205C1600202A
:104630001C1600202DE9F04104460D461646FBF7F6
:10464000DDFD0746FEF732F80D4820606560002565
:104650002562656284F82850E56204F1080001F0E3
:1046600085F9204601F088F806480188491C018038
:10467000FEF72EF83846FBF7C5FD3580BDE8F08122
:104680004D555458EC1500202DE9F04F89B00646E1
:10469000129D8A4691461C4654493068884205D08E
:1046A00045F6C450288009B0BDE8F08F002704B15A
:1046B0002760FBF7A3FD8346FDF7F8FF96F8281067
:1046C000DFF82C81A9B1706AD8F8002090422ED171
:1046D000FF2923D0491C86F828100CB1F06A20600D
:1046E000FDF7F6FF5846FBF78DFD45F282702880F6
:1046F000D9E7D8F800007062012086F828000CB1D4
:10470000F06A20603146D8F8000001F047F8FDF764
:10471000DFFF5846FBF776FD2F80C4E7FDF7D8FF93
:104720005846FBF76FFD45F284702880BBE75FEACF
:10473000094108D5FDF7CCFF5846FBF763FD46F26B
:10474000B0102880AFE72B49097841B1FDF7C0FFD1
:104750005846FBF757FD46F663502880A3E790F8CC
:10476000373092F837108B4201D901F03DFD5346A6
:104770000422314601A801F069F8FDF7A9FF584667
:10478000FBF740FD00F0D4F8FBF738FD0646FDF7D7
:104790008DFFD8F8002092F8351071B1012911D0A1
:1047A00002291CD0032914D046F62E602880FDF77C
:1047B0008FFF3046FBF726FD75E70CB1906C20604B
:1047C0002F80F4E70CB1906C206046F2A91028808D
:1047D000EDE704B1276047F2D9202880E7E70CB164
:1047E000906C206045F6C2502880E0E74D55545843
:1047F0005C160020FA1500202DE9FC5F04468B466C
:10480000154648492068884204D045F6C45028809F
:10481000BDE8FC9FFBF7F2FC0190FDF747FFDFF8D6
:104820000891606AD9F80010884208D0FDF750FF5F
:104830000198FBF7E7FC45F281702880E8E7FDF777
:104840009BFF8046C4F82C8094F82800401EC0B21C
:1048500084F8280040B1FDF73BFF0198FBF7D2FC3C
:1048600045F283702880D3E72146D9F8000000F094
:10487000D5FF04F108074FF0000A3889E8B3D9F8EA
:10488000000090F8371090F8382091421DD000F0C9
:10489000B4FFD9F8001091F83820824200D21046B7
:1048A000064691F83700B0420FD2084601F038FAB8
:1048B000D9F8000080F83760304601F0A1F9D9F846
:1048C000000001F011FA19480670386886686662BF
:1048D000012084F828002146304600F05FFF0023C5
:1048E0001A4631462046CDF8008001F0FEF8FDF76B
:1048F000EFFE0198FBF786FC00E007E05FEA0B4063
:1049000001D400F015F8A5F800A081E7C4F824A0B0
:1049100084F828A0FDF7DCFE0198FBF773FCA5F8EE
:1049200000A075E74D5554585C160020EE15002088
:1049300010B517480078002829D1164800780028BB
:1049400025D1FBF75BFC044601F03CF912490870E5
:10495000124900EB400051F820001149086011494C
:104960000968884204D12046BDE81040FBF74ABCE4
:1049700050F88C1F491C01600B480168491C0160FC
:10498000FCF7B6F92046FBF73DFCBFF36F8F10BD77
:10499000CC150020FA150020EF150020CC230520AF
:1049A000601600205C1600201C16002070B504461E
:1049B0000F480078012803D045F68960208070BD3B
:1049C0000C4D2878FA2803D345F20920208070BDC9
:1049D000FBF714FC0646FDF769FE2878401C28709A
:1049E000FDF776FE3046FBF70DFC0020208070BD01
:1049F000D4150020FA15002070B50446154800783B
:104A0000012803D045F68960208070BD124D2878BA
:104A100090B1FBF7F3FB0646FDF748FE2878401EF1
:104A2000C0B2287060B1FDF753FE3046FBF7EAFBD9
:104A300046F66350208070BD46F66450208070BDFD
:104A4000FDF746FE3046FBF7DDFBFFF771FF002068
:104A5000208070BDD4150020FA1500202DE9F0410A
:104A60000446884615461E46FBF7C8FB0746FDF779
:104A70001DFE0D482060256200256562C4F8048093
:104A800004F1080000F072FF204601F083F90748A6
:104A90000188491C0180FDF71BFE3846FBF7B2FB7D
:104AA0003580BDE8F081000053454D4100160020DF
:104AB0002DE9F84F07468B46154634493868884239
:104AC00005D045F6C45028800020BDE8F88FFBF7DC
:104AD00095FB0090FDF7EAFD07F108063489A04632
:104AE000DFF8AC904FF0000ABBF1000F0CD0BBF127
:104AF000010F28D0FDF7ECFD0098FBF783FB45F68E
:104B0000256028804046E0E7B8F1000F08D0FDF7A7
:104B1000DFFD0098FBF776FB47F25F102880F1E796
:104B2000384601F049F9B9F80000401EA9F8000024
:104B3000384601F01FF9FDF7CBFD0098FBF762FB4B
:104B4000A5F800A0DEE7FDF717FE834607E0306812
:104B500081685A46384600F06CFF641EA4B2002CEF
:104B6000F5D1384601F028F9B9F80000401EA9F83F
:104B70000000384601F0FEF8FDF7AAFD0098FBF7AB
:104B800041FBFFF7D5FEA5F800A0BBE753454D411B
:104B9000001600202DE9F04F89B00646129D8A4686
:104BA00091461C4644493068884206D045F6C450B8
:104BB0002880002009B0BDE8F08F4FF000080CB14C
:104BC000C4F80080FBF71AFB8346FDF76FFD376AD8
:104BD00077B17F1E37620CB1706A2060346AFDF7CE
:104BE00077FD5846FBF70EFBA5F800802046E1E76D
:104BF0005FEA094009D5FDF76BFD5846FBF702FB5C
:104C000046F2B01028803846D4E72C48007848B1E6
:104C1000FDF75EFD5846FBF7F5FA46F6635028802F
:104C20000020C7E753460622314601A800F00EFED9
:104C3000FDF74EFD5846FBF7E5FAFFF779FEFBF767
:104C4000DDFA0746FDF732FD1D48016891F8350091
:104C500078B1012813D002281FD0032816D046F6B9
:104C60002E602880FDF734FD3846FBF7CBFA002094
:104C7000A0E70CB1886C2060A5F8008013E00CB1AF
:104C8000886C206046F2A91028800CE00CB1C4F8B2
:104C9000008047F2D920288005E00CB1886C2060A4
:104CA00045F6C2502880346AFDF712FD3846FBF7FE
:104CB000A9FA20467EE7000053454D41FA15002031
:104CC0005C16002070B505460E461446094A286851
:104CD000904204D045F6C4502080002070BDFDF7FE
:104CE0004BFD0246234631462846BDE8704001F0A0
:104CF00085B8000053454D4170B504460F4D2878E6
:104D0000002803D045F68A60208070BD00F05AFF6D
:104D10000B4908700B4908700B4900EB400051F833
:104D200020000A4908600A49086001202870FBF742
:104D3000A1FF43F69920208070BD0000D41500200B
:104D4000EF150020EE150020CC2305206016002072
:104D50005C1600202DE9F0410646FBF74FFA0446A9
:104D6000FDF7A4FC2D48002505802D4805602D4841
:104D700005602D4805602D4805602D480581FDF72B
:104D8000A7FC2046FBF73EFAFBF738FA0746FDF78B
:104D90008DFC28480468FDF79BFC3846FBF732FA87
:104DA0001BE0FBF72BFA0746FDF780FC7434E56344
:104DB00025602563A561A582E5826562A562FDF790
:104DC000DBFC2062743C2146A1F86C50D4F8B8405A
:104DD000FDF77EFC3846FBF715FA002CE1D1FBF716
:104DE0000DFA0746FDF762FC13480468FDF770FCF6
:104DF0003846FBF707FA0CE0FBF700FA0746FDF729
:104E000055FC21468D85A469FDF762FC3846FBF709
:104E1000F9F9002CF0D13580BDE8F08106160020AC
:104E2000181600202C1600204C160020D01500204B
:104E3000C023052020160020F4150020F8B50446F4
:104E40006946284800F0DCFABDF8000008B120806F
:104E5000F8BD6A460021022000F006FBBDF8000004
:104E600008B12080F8BDFBF7C9F90746FDF71EFC25
:104E70001D4E00253560FDF72BFC3846FBF7C2F9C7
:104E800000201A491A4A0B681768BB4203D9086800
:104E90001268B0FBF2F018B909680A20B1FBF0F013
:104EA0006A46002100F0E0FA69460E4800F068F911
:104EB000BDF8000008B12080F8BDFBF79FF9074658
:104EC000FDF7F4FB0B4805600B49306808600B499F
:104ED00001200870FDF7FCFB3846FBF793F92580AD
:104EE000F8BD00007C28052008160020A46E0208EA
:104EF000906E0208181600200C16002014160020D0
:104F000002480068002800D000477047BC15002008
:104F10002DE9FF4F83B00446DDE91098DDE9176500
:104F2000139F9346B9F13F0F08D13A48844205D008
:104F300046F27320288007B0BDE8F08F204601F0CC
:104F4000F5F94FF0000AA5F800A0F0070AD0B00765
:104F500008D54546002003E0C5F800A02D1D401CE3
:104F6000B842F9D3129808EB8005CDE900762B46BC
:104F700042465846069900F00FFAC4F828B0069940
:104F8000E1620499216284F8379084F838902060B7
:104F9000A56016986060C4F824802764A4F8446073
:104FA000002004EB8001C1F878A0401CC0B20028AA
:104FB000F7D004F16000149900F0D6FB204600F011
:104FC0002FF8FBF71BF90546FDF770FB94F8370047
:104FD00000F016FE204600F087FE204601F064F93E
:104FE0000D490888401C08800C480078012807D02B
:104FF000FDF76EFB07B02846BDE8F04FFBF702B99E
:10500000FDF766FB2846FBF7FDF807B0BDE8F04F5B
:10501000FFF78EBC0023052024160020D4150020A5
:1050200002490968002900D008477047AC150020E4
:105030002DE9F04704460F464A48844204D147F21E
:105040004C103880BDE8F0875CB9FBF7D7F805460F
:10505000FDF72CFB44480468FDF73AFB2846FBF7B4
:10506000D1F8FBF7CBF88146FDF720FB94F836002A
:105070004FF0000808286CD2DFE800F004080C0CA0
:1050800047080C0C204600F04BFE3EE0204601F0A5
:1050900079FB3AE094F8340007282DD2DFE800F0DD
:1050A0002C042C0408040400204600F092FC23E0A9
:1050B000206BC068456A15F8376F204600F089FC00
:1050C00028786978373D88420CD094F837108842A8
:1050D00008D1284600F091FB95F83810814200D2A3
:1050E0000846064684F8348095F83700B04203D06D
:1050F0003146284601F078F894F83600032801D0AC
:10510000072802D1204601F03DFBE06B10B120469C
:1051100000F048FB04F1600000F00AFB204600F0BC
:1051200027F8204601F0D2F810480188491E018076
:10513000204601F0FBF8FF2084F83600FDF7C8FA9E
:105140004846FBF75FF8A7F80080BDE8F047FFF797
:10515000EFBBFDF7BDFA4846FBF754F846F62D6065
:1051600038806FE7002305205C16002024160020FD
:1051700002490968002900D008477047B01500208F
:1051800070B505460E46FBF739F80446FDF78EFA72
:10519000FDF79EFA2046FBF735F831462846BDE874
:1051A000704001F01BB9000002490968002900D0D5
:1051B00008477047B41500202DE9F05F83468A4602
:1051C00014461D460026002C00D02660FBF716F87A
:1051D0008146FDF76BFA424F3868D0F84C80B8F141
:1051E000000F1DD0A8F10108C0F84C800CB1806CF4
:1051F0002060FDF7C1FA01463868826C891AC0F850
:10520000A010D0F8A4208A4201D2C0F8A410FDF763
:105210005FFA4846FAF7F6FF2E804046BDE8F09F59
:105220005FEA0A4009D5FDF753FA4846FAF7EAFF64
:1052300046F2B01028800020F0E72A48007848B1F4
:10524000FDF746FA4846FAF7DDFF46F66350288038
:105250000020E3E700215B460722084600F0F6FA4B
:10526000FDF736FA4846FAF7CDFFFFF761FBFAF78C
:10527000C5FF8046FDF71AFA396891F8350078B114
:10528000012820D0032825D046F62E6028803868D3
:10529000C46CFDF71DFA4046FAF7B4FF2046BDE79F
:1052A0007CB1886C2060FDF767FA01463868826C33
:1052B000891AC0F8A010D0F8A4208A4201D2C0F800
:1052C000A4102E80E3E70CB1886C206046F2A91090
:1052D0002880DCE704B1266047F2D9202880D6E791
:1052E0005C160020FA15002070B505460E461446DF
:1052F000FDF742FA0246234631462846BDE8704093
:1053000001F0E4B82DE9F04706460F46904699466D
:10531000FAF774FF0446FDF7C9F90EB91D4806688F
:105320004FF0000A306858B196F84400C00716D014
:10533000FDF7CEF92046FAF765FF0024756A1EE0F6
:10534000FDF7C6F92046FAF75DFFC7F800A0C8F8D8
:1053500000A047F25210A9F80000BDE8F087FDF761
:10536000B7F92046FAF74EFFC7F800A0C8F800A02A
:1053700047F25410A9F80000EFE72D1D641C2868BF
:105380000028FAD03C60306C001BC8F80000A9F877
:1053900000A0E2E75C16002010B5029C02EB84023C
:1053A00022F007024FF0807442F8044C42F8080CD7
:1053B0000C3A12481060A2F130004FF01234C4626F
:1053C0004FF0033282624FF0023242620362C161E7
:1053D0004FF011318161D100416161100161910093
:1053E000C1604FF0073181604FF0063141604FF0EE
:1053F000053140F804195100016010BDB564010881
:10540000044A904203D147F25B100880704701F0D4
:10541000C7B800000023052070B5104800680028B8
:1054200000D08047FDF7A8F90D4C0E4A216813689B
:10543000994206D090314A68821A0A608D682A44DF
:105440008A60C3F89400FDF713F92168D1F8B02001
:10545000824201D2C1F8B00070BD0000C01500202A
:105460005C160020601600202DE9F04106460D462E
:1054700014461D480078002804D046F6635020806A
:10548000BDE8F0814DB1022D07D0042D06D0082DC6
:1054900003D045F625602080F2E7A6B1FAF7AEFE0C
:1054A0000746FDF703F92A46104D23463146286882
:1054B00001F022F9208850B1FDF70AF93846BDE81D
:1054C000F041FAF79FBE47F27E202080D8E7286897
:1054D00000F026FCFDF7FCF83846FAF793FEFFF7DC
:1054E00027FA00202080CBE7FA1500205C16002068
:1054F0002DE9F0411E46DDE906342D4D2D78002DB5
:1055000004D046F663502080BDE8F08103F00E051C
:1055100047F27E274DB1022D07D0042D09D0082D6A
:1055200003D045F625602080EEE716B90AB901B927
:1055300060B3204B1B684FF4FA7CBCFBF3FC664461
:105540005E434FF47A7CB6FBFCF64FF4616C00FBD3
:105550000CF0C1EB011100EB8100104400FB03666D
:105560001EB3FAF74BFE0746FDF7A0F82A46124D88
:1055700023463146286801F0BFF8218841B1FDF784
:10558000A7F83846BDE8F041FAF73CBE2780BBE7F4
:10559000286800F0C5FBFDF79BF83846FAF732FEA5
:1055A000FFF7C6F900202080AEE72780ACE70000B7
:1055B000FA150020A46E02085C16002008B500F061
:1055C0001DF86A4600210948FFF78EFE0849086861
:1055D000401E0860002807D10648006808606A4637
:1055E00000210548FFF780FE08BD00008C2705203C
:1055F00058160020541600207C2805200248006818
:10560000002800D000477047C415002070470000F4
:10561000034A00211160034A118001807047000095
:10562000D8150020DC1500200A4C0B4DFAF7E6FDDA
:105630000646FDF73BF82168491C21602968491C92
:105640002960FDF745F83046FAF7DCFDFEF7D0FE9D
:10565000ECE70000C81500200816002000B589B04E
:105660000D4A002111600B22CDE9061208900C4A68
:1056700005910A480B4B126800681B68CDE901329E
:10568000CDE903013F2000900023074A07A10C4801
:10569000FFF73EFC09B000BDC8150020786E020877
:1056A000746E0208706E02082956010875432F4F68
:1056B000532D4949492049646C65205461736B003E
:1056C00000230520034A00211160034A1180018054
:1056D00070470000E0150020E4150020F0B5114EE1
:1056E000316832681032104F3B885B1E9DB2002338
:1056F000002407E00A604C600C81CC60103110324D
:105700005B1C9BB2AB42F5D30C604C600C81CC604F
:10571000064932680A603A888A80CC800C8104800D
:10572000F0BD0000886E0208846E0208C0230520C8
:1057300010B54289002A12D003680A490C681C601F
:1057400043680B60CB8844891B1BCB808B884489C2
:1057500023448B800021418181810160416010469A
:1057600010BD0000C02305200181002141818181FD
:10577000016041607047000006A1C16100224261E2
:10578000054B1968002903D0816148611860704792
:105790008261FBE720000000E8150020C26B0A626E
:1057A000C1637047F8B50746FC6B1EE0256AFCF73D
:1057B000E3FF0346E3622146384600F02FF804F188
:1057C00008000189A1B1006886686762012084F839
:1057D000280021463046FFF7E1FF009300231A46D8
:1057E0003146204600F081F92C46002CDED1F8BD70
:1057F000002084F828006062F6E73F213C3008E092
:1058000082682AB1926892F837208A4200D2114603
:10581000203000680028F3D1084670473C3001E092
:1058200002F1200002688A42FAD10168096A016027
:1058300070470000034A00211160034A1180018073
:1058400070470000E8150020EC1500202DE9F0411C
:105850000C4607461946104D286880F8342000266B
:1058600080F8356000F0A8FC64B104F10806FC6023
:1058700001223946286800F011F83946304600F018
:105880007AF803E02868A0F8466006632046296895
:10589000BDE8F04100F016B85C16002010B5A0F885
:1058A000462001630024002309E04B600B600B617C
:1058B0004B610B83CB6188602031641CA4B294429D
:1058C000F3D310BD002809D04268C1F8BC2000F114
:1058D000080109688968096AC161704791F8340054
:1058E000022805D0072807D005A0C1F8BC007047E2
:1058F00004A0C1F8BC00704704A0C1F8BC00704708
:10590000200000005461736B205100005461736BE0
:105910002053656D0000000007A2C1F8BC2000F113
:1059200008010968002903D08968096AC1617047C4
:1059300001A1C161704700002000000070B5056B37
:10594000B0F846400FE0EE6808363089012807D9E4
:105950002946304600F052F82946304600F00BF850
:105960002035641EA4B2002CEDD170BD0021016071
:1059700041600181704730B58A6892F837400289EA
:105980000025002A03D0521C028102680CE001228B
:1059900002814D600D600160416030BD936893F8F5
:1059A0003730A34202D85268002AF7D132B11368C7
:1059B00053B10B604A605960116030BD4D60426860
:1059C0000A605160416030BD11600D604A60016045
:1059D00030BD70B50646356BB6F8464007E0E8685E
:1059E0000830294600F00AF82035641EA4B2002CC5
:1059F000F5D10020A6F84600306370BD10B50289CD
:105A00000024012A0BD00A6862B14B6873B153605D
:105A10001A600289521E02814C600C6010BD046045
:105A20004460F6E74A6814600260F2E7546042603E
:105A3000EFE72DE9F0410C46154694F836100227A1
:105A40000026082922D2DFE801F0212104042121C7
:105A5000232394F83410032903D12A46214600F069
:105A600033F8A665A4F85C60A5642046FFF7B1FF93
:105A700094F83600032802D1204600F083FE204629
:105A800000F0FCF83434A67067702670BDE8F08131
:105A900094F83410032903D12A46214600F014F863
:105AA000A665A4F85C60A5642046FFF792FF94F811
:105AB0003600072802D1204600F064FE042034346A
:105AC000A07067702670E1E710B50B6BB1F8461057
:105AD00008E0DC68844202D11861DA6110BD20332D
