:020000040801F1
:10000000D0490520C1010108B5510108CB01010803
:10001000574D010869340108B99701080000000034
:10002000000000000000000000000000E3010108E3
:10003000E50101080000000021180108D97F01082E
:10004000EB010108EB010108EB010108CD7C01087F
:10005000EB010108EB010108EB010108EB010108CC
:10006000EB010108EB010108EB010108EB010108BC
:10007000FD380108253901084D390108EB01010857
:10008000753901089D390108EB010108EB010108F0
:1000900099040020D9040020EB010108EB010108BC
:1000A000EB010108EB010108EB010108EB0101087C
:1000B000EB010108EB010108EB010108EB0101086C
:1000C000EB010108EB010108EB010108EB0101085C
:1000D000EB0101088D960108B9960108E596010823
:1000E0007D410108EB010108EB010108EB0101086A
:1000F000EB010108EB010108EB010108EB0101082C
:10010000EB010108EB010108EB010108EB0101081B
:1001100001960108EB010108EB010108EB01010860
:10012000EB010108C5390108ED390108EB010108AF
:10013000EB010108EB010108EB010108EB010108EB
:10014000EB010108EB010108EB010108EB010108DB
:10015000EB010108153A01088D3A010811970108D1
:10016000EB010108EB010108EB010108EB010108BB
:10017000EB010108EB010108EB01010800000000A0
:10018000EB010108EB0101082D96010859960108C1
:10019000EB010108EB010108EB0101080000000080
:1001A000EB010108EB010108EB010108DFF80CD0BD
:1001B00001F026F800480047851F0208D0490520B5
:1001C0000A4880470A480047FEE71EF0040F0CBFAC
:1001D000EFF30880EFF309800CF024BDFEE7FEE7A3
:1001E000FEE7FEE7FEE7FEE7FEE7FEE7B58401086F
:1001F000AD01010872B6704762B67047EFF3108028
:1002000072B6704780F31088704730BF704720BFC8
:100210007047B0FA80F0704790FAA0F0B0FA80F022
:10022000704790FAA0F070472DE9F05F0546002076
:1002300092469B4688460646814640241BE0284657
:1002400041464746224600F05DFA53465A46C01AD8
:10025000914110D311461846224600F044FA2D1A57
:1002600067EB01084F4622460120002100F03BFACF
:1002700017EB00094E41201EA4F10104DFDC4846C3
:1002800031462A464346BDE8F09F000038B5D0E924
:100290000221491E01EB410102EBC1014268C1EBA1
:1002A000011102EB81010268C1EB011102EB810235
:1002B000D0E9043101EB410103EB81013023A1F5C9
:1002C000527191FBF3F4174D6C4302EBC41291FB96
:1002D000F3F403FB141100921A2902DB124B1A44A7
:1002E00000920C2291FBF2F3104C6343009C04EB50
:1002F000C313009391FBF2F302FB13110C4A08E0C5
:10030000491E40F2A324535C6343009C04EBC313D7
:1003100000930029F4DC0146684600F009FA0098D1
:1003200038BD00003F0C0F008051010067C2030080
:10033000E892020840EA01039B0703D009E008C9DC
:10034000121F08C0042AFAD203E011F8013B00F89A
:10035000013B521EF9D27047D2B201E000F8012BE6
:10036000491EFBD270470022F6E710B513460A4635
:1003700004461946FFF7F0FF204610BD421E12F852
:10038000013F002BFBD111F8013B02F8013B002B90
:10039000F9D1704730B505462A460B4612F8010BD5
:1003A00013F8014B08B1A042F8D01CB1002802D0CC
:1003B0006D1CF1E7284630BDCAB2401E10F8011F7F
:1003C0008A4202D00029F9D100207047421C10F85F
:1003D000011B0029FBD1801A704710B5002200E0F4
:1003E000521C835C8C5CA34201D1002BF8D1D8B2A3
:1003F000E1B2401A10BD30B504460020034600E0CB
:100400005B1C934203D2E05CCD5C401BF8D030BD56
:10041000034611F8012B00F8012B002AF9D11846E8
:10042000704730B505460020034600E05B1C934250
:1004300005D2EC5CC85C201A01D1002CF6D130BD8D
:1004400000B58DB0099000920B904FF0FF300A90EC
:1004500000200C9004480690044807906A4609A8BA
:1004600000F078FC0DB000BD710D01088F0D010882
:100470000FB400B58DB010A909900B9000914FF00A
:10048000FF300A9000200C90054806900548079020
:100490006A4609A80F9900F05DFC0DB05DF814FBE9
:1004A000710D01088F0D01082DE9FF5F1D464FF00A
:1004B000FF3BD5E9014691465F464FF00008A96928
:1004C0007F1C01988847296A824688470028F6D110
:1004D000BAF1FF3F0CD024F4C064002E19DD600691
:1004E00014D5BAF12B0F09D0BAF12D0F0ED103E0BC
:1004F000584604B0BDE8F09F44F48064A9697F1CAD
:1005000001988847761E8246002E02DDBAF1300F30
:1005100003D0B9F1000F26D032E0A969761E44F469
:1005200000747F1C019888478246002E05DDBAF1D1
:10053000780F06D0BAF1580F03D0B9F1000F10D0E0
:100540001EE0B9F1000F02D0B9F1100F18D1A9695E
:10055000761E24F400747F1C019888478246102080
:1005600002E0082000E00A20814609E008FB0908B3
:10057000A969761E44F400747F1C0198884782465E
:10058000002E05DD4946504600F018F90028EDDA46
:10059000E96901988847A00502D46FF00100A8E737
:1005A000E00725D1600613D5600502D5C8F100002B
:1005B00000E0404629680A1D2A600968220501D525
:1005C000087015E0220701D5088011E008600FE0EF
:1005D0002868011D29600068210502D580F8008087
:1005E00006E0210702D5A0F8008001E0C0F80080F5
:1005F00038467EE770B5064609F040F904680546BE
:100600000A220021304600F0D3FB2C6070BD30B4CC
:1006100080EA010202F0004530F0004221F0004083
:1006200013D090B1C30DD40DC2F31601C0F3160060
:10063000E41A41F4000140F400027D34914201D3F8
:10064000641C00E04900002C02DA30BC0020704736
:100650004FF400000023914201D3891A034340085C
:100660004FEA4101F7D151B1914202D14FF000411F
:1006700005E002D24FF0010101E06FF0010103EB50
:10068000C450284430BC00F0CBBB96230022114656
:1006900000F0CFBB00F0004230F000400AD0C10DA6
:1006A00001F56071C0F3160042EA0151C20840072B
:1006B0001143704700200146704730B50B46014694
:1006C00000202022012409E021FA02F59D4205D3F1
:1006D00003FA02F5491B04FA02F52844151EA2F19B
:1006E0000102F1DC30BD202A04DB203A00FA02F1DD
:1006F000002070479140C2F1200320FA03F3194310
:1007000090407047202A04DB203A21FA02F00021B1
:10071000704721FA02F3D040C2F120029140084311
:1007200019467047014900F003B80000A43D0520B8
:1007300010B500683C22B0FBF2F302FB1303B0FBE0
:10074000F2F00B60B0FBF2F302FB1303B0FBF2F02C
:1007500018224B60B0FBF2F302FB1303B0FBF2F084
:10076000021D8B600723B2FBF3F403FB142280000D
:1007700040F2B55300F66C308A61B0FBF3F2B0FB87
:10078000F3F403FB1400443280084A61C8613B283B
:1007900002D3920700D0401C0022074C13460A6186
:1007A000E25C824203D8801A5B1C0B61F8E7401CB4
:1007B000C860084610BD0000F49202083A2800D232
:1007C000303820F02002412A01D3A2F137008842BC
:1007D00001D34FF0FF3070472DE9FF4F1C4681B029
:1007E0000021D4E9016791464FF0FF358A468846DB
:1007F000A1696D1C02988847216A834688470028B2
:10080000F6D1BBF1FF3F0CD026F4C066002F1ADDF5
:10081000700615D5BBF12B0F0AD0BBF12D0F0FD1F0
:1008200004E04FF0FF3005B0BDE8F08F46F480667D
:10083000A1696D1C029888477F1E8346002F02DD48
:10084000BBF1300F03D0B9F1000F2AD025E0A16928
:100850006D1C46F400767F1E029888478346002F61
:1008600005DDBBF1780F06D0BBF1580F03D0B9F10D
:10087000000F10D011E0B9F1000F02D0B9F1100F44
:100880000BD1A1696D1C26F400767F1E0298884763
:100890008346102000E0082081464FEAE97000906E
:1008A00017E00A20F8E74346AAFB092803FB098062
:1008B000DDF800C07F1E0AFB0C0112EB0B0A41EBB6
:1008C000EB78A16946F4007605F1010502988847A6
:1008D0008346002F06DD49465846FFF76FFF5FEA63
:1008E000000BE0D5E16902988847B00502D46FF0AB
:1008F000010098E7F00718D1700610D57005514631
:1009000005D50023D1EB030163EB080200E042466A
:100910002068031D23600068C0E9001205E020681C
:10092000011D21600068C0E900A828467BE72DE989
:10093000FF5FD2E901A74FF000089169994614467C
:10094000DDF838B0464601988847054659EA0B005D
:1009500005D009E0A169761C019888470546216AFF
:10096000284688470028F5D1681C03D05FEACA7082
:1009700005D015E04FF0FF3004B0BDE8F09F2068CF
:10098000011D2160D0F800800AE05FEACA7001D141
:1009900008F8015BA169761C7F1E0198884705460F
:1009A000002F1ADD681C18D0B9F1000F0DD0E81720
:1009B00005EBD060421120F01F0059F822102A1ACE
:1009C000012090400142E0D107E0BBF1000FDCD1F3
:1009D000216A284688470028D7D0E16901988847CE
:1009E000BBF1000F07D1002E05DD5FEACA7002D10E
:1009F000002188F80010A068B84203DDBBF1000FA9
:100A000003D017B16FF00100B6E73046B4E700003D
:100A10002DE9FF4F087881B09946FF2805D0491C81
:100A20002D2804D00024002308E000230BE001243B
:100A3000F9E703EB830300EB4303491C0878FF2825
:100A4000F7D104B15B4200200090147801462D2CB0
:100A500001D02B2C04D1521C2D2C12D00024009438
:100A600000251678FF2E0ED00A24A0FB04C801FB37
:100A70000481002700FB0711521C16EB0C00694192
:100A8000EFE70124EBE7994450EA01020ED000247D
:100A9000AA4D2646DFF8A88200F026FE82468B4645
:100AA000B9F1000009DAC9F100071BE00198002143
:100AB000C0E9001105B0BDE8F08F074612E0F80765
:100AC00007D022462B463046414600F087FA0646BC
:100AD000884622462B461046194600F07FFA044607
:100AE0000D467F10002FEAD1B9F1000F3246434680
:100AF0005046594602DA00F0E3FA01E000F06EFADF
:100B0000009A0AB181F00041019AC2E90001D1E7DF
:100B10002DE9FF4F1F468DB0D7E901464FF0FF3852
:100B20002E2045464FF000090B90B9696D1C0E98B8
:100B30008847396A824688470028F6D1BAF1FF3FD4
:100B40000AD024F4D064002E11DDBAF12B0F08D0A6
:100B5000BAF12D0F0BD102E0404611B0ABE744F4DF
:100B60008064B9696D1C0E9888478246761E694676
:100B7000600501D52D2000E02B208DF8000001F14B
:100B8000010B0DF1200809E0B9696D1C0E9888472A
:100B900082460F9844F40074761E0560002E02DD34
:100BA000BAF1300FF0D00B998A453ED144F0800461
:100BB00006E00F99681CA9F1010944F4007408606B
:100BC000B9696D1C761E0E98884782463028F0D091
:100BD0002BE00B998A4505D1200603D444F080040C
:100BE000761E18E0504608F00FFF08B30DF1130110
:100BF000761E44F400748B4508D2AAF130000BF83D
:100C0000010B200607D5A9F1010003E0200602D45C
:100C100009F101008146A00502D50F99681C086002
:100C2000B9696D1C0E9888478246002ED1DC53E0CE
:100C3000002E51DDBAF1650F02D0BAF1450F4BD14C
:100C4000A00549D5B9696D1C24F44074761E0E9830
:100C500088478246002E0CDD2B2804D0BAF12D0FD8
:100C600007D144F48074B9696D1C0E988847824698
:100C7000761EE00501D52D2100E02B2108F8011B8F
:100C8000CDF82C8021E00DF12901761E44F400748A
:100C900088450CD2AAF1300010F0FF0088F800005F
:100CA00002D10B99884509D908F1010806E0E00551
:100CB00001D5244801E042F20F708146B9696D1CEC
:100CC0000E98884782460F980560002E04DD504636
:100CD00008F09AFE0028D6D1F9690E988847FF20BF
:100CE0008BF8000088F800000020069007904B4623
:100CF0006A4608A906A8FFF78BFEA00502D46FF08C
:100D000001002AE714F0240F0AD0E00714D1DDE92E
:100D100006123868031D3B600068C0E900120BE052
:100D2000DDE9060100F0ECFC0146E00704D138687B
:100D3000021D3A600068016028460EE7000024406A
:100D40000000F03FF1D8FFFF026811441378016002
:100D500018467047D160044951610449116200216D
:100D60001161114600F07EBA490D010851120108C7
:100D7000426842B1016811F8013B23B1521EC0E93B
:100D80000012184670470121C160881E70474268F2
:100D90005AB1C368016843B983688B4205D0491EC4
:100DA000521CC0E90012002070474FF0FF3070471E
:100DB0002DE9F04791460F4680460446002614F878
:100DC000015B2DB100F040FA0068405DC007F6D12C
:100DD0002B2D02D02D2D18D0641E4A4639462046B0
:100DE00000F0D6FB27B13968A14201D1C7F80080D5
:100DF00071054FF002040BD54042002803DD08F0D6
:100E00003DFD0460A007BDE8F08746F48066E4E796
:100E10000028F8DA08F032FD04606FF00040F2E7D5
:100E20000029A8BF7047401C490008BF20F00100FE
:100E3000704710B4B0FA80FC00FA0CF050EA0104DC
:100E400004BF10BC704749B1CCF1200421FA04F46E
:100E500011FA0CF118BF012121430843A3EB0C0147
:100E6000CB1D4FEA00614FEA102042BF002010BCAA
:100E7000704700EBC35010440029A4BF10BC70475A
:100E8000401C490008BF20F0010010BC70472DE94C
:100E9000FE4F804681EA0300C00F0C46009021F00F
:100EA000004123F00045B8EB0200A94105D24046BD
:100EB000214690461C460B46024623F00040104354
:100EC00047D0270DC7F30A00C3F30A510290401A16
:100ED000019040286BDAC3F3130040F4801B0098A4
:100EE000924620B10023D2EB030A63EB0B0B01986F
:100EF0005946C0F140025046FFF7F5FB06460D4645
:100F000050465946019A00F08DF910EB08006141F6
:100F1000002487EA115284EAE7731A4340D0009A0A
:100F200062B3019A012A4FEA075215DC001B61EBFC
:100F300002014FF0004202EA0752CDE90042001CD4
:100F400041F5801132462B4600F080FB03B0BDE82E
:100F5000F08F40462146F9E7001B61EB0201001CBF
:100F600041F5801300185B412018A2F5001747EBEC
:100F7000030140EAD570B6196D4111E06D084FEAE2
:100F8000360645EAC0754FEA0752001B61EB0201C5
:100F9000001C41F5801149084FEA30000019514109
:100FA00032462B4603B0BDE8F04F00F040BB00983E
:100FB000012240000023D0EB020263EBE0730098B3
:100FC00021464FEAE074B8EB000061EB0401E9E769
:100FD00083F000435BE781F0004158E72DE9FE4FC5
:100FE00081EA030404F0004421F0004100944FF032
:100FF000000B23F0004350EA01045ED052EA0304E0
:101000005BD0C3F30A54C1F30A552C44A4F2F33461
:101010000194A0FB0254C1F3130141F48011C3F306
:10102000130343F4801301FB024400FB034E840AC4
:10103000970A44EA815447EA8357A4FB076802955C
:101040008D0A05FB07854FEA932C04FB0C542705FA
:10105000029D4FEA065847EA1637B5EB08056EEBD6
:10106000070C870E920E47EA811742EA8312A7FB0C
:101070000201B6EB0B0164EB00042B0D43EA0C33C9
:101080005E1844EB1C50DA465146E7FB0201C5F3FB
:1010900013044FEA0B3343EA14534FEA0432019C22
:1010A00043EA0603A4F10C040294009CCDE900B4C9
:1010B00000F0CCFA03B0BDE8F08F00200146F9E75C
:1010C0002DE9F04D81EA030404F0004B21F00045C6
:1010D00014464FF0000A23F0004150EA050220D0E8
:1010E00054EA01021DD0C5F30A570246C5F31303A3
:1010F000C1F31300C1F30A5640F4801543F4801382
:10110000A7EB0608101BD64608F2FD3873EB050066
:1011100002D308F1010801E092185B41B8F1000F19
:1011200003DA00200146BDE8F08D00204FF4801165
:10113000064684460EE0171B73EB050705D3121B0A
:1011400063EB050306434CEA010C49084FEA300003
:1011500092185B4150EA0107EDD152EA030012D028
:1011600082EA040083EA0501084305D0101BAB4165
:1011700006D20122002306E000224FF0004302E0E5
:101180006FF0010253101AEB06004CEB085110EB04
:101190000A0041EB0B01BDE8F04D00F048BAC1F385
:1011A0000A52C1F3130140F2FF3341F480119A4215
:1011B00002DA00200146704740F233439A42A2F21D
:1011C000334202DC5242FFF79DBAFFF78CBA0000AF
:1011D00030B5041E71F1000404DB4FF000444042BE
:1011E00064EB0101141E73F1000405DB1C464FF093
:1011F0000043524263EB0403994208BF904230BD62
:10120000064C074D06E0E06840F0010394E8070053
:1012100098471034AC42F6D3FEF7CCFF2C220308DB
:101220005C220308202A06DBCB17203A41FA02F0A1
:1012300043EAE07306E041FA02F3D040C2F1200233
:10124000914008431946704700487047849302084C
:1012500010B50446FFF7F8FF0068005D00F00100DC
:1012600010BD00002DE9F34F8BB04FF0000801F1E5
:101270000C000C464FF0010B46460DF1080A019098
:101280006269012101989047051E2DD0252D2CD093
:10129000216A8847C0B16269012101989047216A9B
:1012A00088470028F7D1411E62690198904700E005
:1012B000761CA1690B988847216A88470028F7D1D6
:1012C000E1690B988847DBE7A1690B9888470746D7
:1012D000A84201D1761CD3E7E1690B9888477F1CAF
:1012E00002D1B8F1000F6FD046E1002762693D4698
:1012F0003946019890472A2804D162690121019852
:1013000090470125DFF88492626901210198904796
:10131000A0F130010A290AD24F45E5DC07EB87012D
:1013200000EB4107303FDFD445F01005ECE7E9065C
:1013300001D46FF000476C280AD04C2814D06828DC
:1013400015D06A280DD074281CD07A281AD01DE038
:1013500062690121019890476C2802D045F004058C
:1013600014E045F002050DE045F020050AE0626951
:10137000012101989047682802D045F0080505E052
:1013800045F400656269012101989047C4E901575D
:1013900065283DD019DC58287AD00CDC452837D098
:1013A00004DC252826D0412831D131E046282FD031
:1013B00047282CD12CE05B2877D0612828D06328DF
:1013C0007CD0642823D15AE0D0E06F2848D008DCD4
:1013D00066281DD067281BD0692821D06E2816D119
:1013E00027E0702845D0732868D0752847D0782822
:1013F0000DD14DE0A1690B988847054625283FF49B
:1014000069AFE1690B9888476D1C3FF46AAFB3E0A0
:1014100023466A466FF001000B99FFF779FB9EE0C7
:1014200045F040006060A80723464FF0000236D424
:101430003EE0E8077FF447AF2068011D21600068A7
:10144000290501D506701BE7290701D5068017E796
:10145000A90703D5F117C0E9006111E706600FE79E
:1014600045F040006060A80723464FF0080216D4FC
:101470001EE040F60E0125EA0100606016E045F02E
:1014800040006060A80723464FF00A0207D40FE02F
:1014900045F040006060A80708D5234610226FF091
:1014A00001000B99FFF798F959E007E02346102255
:1014B0006FF001000B99FEF7F7FF50E04FF00009C5
:1014C0004F464B46632802D05B2806D040E0E80632
:1014D00001D40120A06001273AE06269012101984E
:1014E00090475E2805D14FF001096269494601988D
:1014F0009047216939B900210A46534643F8212013
:10150000491C0829FADBB0B3216969B9C11700EB9E
:10151000D16253110AEB830122F01F02821A0120CB
:101520000B68904003430B6062690121019890476A
:101530005D28E8D1B9F1000F09D00020514651F8DB
:101540002020D24341F82020401C0828F7DB02ABC2
:10155000224600976FF001000B99FFF7E8F9002889
:101560000CDA401C08D1BBF1000F05D04FF0FF3062
:101570000DB0BDE8F08FFFE74046F9E7E90701D17C
:1015800008F1010806444FF0000B79E6CCCCCC0CF6
:101590002DE9F05F82460078002715468B460AF158
:1015A0000104B946302801D09DB113E014F8010BB5
:1015B0000127782803D0582801D045B10AE00DB1A1
:1015C000102D07D10027102514F8010B02E0082583
:1015D00000E00A250026B0460EE005FB080005FBEA
:1015E00006F1012701EB10461FFA80F8B6F5803F9F
:1015F00000D3B94614F8010B2946FFF7DFF800289D
:10160000EBDABBF1000F05D00FB1641E00E05446C9
:10161000CBF80040B9F1000F06D008F02FF90221F5
:101620000160C81EBDE8F09F48EA0640FAE710B521
:10163000141E73F1000408DA401C41F100019218F5
:101640005B411A4301D120F0010010BD2DE9F04D9E
:1016500092469B4611B1B1FA81F202E0B0FA80F2F3
:1016600020329046FFF73FF804460F4640EA0A0052
:1016700041EA0B0153465A46084313D0114653EA38
:10168000010019D0C8F140025046FFF73BF805466B
:101690000E46504659464246FFF725F8084305D006
:1016A000012004E020463946BDE8F08D00200543C6
:1016B00046EAE0762C4337430A986305E40AA0EB38
:1016C00008000022FD0A44EA47540A3002D50020EF
:1016D0000146E9E7010510196941DDE908450019EE
:1016E0006941BDE8F04DA2E70EB540F233420292E7
:1016F0000022CDE900221346FFF7A8FF03B000BD8A
:1017000001F0004330B421F0004150EA010206D05C
:101710000A0DA2F56072C1F31301002A02DC30BC8D
:1017200000207047440F44EAC104C100E01830BCF7
:1017300000EBC250FFF774BB70B58C1810F8015B5A
:1017400015F0070301D110F8013B2A1106D110F85A
:10175000012B03E010F8016B01F8016B5B1EF9D15E
:101760002B0705D40023521E0DD401F8013BFAE7E4
:1017700010F8013BCB1A921C03E013F8015B01F84F
:10178000015B521EF9D5A142D8D3002070BD0000E4
:1017900072B64EF62250CEF2000040F2FF01C0F2C7
:1017A000000101704FF0000080F3098804F092FD01
:1017B00041F27860C2F20000016881F3088841F2CA
:1017C0000260C2F2000041F20361C2F200010A7835
:1017D000027041F27065C2F2000541F27461C2F21A
:1017E00000010A682A60106880F30988EFF314800A
:1017F00040F0020080F31488BFF36F8FBDE8F00F54
:101800000FBCBDE8005006BC62B6084718484FF050
:1018100080510160704716484FF080510160704759
:1018200072B6EFF3098020E9F00F41F27065C2F261
:1018300000052E683060744604F04CFD41F20260F1
:10184000C2F2000041F20361C2F200010A780270A4
:1018500041F27461C2F200010A682A6044F0F40E99
:101860001068B0E8F00F80F3098862B67047000096
:1018700004ED00E040F2413CC2F2000C604740F24F
:10188000852CC2F2000C604700EB810082600020D2
:101890007047000070B50546094E084C002172687B
:1018A000A068904724212846FEF75DFDE068401EB1
:1018B000E060B168A0688847002070BD907B002080
:1018C000A016002080780009704700002DE9F84339
:1018D00080460D460024384F364E00217A68B068A5
:1018E000904704EBC40006EB800090F8F80110B3B9
:1018F000641C042CF5DB4FF4005C4FF0FF39042C22
:1019000027D06868012831D000282FD02BA00123D0
:1019100000901A461946604602F0FAF804EBC4013A
:1019200006EB8101002081F8F801B968B0688847AA
:101930004846BDE8F88304EBC40006EB800081460E
:1019400000F5FC702421FEF70EFD012089F8F80156
:10195000D1E724A0012300901A461946604602F000
:10196000D7F8B968B06888474846E2E704EBC40096
:1019700006EB800404F2F914607820F0F000803067
:10198000607028782070286800F0BEFA0146A078C0
:1019900061F3C710A070297961F38610A070641EEE
:1019A000C8F80040F068401CF060B968B06888472B
:1019B0000020BEE7907B0020A01600205B417069EC
:1019C000204770696F5D204770692043746C20491F
:1019D0006E6974205661756C65204572726F722154
:1019E0000A0000005B417069204770696F5D204705
:1019F00070692043746C20496E6974204572726F5F
:101A0000722C204E6F205370616365210A00000024
:101A1000F8B50446607800F077FAC1B2E078420782
:101A200002D06268521C6260B1EBD01F10D04FF040
:101A3000005202EBB0104FEAB060C0F3C202E07097
:101A4000032A08D361F3C71020F03800E07002E0E9
:101A500020F03800E070E078002600F007014FF435
:101A60000055062924D2DFE801F0032A62C523EAE3
:101A7000C0F38011B1EBD01F1BD185A002220090D2
:101A800001231146284602F043F8A07820F0F00028
:101A9000A070A16809B1204688476660A07820F050
:101AA0000F00401CA070E07820F00700401CE070A0
:101AB000F8BDA07820F0F0008030A070F8BDC0F331
:101AC0008011B1EBD01F17D07BA002220090012320
:101AD0001146284602F01CF8A07820F0F0001030E3
:101AE000A070E16809B1204688476660E07820F080
:101AF0000700801CE070F8BD6068B0F5167FFAD969
:101B000077A00222009001231146284602F000F837
:101B1000A07820F0F0005030A070E16909B12046B3
:101B20008847E07820F00700401DE070F8BDC0F362
:101B30008011B1EBD01F2AD155A0022200900123C1
:101B40001146284601F0E4FFA07820F0F000A070D4
:101B5000A16809B1204688476DA0022200900123A8
:101B60001146284601F0D4FFA0784FF0805101EBD8
:101B700030104FEA3070A070216909B120468847C3
:101B80006660E07820F00700C01CE070F8BD606877
:101B90003C28FBD9A07800F00F00012802D00228D1
:101BA00012D022E065A002220090012311462846AF
:101BB00001F0AEFFA07820F0F0003030A070616935
:101BC00099B12046884710E067A0022200900123C7
:101BD0001146284601F09CFFA07820F0F00040302C
:101BE000A070A16909B120468847E07820F007007D
:101BF000E070F8BDC0F38011B1EBD01FF9D02EA07A
:101C00000222009001231146284601F081FFA078AE
:101C100020F0F0001030A070E16809B1204688473C
:101C200060683C2806D26660E07820F00700801CDF
:101C3000E070F8BDE07820F00700E070F8BDC0F378
:101C40008011B1EBD01F0CD1A07820F0F0006030F3
:101C5000A070216A0029F1D001B02046BDE8F04013
:101C6000084715A00222009001231146284601F0E2
:101C70004FFFA07820F0F0001030A070E16809B1AB
:101C800020468847E07820F00700E070F8BD0000AB
:101C90005B417069204770696F5D20477069204221
:101CA000746E204576656E74205B50524553535FC9
:101CB000444F574E5D210A005B41706920477069AF
:101CC0006F5D204770692042746E204576656E74A2
:101CD000205B50524553535F55505D210A00000070
:101CE0005B417069204770696F5D204770692042D1
:101CF000746E204576656E74205B4C4F4E475F5086
:101D0000524553535F53544152545D210A00000021
:101D10005B417069204770696F5D204770692042A0
:101D2000746E204576656E74205B50524553535F48
:101D30005245504541545D210A0000005B417069E5
:101D4000204770696F5D204770692042746E20459E
:101D500076656E74205B53494E474C455F434C4952
:101D6000434B5D210A0000005B41706920477069A8
:101D70006F5D204770692042746E204576656E74F1
:101D8000205B444F55424C455F434C49434B5D21DA
:101D90000A00000070B50024154D1648296D06464E
:101DA0008847052821D3E96C30468847114D103DFE
:101DB00004EBC40005EB800090F8F811012903D171
:101DC00000F5FC70FFF724FE641C042CF0DB0024FB
:101DD00004EB440005EBC000017E012902D118305C
:101DE00000F066FA641C142CF2DB002070BD0000C9
:101DF000A0160020A07B00207FB5244824A1CDE9B7
:101E0000001001235D0300220321284601F080FE1B
:101E10004FF422712448FEF7A6FA244C2248E16CC4
:101E20001030884707200290A26E1F4902A89047F1
:101E3000401C1FD03C341C4954F83C2C08311CA0D9
:101E400090471E4860651E48A0651E48E0651E4814
:101E500020661E48A0661E4860661E48E0661E4852
:101E600020671E4860671E48A0671E48E067002084
:101E700004B070BD1CA0012300901A4619462846E4
:101E800001F046FE4FF0FF30F2E70000DC8C020864
:101E90005B417069204770696F5D20456E746572A3
:101EA0002025730A00000000907B0020A01600206F
:101EB0006170695F6C6F636B00000000091F0108AF
:101EC000BD1F0108611F010899210108692101084E
:101ED00019200108CD180108951801088918010872
:101EE000C5180108951D01085B417069204770699C
:101EF0006F5D204770696F204F70656E206572724C
:101F00006F72210A000000001FB50B490191029079
:101F10000A48416F01A88847401C02D0039804B0CA
:101F200010BD012306A000901A461946580301F07F
:101F3000EFFD4FF0FF30F2E7907B0020A01600206D
:101F40005B417069204770696F5D204770696F2041
:101F50004F70656E206572726F72210A000000007A
:101F60001FB50C4901910290022003900A48016FAD
:101F700001A88847401C02D0002004B010BD0123F6
:101F800006A000901A461946580301F0C1FD4FF013
:101F9000FF30F2E7907B0020A01600205B417069C3
:101FA000204770696F5D204770696F204F70656EC4
:101FB000206572726F72210A000000001FB50C4A82
:101FC0000192029003910B48016F01A88847401CC1
:101FD00002D0002004B010BD012307A000901A46D3
:101FE0001946580301F094FD4FF0FF30F2E700006E
:101FF000907B0020A01600205B417069204770692B
:102000006F5D204770696F204F70656E206572723A
:102010006F72210A00000000F8B5044608684FF00E
:10202000FF35032801D14A689AB100224FF40056C7
:1020300088B1012829D0022841D0032845D038A0F2
:10204000012300901A461946304601F061FD002038
:10205000F8BD2846F8BDA2706260E07801280AD079
:1020600070B137A0012300901A461946304601F09E
:102070004FFD2846F8BD60780021FFF79FFFE6E797
:1020800060780121FFF79AFFE1E7A2706260E078D3
:1020900001280AD070B12AA0012300901A461946DF
:1020A000304601F035FD2846F8BD60780121FFF784
:1020B00085FFCCE760780021FFF780FFC7E7A270BB
:1020C00062606078FFF74CFFC1E70120A0704868AC
:1020D00060608868A060C868E0602248C16C04F154
:1020E000100088476068002801DD401E6060E078CD
:1020F00001280AD070B112A0012300901A46194697
:10210000304601F005FD2846F8BD60780021FFF754
:1021100055FF9CE760780121FFF750FF97E700002B
:102120005B417069204770696F5D20556E6B6E6F03
:10213000776E204374726C20436F6465210A00003F
:102140005B417069204770696F5D2047706F204365
:10215000746C205661756C65204572726F72210A2D
:1021600000000000A016002070B50546094E084C7E
:1021700000217268A068904718212846FEF7F3F8FE
:10218000E068401EE060B168A0688847002070BD2C
:10219000907B0020A01600202DE9F84380460D46D4
:1021A00000242D4F2B4E00217A68B068904704EB35
:1021B000440006EBC000007E08B3641C142CF6DB60
:1021C0004FF4005C4FF0FF39142C1FD068680128D1
:1021D00029D0002827D021A0012300901A461946B3
:1021E000604601F095FC04EB440106EBC1010020C0
:1021F0000876B968B06888474846BDE8F88304EBBC
:10220000440106EBC10101200876D9E71DA0012396
:1022100000901A461946604601F07AFCB968B06829
:1022200088474846E9E704EB440006EBC0002978FC
:1022300041762979C1761830C8F80000F068401C52
:10224000F06003CDFFF7BAFEB968B0688847002098
:10225000D3E70000907B0020A01600205B4170694E
:10226000204770696F5D2047706F2043746C204970
:102270006E6974205661756C65204572726F7221AB
:102280000A0000005B417069204770696F5D20475C
:10229000706F2043746C20496E6974204572726FB0
:1022A000722C204E6F205370616365210A0000007C
:1022B00070B504461D4DA07804F11006296D002864
:1022C00011D0012831D130468847A16888422CD3EB
:1022D0000020A070E1786078FFF770FE3046E96C6E
:1022E000BDE870400847606800281ED03046884727
:1022F000E168884219D30120A0706068002801DDE0
:10230000401E6060E078012801D028B108E06078C4
:102310000021FFF753FE03E060780121FFF74EFE36
:102320003046E96CBDE87040084770BDA01600203B
:1023300010B58AB0002109AA03230591CDE907321F
:1023400006913323094CCDE901434FF40072CDE9E6
:1023500003210A21009141F2740103460A5804A1A5
:1023600004F5006003F032FD0AB010BDC4980020EF
:1023700041545F434C49454E545F4C54455F544172
:10238000534B00003EB500200290184D02A8E96FA3
:10239000884740F62C211648FDF7E5FF144C4FF016
:1023A000FF30C4F87C09134813A1CDE900100123C4
:1023B00000220321980501F0ABFB2A6804F5B471F3
:1023C00012A090471348C5F8BC00062007F0EAFEAB
:1023D000C4F86C01FFF7ACFF00F020F803220E49AF
:1023E000D4F86C0108F0DEF900203EBDA0160020F4
:1023F000988E00201D8D02085B417069204C746529
:102400005D20456E7465722025730A004170695F16
:102410004C74650071240108C410002000B58BB015
:1024200000200AA903220590CDE907210690332256
:10243000084BCDE901324FF40071CDE903100A20B9
:1024400000900023044A05A1084803F0BFFC0BB02C
:1024500000BD000084A10020811C02084C54455F8F
:102460004E45545F5441534B0000000084A90020A6
:102470002DE9FE4F05460F460024554E554956A2FC
:10248000D6F8280ACDE90021401C02904FF4800ABA
:10249000012300220321504601F03AFBDFF854816A
:1024A000D6F868010021D8F8042090474FF0FF3992
:1024B00004EB4400C0EB441006EB8000406F60B1B9
:1024C000641C032CF4DBD8F80810D6F868018847A0
:1024D000032C72D00020BDE8FE8FB5F86600A0F591
:1024E000B441A5394ED0D6F8280A00EB4001C1EB23
:1024F000401006EB8000001D7421FDF734FFE878E2
:10250000A978CDE90010D6F8280A6B7800EB4001D5
:10251000C1EB401006EB80002A78001D36A107F0C1
:102520006DF9D6F8280AB5F8641000EB4002C2EB4A
:10253000401006EB8000A0F86810D6F8280AA96EB3
:1025400000EB4002C2EB401006EB8000C166D6F8FB
:10255000280AE96E00EB4002C2EB401006EB800057
:102560000167D6F8280A00EB4001C1EB401006EBEA
:102570008000C0F874903C60D6F8280A401CC6F869
:10258000280AA0E7D6F8280A00EB4001C1EB40106A
:1025900006EB8000001D7421FDF7E5FED6F8280A41
:1025A000702200EB4001C1EB401006EB8000001DE3
:1025B0002946FDF7BFFED4E7FFE712A001230090F4
:1025C0001A461946504601F0A3FA484683E7000030
:1025D000988E00200D8D02085B417069204C746557
:1025E0005D20257320636C69656E74206E756D20A7
:1025F00025750A00A016002025752E25752E257537
:102600002E2575005B417069204C74655D20636107
:102610006E206E6F742066696E642069646C65203C
:1026200074637020636C69656E7420656E74727972
:1026300020210D0A000000001CB5094809A1CDE9C0
:102640000010012300220321980501F061FA0A48D5
:102650000021D0F894200420904700201CBD0000E9
:10266000FB8C02085B417069204C74655D20456EEF
:102670007465722025730A00A01600201CB5094855
:1026800009A1CDE90010012300220321980501F0E2
:102690003FFA0A480121D0F89420042090470020F6
:1026A0001CBD0000EA8C02085B417069204C746517
:1026B0005D20456E7465722025730A00A016002007
:1026C0000149016000207047086F002070B586B096
:1026D000274828A1CDE9001001235D020022032133
:1026E000284601F015FA002003900520049003A865
:1026F0000590274C274904A8A26E9047401C4FF034
:10270000FF3620D0012003902249A26E083104A890
:102710009047401C21D0204844F87C0F1F4860603F
:102720001F48A0601F48E0601F4820617C3C00F00B
:102730006BF828B184340020A1688847206880475E
:10274000002006B070BD19A0012300901A4619465A
:10275000284601F0DDF93046F3E71FA00123009081
:102760001A461946284601F0D3F93046E9E7000039
:10277000C98C02085B4170692053797320506172E3
:10278000616D5D20456E7465722025730A0000003E
:10279000A0160020F86E0020C1260108E92B0108D0
:1027A000552B010809280108192A01085B417069A5
:1027B0002053797320506172616D5D20496E74659C
:1027C0007220466C617368204F70656E206572726E
:1027D0006F72210A000000005B4170692053797319
:1027E00020506172616D5D20496E74657220466C87
:1027F0006173682042616B204F70656E2065727254
:102800006F72210A000000002DE9F04F8DB04FF0EB
:10281000FF35554855A1CDE90010012300220321C1
:10282000580201F075F95848089040F2446709973A
:1028300000F110060B960DF10808CDF830804FF02E
:102840000009CDF80890DFF844A108A8DAF8741060
:102850008847BA1E3146002001F06CFEB6F84216D9
:10286000A6F1080404F24C6B814239D1002508948A
:102870000997CDF82CB0CDF83080CDF80890DAF873
:10288000741008A88847BA1E5946002001F052FE6D
:102890000146BBF8420688420CD1B6F8421688427F
:1028A00008D13BA00123009003221946580201F0F1
:1028B0002FF955E00123454800901A461946580261
:1028C00001F026F9049405970696CDF81C80CDF802
:1028D000089001200390DAF8701004A888473FE0C0
:1028E00001233B485E0200901A461946304601F02B
:1028F0000FF908940997CDF82CB0CDF83080CDF8B9
:102900000890DAF8741008A8884740F2426231490A
:10291000002001F00FFEBBF84216814218D12E486C
:102920000123009003221946304601F0F1F80025FA
:10293000154804900597CDF818B0CDF81C80CDF857
:10294000089001200390DAF8701004A8884707E087
:1029500022A0012300901A461946304601F0D8F80B
:102960000DB02846BDE8F08F808C02085B4170698D
:102970002053797320506172616D5D20456E7465DE
:10298000722025730A000000F86E0020A0160020B7
:102990005B4170692053797320506172616D5D20D5
:1029A00053797374656D20436F6E66696720476560
:1029B0007420537563636573732C205061697220B2
:1029C00053756363657373210D0A0000681B030868
:1029D000D01A03084C750020181B03085B4170696E
:1029E0002053797320506172616D5D205379737447
:1029F000656D20436F6E66696720536861646F7709
:102A000020536563746F7220476574204572726F3E
:102A100072210D0A000000002DE9FC4107463749EC
:102A200037A2CDE90021012300220321580201F041
:102A30006FF83A4C002540F24466CFB93146204643
:102A4000FDF791FC522004F8AA0F3A206070802014
:102A5000A070E570257101206071AA3C31A3304857
:102A600006CBC0E90F120F2231A16E30FDF762FCD8
:102A7000C02004F8980FA82161702C22A27058235E
:102A8000E370FF2323716371A371E571207261729A
:102A9000A2721423E37220736173A2736420E07343
:102AA00041F6CB60208284F87C501C4824A1F03091
:102AB000096801666E2180F86410092222A1C430E1
:102AC000FDF738FC84F8BD5084F8255184F8805116
:102AD000207D04F8980C607D04F8970CA07D04F824
:102AE000960CE07D04F8950D657002B03246BDE8A5
:102AF000F0410A4901F24460FDF71CBCAA8C0208AF
:102B00005B4170692053797320506172616D5D2063
:102B1000456E7465722025730A000000086F00205E
:102B2000F87000205374616E6461726400000000EC
:102B30005030313136323234343232303130380084
:102B400061646D696E00000048696B313233343561
:102B50002B00000010B588B0184819A1CDE900106D
:102B6000012300220321580200F0D2FF40F242620A
:102B70001A49002001F0DEFC1849A1F8420640F293
:102B800044642246A1F24460FDF7D4FB144804904B
:102B900005941030069002A80790002002900120B2
:102BA0000390104C04A8216F88470D48083004900A
:102BB000216F04A8884708B0002010BD978C020838
:102BC0005B4170692053797320506172616D5D20A3
:102BD000456E7465722025730A0000004C75002054
:102BE000F86E0020A0160020014901600020704707
:102BF0004C75002010B5044600F034FD07F0DAFFF4
:102C00002046BDE8104007F047BF0000F0B589B08E
:102C100006460F4615461F4C02A8E26C90470496E4
:102C2000002005908DF819008DF818008DF81A50C5
:102C30002A4639460DF11B00FDF77CFB164F04A90F
:102C4000384608F042F906464FF4FA7507E0314677
:102C5000384608F0ADF901280ED0082811D0226DB1
:102C600002A89047A842F2D93146384608F08AF9BE
:102C70004FF0FF3009B0F0BD216E012088470020E1
:102C8000F8E7012305A000901A461946180400F041
:102C90003FFFE9E7A0160020006400405B43616E3F
:102CA0005D2063616E302073656E64206572726FA3
:102CB00072210A002DE9FC4781460D461646002484
:102CC000F01706EB50704FEAE00820F00700371AC3
:102CD0001DA04FF4803A00900123002205215046A8
:102CE00000F016FF0AE0285D1AA1CDE900100023CC
:102CF0001A460521504600F00BFF641CB442F2DB7B
:102D000016A0002300901A460521504600F000FF4F
:102D100000240BE005EBC40108224846FFF776FFCC
:102D200018B14FF0FF30BDE8FC87641C4445F1DB6F
:102D300047B102B0FAB205EBC4014846BDE8F0471E
:102D4000FFF764BF0020EEE763616E2073656E6479
:102D50003A0A000025303258200000000A00000026
:102D6000012010F04DB9000010B5094901EB001425
:102D7000208810F075FA41F20E1010F071FAD4E9C3
:102D800002326068BDE81040002109F003BF000076
:102D900020140020034901EB00108168406809F00D
:102DA000F2BE000020140020034901EB00108168EE
:102DB00040688161704700007012002070B50546C0
:102DC0000E4800EB0514208810F04AFAD4E90103FC
:102DD0000022012109F0DEFED4E9010302220021D4
:102DE00009F0FCFEE06820B12846BDE87040FFF71E
:102DF000DBBF2846BDE8704000F002B8701200202A
:102E0000034901EB0010816840688162704700004F
:102E100070120020034901EB001081684068C16214
:102E2000704700007012002006480078002804D087
:102E3000012804D04FF0FF30704700207047012078
:102E400070470000C014002010B541F21C0010F0C3
:102E500007FA10F001F804F0E9FE22480068A0F536
:102E60004851F03902D004F0FDFE14E041F61B5049
:102E700010F038F91C4C20B941F6195010F032F915
:102E800010B10020207006E041F61A5010F02AF927
:102E900008B10120207010F0A1F84FF48004204602
:102EA00009F00EFD00221146204609F00FFD002218
:102EB000114603200FF08CFB204609F001FD201382
:102EC00010F036FA201210F0D3FA042010F012FBA2
:102ED000002010F067FB10F055FBBDE8104000F03B
:102EE00005B8000050280040C014002010B58CB078
:102EF000124810F0EFF9114C207804F081FE643094
:102F00000690607804F07CFE401E0590A07804F0E6
:102F100077FE0490207904F073FE0390607904F04A
:102F20006FFE0290A07904F06BFE019001A8FDF7FE
:102F3000ADF90CB0A0F5E14010BD000028820120E1
:102F40002DE9F05F0446DDF828B0884691469A46A0
:102F50004FF48005284609F0B3FC03200FF02DFB49
:102F60002E13304610F0E4F92F12384610F066FAAE
:102F700010F0E6FA204604F04CFE1E4C207040464D
:102F800004F047FE6070484604F043FEA070002045
:102F90002061504604F03DFE2071584604F039FE91
:102FA00060710B9804F035FEA071204610F0D2F944
:102FB0000446284609F084FC00221146284609F000
:102FC00085FC0022114603200FF002FB284609F081
:102FD00077FC304610F0ACF9384610F049FA04207E
:102FE00010F088FA002010F0DDFA10F0CBFA20463D
:102FF000BDE8F09F288201202DE9F04F91B00546F1
:1030000005EBC50000EB05117E4800EB4104676A43
:10301000D4F82D807C48415D5A297DD05A214155F4
:103020004FF404713846FDF79EF9A41CA08810F0F7
:1030300017F9608810F014F9E08810F011F9E268CF
:103040006169A06809F06DFD22696169A06809F0F5
:1030500068FDE368A0680122022109F09BFDE36896
:10306000A0680222002109F0B9FD2369A0680122AD
:10307000022109F08FFD2369A0680222002109F0D6
:10308000ADFD54F8020C14F005FFD4F81E1054F8EE
:10309000020D14F097FE2068042114F0B7FF206899
:1030A000082114F0B9FF4FF4A0600FF0D7FA002206
:1030B00094F8280011460FF08BFA2068534914F059
:1030C00077FF54F8020B14F061FF217FA0693D22C5
:1030D00008F07FF9217FA06908F041F900260E96DB
:1030E00010370A970B960C964FF40079CDF83C9068
:1030F00054F8020C001D08900D96012709974FF413
:10310000403ACDF840A00AA91C228B466846FDF73C
:1031100011F9217FA06900E026E03B46089A08F0FB
:10312000F5F9217FA06908F011F9627F217FA0697C
:1031300008F0F8F8002294F8270011460FF048FA3A
:10314000217FA069102208F035F9217FA06908F0DD
:10315000E0F854F8020C402114F00CFF94F8280019
:10316000A41E012805D04AE04FF0FF3011B0BDE8A1
:10317000F08F294626A006F031FB12343D22617EF5
:10318000A06808F026F9617EA06808F0E8F8402001
:103190000E9008F50578CDF828800B960C96CDF8A2
:1031A0003C9054F8120C001D08900D97CDF840A0EB
:1031B0001C2259466846FDF7BDF8617EA0683B4673
:1031C000089A08F0A3F9617EA06808F0B6F8A27E1C
:1031D000617EA06808F0A6F80022E07F11460FF09B
:1031E000F7F9617EA068102208F0E4F8617EA0681B
:1031F00008F086F854F8120C002114F0C1FE0020EB
:10320000B4E700009A8F0208681200201000001036
:103210005561727420496E64657820257520547854
:1032200020446D6120496E69740D0A0070B500EB91
:10323000C00101EB00111E4800EB41056C6AA97F3B
:10324000D5F81A0001EB4102102303EBC2028258A9
:10325000D20718D008F0ACF9C0F500706080A088E3
:10326000012811D0A08801280DD9A97FD5F81A000E
:1032700008F046F82868002114F07CFE6088401CA5
:10328000C0F30800208070BD608821888842FAD38E
:10329000A97FD5F81A0008F033F82868002114F047
:1032A00069FE6088401CC0F30800208070BD0000EB
:1032B0009A8F020870B500EBC00101EB00121949AA
:1032C00001EB4204656AA27FD4F81A1002EB4202B5
:1032D000102303EBC2028958C90722D129886A88C2
:1032E00091421ED1014610A006F078FA00202880F5
:1032F0006880A880A41C3D22217FA06908F069F89D
:10330000217FA0694FF4007208F04CF9217FA06979
:1033100007F0FFFF54F8020CBDE87040402114F0A4
:1033200029BE70BD9A8F0208496E646578256420B5
:103330005265537461727420444D41205472616E21
:10334000736D697474696E67202E2E2E0D0A00004D
:1033500000EBC00101EB0010034901EB4000406AA3
:103360008188491C818070479A8F020870B54FF0A0
:10337000FF3400EBC002104B02EB001203EB4202E1
:10338000526A13885588AB420CD0148802F110039E
:10339000E35C0B701188491CC90507D01188491CD2
:1033A00011800024FFF786FF204670BD9188491EDA
:1033B000918000211180F4E79A8F02082DE9FC41E9
:1033C00007460D461646002416A0CDE900074FF427
:1033D0000068012300220521404600F099FB0BE024
:1033E000285D14A1CDE9001000231A4605214046AE
:1033F00000F08EFB641CA4B2B442F1D30FA00023F2
:1034000000901A460521404600F082FB002405E0AA
:10341000295D384600F014F8641CA4B2B442F7D316
:10342000BDE8FC81756172742025752073656E643A
:103430003A0A000025303258200000000A0000003F
:1034400010B500EBC00202EB0012064800EB42048C
:10345000206814F01BFD2068072114F09CFD002853
:10346000F9D010BD9A8F020802A006F0B7F901F05A
:10347000A3FE00005B4275734661756C745F486122
:103480006E646C65725D0D0A0000000010B500F0FE
:10349000A3F800F005F8BDE8104000F09BB800006C
:1034A0002DE9F041104E002737807780B760F76034
:1034B0007761B76137610025FCF7A0FE80460024E4
:1034C000776100F049F800F059F870690544641C10
:1034D000A4B2002CF4D035617761B7614046BDE8F5
:1034E000F041FCF78FBE00007C16002003490969FB
:1034F000884201D9401A7047002070477C1600208E
:1035000010B5FCF77BFE04494C69FCF77BFE2046B6
:10351000BDE81040FFF7EABF7C16002010B5FFF7AA
:10352000EFFF0446FCF76AFE034A00215161FCF7F5
:1035300069FE204610BD00007C16002010B5FCF787
:103540005DFE04498C69FCF75DFE2046BDE8104035
:10355000FFF7CCBF7C16002010B5074C2088401C1C
:1035600020806088002802D100F05CF8A0606088AC
:10357000401C608010BD00007C16002010B50A4C75
:103580006088401E80B2608000280CD100F04AF8AC
:10359000E060A168401A6169814200D26061A1695E
:1035A000814200D2A06110BD7C16002010B5FCF74E
:1035B00025FE0446FFF7D0FF1021054801F0CCFBA3
:1035C000FFF7DCFF2046BDE81040FCF71BBE000003
:1035D000943D0520FFF7EABF02490020486000F053
:1035E00009B800007C1600200149486070470000BF
:1035F0007C16002010B5FFF7B3FB08490A6842F0BB
:1036000080720A60064900224A600A6842F001029C
:103610000A60BDE81040FFF7E7BF0000FCED00E0E6
:10362000001000E00148406870470000001000E012
:1036300070B50024074D07E00E5D4640F6B255F820
:10364000266086EA1020641C9442F5D3002B00D03B
:10365000C04370BD80880208014804F061BB0000CF
:1036600028360120034B0C224FF44871A3F11400BB
:1036700004F06FBB3C3601200146014804F070BBEA
:10368000283601200146014804F086BB2836012077
:10369000F0B40746184600250026002419E04B5DCB
:1036A000A3F1300CBCF1090F09D804EB84046400C9
:1036B000303C1C44FF2C0AD90020F0BC70472E2B54
:1036C00001D00020F9E784550024761CF6B26D1C69
:1036D000EDB29542E3D3032E01D00020EDE7E2B234
:1036E000C27001787F2903D021B1FF2904D00BE0FB
:1036F0000220E2E70220E0E74378FF2B04D1837841
:10370000FF2B01D1FF2A05D0012F05D0DF290AD9CF
:103710000020D2E70220D0E7FF2A02D0F0BC00F060
:10372000E7BF0020C9E70120C7E7F0B50024002566
:10373000002317E0065DA6F13007092F08D803EB38
:1037400083035B00303B3344FF2B09D90020F0BDDD
:103750002E2E01D00020F0BD535500236D1CEDB27C
:10376000641CE4B28C42E5D3032D01D00020F0BDEF
:10377000D8B2D070117821B9537813B9937803B9BE
:1037800010B1FF2902D009E00020F0BD5378FF2BD3
:1037900004D19278FF2A01D1FF2803D0DF2903D971
:1037A0000020F0BD0020F0BD0120F0BDFEB50746B1
:1037B00016460020029001900090002302AD01A85F
:1037C0006A46FC5C11F803C004EA0C04EC5411F8DE
:1037D00003C064EA0C04C454F45C11F803C004EAA6
:1037E0000C04D4545B1CDBB2042BEAD3042202A9E0
:1037F0006846FCF700FE08B10220FEBD042202A9C3
:103800003046FCF7F8FD98B1042201A93046FCF7D8
:10381000F2FD78B1042202A93846FCF7ECFD58B15C
:10382000042201A93846FCF7E6FD38B10120FEBDAF
:103830000320FEBD0420FEBD0520FEBD0620FEBD0A
:10384000F0B500230024002500261FE0C25CA2F191
:1038500020070F2F08D91A3F062F05D9213F052F22
:1038600002D9203F032F01D801240DE0A2F1300737
:10387000092F01D8012507E0A2F14106192E02D92E
:10388000613A192A09D801265B1CDBB28B42DDD3D1
:1038900034B12DB126B10020F0BD4FF0FF30F0BDA6
:1038A0006FF00100F0BDFCF7A9BC10B5FCF7AAFC55
:1038B000002010BD08B5684601F0D6FFBDF8000035
:1038C00008BD08B5684601F0F5FFBDF8000008BD69
:1038D0000648054901620649416206498162064976
:1038E000C162002070470000B5380108A016002012
:1038F000C3380108A7380108AB38010810B5084CD7
:1039000020220121204607F07FFD10B10220FFF7A1
:103910001FFD20463D22BDE81040012107F059BDA2
:103920000060024010B5084C20220221204607F01A
:103930006BFD10B10320FFF70BFD20463D22BDE8D3
:103940001040022107F045BD0060024010B5084C50
:1039500020220321204607F057FD10B10520FFF774
:10396000F7FC20463D22BDE81040032107F031BDA1
:103970000060024010B5084C20220521204607F0C7
:1039800043FD10B10120FFF7E3FC20463D22BDE8D6
:103990001040052107F01DBD0060024010B5084C25
:1039A00020220621204607F02FFD10B10620FFF748
:1039B000CFFC20463D22BDE81040062107F009BD9E
:1039C0000060024010B5084C20220121204607F07B
:1039D0001BFD10B10420FFF7BBFC20463D22BDE8D3
:1039E0001040012107F0F5BC0064024010B5084CFE
:1039F00020220221204607F007FD10B10020FFF72A
:103A0000A7FC20463D22BDE81040022107F0E1BCA2
:103A10000064024070B51B4DD5F8F5401A4E2022C7
:103A20000621304607F0F0FC002829D03D2206216F
:103A3000304607F0CEFCD635697FE86807F060FCB9
:103A400055F80E0C002114F09BFA2189002039B1A1
:103A5000618822891144C1F30801618020810DE051
:103A6000B4F8101251B1B4F80A12B4F8102211448B
:103A7000C1F30801A4F80A12A4F810025A20208009
:103A800070BD00009A8F02080064024070B51B4DA3
:103A9000D5F82D401A4E20220721304607F0B4FCFD
:103AA000002829D03D220721304607F092FC95F8E6
:103AB0002B10D5F81A0007F023FC2868002114F019
:103AC0005FFA2189002039B1618822891144C1F34C
:103AD0000801618020810DE0B4F8101251B1B4F8F2
:103AE0000A12B4F810221144C1F30801A4F80A1212
:103AF000A4F810025A20208070BD00009A8F02089E
:103B00000064024010B50320FFF776FA002010BDD4
:103B10000FB42DE9F04F8FB01E464FF00009CDF8DD
:103B20003090CDF83490CDF8389000240025D4485A
:103B30000DF17408007800287CD1D248189980686B
:103B4000084277D0D04919980978884272D8CF4F67
:103B500040F2DC513888C0F5A05088426AD3DFF8C3
:103B600030A3DAF82000804738887988884203D16A
:103B7000A7F80290A7F80090DFF818B39BF80000B0
:103B800038B93888C4A13844001D05F037FE84B226
:103B9000254601208BF80000BD48816C08A88847A5
:103BA000089800F5E1400B900BA8FCF7BBFD4269BB
:103BB000642102F26C7292FBF1F303F0FF0A8DF8BC
:103BC00030A092FBF1F301FB132101F0FF0B8DF804
:103BD00031B0017C491CC9B28DF83210027B8DF8DE
:103BE0003320D0F808C018239CFBF3FE03FB1EC350
:103BF000DBB28DF8343090F804C08DF835C0007811
:103C00008DF83600DDF868E0BEF1010F7ED0BEF120
:103C1000020F7CD0BEF1030F7AD086B1099C8DE8EB
:103C20000E10CDE9040438885B46C119281D0844EC
:103C3000524600E020E099A105F0E0FD84B2281989
:103C400084B242463888C119201D08441C9905F0E9
:103C500003FECDF82890204484B238881B22C11975
:103C6000201D084497A105F0C9FD20443988084467
:103C700038808748406A80478248189942680A42DB
:103C80005FD00078199981425BD8814C206A8047C7
:103C9000A16C08A88847089800F5E1400B900BA894
:103CA000FCF740FD4269642102F26C7292FBF1F371
:103CB000DFB28DF8307092FBF1F301FB132101F0BC
:103CC000FF0C8DF831C0017C491CCDB28DF832500B
:103CD000017B8DF833108368182293FBF2FA02FB04
:103CE0001A32D2B28DF8342003798DF8353000784D
:103CF0008DF83600DDF868A0BAF1010F72D0BAF184
:103D0000020F70D0BAF1030F6ED002E01EE03BE06C
:103D100058E056B1099ECDE903068DE80E002B460A
:103D2000624639465DA005F059FD41461C9805F0F4
:103D300079FDCDF828901B2162A005F04FFD606A47
:103D400080470FB0BDE8F00F5DF814FB96B1099CF9
:103D5000CDE9033CCDE900B1CDE9050402923888F4
:103D60005346C119281D08441B2259A105F046FDE0
:103D700084B264E738881B22C119281D084460A159
:103D800005F03CFD84B25AE796B1099CCDE9033CAD
:103D9000CDE900B1CDE90504029238885346C11936
:103DA000281D08441B2259A105F028FD84B246E7CE
:103DB00038881B22C119281D084460A105F01EFD8A
:103DC00084B23CE7B6B1099CCDE9033CCDE900B132
:103DD000CDE90504029238885346C119281D0844CC
:103DE0001B2202E010E023E036E057A105F006FDBB
:103DF00084B224E738881B22C119281D08445EA11B
:103E000005F0FCFC84B21AE76EB1099ECDE90223ED
:103E1000CDE90406CDE9005163463A461B212CA0AA
:103E200005F0DCFC81E71B2135A005F0D7FC7CE721
:103E30006EB1099ECDE90223CDE90406CDE900511A
:103E400063463A461B2131A005F0C8FC6DE71B21F3
:103E50003AA005F0C3FC68E76EB1099ECDE90223E4
:103E6000CDE90406CDE9005163463A461B2136A050
:103E700005F0B4FC59E71B213FA005F0AFFC54E767
:103E800082100020E01400208310002020C80010C1
:103E9000A0160020811000200D0A00002530326499
:103EA000253032642D253032642D253032642025B2
:103EB0003032643A253032643A253032643A253063
:103EC0003364200025635B303B33376D0000000016
:103ED00025635B313B33316D2530326425303264EC
:103EE0002D253032642D2530326420253032643A5D
:103EF000253032643A253032643A2530336420006C
:103F000025635B313B33316D0000000025635B317D
:103F10003B33336D25303264253032642D25303209
:103F2000642D2530326420253032643A25303264E5
:103F30003A253032643A25303364200025635B3102
:103F40003B33336D0000000025635B313B33326D42
:103F500025303264253032642D253032642D2530F1
:103F6000326420253032643A253032643A253032CA
:103F7000643A25303364200025635B313B33326D76
:103F800000000000024801884088081A70470000BD
:103F900020C800102DE9F0414FF480641F4E3068B6
:103FA000002839D0007E042836D11D4D1D4FA04673
:103FB00030E0288869884446401AA04200DA84B27A
:103FC00044B3386A804716486988001D01440123BC
:103FD0002246306811F0B3FBA0B131681248B1F845
:103FE000662005F0FBFB306820B110F04BFA30681A
:103FF0000FF0E6FB00206880288030600B490870D5
:104000000B498860688820446880306810F03AFA6C
:10401000786A80474445CCD0BDE8F0819C100020F0
:1040200020C80010A016002068210308831000207B
:10403000E0140020F0B589B0284DA86A80472849CF
:104040000C68E96A88472748009001230022032171
:104050000220FFF75DFD24A0009001230022032130
:104060000220FFF755FD2CA0009001230022032120
:104070000220FFF74DFD25E034F8880FFCF705FB23
:104080003149FCF7C4FAFCF705FBD4E908236426A0
:10409000D7185643B6FBF7F654F8687CCDE90717F6
:1040A000069014F8510C01A94DC128A000900123DD
:1040B000002203210220FFF72BFDA86A8047246B12
:1040C000E96A8847002CD7D12B48009001230022B1
:1040D00003210220FFF71CFD09B0F0BDA01600204F
:1040E00034160020301E030820D3C5CFC8BCB6202C
:1040F000CAB9D3C3D5BB20CAA3D3E0D5BB20B0D99E
:10410000B7D6B1C820C0FBD3C3C2CA202020C8CEB6
:10411000CEF1C3FB0D0A000020205072696F2020F1
:104120002055736564202046726565202020506507
:1041300072202020204350552020202020546173DD
:104140006B6E616D650D0A000000C84220202025BD
:104150003264202025356420202535642020202548
:10416000303264252520202025352E326625252055
:10417000202025730D0A0000EC1D030810B54FF434
:104180008064204608F0E2FB2046BDE8104008F0BD
:10419000D7BB00007CB50546044C6846E16C8847F7
:1041A000216D68468847A842FAD97CBDA016002038
:1041B00010B50720FEF724FE6420FFF7EBFF072071
:1041C000FEF7F2FDBDE810406420FFF7E3BF0000FA
:1041D00070B504460D4608F01DFCD32008F0C6FB60
:1041E000204600F0C7F90446284600F0C3F9064609
:1041F000084D09E055F8240008F0CCFB18B108F090
:10420000BBFB012070BD641CB442F3D908F0B4FBC1
:10421000002070BDEC11002010B508F0FBFBBDE8DC
:104220001040D32008F0A2BB30B50023074C07E0B4
:1042300005682D6841F8235005682D1D05605B1C3D
:10424000934202D20568A542F2D930BDFBFF1F0898
:104250002DE9F04105460E461746002408F0DAFB2A
:10426000D32008F083FBDFF8488018E056F82410CC
:10427000286808F0E1FB20B108F07EFB0120BDE8D2
:10428000F081286856F824100068884203D008F0AE
:1042900073FB0220F3E72868001D2860641CBC4201
:1042A00002D228684045E1D908F066FB0020E6E725
:1042B000FBFF1F0800B587B007480390002004905B
:1042C000059001A906910190012002900348016F19
:1042D00003A8884707B000BD840E0020A016002068
:1042E00000B587B00A4A039289000491059001A89D
:1042F0000690084881680191002102910499826822
:10430000114481600448016F03A8884707B000BDCD
:10431000840E0020680E0020A01600202DE9F05F1A
:1043200006460D4691469B460024244FA24607F1BF
:104330000C08387800281ED0FF200CE0A54205D9D3
:10434000315D5A1C3A7008F8031003E0591C3970AB
:1043500008F80300641C3B78032BEFD917480121B0
:104360000C30FFF7BDFF401C17D087F800A0A54216
:1043700001D926442D1BA80805F0030393B1D945A4
:104380000FD07419E11A0D7839784A1C3A7008F880
:1043900001505B1E002BF5D104E04FF0FF30BDE86B
:1043A000F09F401C28B101463046FFF799FF401CA2
:1043B00001D00020F3E74FF0FF30F0E7680E002057
:1043C00070B50546224C2078627890423ED0A078A5
:1043D0000A230146401CB0FBF3F603FB1606964287
:1043E00001D0914216D101EBC10000EB011004EBAA
:1043F0004000C01CFBF7EAFF0246A07800EBC001BA
:1044000001EB001004EB4001C91C2846FBF792FFAA
:10441000FF2070BDB0FBF3F103FB1100A07000EBB7
:10442000C00101EB001004EB4000C01CFBF7CEFF05
:104430000246A07800EBC00101EB001004EB400144
:10444000C91C2846FBF776FF012070BD002070BD17
:10445000FE6C002070B505461F4C217860788142C3
:1044600037D0A078814216D100EBC00101EB0010DB
:1044700004EB4000C01CFBF7A9FF0246A07800EB4C
:10448000C00101EB001004EB4001C91C2846FBF7FA
:1044900051FFFF2070BDC8B1401EA070A07800EB96
:1044A000C00101EB001004EB4000C01CFBF78EFFC5
:1044B0000246A07800EBC00101EB001004EB4001C4
:1044C000C91C2846FBF736FF012070BD0920A070EB
:1044D000E4E7002070BD0000FE6C00202DE9FC47E1
:1044E00006460F46904699460024354606E02819B0
:1044F0004A464146FBF795FF30B1641CBC42F6D3F7
:104500004FF0FF30BDE8FC8705A0CDE90006012390
:10451000032219462020FFF7FBFA2046F2E70000AD
:1045200046696E645F626F756E646172792025738F
:104530000D0A00002DE9F04100244FF6FF7741F20B
:10454000210C12E000230E5D00F4004806FA03F58A
:1045500005F0800585EA182507EA40000DB180EADC
:104560000C005B1C082BEFDB641C9442EADBBDE80B
:10457000F081000010B501460020A1F100624FF467
:1045800080439A4204D345480844984201D201200E
:1045900010BD43480844984201D2022010BD414852
:1045A0000844984201D2032010BD3F484FF48034A4
:1045B0000844A04201D2042010BD3C484FF4003210
:1045C0000844904201D2052010BD39480844904269
:1045D00001D2062010BD37480844904201D207207E
:1045E00010BD35480844904201D2082010BD334820
:1045F0000844904201D2092010BD3148084490423D
:1046000001D20A2010BD2F480844904201D20B204D
:1046100010BDA1F10160984201D20C2010BD2A48C2
:104620000844984201D20D2010BD28480844984201
:1046300001D20E2010BD26480844984201D20F2016
:1046400010BD24480844A04201D2102010BD2248C9
:104650000844904201D2112010BD204808449042E5
:1046600001D2122010BD1E480844904201D21320EE
:1046700010BD1C480844904201D2142010BD1A48B5
:104680000844904201D2152010BD184808449042B9
:1046900001D2162010BD172010BD000000C0FFF78A
:1046A0000080FFF70040FFF70000FFF70000FEF773
:1046B0000000FCF70000FAF70000F8F70000F6F73A
:1046C0000000F4F70000F2F700C0EFF70080EFF70A
:1046D0000040EFF70000EFF70000EEF70000ECF706
:1046E0000000EAF70000E8F70000E6F70000E4F752
:1046F000002102781202437813431B0282781A4386
:104700001202C078104302E04008491CC9B2C20737
:10471000FAD000B121B9002070474008491CC9B245
:10472000C207FAD108B9202901D000207047012022
:10473000704700008CB000240A9400F031FB2A4D31
:1047400001210220D5F894209047E96F0AA88847F4
:1047500026484FF47A710068B0FBF1F0401EB0F1CA
:10476000807F08D24FF0E0214861214AF02010708C
:104770008C6107200861FEF789FE0BA801F0BCFAE6
:104780000327CDE906470BAE05944FF480700896D9
:10479000CDE903041921174ACDE901210920009030
:1047A0000023154A15A1184801F010FBCDE9064772
:1047B00005944FF400700896CDE903043321134AA1
:1047C000CDE901210B2000900F480023104A11A1D0
:1047D000C03001F0FBFA296E4FF4FA60884704F00C
:1047E000D1FE0EF039FAFCE7A0160020A415002037
:1047F00023ED00E0601B0020598301085359535FEB
:10480000535441544500000020280020601F002020
:10481000F95101084E45545F504552494F444943B0
:10482000000000002DE9F0410646314C0A25607871
:104830000930B0FBF5F105FB110000EBC00101EB05
:10484000001004EB4000C01CFBF7C0FD07463046DB
:10485000FBF7BCFD874214D13046FBF7B7FD02469B
:1048600060780930B0FBF5F105FB110000EBC001E9
:1048700001EB001004EB4000C01C3146FBF7BBFD10
:1048800090B36078401CB0FBF5F105FB1101207876
:10489000814210D100EBC00101EB001004EB40009D
:1048A000C01C3221FBF75FFD2078401CB0FBF5F106
:1048B00005FB110020703046FBF788FD024660784A
:1048C00000EBC00101EB001004EB4000C01C3146BE
:1048D000FBF730FD6078401CB0FBF5F105FB1100E3
:1048E0006070A070BDE8F081FFE76078A070F9E724
:1048F000FE6C00207CB50446601C4FF0FF311DD0DB
:10490000104E06EB44156868D0B10FA0CDE9000445
:104910000123022219468020FFF7FAF8A96909B19C
:1049200020468847154C3068002162689047002077
:104930006860A1683068884700207CBD08467CBD5F
:1049400008467CBD14B300205B494E544552464195
:1049500043455D2073657420696E665F666420253B
:104960007520746F2069646C652C206265636175C5
:10497000736520636C6F73650A000000A016002049
:104980002DE9FC410024184818A1CDE900100123AD
:10499000002203218020FFF7BBF81A4E06EB4415D6
:1049A0006868D0B1A96909B120468847296909B169
:1049B00020468847144F306800217A68904713A03A
:1049C000CDE900040123022219468020FFF7A0F858
:1049D00000206860B96830688847641C142CDDDBEF
:1049E0000020BDE8FC810000538D02085B494E5455
:1049F0004552464143455D20456E746572202573DE
:104A00000A00000014B30020A01600205B494E5499
:104A10004552464143455D2073657420696E665F6B
:104A2000666420257520746F2069646C652C206293
:104A3000656361757365206465696E69740A000059
:104A400010B54FF421710A48FBF78DFC094C084959
:104A500009A0226890470B48A0660B48E0660B4807
:104A600020670B4860670B48A067002010BD00005E
:104A700014B30020A0160020496E7465726661634D
:104A800065000000994A0108F5480108C94C010871
:104A9000854C0108814901082DE9F04F85B0064693
:104AA00088460024A246CDF810A0601EC8F8000079
:104AB000444845A1CDE900100123002203218020B4
:104AC000FFF726F8DFF81C91454F0021D9F80420A4
:104AD0003868904707EB4410406840B1641C142CC0
:104AE000F8DB142C08D0404DDFF800B121E007EBD3
:104AF000441101204860F4E73DA0012300901A46CC
:104B000019468020FFF704F8D9F80810386888475C
:104B10004FF0FF3005B0BDE8F08F2868316888425B
:104B200006D107EB441084606968001D884702E0E5
:104B300008355D45F1D35D4514D1306839A1CDE923
:104B4000001001231A4619468020FEF7E1FF07EB0B
:104B50004410C0F804A0D9F80810386888474FF00E
:104B6000FF30D7E707EB44156A69DAB104A970682A
:104B70009047401C1CD00498E860C8F80040C8F872
:104B80000400CDE9018435A10123009103900322A3
:104B900019468020FEF7BCFFD9F80810386888470E
:104BA0000020B7E7D9F80810386888470020B1E737
:104BB000C5F804A0D9F80810386888474FF0FF30CE
:104BC000A8E70000448D02085B494E544552464117
:104BD00043455D20456E7465722025730A00000010
:104BE00014B30020A01600205C2203089C220308B6
:104BF0005B494E544552464143455D2063616E20FA
:104C00006E6F742066696E642069646C6520696EDD
:104C100074657266616365206F707320656E74726F
:104C200079210A005B494E544552464143455D2077
:104C300063616E206E6F742066696E6420696E69B0
:104C40007420656E74727920666F7220696E746567
:104C500072666163652025640A0000005B494E545A
:104C60004552464143455D206F70656E2073756304
:104C7000636573732C2066642025705B2575202581
:104C8000705D0A0030B401684FF0FF350A68531CAC
:104C900009D00C4B03EB4212146A84B1546874B10E
:104CA0004C681CB104E0284630BC7047D2684A60AA
:104CB0000168096803EB4111096A30BC08472846BE
:104CC000F2E7000014B300207CB502684FF0FF3516
:104CD00011684B1C09D0114C04EB4113DE698EB1F5
:104CE0005E687EB1516811B103E028467CBDD96889
:104CF00051600168096804EB4111C96902B0BDE85F
:104D00007040084706A00123CDE900011A46194664
:104D10008020FEF7FDFE28467CBD000014B3002075
:104D20005B494E544552464143455D20696E665F7E
:104D30006664202575202D3E207772697465206594
:104D40007272210A0000000010B507F0F9F9BDE801
:104D500010400DF0A1B870470A460021AFF3008063
:104D600010B5002300241B020B43641C042CFAD34F
:104D700000F0030424B909E000F8011B521E641C72
:104D800022B1042CF8D301E008C0121F042AFBD280
:104D900002E000F8011B521E002AFAD110BD0000EB
:104DA00070B5054C054D03E0206800B18047241D17
:104DB000AC42F9D370BD0000A4220308D02203083E
:104DC0002DE9FE4F06460F46904699460024204D99
:104DD00005EB0410007818B1641CE4B2142CF7D36E
:104DE0001C484FF4805C4FF0FF3A142C25D0C6B11C
:104DF000DFF864A0DAF82000804705EB04150020F6
:104E00002860EE60A870E870C5F808806F60C9F887
:104E1000004001202870DAF8240080470020BDE817
:104E2000FE8FCDE901060DA1012300911A46194616
:104E30006046FEF76DFE5046F1E714A1CDE9001083
:104E400001231A4619466046FEF762FE5046E6E721
:104E5000D4B10020358D0208A01600205B535953B1
:104E60005D2025732063616E206E6F742063726510
:104E7000617465206D6F6E69746F722C206E6F2087
:104E80006E616D65202121210D0A00005B5359538D
:104E90005D2025732063616E206E6F7420637265E0
:104EA000617465206D6F6E69746F722C206E6F2057
:104EB0007370616365202121210D0A0070B50949D5
:104EC00001EB0014207801280AD1074D286A804799
:104ED000002020606060A060E0602070686A804709
:104EE000002070BDD4B10020A01600201CB54FF0EA
:104EF000FF3414280ADB0CA1CDE9001001231A4667
:104F000019461803FEF704FE20461CBD0F4B03EBA9
:104F100000100378012B01D020461CBD4160C270F7
:104F20000121817000201CBD5B5359535D20696EC7
:104F3000646578202575206F766572204E554D5F2B
:104F40004D4F4E49544F5253210D0A00D4B1002009
:104F50001CB54FF0FF3414280ADB0BA1CDE900107B
:104F600001231A4619461803FEF7D2FD20461CBD40
:104F70000E4901EB00100178012901D020461CBD2B
:104F80000021817000201CBD5B5359535D20696E68
:104F9000646578202575206F766572204E554D5FCB
:104FA0004D4F4E49544F5253210D0A00D4B10020A9
:104FB00010B54FF4A0710848FBF7D5F90848074928
:104FC00001630849C163084941630849816308498D
:104FD0000164002010BD0000D4B10020C14D0108C3
:104FE000A0160020BD4E0108ED4E0108514F0108EA
:104FF000F54F01087FB50546002400200F4E06EB53
:1050000004110A78012A13D14A688B68AA1A9A42B5
:105010000ED3C878C9680AA3CDE90031CDE90202F0
:1050200001231A4619461803FEF772FD4FF0FF30B0
:10503000641C142CE3DB04B070BD0000D4B100206C
:105040005B5359535D202573207461736B20746921
:105050006D656F757420617420737465702025759B
:105060002074696D65722025750D0A00F8B50E462D
:105070000024164D04EB840101EBC40115F8211046
:1050800019B1641CE4B2142CF4D3142C1BD004EB1F
:10509000840101EBC40705EB87031B1D01466A462B
:1050A000184600F025FABDF8000048B9684600F03F
:1050B000DBFB3460012005F82700684600F0FAFBAE
:1050C000BDF80000F8BD4FF0FF30F8BD44AA002045
:1050D00038B500EB80010C4D01EBC00415F824003D
:1050E000012801D0002038BDBDF8000040B9684655
:1050F00000F0BAFB002005F82400684600F0DAFB57
:10510000BDF8000038BD000044AA002010B54FF4DF
:1051100082610748FBF727F90748064901600749FC
:10512000C1600749416007498160002010BD00004F
:1051300044AA00206D500108A0160020D15001089B
:1051400049510108815101081CB500EB800202EBB6
:10515000C0000A4A12F82030012B02D04FF0FF3075
:105160001CBD01AB02EB800000930023001D1A461A
:1051700000F0E8F9BDF804001CBD000044AA0020BE
:1051800008B500EB800101EBC000094911F82020AF
:10519000012A02D04FF0FF3008BD01EB8000001D56
:1051A0006A46002100F086FABDF8000008BD000044
:1051B00044AA002070470000BFF34F8F04480168E5
:1051C000044A01F4E06111430160BFF34F8FFEE731
:1051D0000CED00E00400FA05BFF34F8F04480168AE
:1051E000044A01F4E06111430160BFF34F8FFEE711
:1051F0000CED00E00400FA0586B01F4C6846E16F34
:105200008847E16C02A88847206A8047FFF79CFD29
:1052100004F06CF809F07EFC606A8047E16C04A839
:1052200088470499256B01AB052214A0A847E16CBF
:1052300004A888470499636B012201989847206A63
:10524000804700F023F8606A8047216D02A88847F4
:10525000642804D8FEF796FEB0F5806F04DBE16C9D
:1052600002A88847FEF796FEA16B01988847216E39
:1052700002208847DBE70000A01600207461736BF2
:105280005F6E65745F706572696F640010B506F0DB
:1052900013FF08B10CF0FAFD02480068BDE81040A9
:1052A0000CF0C6BDB0110020704700000248006835
:1052B000002800D000477047CC15002010B50446E8
:1052C00000F09EF83C48002202703C4802703C48C6
:1052D00002703C4802603C4802603C4802703C4816
:1052E00002703C4802703C49086840B13B48006885
:1052F00028B1096801E0491E04C00029FBD13848E3
:105300000260384802603848026038480260384815
:10531000026038480260384802603848027001F084
:10532000C1FB01F0F7FB204601F0D0F820880028EF
:1053300041D1204601F024F9208800283BD12046A5
:1053400001F02AF92088002835D1204601F0D0F953
:10535000208800282FD1204601F0D0FB208800288B
:1053600029D1204601F09CFC2088002823D120462A
:1053700001F02AFF208800281DD1204601F0CCF83A
:105380002088002817D1204602F064FA20880028DF
:1053900011D1204601F00EFE208800280BD12046B6
:1053A00002F0B4FA2088002805D101F08DF8BDE89C
:1053B0001040FFF779BF10BDE0150020E815002070
:1053C0000E16002070160020741600200216002011
:1053D00003160020041600209C92020898920208EE
:1053E000C0150020C4150020C8150020CC150020D1
:1053F000D0150020D4150020D81500203A16002022
:10540000054806490068096800EB8100044920F05E
:105410000700086070470000989202089C920208FA
:105420007816002005480078012805D1044908783D
:10543000FA2801D2401C087070470000E8150020CF
:10544000E015002010B52248007801283ED1FAF777
:10545000D5FE04461F49087840B1401EC0B208700E
:1054600048B12046BDE81040FAF7CCBE2046BDE862
:105470001040FAF7C7BE1848007820B12046BDE8B2
:105480001040FAF7BFBE01F0FBFA14490870144946
:1054900000EB400051F820001249086012490968E9
:1054A000884204D12046BDE81040FAF7ABBE50F860
:1054B0008C1F491C01600D480168491C0160FCF704
:1054C000AAF92046BDE81040FAF79CBE10BD0000C6
:1054D000E8150020E01500200E160020031600201D
:1054E0002438052074160020701600203016002085
:1054F0002DE9F04104460D461646FAF77FFE0746B1
:10550000FEF72AF80D482060656000252562656277
:1055100084F82850E56204F1080001F085F920467E
:1055200001F088F806480188491C0180FEF726F83A
:105530003846FAF767FE3580BDE8F0814D5554587E
:10554000001600202DE9F04F89B00646129D8A46CC
:1055500091461C4654493068884205D045F6C450EF
:10556000288009B0BDE8F08F002704B12760FAF762
:1055700045FE8346FDF7F0FF96F82810DFF82C81F2
:10558000A9B1706AD8F8002090422ED1FF2923D00B
:10559000491C86F828100CB1F06A2060FDF7EEFF78
:1055A0005846FAF72FFE45F282702880D9E7D8F8DE
:1055B00000007062012086F828000CB1F06A2060BB
:1055C0003146D8F8000001F047F8FDF7D7FF5846FC
:1055D000FAF718FE2F80C4E7FDF7D0FF5846FAF718
:1055E00011FE45F284702880BBE75FEA094108D5C7
:1055F000FDF7C4FF5846FAF705FE46F2B0102880C2
:10560000AFE72B49097841B1FDF7B8FF5846FAF7E3
:10561000F9FD46F663502880A3E790F8373092F8FA
:1056200037108B4201D901F03DFD5346042231462B
:1056300001A801F069F8FDF7A1FF5846FAF7E2FD6D
:1056400000F0D4F8FAF7DAFD0646FDF785FFD8F842
:10565000002092F8351071B1012911D002291CD017
:10566000032914D046F62E602880FDF787FF3046C8
:10567000FAF7C8FD75E70CB1906C20602F80F4E755
:105680000CB1906C206046F2A9102880EDE704B1BF
:10569000276047F2D9202880E7E70CB1906C2060A2
:1056A00045F6C2502880E0E74D555458701600204A
:1056B0000E1600202DE9FC5F04468B46154648492E
:1056C0002068884204D045F6C4502880BDE8FC9F7D
:1056D000FAF794FD0190FDF73FFFDFF80891606A4B
:1056E000D9F80010884208D0FDF748FF0198FAF772
:1056F00089FD45F281702880E8E7FDF793FF804639
:10570000C4F82C8094F82800401EC0B284F8280009
:1057100040B1FDF733FF0198FAF774FD45F283704D
:105720002880D3E72146D9F8000000F0D5FF04F126
:1057300008074FF0000A3889E8B3D9F8000090F85C
:10574000371090F8382091421DD000F0B4FFD9F8FE
:10575000001091F83820824200D21046064691F897
:105760003700B0420FD2084601F038FAD9F80000ED
:1057700080F83760304601F0A1F9D9F8000001F057
:1057800011FA19480670386886686662012084F844
:1057900028002146304600F05FFF00231A463146BC
:1057A0002046CDF8008001F0FEF8FDF7E7FE0198F5
:1057B000FAF728FD00E007E05FEA0B4001D400F0B3
:1057C00015F8A5F800A081E7C4F824A084F828A063
:1057D000FDF7D4FE0198FAF715FDA5F800A075E7CE
:1057E0004D555458701600200216002010B5174869
:1057F0000078002829D116480078002825D1FAF72A
:10580000FDFC044601F03CF912490870124900EB16
:10581000400051F820001149086011490968884288
:1058200004D12046BDE81040FAF7ECBC50F88C1FBC
:10583000491C01600B480168491C0160FBF7E6FF49
:105840002046FAF7DFFCBFF36F8F10BDE015002094
:105850000E160020031600202438052074160020A0
:10586000701600203016002070B504460F480078EE
:10587000012803D045F68960208070BD0C4D287842
:10588000FA2803D345F20920208070BDFAF7B6FC50
:105890000646FDF761FE2878401C2870FDF76EFE75
:1058A0003046FAF7AFFC0020208070BDE8150020DC
:1058B0000E16002070B5044615480078012803D064
:1058C00045F68960208070BD124D287890B1FAF7B6
:1058D00095FC0646FDF740FE2878401EC0B22870B1
:1058E00060B1FDF74BFE3046FAF78CFC46F663508C
:1058F000208070BD46F66450208070BDFDF73EFEEE
:105900003046FAF77FFCFFF771FF0020208070BD62
:10591000E81500200E1600202DE9F04104468846C7
:1059200015461E46FAF76AFC0746FDF715FE0D48B8
:105930002060256200256562C4F8048004F1080037
:1059400000F072FF204601F083F907480188491CE6
:105950000180FDF713FE3846FAF754FC3580BDE8A8
:10596000F081000053454D41141600202DE9F84FF9
:1059700007468B46154634493868884205D045F6B7
:10598000C45028800020BDE8F88FFAF737FC00905B
:10599000FDF7E2FD07F108063489A046DFF8AC9078
:1059A0004FF0000ABBF1000F0CD0BBF1010F28D063
:1059B000FDF7E4FD0098FAF725FC45F62560288000
:1059C0004046E0E7B8F1000F08D0FDF7D7FD00989A
:1059D000FAF718FC47F25F102880F1E7384601F02B
:1059E00049F9B9F80000401EA9F80000384601F056
:1059F0001FF9FDF7C3FD0098FAF704FCA5F800A015
:105A0000DEE7FDF70FFE834607E0306881685A46FF
:105A1000384600F06CFF641EA4B2002CF5D1384665
:105A200001F028F9B9F80000401EA9F80000384636
:105A300001F0FEF8FDF7A2FD0098FAF7E3FBFFF78F
:105A4000D5FEA5F800A0BBE753454D411416002034
:105A50002DE9F04F89B00646129D8A4691461C46B4
:105A600044493068884206D045F6C450288000205A
:105A700009B0BDE8F08F4FF000080CB1C4F8008009
:105A8000FAF7BCFB8346FDF767FD376A77B17F1EE7
:105A900037620CB1706A2060346AFDF76FFD5846BA
:105AA000FAF7B0FBA5F800802046E1E75FEA09407D
:105AB00009D5FDF763FD5846FAF7A4FB46F2B0108E
:105AC00028803846D4E72C48007848B1FDF756FDC9
:105AD0005846FAF797FB46F6635028800020C7E740
