:020000040801F1
:10000000F85B0420C1010108A1580108CB010108D7
:1000100043540108413B0108E1A001080000000031
:10002000000000000000000000000000E3010108E3
:10003000E5010108000000002118010809870108F6
:10004000EB010108EB010108EB010108FD83010848
:10005000EB010108EB010108EB010108EB010108CC
:10006000EB010108EB010108EB010108D53F010894
:10007000FD3F0108254001084D4001087540010879
:100080009D400108C5400108EB010108EB01010892
:1000900099040020D9040020EB010108EB010108BC
:1000A000EB010108EB010108EB010108EB0101087C
:1000B000EB010108EB010108EB010108EB0101086C
:1000C000EB010108EB010108EB010108EB0101085C
:1000D000EB010108399E0108659E0108919E010807
:1000E0007D480108EB010108EB010108EB01010863
:1000F000EB010108EB010108EB010108EB0101082C
:10010000EB010108EB010108EB010108EB0101081B
:10011000AD9D0108EB010108EB010108EB010108AD
:10012000EB010108ED40010815410108EB01010850
:10013000EB010108EB010108EB010108EB010108EB
:10014000EB010108EB010108EB010108EB010108DB
:10015000EB0101083D41010865410108BD9E010810
:10016000EB010108EB010108EB010108EB010108BB
:10017000EB010108EB010108EB01010800000000A0
:10018000EB010108EB010108D99D0108059E01085A
:10019000EB010108EB010108EB0101080000000080
:1001A000EB010108EB010108EB010108DFF80CD0BD
:1001B00001F026F80048004709310208F85B0420E6
:1001C0000A4880470A480047FEE71EF0040F0CBFAC
:1001D000EFF30880EFF309800DF0CABAFEE7FEE7FF
:1001E000FEE7FEE7FEE7FEE7FEE7FEE71D8C0108FF
:1001F000AD01010872B6704762B67047EFF3108028
:1002000072B6704780F31088704730BF704720BFC8
:100210007047B0FA80F0704790FAA0F0B0FA80F022
:10022000704790FAA0F070472DE9F05F0546002076
:1002300092469B4688460646814640241BE0284657
:1002400041464746224600F05DFA53465A46C01AD8
:10025000914110D311461846224600F044FA2D1A57
:1002600067EB01084F4622460120002100F03BFACF
:1002700017EB00094E41201EA4F10104DFDC4846C3
:1002800031462A464346BDE8F09F000038B5D0E924
:100290000221491E01EB410102EBC1014268C1EBA1
:1002A000011102EB81010268C1EB011102EB810235
:1002B000D0E9043101EB410103EB81013023A1F5C9
:1002C000527191FBF3F4174D6C4302EBC41291FB96
:1002D000F3F403FB141100921A2902DB124B1A44A7
:1002E00000920C2291FBF2F3104C6343009C04EB50
:1002F000C313009391FBF2F302FB13110C4A08E0C5
:10030000491E40F2A324535C6343009C04EBC313D7
:1003100000930029F4DC0146684600F009FA0098D1
:1003200038BD00003F0C0F008051010067C2030080
:1003300054A4020840EA01039B0703D009E008C95E
:10034000121F08C0042AFAD203E011F8013B00F89A
:10035000013B521EF9D27047D2B201E000F8012BE6
:10036000491EFBD270470022F6E710B513460A4635
:1003700004461946FFF7F0FF204610BD421E12F852
:10038000013F002BFBD111F8013B02F8013B002B90
:10039000F9D1704730B505462A460B4612F8010BD5
:1003A00013F8014B08B1A042F8D01CB1002802D0CC
:1003B0006D1CF1E7284630BDCAB2401E10F8011F7F
:1003C0008A4202D00029F9D100207047421C10F85F
:1003D000011B0029FBD1801A704710B5002200E0F4
:1003E000521C835C8C5CA34201D1002BF8D1D8B2A3
:1003F000E1B2401A10BD30B504460020034600E0CB
:100400005B1C934203D2E05CCD5C401BF8D030BD56
:10041000034611F8012B00F8012B002AF9D11846E8
:10042000704730B505460020034600E05B1C934250
:1004300005D2EC5CC85C201A01D1002CF6D130BD8D
:1004400000B58DB0099000920B904FF0FF300A90EC
:1004500000200C9004480690044807906A4609A8BA
:1004600000F078FC0DB000BD710D01088F0D010882
:100470000FB400B58DB010A909900B9000914FF00A
:10048000FF300A9000200C90054806900548079020
:100490006A4609A80F9900F05DFC0DB05DF814FBE9
:1004A000710D01088F0D01082DE9FF5F1D464FF00A
:1004B000FF3BD5E9014691465F464FF00008A96928
:1004C0007F1C01988847296A824688470028F6D110
:1004D000BAF1FF3F0CD024F4C064002E19DD600691
:1004E00014D5BAF12B0F09D0BAF12D0F0ED103E0BC
:1004F000584604B0BDE8F09F44F48064A9697F1CAD
:1005000001988847761E8246002E02DDBAF1300F30
:1005100003D0B9F1000F26D032E0A969761E44F469
:1005200000747F1C019888478246002E05DDBAF1D1
:10053000780F06D0BAF1580F03D0B9F1000F10D0E0
:100540001EE0B9F1000F02D0B9F1100F18D1A9695E
:10055000761E24F400747F1C019888478246102080
:1005600002E0082000E00A20814609E008FB0908B3
:10057000A969761E44F400747F1C0198884782465E
:10058000002E05DD4946504600F018F90028EDDA46
:10059000E96901988847A00502D46FF00100A8E737
:1005A000E00725D1600613D5600502D5C8F100002B
:1005B00000E0404629680A1D2A600968220501D525
:1005C000087015E0220701D5088011E008600FE0EF
:1005D0002868011D29600068210502D580F8008087
:1005E00006E0210702D5A0F8008001E0C0F80080F5
:1005F00038467EE770B5064609F0D4FD0468054626
:100600000A220021304600F0D3FB2C6070BD30B4CC
:1006100080EA010202F0004530F0004221F0004083
:1006200013D090B1C30DD40DC2F31601C0F3160060
:10063000E41A41F4000140F400027D34914201D3F8
:10064000641C00E04900002C02DA30BC0020704736
:100650004FF400000023914201D3891A034340085C
:100660004FEA4101F7D151B1914202D14FF000411F
:1006700005E002D24FF0010101E06FF0010103EB50
:10068000C450284430BC00F0CBBB96230022114656
:1006900000F0CFBB00F0004230F000400AD0C10DA6
:1006A00001F56071C0F3160042EA0151C20840072B
:1006B0001143704700200146704730B50B46014694
:1006C00000202022012409E021FA02F59D4205D3F1
:1006D00003FA02F5491B04FA02F52844151EA2F19B
:1006E0000102F1DC30BD202A04DB203A00FA02F1DD
:1006F000002070479140C2F1200320FA03F3194310
:1007000090407047202A04DB203A21FA02F00021B1
:10071000704721FA02F3D040C2F120029140084311
:1007200019467047014900F003B80000C84F042083
:1007300010B500683C22B0FBF2F302FB1303B0FBE0
:10074000F2F00B60B0FBF2F302FB1303B0FBF2F02C
:1007500018224B60B0FBF2F302FB1303B0FBF2F084
:10076000021D8B600723B2FBF3F403FB142280000D
:1007700040F2B55300F66C308A61B0FBF3F2B0FB87
:10078000F3F403FB1400443280084A61C8613B283B
:1007900002D3920700D0401C0022074C13460A6186
:1007A000E25C824203D8801A5B1C0B61F8E7401CB4
:1007B000C860084610BD000060A402083A2800D2B4
:1007C000303820F02002412A01D3A2F137008842BC
:1007D00001D34FF0FF3070472DE9FF4F1C4681B029
:1007E0000021D4E9016791464FF0FF358A468846DB
:1007F000A1696D1C02988847216A834688470028B2
:10080000F6D1BBF1FF3F0CD026F4C066002F1ADDF5
:10081000700615D5BBF12B0F0AD0BBF12D0F0FD1F0
:1008200004E04FF0FF3005B0BDE8F08F46F480667D
:10083000A1696D1C029888477F1E8346002F02DD48
:10084000BBF1300F03D0B9F1000F2AD025E0A16928
:100850006D1C46F400767F1E029888478346002F61
:1008600005DDBBF1780F06D0BBF1580F03D0B9F10D
:10087000000F10D011E0B9F1000F02D0B9F1100F44
:100880000BD1A1696D1C26F400767F1E0298884763
:100890008346102000E0082081464FEAE97000906E
:1008A00017E00A20F8E74346AAFB092803FB098062
:1008B000DDF800C07F1E0AFB0C0112EB0B0A41EBB6
:1008C000EB78A16946F4007605F1010502988847A6
:1008D0008346002F06DD49465846FFF76FFF5FEA63
:1008E000000BE0D5E16902988847B00502D46FF0AB
:1008F000010098E7F00718D1700610D57005514631
:1009000005D50023D1EB030163EB080200E042466A
:100910002068031D23600068C0E9001205E020681C
:10092000011D21600068C0E900A828467BE72DE989
:10093000FF5FD2E901A74FF000089169994614467C
:10094000DDF838B0464601988847054659EA0B005D
:1009500005D009E0A169761C019888470546216AFF
:10096000284688470028F5D1681C03D05FEACA7082
:1009700005D015E04FF0FF3004B0BDE8F09F2068CF
:10098000011D2160D0F800800AE05FEACA7001D141
:1009900008F8015BA169761C7F1E0198884705460F
:1009A000002F1ADD681C18D0B9F1000F0DD0E81720
:1009B00005EBD060421120F01F0059F822102A1ACE
:1009C000012090400142E0D107E0BBF1000FDCD1F3
:1009D000216A284688470028D7D0E16901988847CE
:1009E000BBF1000F07D1002E05DD5FEACA7002D10E
:1009F000002188F80010A068B84203DDBBF1000FA9
:100A000003D017B16FF00100B6E73046B4E700003D
:100A10002DE9FF4F087881B09946FF2805D0491C81
:100A20002D2804D00024002308E000230BE001243B
:100A3000F9E703EB830300EB4303491C0878FF2825
:100A4000F7D104B15B4200200090147801462D2CB0
:100A500001D02B2C04D1521C2D2C12D00024009438
:100A600000251678FF2E0ED00A24A0FB04C801FB37
:100A70000481002700FB0711521C16EB0C00694192
:100A8000EFE70124EBE7994450EA01020ED000247D
:100A9000AA4D2646DFF8A88200F026FE82468B4645
:100AA000B9F1000009DAC9F100071BE00198002143
:100AB000C0E9001105B0BDE8F08F074612E0F80765
:100AC00007D022462B463046414600F087FA0646BC
:100AD000884622462B461046194600F07FFA044607
:100AE0000D467F10002FEAD1B9F1000F3246434680
:100AF0005046594602DA00F0E3FA01E000F06EFADF
:100B0000009A0AB181F00041019AC2E90001D1E7DF
:100B10002DE9FF4F1F468DB0D7E901464FF0FF3852
:100B20002E2045464FF000090B90B9696D1C0E98B8
:100B30008847396A824688470028F6D1BAF1FF3FD4
:100B40000AD024F4D064002E11DDBAF12B0F08D0A6
:100B5000BAF12D0F0BD102E0404611B0ABE744F4DF
:100B60008064B9696D1C0E9888478246761E694676
:100B7000600501D52D2000E02B208DF8000001F14B
:100B8000010B0DF1200809E0B9696D1C0E9888472A
:100B900082460F9844F40074761E0560002E02DD34
:100BA000BAF1300FF0D00B998A453ED144F0800461
:100BB00006E00F99681CA9F1010944F4007408606B
:100BC000B9696D1C761E0E98884782463028F0D091
:100BD0002BE00B998A4505D1200603D444F080040C
:100BE000761E18E0504609F0A3FB08B30DF113017F
:100BF000761E44F400748B4508D2AAF130000BF83D
:100C0000010B200607D5A9F1010003E0200602D45C
:100C100009F101008146A00502D50F99681C086002
:100C2000B9696D1C0E9888478246002ED1DC53E0CE
:100C3000002E51DDBAF1650F02D0BAF1450F4BD14C
:100C4000A00549D5B9696D1C24F44074761E0E9830
:100C500088478246002E0CDD2B2804D0BAF12D0FD8
:100C600007D144F48074B9696D1C0E988847824698
:100C7000761EE00501D52D2100E02B2108F8011B8F
:100C8000CDF82C8021E00DF12901761E44F400748A
:100C900088450CD2AAF1300010F0FF0088F800005F
:100CA00002D10B99884509D908F1010806E0E00551
:100CB00001D5244801E042F20F708146B9696D1CEC
:100CC0000E98884782460F980560002E04DD504636
:100CD00009F02EFB0028D6D1F9690E988847FF202D
:100CE0008BF8000088F800000020069007904B4623
:100CF0006A4608A906A8FFF78BFEA00502D46FF08C
:100D000001002AE714F0240F0AD0E00714D1DDE92E
:100D100006123868031D3B600068C0E900120BE052
:100D2000DDE9060100F0ECFC0146E00704D138687B
:100D3000021D3A600068016028460EE7000024406A
:100D40000000F03FF1D8FFFF026811441378016002
:100D500018467047D160044951610449116200216D
:100D60001161114600F07EBA490D010851120108C7
:100D7000426842B1016811F8013B23B1521EC0E93B
:100D80000012184670470121C160881E70474268F2
:100D90005AB1C368016843B983688B4205D0491EC4
:100DA000521CC0E90012002070474FF0FF3070471E
:100DB0002DE9F04791460F4680460446002614F878
:100DC000015B2DB100F040FA0068405DC007F6D12C
:100DD0002B2D02D02D2D18D0641E4A4639462046B0
:100DE00000F0D6FB27B13968A14201D1C7F80080D5
:100DF00071054FF002040BD54042002803DD09F0D5
:100E0000D1F90460A007BDE8F08746F48066E4E706
:100E10000028F8DA09F0C6F904606FF00040F2E744
:100E20000029A8BF7047401C490008BF20F00100FE
:100E3000704710B4B0FA80FC00FA0CF050EA0104DC
:100E400004BF10BC704749B1CCF1200421FA04F46E
:100E500011FA0CF118BF012121430843A3EB0C0147
:100E6000CB1D4FEA00614FEA102042BF002010BCAA
:100E7000704700EBC35010440029A4BF10BC70475A
:100E8000401C490008BF20F0010010BC70472DE94C
:100E9000FE4F804681EA0300C00F0C46009021F00F
:100EA000004123F00045B8EB0200A94105D24046BD
:100EB000214690461C460B46024623F00040104354
:100EC00047D0270DC7F30A00C3F30A510290401A16
:100ED000019040286BDAC3F3130040F4801B0098A4
:100EE000924620B10023D2EB030A63EB0B0B01986F
:100EF0005946C0F140025046FFF7F5FB06460D4645
:100F000050465946019A00F08DF910EB08006141F6
:100F1000002487EA115284EAE7731A4340D0009A0A
:100F200062B3019A012A4FEA075215DC001B61EBFC
:100F300002014FF0004202EA0752CDE90042001CD4
:100F400041F5801132462B4600F080FB03B0BDE82E
:100F5000F08F40462146F9E7001B61EB0201001CBF
:100F600041F5801300185B412018A2F5001747EBEC
:100F7000030140EAD570B6196D4111E06D084FEAE2
:100F8000360645EAC0754FEA0752001B61EB0201C5
:100F9000001C41F5801149084FEA30000019514109
:100FA00032462B4603B0BDE8F04F00F040BB00983E
:100FB000012240000023D0EB020263EBE0730098B3
:100FC00021464FEAE074B8EB000061EB0401E9E769
:100FD00083F000435BE781F0004158E72DE9FE4FC5
:100FE00081EA030404F0004421F0004100944FF032
:100FF000000B23F0004350EA01045ED052EA0304E0
:101000005BD0C3F30A54C1F30A552C44A4F2F33461
:101010000194A0FB0254C1F3130141F48011C3F306
:10102000130343F4801301FB024400FB034E840AC4
:10103000970A44EA815447EA8357A4FB076802955C
:101040008D0A05FB07854FEA932C04FB0C542705FA
:10105000029D4FEA065847EA1637B5EB08056EEBD6
:10106000070C870E920E47EA811742EA8312A7FB0C
:101070000201B6EB0B0164EB00042B0D43EA0C33C9
:101080005E1844EB1C50DA465146E7FB0201C5F3FB
:1010900013044FEA0B3343EA14534FEA0432019C22
:1010A00043EA0603A4F10C040294009CCDE900B4C9
:1010B00000F0CCFA03B0BDE8F08F00200146F9E75C
:1010C0002DE9F04D81EA030404F0004B21F00045C6
:1010D00014464FF0000A23F0004150EA050220D0E8
:1010E00054EA01021DD0C5F30A570246C5F31303A3
:1010F000C1F31300C1F30A5640F4801543F4801382
:10110000A7EB0608101BD64608F2FD3873EB050066
:1011100002D308F1010801E092185B41B8F1000F19
:1011200003DA00200146BDE8F08D00204FF4801165
:10113000064684460EE0171B73EB050705D3121B0A
:1011400063EB050306434CEA010C49084FEA300003
:1011500092185B4150EA0107EDD152EA030012D028
:1011600082EA040083EA0501084305D0101BAB4165
:1011700006D20122002306E000224FF0004302E0E5
:101180006FF0010253101AEB06004CEB085110EB04
:101190000A0041EB0B01BDE8F04D00F048BAC1F385
:1011A0000A52C1F3130140F2FF3341F480119A4215
:1011B00002DA00200146704740F233439A42A2F21D
:1011C000334202DC5242FFF79DBAFFF78CBA0000AF
:1011D00030B5041E71F1000404DB4FF000444042BE
:1011E00064EB0101141E73F1000405DB1C464FF093
:1011F0000043524263EB0403994208BF904230BD62
:10120000064C074D06E0E06840F0010394E8070053
:1012100098471034AC42F6D3FEF7CCFF6433030892
:1012200094330308202A06DBCB17203A41FA02F058
:1012300043EAE07306E041FA02F3D040C2F1200233
:10124000914008431946704700487047F0A40208CF
:1012500010B50446FFF7F8FF0068005D00F00100DC
:1012600010BD00002DE9F34F8BB04FF0000801F1E5
:101270000C000C464FF0010B46460DF1080A019098
:101280006269012101989047051E2DD0252D2CD093
:10129000216A8847C0B16269012101989047216A9B
:1012A00088470028F7D1411E62690198904700E005
:1012B000761CA1690B988847216A88470028F7D1D6
:1012C000E1690B988847DBE7A1690B9888470746D7
:1012D000A84201D1761CD3E7E1690B9888477F1CAF
:1012E00002D1B8F1000F6FD046E1002762693D4698
:1012F0003946019890472A2804D162690121019852
:1013000090470125DFF88492626901210198904796
:10131000A0F130010A290AD24F45E5DC07EB87012D
:1013200000EB4107303FDFD445F01005ECE7E9065C
:1013300001D46FF000476C280AD04C2814D06828DC
:1013400015D06A280DD074281CD07A281AD01DE038
:1013500062690121019890476C2802D045F004058C
:1013600014E045F002050DE045F020050AE0626951
:10137000012101989047682802D045F0080505E052
:1013800045F400656269012101989047C4E901575D
:1013900065283DD019DC58287AD00CDC452837D098
:1013A00004DC252826D0412831D131E046282FD031
:1013B00047282CD12CE05B2877D0612828D06328DF
:1013C0007CD0642823D15AE0D0E06F2848D008DCD4
:1013D00066281DD067281BD0692821D06E2816D119
:1013E00027E0702845D0732868D0752847D0782822
:1013F0000DD14DE0A1690B988847054625283FF49B
:1014000069AFE1690B9888476D1C3FF46AAFB3E0A0
:1014100023466A466FF001000B99FFF779FB9EE0C7
:1014200045F040006060A80723464FF0000236D424
:101430003EE0E8077FF447AF2068011D21600068A7
:10144000290501D506701BE7290701D5068017E796
:10145000A90703D5F117C0E9006111E706600FE79E
:1014600045F040006060A80723464FF0080216D4FC
:101470001EE040F60E0125EA0100606016E045F02E
:1014800040006060A80723464FF00A0207D40FE02F
:1014900045F040006060A80708D5234610226FF091
:1014A00001000B99FFF798F959E007E02346102255
:1014B0006FF001000B99FEF7F7FF50E04FF00009C5
:1014C0004F464B46632802D05B2806D040E0E80632
:1014D00001D40120A06001273AE06269012101984E
:1014E00090475E2805D14FF001096269494601988D
:1014F0009047216939B900210A46534643F8212013
:10150000491C0829FADBB0B3216969B9C11700EB9E
:10151000D16253110AEB830122F01F02821A0120CB
:101520000B68904003430B6062690121019890476A
:101530005D28E8D1B9F1000F09D00020514651F8DB
:101540002020D24341F82020401C0828F7DB02ABC2
:10155000224600976FF001000B99FFF7E8F9002889
:101560000CDA401C08D1BBF1000F05D04FF0FF3062
:101570000DB0BDE8F08FFFE74046F9E7E90701D17C
:1015800008F1010806444FF0000B79E6CCCCCC0CF6
:101590002DE9F05F82460078002715468B460AF158
:1015A0000104B946302801D09DB113E014F8010BB5
:1015B0000127782803D0582801D045B10AE00DB1A1
:1015C000102D07D10027102514F8010B02E0082583
:1015D00000E00A250026B0460EE005FB080005FBEA
:1015E00006F1012701EB10461FFA80F8B6F5803F9F
:1015F00000D3B94614F8010B2946FFF7DFF800289D
:10160000EBDABBF1000F05D00FB1641E00E05446C9
:10161000CBF80040B9F1000F06D008F0C3FD02215D
:101620000160C81EBDE8F09F48EA0640FAE710B521
:10163000141E73F1000408DA401C41F100019218F5
:101640005B411A4301D120F0010010BD2DE9F04D9E
:1016500092469B4611B1B1FA81F202E0B0FA80F2F3
:1016600020329046FFF73FF804460F4640EA0A0052
:1016700041EA0B0153465A46084313D0114653EA38
:10168000010019D0C8F140025046FFF73BF805466B
:101690000E46504659464246FFF725F8084305D006
:1016A000012004E020463946BDE8F08D00200543C6
:1016B00046EAE0762C4337430A986305E40AA0EB38
:1016C00008000022FD0A44EA47540A3002D50020EF
:1016D0000146E9E7010510196941DDE908450019EE
:1016E0006941BDE8F04DA2E70EB540F233420292E7
:1016F0000022CDE900221346FFF7A8FF03B000BD8A
:1017000001F0004330B421F0004150EA010206D05C
:101710000A0DA2F56072C1F31301002A02DC30BC8D
:1017200000207047440F44EAC104C100E01830BCF7
:1017300000EBC250FFF774BB70B58C1810F8015B5A
:1017400015F0070301D110F8013B2A1106D110F85A
:10175000012B03E010F8016B01F8016B5B1EF9D15E
:101760002B0705D40023521E0DD401F8013BFAE7E4
:1017700010F8013BCB1A921C03E013F8015B01F84F
:10178000015B521EF9D5A142D8D3002070BD0000E4
:1017900072B64EF62250CEF2000040F2FF01C0F2C7
:1017A000000101704FF0000080F3098805F02AF96C
:1017B00041F2A460C2F20000016881F3088841F29E
:1017C0002E60C2F2000041F22F61C2F200010A78DD
:1017D000027041F29C65C2F2000541F2A061C2F2C2
:1017E00000010A682A60106880F30988EFF314800A
:1017F00040F0020080F31488BFF36F8FBDE8F00F54
:101800000FBCBDE8005006BC62B6084718484FF050
:1018100080510160704716484FF080510160704759
:1018200072B6EFF3098020E9F00F41F29C65C2F235
:1018300000052E683060744605F0E4F841F22E6031
:10184000C2F2000041F22F61C2F200010A78027078
:1018500041F2A061C2F200010A682A6044F0F40E6D
:101860001068B0E8F00F80F3098862B67047000096
:1018700004ED00E040F2413CC2F2000C604740F24F
:10188000852CC2F2000C604700EB810082600020D2
:101890007047000070B50546094E084C002172687B
:1018A000A068904724212846FEF75DFDE068401EB1
:1018B000E060B168A0688847002070BDD87B002038
:1018C000CC16002080780009704700002DE9F8430D
:1018D00080460D460024384F364E00217A68B068A5
:1018E000904704EBC40006EB800090F8F80110B3B9
:1018F000641C042CF5DB4FF4005C4FF0FF39042C22
:1019000027D06868012831D000282FD02BA00123D0
:1019100000901A461946604602F040FC04EBC401F0
:1019200006EB8101002081F8F801B968B0688847AA
:101930004846BDE8F88304EBC40006EB800081460E
:1019400000F5FC702421FEF70EFD012089F8F80156
:10195000D1E724A0012300901A461946604602F000
:101960001DFCB968B06888474846E2E704EBC4004C
:1019700006EB800404F2F914607820F0F000803067
:10198000607028782070286800F0BEFA0146A078C0
:1019900061F3C710A070297961F38610A070641EEE
:1019A000C8F80040F068401CF060B968B06888472B
:1019B0000020BEE7D87B0020CC1600205B41706978
:1019C000204770696F5D204770692043746C20491F
:1019D0006E6974205661756C65204572726F722154
:1019E0000A0000005B417069204770696F5D204705
:1019F00070692043746C20496E6974204572726F5F
:101A0000722C204E6F205370616365210A00000024
:101A1000F8B50446607800F077FAC1B2E078420782
:101A200002D06268521C6260B1EBD01F10D04FF040
:101A3000005202EBB0104FEAB060C0F3C202E07097
:101A4000032A08D361F3C71020F03800E07002E0E9
:101A500020F03800E070E078002600F007014FF435
:101A60000055062924D2DFE801F0032A62C523EAE3
:101A7000C0F38011B1EBD01F1BD185A002220090D2
:101A800001231146284602F089FBA07820F0F000DF
:101A9000A070A16809B1204688476660A07820F050
:101AA0000F00401CA070E07820F00700401CE070A0
:101AB000F8BDA07820F0F0008030A070F8BDC0F331
:101AC0008011B1EBD01F17D07BA002220090012320
:101AD0001146284602F062FBA07820F0F00010309A
:101AE000A070E16809B1204688476660E07820F080
:101AF0000700801CE070F8BD6068B0F5167FFAD969
:101B000077A00222009001231146284602F046FBEE
:101B1000A07820F0F0005030A070E16909B12046B3
:101B20008847E07820F00700401DE070F8BDC0F362
:101B30008011B1EBD01F2AD155A0022200900123C1
:101B40001146284602F02AFBA07820F0F000A07091
:101B5000A16809B1204688476DA0022200900123A8
:101B60001146284602F01AFBA0784FF0805101EB95
:101B700030104FEA3070A070216909B120468847C3
:101B80006660E07820F00700C01CE070F8BD606877
:101B90003C28FBD9A07800F00F00012802D00228D1
:101BA00012D022E065A002220090012311462846AF
:101BB00002F0F4FAA07820F0F0003030A0706169F3
:101BC00099B12046884710E067A0022200900123C7
:101BD0001146284602F0E2FAA07820F0F0004030EA
:101BE000A070A16909B120468847E07820F007007D
:101BF000E070F8BDC0F38011B1EBD01FF9D02EA07A
:101C00000222009001231146284602F0C7FAA0786C
:101C100020F0F0001030A070E16809B1204688473C
:101C200060683C2806D26660E07820F00700801CDF
:101C3000E070F8BDE07820F00700E070F8BDC0F378
:101C40008011B1EBD01F0CD1A07820F0F0006030F3
:101C5000A070216A0029F1D001B02046BDE8F04013
:101C6000084715A00222009001231146284602F0E1
:101C700095FAA07820F0F0001030A070E16809B16A
:101C800020468847E07820F00700E070F8BD0000AB
:101C90005B417069204770696F5D20477069204221
:101CA000746E204576656E74205B50524553535FC9
:101CB000444F574E5D210A005B41706920477069AF
:101CC0006F5D204770692042746E204576656E74A2
:101CD000205B50524553535F55505D210A00000070
:101CE0005B417069204770696F5D204770692042D1
:101CF000746E204576656E74205B4C4F4E475F5086
:101D0000524553535F53544152545D210A00000021
:101D10005B417069204770696F5D204770692042A0
:101D2000746E204576656E74205B50524553535F48
:101D30005245504541545D210A0000005B417069E5
:101D4000204770696F5D204770692042746E20459E
:101D500076656E74205B53494E474C455F434C4952
:101D6000434B5D210A0000005B41706920477069A8
:101D70006F5D204770692042746E204576656E74F1
:101D8000205B444F55424C455F434C49434B5D21DA
:101D90000A00000070B50024154D1648296D06464E
:101DA0008847052821D3E96C30468847114D103DFE
:101DB00004EBC40005EB800090F8F811012903D171
:101DC00000F5FC70FFF724FE641C042CF0DB0024FB
:101DD00004EB440005EBC000017E012902D118305C
:101DE00000F066FA641C142CF2DB002070BD0000C9
:101DF000CC160020E87B00207FB5244824A1CDE943
:101E0000001001235D0300220321284602F0C6F9D9
:101E10004FF422712448FEF7A6FA244C2248E16CC4
:101E20001030884707200290A26E1F4902A89047F1
:101E3000401C1FD03C341C4954F83C2C08311CA0D9
:101E400090471E4860651E48A0651E48E0651E4814
:101E500020661E48A0661E4860661E48E0661E4852
:101E600020671E4860671E48A0671E48E067002084
:101E700004B070BD1CA0012300901A4619462846E4
:101E800002F08CF94FF0FF30F2E700005C9E020890
:101E90005B417069204770696F5D20456E746572A3
:101EA0002025730A00000000D87B0020CC160020FB
:101EB0006170695F6C6F636B00000000091F0108AF
:101EC000BD1F0108611F010899210108692101084E
:101ED00019200108CD180108951801088918010872
:101EE000C5180108951D01085B417069204770699C
:101EF0006F5D204770696F204F70656E206572724C
:101F00006F72210A000000001FB50B490191029079
:101F10000A48416F01A88847401C02D0039804B0CA
:101F200010BD012306A000901A461946580302F07E
:101F300035F94FF0FF30F2E7D87B0020CC160020B7
:101F40005B417069204770696F5D204770696F2041
:101F50004F70656E206572726F72210A000000007A
:101F60001FB50C4901910290022003900A48016FAD
:101F700001A88847401C02D0002004B010BD0123F6
:101F800006A000901A461946580302F007F94FF0D0
:101F9000FF30F2E7D87B0020CC1600205B4170694F
:101FA000204770696F5D204770696F204F70656EC4
:101FB000206572726F72210A000000001FB50C4A82
:101FC0000192029003910B48016F01A88847401CC1
:101FD00002D0002004B010BD012307A000901A46D3
:101FE0001946580302F0DAF84FF0FF30F2E700002C
:101FF000D87B0020CC1600205B41706920477069B7
:102000006F5D204770696F204F70656E206572723A
:102010006F72210A00000000F8B5044608684FF00E
:10202000FF35032801D14A689AB100224FF40056C7
:1020300088B1012829D0022841D0032845D038A0F2
:10204000012300901A461946304602F0A7F80020F6
:10205000F8BD2846F8BDA2706260E07801280AD079
:1020600070B137A0012300901A461946304602F09D
:1020700095F82846F8BD60780021FFF79FFFE6E756
:1020800060780121FFF79AFFE1E7A2706260E078D3
:1020900001280AD070B12AA0012300901A461946DF
:1020A000304602F07BF82846F8BD60780121FFF742
:1020B00085FFCCE760780021FFF780FFC7E7A270BB
:1020C00062606078FFF74CFFC1E70120A0704868AC
:1020D00060608868A060C868E0602248C16C04F154
:1020E000100088476068002801DD401E6060E078CD
:1020F00001280AD070B112A0012300901A46194697
:10210000304602F04BF82846F8BD60780021FFF712
:1021100055FF9CE760780121FFF750FF97E700002B
:102120005B417069204770696F5D20556E6B6E6F03
:10213000776E204374726C20436F6465210A00003F
:102140005B417069204770696F5D2047706F204365
:10215000746C205661756C65204572726F72210A2D
:1021600000000000CC16002070B50546094E084C52
:1021700000217268A068904718212846FEF7F3F8FE
:10218000E068401EE060B168A0688847002070BD2C
:10219000D87B0020CC1600202DE9F84380460D4660
:1021A00000242D4F2B4E00217A68B068904704EB35
:1021B000440006EBC000007E08B3641C142CF6DB60
:1021C0004FF4005C4FF0FF39142C1FD068680128D1
:1021D00029D0002827D021A0012300901A461946B3
:1021E000604601F0DBFF04EB440106EBC101002077
:1021F0000876B968B06888474846BDE8F88304EBBC
:10220000440106EBC10101200876D9E71DA0012396
:1022100000901A461946604601F0C0FFB968B068E0
:1022200088474846E9E704EB440006EBC0002978FC
:1022300041762979C1761830C8F80000F068401C52
:10224000F06003CDFFF7BAFEB968B0688847002098
:10225000D3E70000D87B0020CC1600205B417069DA
:10226000204770696F5D2047706F2043746C204970
:102270006E6974205661756C65204572726F7221AB
:102280000A0000005B417069204770696F5D20475C
:10229000706F2043746C20496E6974204572726FB0
:1022A000722C204E6F205370616365210A0000007C
:1022B00070B504461D4DA07804F11006296D002864
:1022C00011D0012831D130468847A16888422CD3EB
:1022D0000020A070E1786078FFF770FE3046E96C6E
:1022E000BDE870400847606800281ED03046884727
:1022F000E168884219D30120A0706068002801DDE0
:10230000401E6060E078012801D028B108E06078C4
:102310000021FFF753FE03E060780121FFF74EFE36
:102320003046E96CBDE87040084770BDCC1600200F
:102330002DE9FC410446194E032C0CD318A00123AF
:10234000CDE900041A461946980501F027FF4FF021
:10235000FF30BDE8FC81114D1E4F083D00217A6819
:10236000286890474FF47A7300224FF4806130461A
:1023700009F0E3F80146234617A2686808F0C6FE94
:10238000002040F213114C43174901EBC401C1F87E
:102390008408B968286888470020DAE7B0A60020DA
:1023A0005B417069204C74655D206572726F7220AC
:1023B000706172616D73206F662074637020636C4E
:1023C00069656E7420656E747279205B25755D2079
:1023D000210D0A00CC16002041542B5149434C4F8B
:1023E00053453D25750D0A00D88C002010B58AB0E4
:1023F000002109AA03230591CDE907320691332371
:10240000094CCDE901434FF40072CDE903210A21C3
:1024100000910346D0F8902804A104F5006004F070
:102420006DF80AB010BD0000D4AB002041545F43EA
:102430004C49454E545F4C54455F5441534B00004A
:1024400010B5036840F2131253430C4A02EBC30366
:10245000D3F88C380B60036840F21314634302EB2B
:10246000C303D3F890384B6000682346584302EB0F
:10247000C000D0F89408886010BD0000D88C0020FF
:102480002DE9FE430026029600252C4F02A8F96F85
:10249000884741F6FC612A48FDF765FFDFF8A48014
:1024A000681EC8F8E40D284828A1CDE900100123D2
:1024B00000220321980501F071FE0298407900285E
:1024C0003AD03A6808F51D6125A09047DFF8709072
:1024D00040F21310684309EBC00404F1700002F0ED
:1024E0009FFF04F6840466602660A660E6602661AD
:1024F0006D1C032DECDB1C4847F8BC0F1B487860B3
:102500001B48B8601B48F8601B4838611B4878615D
:102510001B48B861062008F0D7FAC8F8D409FFF7BD
:1025200065FF00F031F805221649D8F8D40908F003
:10253000CFFE0020BDE8FE830020FBE7CC16002084
:10254000D88C0020D89C0020AB9E02085B417069AB
:10255000204C74655D20456E7465722025730A00F9
:102560004170695F4C74650099280108DD250108F8
:10257000E12801080D280108312301084124010840
:10258000A9280108C410002000B58BB000200AA9BA
:1025900003220590CDE9072106903322084BCDE9AF
:1025A00001324FF40071CDE903100A20009000239E
:1025B000044A05A1084803F0A1FF0BB000BD0000CC
:1025C00094B40020792702084C54455F4E45545F6F
:1025D0005441534B0000000094BC00202DE9FE4FF5
:1025E00006468A4600254D4C4D494EA2D4F8900E21
:1025F000CDE90021401C02904FF4800B0123002202
:102600000321584601F0CAFDDFF83481D4F8D0091F
:102610000021D8F804209047A4F580574FF0FF39E7
:1026200040F21310684307EBC000D0F8840860B193
:102630006D1C032DF4DBD8F80810D4F8D0098847B6
:10264000032D61D00020BDE8FE8FB6F86600A0F52E
:10265000B441A53942D004F5696440F213112068F1
:10266000484307EBC0007021FDF77DFEF078B1789C
:10267000CDE90010206840F2131148437378327896
:1026800007EBC0002FA107F04DFD206840F21312A8
:10269000504307EBC000B6F86410A0F8641020683F
:1026A000B16E504307EBC00081662068F16E504365
:1026B00007EBC000A4F56964C166D4F8900E40F23F
:1026C0001311484307EBC000C0F88498CAF80050C3
:1026D000D4F8900E401CC4F8900EACE7D4F8900EDD
:1026E00040F21311484307EBC0007021FDF73BFE99
:1026F000D4F8900E40F21311484307EBC00070224B
:102700003146FDF717FED8E711A0012300901A46C5
:102710001946584601F042FD484694E7D89C0020EF
:102720008D9E02085B417069204C74655D202573A5
:1027300020636C69656E74206E756D2025750A00C6
:10274000CC16002025752E25752E25752E25750095
:102750005B417069204C74655D2063616E206E6F13
:10276000742066696E642069646C652074637020EF
:10277000636C69656E7420656E74727920210D0A30
:10278000000000001CB5094809A1CDE90010012393
:1027900000220321980501F001FD0A480021D0F82C
:1027A00094200420904700201CBD00007B9E02085E
:1027B0005B417069204C74655D20456E74657220C4
:1027C00025730A00CC1600201CB5094809A1CDE9E3
:1027D0000010012300220321980501F0DFFC0A48C4
:1027E0000121D0F894200420904700201CBD000057
:1027F0006A9E02085B417069204C74655D20456EDD
:102800007465722025730A00CC1600207CB505463D
:1028100000242868006803280AD311A1CDE900101C
:1028200001231A461946980501F0B8FC601E7CBDCC
:10283000184E0EE0E86840F213120119286800688B
:10284000504306EBC000703002F0F0FD401C03D096
:10285000641C6868A042EDDCAC6020467CBD0000D2
:102860005B417069204C74655D206572726F7220E7
:10287000706172616D73206F662074637020636C89
:1028800069656E7420656E747279205B25755D20B4
:10289000210D0A00D88C002002484FF0FF31C0F80B
:1028A000E41D7047D89C002070B50C460B4A82F896
:1028B000940E012810D102F6956040F2345105467D
:1028C000FDF751FD2046FDF781FD024621462846D1
:1028D000BDE87040FDF72EBD70BD0000D89C002003
:1028E0002DE9F04F89B004467C4F142104A8FDF770
:1028F0003AFD7B487BA1CDE900104FF4800801230D
:1029000000220321404601F049FC20684FF0FF36C9
:10291000006803280CD378A1CDE9001001231A46E2
:102920001946404601F03AFC304609B0BDE8F08F48
:102930007E4DD5F8E41D491C54D040F2131141439B
:10294000A5F5805909EBC101D1F88418491C49D07B
:102950006168002903DD40F2B452914209DD74A29E
:10296000CDE90020012302911A461946404601F0A4
:1029700015FCDFF8F0A1D5F8D0090021DAF8042021
:1029800090474FF4806BC82300225946384608F020
:10299000D4FD07463E21D5F8D40908F065FC6068EF
:1029A0000090206870A239460368D5F8D40908F071
:1029B000ADFB002821D00021D5F8D40908F054FC43
:1029C00020686EA1012300681A46CDE9001019465F
:1029D000404601F0E3FBDAF80810D5F8D009884743
:1029E0003046A2E76EA1CDE9001001231A46194630
:1029F000404601F0D3FB304697E70021D5F8D409D3
:102A000008F032FCD4E90121D5F8D40908F056FACF
:102A1000DAF860100A208847C82300225946384651
:102A200008F08BFD07460020009020684EA2394632
:102A30000368D5F8D40908F069FB0028CBD164A15C
:102A4000384608F041FD0028C5D006A805A9CDE903
:102A5000001004AB60A265A1384608F05FFD401C81
:102A60002FD0DDE90401226863A31268CDE90201D9
:102A7000CDE90032012300220321404601F08EFB04
:102A8000DAF80810D5F8D0098847206840F2131208
:102A900004990068504309EBC000C0F88C18206806
:102AA00005990068504309EBC000C0F890182068F1
:102AB00006990068504309EBC000C0F89418002044
:102AC00033E7206856A1012300681A46CDE90010BB
:102AD0001946404601F062FB7DE70000B0A60020E9
:102AE0009D9E02085B417069204C74655D20456EB7
:102AF0007465722025730A005B417069204C74650F
:102B00005D206572726F7220706172616D73206FEB
:102B1000662074637020636C69656E7420656E74E2
:102B20007279205B25755D20210D0A00D89C00205C
:102B30005B417069204C74655D206572726F722014
:102B4000706172616D73206F66207463702D2575DE
:102B50002073656E64206C656E205B25755D202199
:102B60000D0A0000CC16002041542B514953454E0C
:102B7000443D25752C25750D0A0000005B417069E8
:102B8000204C74655D207463702D25752073656E0F
:102B9000642064617461206572726F72210D0A0095
:102BA0005B417069204C74655D207463702D2575E0
:102BB000206C696E6B20686164206E6F7420657391
:102BC0007461626C6973686564210D0A000000001D
:102BD00053454E44204F4B002B514953454E443AE8
:102BE0002025752C25752C25750000002B51495387
:102BF000454E443A000000005B417069204C74650A
:102C00005D207463702D25752073656E64206C657E
:102C10006E2025752061636B20257520210D0A002B
:102C20005B417069204C74655D207463702D25755F
:102C300020736E642064617461206572726F72200B
:102C4000210D0A0001490160002070474C6F0020EF
:102C500070B586B0274828A1CDE9001001235D0298
:102C600000220321284601F099FA00200390052054
:102C7000049003A80590274C274904A8A26E90470A
:102C8000401C4FF0FF3620D0012003902249A26E55
:102C9000083104A89047401C21D0204844F87C0FFC
:102CA0001F4860601F48A0601F48E0601F48206107
:102CB0007C3C00F06BF828B184340020A168884780
:102CC00020688047002006B070BD19A00123009045
:102CD0001A461946284601F061FA3046F3E71FA06C
:102CE000012300901A461946284601F057FA30464B
:102CF000E9E70000499E02085B417069205379733F
:102D000020506172616D5D20456E7465722025737F
:102D10000A000000CC1600203C6F0020452C010862
:102D200075310108E13001088D2D01089D2F010842
:102D30005B4170692053797320506172616D5D2031
:102D4000496E74657220466C617368204F70656EC1
:102D5000206572726F72210A000000005B41706989
:102D60002053797320506172616D5D20496E7465E6
:102D70007220466C6173682042616B204F70656EF3
:102D8000206572726F72210A000000002DE9F04F79
:102D90008DB04FF0FF35554855A1CDE90010012306
:102DA00000220321580201F0F9F95848089040F236
:102DB0004567099700F110060B960DF10808CDF84C
:102DC00030804FF00009CDF80890DFF844A108A842
:102DD000DAF874108847BA1E3146002001F0A4FECC
:102DE000B6F84316A6F1080404F24D6B814239D1BE
:102DF000002508940997CDF82CB0CDF83080CDF897
:102E00000890DAF8741008A88847BA1E59460020BE
:102E100001F08AFE0146BBF8430688420CD1B6F8A1
:102E20004316884208D13BA0012300900322194693
:102E3000580201F0B3F955E00123454800901A46C5
:102E40001946580201F0AAF9049405970696CDF8A0
:102E50001C80CDF8089001200390DAF8701004A8C7
:102E600088473FE001233B485E0200901A4619461E
:102E7000304601F093F908940997CDF82CB0CDF8BD
:102E80003080CDF80890DAF8741008A8884740F22E
:102E900043623149002001F047FEBBF843168142EE
:102EA00018D12E480123009003221946304601F024
:102EB00075F90025154804900597CDF818B0CDF8A0
:102EC0001C80CDF8089001200390DAF8701004A857
:102ED000884707E022A0012300901A461946304691
:102EE00001F05CF90DB02846BDE8F08F009E0208A5
:102EF0005B4170692053797320506172616D5D2070
:102F0000456E7465722025730A0000003C6F002036
:102F1000CC1600205B417069205379732050617298
:102F2000616D5D2053797374656D20436F6E6669C2
:102F3000672047657420537563636573732C205055
:102F40006169722053756363657373210D0A000014
:102F50007C2C0308E42B0308917500202C2C03081B
:102F60005B4170692053797320506172616D5D20FF
:102F700053797374656D20436F6E6669672053687B
:102F800061646F7720536563746F722047657420A6
:102F90004572726F72210D0A000000002DE9FC419C
:102FA0000746394939A2CDE9002101230022032136
:102FB000580201F0F3F83C4C002540F24566D7B9C1
:102FC00031462046FDF7CFF9522004F8AB0F3A20E6
:102FD00060708020A070E570257101206071AB3CAD
:102FE000324833A319680160596841600F2233A148
:102FF0003230FDF79FF9C02004F8990FA8216170C5
:103000002C22A2705823E370FF2323716371A371F4
:10301000E57120726172A2721423E37220736173EE
:10302000A2736420E07341F6CB60208284F87C5068
:103030001E4826A1DC38096801606E21017125A3B4
:10304000643019680160596841602B21017284F86D
:10305000BD5084F8255184F88051207D04F8990CE6
:10306000607D04F8980CA07D04F8970CE07D04F8CE
:10307000960D657002B03246BDE8F0410A4901F292
:103080004560FDF757B900002A9E02085B41706950
:103090002053797320506172616D5D20456E7465B7
:1030A000722025730A0000004C6F00207971002007
:1030B0005374616E646172640000000050303131FD
:1030C00036323234343232303130380061646D6936
:1030D0006E00000048696B31323334352B0000003C
:1030E00010B588B0184819A1CDE9001001230022BD
:1030F0000321580201F052F840F243621A490020BD
:1031000001F012FD1849A1F8430640F24564224639
:10311000A1F24560FDF70EF91448049005941030B3
:10312000069002A807900020029001200390104C06
:1031300004A8216F88470D4808300490216F04A827
:10314000884708B0002010BD179E02085B417069D7
:103150002053797320506172616D5D20456E7465F6
:10316000722025730A000000917500203C6F00203A
:10317000CC160020014901600020704791750020A5
:1031800010B5044600F0DAFD08F0ACFA2046BDE8C0
:10319000104008F019BA0000F0B589B006460F4695
:1031A00015461F4C02A8E26C90470496002005903B
:1031B0008DF819008DF818008DF81A502A463946F6
:1031C0000DF11B00FDF7B6F8164F04A9384608F0BC
:1031D00014FC06464FF4FA7507E03146384608F00D
:1031E0007FFC01280ED0082811D0226D02A890473C
:1031F000A842F2D93146384608F05CFC4FF0FF3067
:1032000009B0F0BD216E012088470020F8E70123B6
:1032100005A000901A461946180400F0BFFFE9E720
:10322000CC160020006400405B43616E5D2063614A
:103230006E302073656E64206572726F72210A00B1
:103240002DE9FC4781460D4616460024F01706EB93
:1032500050704FEAE00820F00700371A1DA04FF425
:10326000803A0090012300220521504600F096FF8D
:103270000AE0285D1AA1CDE9001000231A460521B5
:10328000504600F08BFF641CB442F2DB16A0002312
:1032900000901A460521504600F080FF00240BE004
:1032A00005EBC40108224846FFF776FF18B14FF03E
:1032B000FF30BDE8FC87641C4445F1DB47B102B038
:1032C000FAB205EBC4014846BDE8F047FFF764BF1A
:1032D0000020EEE763616E2073656E643A0A0000B9
:1032E00025303258200000000A000000012010F0B4
:1032F00019BE000010B5094901EB0014208810F038
:1033000041FF41F20E1010F03DFFD4E90232606837
:10331000BDE8104000210AF0E3B900004C14002081
:10332000034901EB0010816840680AF0D2B900003F
:103330004C140020034901EB001081684068816152
:10334000704700009C12002070B505460E4800EB47
:103350000514208810F016FFD4E901030022012192
:103360000AF0BEF9D4E90103022200210AF0DCF9D7
:10337000E06820B12846BDE87040FFF7DBBF284673
:10338000BDE8704000F002B89C120020034901EB38
:103390000010816840688162704700009C12002024
:1033A000034901EB001081684068C162704700006A
:1033B0009C12002006480078002804D0012804D080
:1033C0004FF0FF3070470020704701207047000029
:1033D000EC14002010B541F21C0010F0D3FE10F0E8
:1033E00017FD04F0BBFF22480068A0F54851F039F2
:1033F00002D004F0CFFF14E041F61B5010F004FEA1
:103400001C4C20B941F6195010F0FEFD10B10020FF
:10341000207006E041F61A5010F0F6FD08B10120C8
:10342000207010F06DFD4FF48004204609F0EEFF8F
:1034300000221146204609F0EFFF0022114603202A
:1034400010F088F9204609F0E1FF201310F002FF88
:10345000201210F09FFF042010F0DEFF002011F07A
:1034600033F811F021F8BDE8104000F005B8000075
:1034700050280040EC14002010B58CB0124810F019
:10348000BBFE114C207804F053FF64300690607846
:1034900004F04EFF401E0590A07804F049FF049010
:1034A000207904F045FF0390607904F041FF029019
:1034B000A07904F03DFF019001A8FCF7E7FE0CB0F5
:1034C000A0F5E14010BD000028DF01202DE9F05FEC
:1034D0000446DDF828B0884691469A464FF48005A8
:1034E000284609F093FF032010F029F92E133046E7
:1034F00010F0B0FE2F12384610F032FF10F0B2FF7D
:10350000204604F01EFF1E4C2070404604F019FFB8
:103510006070484604F015FFA070002020615046FE
:1035200004F00FFF2071584604F00BFF60710B98F8
:1035300004F007FFA071204610F09EFE04462846C6
:1035400009F064FF00221146284609F065FF0022B9
:103550001146032010F0FEF8284609F057FF3046C8
:1035600010F078FE384610F015FF042010F054FFDC
:10357000002010F0A9FF10F097FF2046BDE8F09F53
:1035800028DF01202DE9F04790B00F461646C0EB2A
:10359000001101EB410281495418D4F82080A56A3A
:1035A0007F494FF0FF330A5C002A03D0184610B061
:1035B000BDE8F087012E7DD0A5220A544FF40161A9
:1035C0004046FCF7D0FEE08810F0DCFDA08810F04B
:1035D000D9FD2089A41D10F0D5FDA268216960687D
:1035E0000AF045F8E268216960680AF040F8A368CB
:1035F0006068012202210AF073F8A3686068022261
:1036000000210AF091F8E3686068012202210AF0C3
:1036100067F8E3686068A41F022200210AF084F8BA
:10362000206815F0F7FC2068394615F08BFC2068FF
:10363000042115F0ABFD2068082115F0ADFD4FF415
:10364000A06010F0CDF8002294F82400114610F08C
:1036500081F82068534915F06BFD54F8060B15F0FE
:1036600055FD217E60693D2208F04FFC217E606996
:1036700008F011FC00270D9708F11008CDF8248000
:103680000A970B974FF400600E9054F8060C001D3B
:1036900007900C974FF00108CDF820804FF4403987
:1036A000CDF83C9009A91C228A466846FCF742FEE8
:1036B000217E00E023E060694346079A08F0CCFCD5
:1036C000217E606908F0DEFB627E217E606908F081
:1036D000C5FB0022E07F114610F03CF8217E6069B6
:1036E000102208F003FC217E606908F0AEFB54F85C
:1036F000060D402115F0FEFC012E07D04CE02A00FB
:1037000002D05A220A5459E7184650E70E343D2297
:10371000217EE06808F0F9FB217EE06808F0BBFB41
:1037200040200D9005F10C0009900A970B974FF47B
:10373000A0500E9054F80E0C001D0790CDF830806C
:10374000CDF83C9045F6A52028801C2251466846BD
:10375000FCF7F0FD217EE0684346079A08F07CFC08
:10376000217EE06808F085FB627E217EE06808F03B
:1037700075FB0022A07F11460FF0ECFF217EE06870
:10378000102208F0B3FB217EE06808F055FB54F8E6
:103790000E0C002115F0B4FC002008E728A1020857
:1037A000941200201000001070B5C0EB001000EB68
:1037B00040011D480D182C6AA97FD5F81A0001EBAD
:1037C0004102102303EBC2028258D20718D008F03E
:1037D00095FCC0F500606080A088012811D0A08809
:1037E00001280DD9A97FD5F81A0008F025FB286813
:1037F000002115F07FFC6088401CC0F30A00208087
:1038000070BD608821888842FAD3A97FD5F81A0054
:1038100008F012FB2868002115F06CFC6088401C41
:10382000C0F30A00208070BD28A1020870B5C0EB6B
:1038300000121A4902EB42025418256AA27FD4F8FA
:103840001A1002EB4202102303EBC2028958C90787
:1038500022D129886A8891421ED1014610A006F023
:1038600051FC002028806880A880A41C3D22217F74
:10387000A06908F04AFB217FA0694FF4006208F0BC
:1038800037FC217FA06908F0E0FA54F8020CBDE88B
:103890007040402115F02EBC70BD000028A1020828
:1038A000496E646578256420526553746172742092
:1038B000444D41205472616E736D697474696E6712
:1038C000202E2E2E0D0A0000F0B50024C0EB0013B0
:1038D000164D03EB43032B449B6A154D2D5C601E74
:1038E0005A2D21D15D889E88C5F5A0552E444FF4F0
:1038F000A05596FBF5F705FB1766DE80DE881644BB
:10390000AE4211D203F10C060BE0085D9F88B8555A
:103910009888401CB0FBF5F705FB17009880641CE5
:10392000A4B29442F1D30020F0BD000028A1020807
:103930009412002070B5C0EB001000EB400111485C
:103940000D18AC6A0A353D22297F286908F0DDFA96
:10395000297F286908F070FA55F80A0C002115F043
:10396000CFFB6088218908444FF4A051B0FBF1F2ED
:1039700001FB120060800020208145F6A5202080F8
:1039800070BD000028A10208C0EB0010044900EB44
:1039900040000844006A8188491C8180704700000B
:1039A00028A1020870B54FF0FF34C0EB0012104B95
:1039B00002EB42021A44126A13885588AB420CD0BB
:1039C000148802F11003E35C0B701188491C49054F
:1039D00007D01188491C11800024FFF727FF2046DB
:1039E00070BD9188491E918000211180F4E700008C
:1039F00028A102082DE9FC4106460D461746002481
:103A00001BA0CDE900064FF4006801230022052128
:103A1000404600F0C3FB0BE02B5D19A0CDE900038D
:103A200000231A460521404600F0B8FB641CA4B2EE
:103A3000BC42F1D314A0002300901A460521404651
:103A400000F0ACFB1148805D5A2807D002B03A461E
:103A500029463046BDE8F04100F01AB802B03A46B7
:103A600029463046BDE8F0410023FFF72DBF000096
:103A7000756172742025752073656E643A0A0000C2
:103A800025303258200000000A0000009412002067
:103A90002DE9F04107460D461646002405E0295D54
:103AA000384600F007F8641CA4B2B442F7D3BDE86E
:103AB000F081000010B5C0EB001000EB400206489A
:103AC0001418206815F0A2FA2068072115F023FBCE
:103AD0000028F9D010BD000028A1020870B50D46DD
:103AE0001646C0EB0014144904EB44025418A16AB2
:103AF000124A105C5A281ED145F2AA5008800A3496
:103B00003D22217F206908F000FA217F20692B46A1
:103B1000002208F096FA217F2069324608F0E8FA80
:103B2000217F206908F091F954F80A0CBDE8704033
:103B3000802115F0E5BA70BD28A10208941200207A
:103B400002A006F0DFFA01F0ADFE00005B427573E3
:103B50004661756C745F48616E646C65725D0D0AD8
:103B60000000000010B500F0A3F800F005F8BDE873
:103B7000104000F09BB800002DE9F041104E0027E6
:103B800037807780B760F7607761B761376100256C
:103B9000FCF734FB80460024776100F049F800F020
:103BA00059F870690544641CA4B2002CF4D0356146
:103BB0007761B7614046BDE8F041FCF723BB0000E8
:103BC000A816002003490969884201D9401A7047A4
:103BD00000207047A816002010B5FCF70FFB044921
:103BE0004C69FCF70FFB2046BDE81040FFF7EABF29
:103BF000A816002010B5FFF7EFFF0446FCF7FEFA09
:103C0000034A00215161FCF7FDFA204610BD000077
:103C1000A816002010B5FCF7F1FA04498C69FCF7EE
:103C2000F1FA2046BDE81040FFF7CCBFA8160020EF
:103C300010B5074C2088401C20806088002802D1E5
:103C400000F05CF8A0606088401C608010BD00003F
:103C5000A816002010B50A4C6088401E80B2608013
:103C600000280CD100F04AF8E060A168401A6169B0
:103C7000814200D26061A169814200D2A06110BD81
:103C8000A816002010B5FCF7B9FA0446FFF7D0FFDC
:103C90001021054801F0D6FBFFF7DCFF2046BDE808
:103CA0001040FCF7AFBA0000B84F0420FFF7EABF9E
:103CB00002490020486000F009B80000A816002062
:103CC0000149486070470000A816002010B5FFF7B2
:103CD0000DFB08490A6842F080720A60064900221A
:103CE0004A600A6842F001020A60BDE81040FFF72E
:103CF000E7BF0000FCED00E0001000E00148406874
:103D000070470000001000E070B50024074D07E088
:103D10000E5D4640F6B255F8266086EA1020641C17
:103D20009442F5D3002B00D0C04370BD009A020826
:103D3000014804F08DBB000038490120034B0C22E0
:103D40004FF44871A3F1140004F09BBB4C490120CF
:103D50000146014804F09CBB384901200146014856
:103D600004F0B2BB38490120F0B4074618460025DC
:103D70000026002419E04B5DA3F1300CBCF1090FC3
:103D800009D804EB84046400303C1C44FF2C0AD99D
:103D90000020F0BC70472E2B01D00020F9E784559D
:103DA0000024761CF6B26D1CEDB29542E3D3032ECF
:103DB00001D00020EDE7E2B2C27001787F2903D084
:103DC00021B1FF2904D00BE00220E2E70220E0E766
:103DD0004378FF2B04D18378FF2B01D1FF2A05D034
:103DE000012F05D0DF290AD90020D2E70220D0E731
:103DF000FF2A02D0F0BC00F075BF0020C9E7012007
:103E0000C7E7F0B500240025002317E0065DA6F102
:103E10003007092F08D803EB83035B00303B3344A2
:103E2000FF2B09D90020F0BD2E2E01D00020F0BDBF
:103E3000535500236D1CEDB2641CE4B28C42E5D3F3
:103E4000032D01D00020F0BDD8B2D070117821B977
:103E5000537813B9937803B910B1FF2902D009E060
:103E60000020F0BD5378FF2B04D19278FF2A01D1B6
:103E7000FF2803D0DF2903D90020F0BD0020F0BDCA
:103E80000120F0BDFEB507461646002002900190C5
:103E90000090002302AD01A86A46FC5C11F803C043
:103EA00004EA0C04EC5411F803C064EA0C04C45492
:103EB000F45C11F803C004EA0C04D4545B1CDBB2BC
:103EC000042BEAD3042202A96846FCF794FA08B14D
:103ED0000220FEBD042202A93046FCF78CFA98B1FC
:103EE000042201A93046FCF786FA78B1042202A91F
:103EF0003846FCF780FA58B1042201A93846FCF78D
:103F00007AFA38B10120FEBD0320FEBD0420FEBDBB
:103F10000520FEBD0620FEBDF0B5002300240025CF
:103F200000261FE0C25CA2F120070F2F08D91A3F1C
:103F3000062F05D9213F052F02D9203F032F01D895
:103F400001240DE0A2F13007092F01D8012507E077
:103F5000A2F14106192E02D9613A192A09D801267F
:103F60005B1CDBB28B42DDD334B12DB126B1002016
:103F7000F0BD4FF0FF30F0BD6FF00100F0BDFCF779
:103F80003DB910B5FCF73EF9002010BD08B56846F4
:103F900002F002F8BDF8000008BD08B5684602F05E
:103FA00021F8BDF8000008BD064805490162064930
:103FB0004162064981620649C162002070470000E3
:103FC0008D3F0108CC1600209B3F01087F3F010870
:103FD000833F010810B506240748202290F83411C9
:103FE000D0F8280107F0ACFF002804D02046BDE837
:103FF0001040FFF79FBC10BD28A1020810B5084C67
:1040000020220121204607F09BFF10B10220FFF77C
:10401000BBFC20463D22BDE81040012107F075BFE2
:104020000060024010B5084C20220221204607F013
:1040300087FF10B10320FFF7A7FC20463D22BDE813
:104040001040022107F061BF0060024010B5084C2B
:1040500020220321204607F073FF10B10520FFF74F
:1040600093FC20463D22BDE81040032107F04DBFE0
:104070000060024010B503240748202290F8AD10DC
:10408000D0F8A10007F05CFF002804D02046BDE86E
:104090001040FFF74FBC10BD28A1020810B5084C16
:1040A00020220521204607F04BFF10B10120FFF729
:1040B0006BFC20463D22BDE81040052107F025BFDE
:1040C0000060024010B5084C20220621204607F06F
:1040D00037FF10B10620FFF757FC20463D22BDE810
:1040E0001040062107F011BF0060024010B5084CD7
:1040F00020220121204607F023FF10B10420FFF702
:1041000043FC20463D22BDE81040012107F0FDBEE2
:104110000064024010B5084C20220221204607F01E
:104120000FFF10B10020FFF72FFC20463D22BDE815
:104130001040022107F0E9BE0064024010B50424DB
:104140000748202290F8DA10D0F8CE0007F0F8FEE9
:10415000002804D02046BDE81040FFF7EBBB10BD9F
:1041600028A1020810B5002406482022017B00681F
:1041700007F0E6FE002804D02046BDE81040FFF717
:10418000D9BB10BD42A1020810B501224FF4E131A4
:104190000020FFF7F7F9002010BD00000FB42DE953
:1041A000F04F8FB01E464FF00009CDF83090CDF89B
:1041B0003490CDF8389000240025D4480DF17408CF
:1041C000007800287CD1D24818998068084277D0BE
:1041D000D04919980978884272D8CF4F40F2DC5103
:1041E0003888C0F5A05088426AD3DFF830A3DAF8E7
:1041F0002000804738887988884203D1A7F8029048
:10420000A7F80090DFF818B39BF8000038B9388899
:10421000C4A13844001D05F085FF84B22546012065
:104220008BF80000BD48816C08A88847089800F505
:10423000E1400B900BA8FCF775FA4269642102F289
:104240006C7292FBF1F303F0FF0A8DF830A092FB41
:10425000F1F301FB132101F0FF0B8DF831B0017C6C
:10426000491CC9B28DF83210027B8DF83320D0F88A
:1042700008C018239CFBF3FE03FB1EC3DBB28DF8C2
:10428000343090F804C08DF835C000788DF83600D1
:10429000DDF868E0BEF1010F7ED0BEF1020F7CD0E8
:1042A000BEF1030F7AD086B1099C8DE80E10CDE9DE
:1042B000040438885B46C119281D0844524600E0B2
:1042C00020E099A105F02EFF84B2281984B242465D
:1042D0003888C119201D08441C9905F051FFCDF8FC
:1042E0002890204484B238881B22C119201D08441C
:1042F00097A105F017FF2044398808443880874883
:10430000406A80478248189942680A425FD0007824
:10431000199981425BD8814C206A8047A16C08A81A
:104320008847089800F5E1400B900BA8FCF7FAF9D4
:104330004269642102F26C7292FBF1F3DFB28DF8F4
:10434000307092FBF1F301FB132101F0FF0C8DF8AB
:1043500031C0017C491CCDB28DF83250017B8DF803
:1043600033108368182293FBF2FA02FB1A32D2B29E
:104370008DF8342003798DF8353000788DF83600CB
:10438000DDF868A0BAF1010F72D0BAF1020F70D057
:10439000BAF1030F6ED002E01EE03BE058E056B1E8
:1043A000099ECDE903068DE80E002B46624639468C
:1043B0005DA005F0A7FE41461C9805F0C7FECDF8AC
:1043C00028901B2162A005F09DFE606A80470FB017
:1043D000BDE8F00F5DF814FB96B1099CCDE9033CF4
:1043E000CDE900B1CDE90504029238885346C119E0
:1043F000281D08441B2259A105F094FE84B264E7ED
:1044000038881B22C119281D084460A105F08AFEC6
:1044100084B25AE796B1099CCDE9033CCDE900B1DD
:10442000CDE90504029238885346C119281D084475
:104430001B2259A105F076FE84B246E738881B227C
:10444000C119281D084460A105F06CFE84B23CE748
:10445000B6B1099CCDE9033CCDE900B1CDE9050435
:10446000029238885346C119281D08441B2202E0D5
:1044700010E023E036E057A105F054FE84B224E7B3
:1044800038881B22C119281D08445EA105F04AFE88
:1044900084B21AE76EB1099ECDE90223CDE9040684
:1044A000CDE9005163463A461B212CA005F02AFEB7
:1044B00081E71B2135A005F025FE7CE76EB1099E42
:1044C000CDE90223CDE90406CDE9005163463A4621
:1044D0001B2131A005F016FE6DE71B213AA005F067
:1044E00011FE68E76EB1099ECDE90223CDE904060D
:1044F000CDE9005163463A461B2136A005F002FE85
:1045000059E71B213FA005F0FDFD54E76E10002088
:104510000C1500206F10002020C80010CC160020C1
:104520006D1000200D0A0000253032642530326401
:104530002D253032642D2530326420253032643A06
:10454000253032643A253032643A25303364200015
:1045500025635B303B33376D0000000025635B3122
:104560003B33316D25303264253032642D253032B5
:10457000642D2530326420253032643A253032648F
:104580003A253032643A25303364200025635B31AC
:104590003B33316D0000000025635B313B33336DED
:1045A00025303264253032642D253032642D25309B
:1045B000326420253032643A253032643A25303274
:1045C000643A25303364200025635B313B33336D1F
:1045D0000000000025635B313B33326D25303264CF
:1045E000253032642D253032642D2530326420256B
:1045F0003032643A253032643A253032643A25301C
:104600003364200025635B313B33326D00000000D2
:10461000024801884088081A7047000020C800102E
:104620002DE9F0414FF480641F4E3068002839D0E6
:10463000007E042836D11D4D1D4FA04630E028884D
:1046400069884446401AA04200DA84B244B3386A0A
:10465000804716486988001D0144012322463068BE
:1046600011F0FFFFA0B131681248B1F8662005F0E3
:1046700049FD306820B110F097FE306810F032F834
:1046800000206880288030600B4908700B498860E2
:10469000688820446880306810F086FE786A804719
:1046A0004445CCD0BDE8F0818810002020C800101F
:1046B000CC160020A03203086F1000200C1500203B
:1046C00070B50024194D285D5A2829D1C4EB041077
:1046D000174900EB40000844806A0188A1F5B44204
:1046E000A53A1DD141888288914219D0818842889B
:1046F000914204D981884288891A018103E0418866
:10470000C1F5A051018101894289914201D90189F4
:104710004181028941880C300144E0B2FFF7DEF9A3
:10472000641C072CCFD3002070BD00009412002021
:1047300028A10208F0B589B0284DA86A8047284909
:104740000C68E96A8847274800900123002203216A
:104750000220FFF723FD24A0009001230022032163
:104760000220FFF71BFD2CA0009001230022032153
:104770000220FFF713FD25E034F8880FFBF785FFD3
:104780003149FBF744FFFBF785FFD4E90823642692
:10479000D7185643B6FBF7F654F8687CCDE90717EF
:1047A000069014F8510C01A94DC128A000900123D6
:1047B000002203210220FFF7F1FCA86A8047246B46
:1047C000E96A8847002CD7D12B48009001230022AA
:1047D00003210220FFF7E2FC09B0F0BDCC16002057
:1047E00060160020682F030820D3C5CFC8BCB620B0
:1047F000CAB9D3C3D5BB20CAA3D3E0D5BB20B0D997
:10480000B7D6B1C820C0FBD3C3C2CA202020C8CEAF
:10481000CEF1C3FB0D0A000020205072696F2020EA
:104820002055736564202046726565202020506500
:1048300072202020204350552020202020546173D6
:104840006B6E616D650D0A000000C84220202025B6
:104850003264202025356420202535642020202541
:10486000303264252520202025352E32662525204E
:10487000202025730D0A0000242F030810B54FF4E3
:104880008064204608F008FE2046BDE8104008F08D
:10489000FDBD00007CB50546044C6846E16C8847C8
:1048A000216D68468847A842FAD97CBDCC16002005
:1048B00010B50720FEF76AFD6420FFF7EBFF072025
:1048C000FEF738FDBDE810406420FFF7E3BF0000AD
:1048D00070B504460D4608F043FED32008F0ECFD09
:1048E000204600F041F90446284600F03DF906460E
:1048F000084D09E055F8240008F0F2FD18B108F061
:10490000E1FD012070BD641CB442F3D908F0DAFD6A
:10491000002070BD1812002010B508F021FEBDE87F
:104920001040D32008F0C8BD30B50023074C07E085
:1049300005682D6841F8235005682D1D05605B1C36
:10494000934202D20568A542F2D930BDFBFF1F0891
:104950002DE9F04105460E461746002408F000FEFA
:10496000D32008F0A9FDDFF8488018E056F824109D
:10497000286808F007FE20B108F0A4FD0120BDE87A
:10498000F081286856F824100068884203D008F0A7
:1049900099FD0220F3E72868001D2860641CBC42D2
:1049A00002D228684045E1D908F08CFD0020E6E7F6
:1049B000FBFF1F0870B50546224C207862789042B4
:1049C0003ED0A0780A230146401CB0FBF3F603FB5F
:1049D0001606964201D0914216D101EBC10000EBC0
:1049E000011004EB4000C01CFBF7F0FC0246A0786D
:1049F00000EBC00101EB001004EB4001C91C28468C
:104A0000FBF798FCFF2070BDB0FBF3F103FB110036
:104A1000A07000EBC00101EB001004EB4000C01CD3
:104A2000FBF7D4FC0246A07800EBC00101EB0010BC
:104A300004EB4001C91C2846FBF77CFC012070BD3B
:104A4000002070BD426D002070B505461F4C2178D6
:104A50006078814237D0A078814216D100EBC00146
:104A600001EB001004EB4000C01CFBF7AFFC02465A
:104A7000A07800EBC00101EB001004EB4001C91C61
:104A80002846FBF757FCFF2070BDC8B1401EA07040
:104A9000A07800EBC00101EB001004EB4000C01C4B
:104AA000FBF794FC0246A07800EBC00101EB00107C
:104AB00004EB4001C91C2846FBF73CFC012070BDFB
:104AC0000920A070E4E7002070BD0000426D0020C6
:104AD0002DE9FC4706460F46904699460024354688
:104AE00006E028194A464146FBF79BFC30B1641C9E
:104AF000BC42F6D34FF0FF30BDE8FC8705A0CDE9FE
:104B000000060123032219462020FFF747FB204619
:104B1000F2E7000046696E645F626F756E646172F1
:104B2000792025730D0A00002DE9F04100244FF68D
:104B3000FF7741F2210C12E000230E5D00F40048E3
:104B400006FA03F505F0800585EA182507EA400016
:104B50000DB180EA0C005B1C082BEFDB641C944257
:104B6000EADBBDE8F081000010B501460020A1F1AC
:104B700000624FF480439A4204D345480844984267
:104B800001D2012010BD43480844984201D20220BE
:104B900010BD41480844984201D2032010BD3F484F
:104BA0004FF480340844A04201D2042010BD3C4898
:104BB0004FF400320844904201D2052010BD39481C
:104BC0000844904201D2062010BD37480844904264
:104BD00001D2072010BD35480844904201D2082078
:104BE00010BD33480844904201D2092010BD31481D
:104BF0000844904201D20A2010BD2F480844904238
:104C000001D20B2010BDA1F10160984201D20C200D
:104C100010BD2A480844984201D20D2010BD2848F2
:104C20000844984201D20E2010BD264808449842FC
:104C300001D20F2010BD24480844A04201D2102008
:104C400010BD22480844904201D2112010BD2048D6
:104C50000844904201D2122010BD1E4808449042E0
:104C600001D2132010BD1C480844904201D21420E8
:104C700010BD1A480844904201D2152010BD1848B2
:104C80000844904201D2162010BD172010BD00002C
:104C900000C0FFF70080FFF70040FFF70000FFF7BC
:104CA0000000FEF70000FCF70000FAF70000F8F73C
:104CB0000000F6F70000F4F70000F2F700C0EFF78D
:104CC0000080EFF70040EFF70000EFF70000EEF78D
:104CD0000000ECF70000EAF70000E8F70000E6F754
:104CE0000000E4F7002102781202437813431B020C
:104CF00082781A431202C078104302E04008491C2F
:104D0000C9B2C207FAD000B121B9002070474008EB
:104D1000491CC9B2C207FAD108B9202901D0002024
:104D20007047012070470000AEB000242C9400F0C2
:104D3000ADFB524D01210220D5F894209047E96F38
:104D40002CA888474E484FF47A710068B0FBF1F008
:104D5000401EB0F1807F08D24FF0E0214861494AFF
:104D6000F02010708C6107200861FEF7FBFE2DA873
:104D700001F05AFB0327CDE906472DAE05944FF409
:104D800080700896CDE9030419213F4ACDE901213D
:104D90000920009000233D4A3DA1404801F0AEFBB0
:104DA000CDE9064705944FF400710896CDE9031448
:104DB00033223B48CDE901020B2000903748002305
:104DC000384A39A1C03001F099FB03F029FF4FF4B4
:104DD000FA6A296E5046884728A804F097FF2AA847
:104DE00004F0BCFF2AAF0DF128084FF064094FF022
:104DF00080462AA800F076FD00280ADA2A982EA11B
:104E0000CDE9001001231A4619463046FFF7C6F9CE
:104E100009E02A982FA1CDE90010012303221946A9
:104E20003046FFF7BBF9296EC8208847CDF890902F
:104E3000CDF898802397D5F8C81023A88847002874
:104E400018DD00240BE0269829A10023005D1A46F6
:104E5000CDE9001001213046FFF7A0F9641C259828
:104E6000A042F0DC24A0002300901A460121304625
:104E7000FFF794F9296E50468847BAE7CC16002010
:104E8000D015002023ED00E0A41B0020898A010832
:104E90005359535F53544154450000006428002087
:104EA000A41F0020295901084E45545F504552491E
:104EB0004F444943000000005B4150505D20666450
:104EC0002025752C2073656E64206572726F720ADE
:104ED000000000005B4150505D2066642025752C69
:104EE0002073656E6420737563636573730A0000D5
:104EF00025303258200000000D0A00002DE9F04155
:104F00000646314C0A2560780930B0FBF5F105FB07
:104F1000110000EBC00101EB001004EB4000C01CCD
:104F2000FBF754FA07463046FBF750FA874214D194
:104F30003046FBF74BFA024660780930B0FBF5F1DA
:104F400005FB110000EBC00101EB001004EB400079
:104F5000C01C3146FBF74FFA90B36078401CB0FBA1
:104F6000F5F105FB11012078814210D100EBC00161
:104F700001EB001004EB4000C01C3221FBF7F3F9F9
:104F80002078401CB0FBF5F105FB11002070304685
:104F9000FBF71CFA0246607800EBC00101EB001041
:104FA00004EB4000C01C3146FBF7C4F96078401C9C
:104FB000B0FBF5F105FB11006070A070BDE8F08159
:104FC000FFE76078A070F9E7426D00207CB50446E9
:104FD000601C4FF0FF311DD0104E06EB4415686881
:104FE000D0B10FA0CDE90004012302221946802090
:104FF000FFF7D4F8A96909B120468847154C3068F5
:1050000000216268904700206860A1683068884786
:1050100000207CBD08467CBD08467CBD24C600201F
:105020005B494E544552464143455D2073657420AB
:10503000696E665F666420257520746F2069646CF4
:10504000652C206265636175736520636C6F7365A1
:105050000A000000CC1600202DE9FC41002418486D
:1050600018A1CDE900100123002203218020FFF7C1
:1050700095F81A4E06EB44156868D0B1A96909B1D4
:1050800020468847296909B120468847144F30686F
:1050900000217A68904713A0CDE900040123022281
:1050A00019468020FFF77AF800206860B9683068F8
:1050B0008847641C142CDDDB0020BDE8FC81000067
:1050C000E19E02085B494E544552464143455D20EE
:1050D000456E7465722025730A00000024C6002006
:1050E000CC1600205B494E544552464143455D2055
:1050F00073657420696E665F666420257520746F21
:105100002069646C652C2062656361757365206439
:1051100065696E69740A000010B54FF421710A4880
:10512000FBF721F9094C084909A0226890470B4870
:10513000A0660B48E0660B4820670B4860670B4889
:10514000A067002010BD000024C60020CC1600205F
:10515000496E7465726661636500000071510108F3
:10516000CD4F0108A15301085D53010859500108B2
:105170002DE9F04F85B0064688460024A246CDF8BA
:1051800010A0601EC8F80000444845A1CDE90010F9
:105190000123002203218020FFF700F8DFF81C9193
:1051A000454F0021D9F804203868904707EB441098
:1051B000406840B1641C142CF8DB142C08D0404D1E
:1051C000DFF800B121E007EB441101204860F4E76B
:1051D0003DA0012300901A4619468020FEF7DEFF0D
:1051E000D9F80810386888474FF0FF3005B0BDE89F
:1051F000F08F28683168884206D107EB441084603C
:105200006968001D884702E008355D45F1D35D45BA
:1052100014D1306839A1CDE9001001231A4619468E
:105220008020FEF7BBFF07EB4410C0F804A0D9F8BC
:105230000810386888474FF0FF30D7E707EB441570
:105240006A69DAB104A970689047401C1CD00498C0
:10525000E860C8F80040C8F80400CDE9018435A131
:10526000012300910390032219468020FEF796FF48
:10527000D9F80810386888470020B7E7D9F808102F
:10528000386888470020B1E7C5F804A0D9F80810AD
:10529000386888474FF0FF30A8E70000D29E020828
:1052A0005B494E544552464143455D20456E746509
:1052B000722025730A00000024C60020CC160020AE
:1052C00094330308D43303085B494E544552464196
:1052D00043455D2063616E206E6F742066696E6465
:1052E0002069646C6520696E74657266616365200F
:1052F0006F707320656E747279210A005B494E5499
:105300004552464143455D2063616E206E6F7420B7
:1053100066696E6420696E697420656E74727920A6
:10532000666F7220696E74657266616365202564BC
:105330000A0000005B494E544552464143455D20FA
:105340006F70656E20737563636573732C2066647C
:105350002025705B25752025705D0A0030B401683A
:105360004FF0FF350A68531C09D00C4B03EB421277
:10537000146A84B1546874B14C681CB104E02846C6
:1053800030BC7047D2684A600168096803EB41117C
:10539000096A30BC08472846F2E7000024C600200E
:1053A0007CB502684FF0FF3511684B1C09D0114CD9
:1053B00004EB4113DE698EB15E687EB1516811B1B4
:1053C00003E028467CBDD96851600168096804EB98
:1053D0004111C96902B0BDE87040084706A0012329
:1053E000CDE900011A4619468020FEF7D7FE28466F
:1053F0007CBD000024C600205B494E544552464106
:1054000043455D20696E665F6664202575202D3EEC
:1054100020777269746520657272210A00000000AD
:10542000012200F11403D10203F02BB803F030B8CD
:1054300003F04AB810B507F029FCBDE810400DF0A4
:10544000EDBD70470A460021AFF3008010B5002380
:1054500000241B020B43641C042CFAD300F0030449
:1054600024B909E000F8011B521E641C22B1042C6F
:10547000F8D301E008C0121F042AFBD202E000F8B2
:10548000011B521E002AFAD110BD000070B5054C58
:10549000054D03E0206800B18047241DAC42F9D3DC
:1054A00070BD0000DC330308083403082DE9FE4F0B
:1054B00006460F46904699460024204D05EB041001
:1054C000007818B1641CE4B2142CF7D31C484FF4D4
:1054D000805C4FF0FF3A142C25D0C6B1DFF864A0F1
:1054E000DAF82000804705EB041500202860EE6004
:1054F000A870E870C5F808806F60C9F80040012006
:105500002870DAF8240080470020BDE8FE8FCDE93E
:1055100001060DA1012300911A4619466046FEF7C7
:105520003DFE5046F1E714A1CDE9001001231A46D3
:1055300019466046FEF732FE5046E6E7E4C4002016
:10554000C39E0208CC1600205B5359535D2025737F
:105550002063616E206E6F742063726561746520D4
:105560006D6F6E69746F722C206E6F206E616D6549
:10557000202121210D0A00005B5359535D20257322
:105580002063616E206E6F742063726561746520A4
:105590006D6F6E69746F722C206E6F207370616313
:1055A00065202121210D0A0070B5094901EB001485
:1055B000207801280AD1074D286A80470020206002
:1055C0006060A060E0602070686A8047002070BD65
:1055D000E4C40020CC1600201CB54FF0FF34142882
:1055E0000ADB0CA1CDE9001001231A461946180365
:1055F000FEF7D4FD20461CBD0F4B03EB00100378D3
:10560000012B01D020461CBD4160C2700121817078
:1056100000201CBD5B5359535D20696E6465782082
:105620002575206F766572204E554D5F4D4F4E4962
:10563000544F5253210D0A00E4C400201CB54FF012
:10564000FF3414280ADB0BA1CDE9001001231A4610
:1056500019461803FEF7A2FD20461CBD0E4901EBBA
:1056600000100178012901D020461CBD0021817065
:1056700000201CBD5B5359535D20696E6465782022
:105680002575206F766572204E554D5F4D4F4E4902
:10569000544F5253210D0A00E4C4002010B54FF4BA
:1056A000A0710848FAF75FFE0848074901630849F6
:1056B000C1630849416308498163084901640020C6
:1056C00010BD0000E4C40020AD540108CC16002039
:1056D000A9550108D95501083D560108E1560108B0
:1056E0007FB50546002400200F4E06EB04110A7812
:1056F000012A13D14A688B68AA1A9A420ED3C87835
:10570000C9680AA3CDE90031CDE9020201231A4696
:1057100019461803FEF742FD4FF0FF30641C142CAD
:10572000E3DB04B070BD0000E4C400205B535953B8
:105730005D202573207461736B2074696D656F75CE
:105740007420617420737465702025752074696DF0
:1057500065722025750D0A00F8B50E460024164D19
:1057600004EB840101EBC40115F8211019B1641C8C
:10577000E4B2142CF4D3142C1BD004EB840101EB01
:10578000C40705EB87031B1D01466A46184600F057
:1057900047FABDF8000048B9684600F0FDFB3460E8
:1057A000012005F82700684600F01CFCBDF8000049
:1057B000F8BD4FF0FF30F8BD54BD002038B500EB08
:1057C00080010C4D01EBC00415F82400012801D024
:1057D000002038BDBDF8000040B9684600F0DCFB91
:1057E000002005F82400684600F0FCFBBDF800002E
:1057F00038BD000054BD002010B54FF48261074849
:10580000FAF7B1FD0748064901600749C160074939
:10581000416007498160002010BD000054BD002098
:1058200059570108CC160020BD570108355801080A
:105830006D5801081CB500EB800202EBC0000A4A5B
:1058400012F82030012B02D04FF0FF301CBD01AB0D
:1058500002EB800000930023001D1A4600F00AFAB4
:10586000BDF804001CBD000054BD002008B500EBCD
:10587000800101EBC000094911F82020012A02D063
:105880004FF0FF3008BD01EB8000001D6A4600218B
:1058900000F0A8FABDF8000008BD000054BD0020CB
:1058A00070470000BFF34F8F04480168044A01F4B9
:1058B000E06111430160BFF34F8FFEE70CED00E0A4
:1058C0000400FA05BFF34F8F04480168044A01F44D
:1058D000E06111430160BFF34F8FFEE70CED00E084
:1058E0000400FA0510B58AB00446182207A104A8DE
:1058F000FAF720FD009404A80290172001900948AF
:10590000D0F8C410684688470AB010BD5A55001335
:1059100000000D0111223344000000000000003C93
:10592000B66A6900CC16002086B01F4C6846E16F4D
:105930008847E16C02A88847206A8047FFF77AFD14
:1059400004F098F809F084FE606A8047E16C04A8CE
:1059500088470499256B01AB052214A0A847E16C88
:1059600004A888470499636B012201989847206A2C
:10597000804700F023F8606A8047216D02A88847BD
:10598000642804D8FEF744FEB0F5806F04DBE16CB8
:1059900002A88847FEF744FEA16B01988847216E54
:1059A00002208847DBE70000CC1600207461736B8F
:1059B0005F6E65745F706572696F640010B507F0A3
:1059C00021F908B10DF024FB02480068BDE8104041
:1059D0000DF0F0BADC1100207047000002480068AA
:1059E000002800D000477047F815002010B5044685
:1059F00000F09EF83C48002202703C4802703C488F
:105A000002703C4802603C4802603C4802703C48DE
:105A100002703C4802703C49086840B13B4800684D
:105A200028B1096801E0491E04C00029FBD13848AB
:105A300002603848026038480260384802603848DE
:105A4000026038480260384802603848027001F04D
:105A5000C1FB01F0F7FB204601F0D0F820880028B8
:105A600041D1204601F024F9208800283BD120466E
:105A700001F02AF92088002835D1204601F0D0F91C
:105A8000208800282FD1204601F0D0FB2088002854
:105A900029D1204601F09CFC2088002823D12046F3
:105AA00001F02AFF208800281DD1204601F0CCF803
:105AB0002088002817D1204602F064FA20880028A8
:105AC00011D1204601F00EFE208800280BD120467F
:105AD00002F0B4FA2088002805D101F08DF8BDE865
